:020000040800F2
:1000000000000220817D0008051D0008091D000870
:100010000D1D0008111D0008151D0008000000003E
:10002000000000000000000000000000191D000892
:100030001D1D000800000000211D0008D17D0008E2
:10004000D17D0008D17D0008D17D0008D17D000858
:10005000D17D0008D17D0008D17D0008D17D000848
:10006000D17D0008D17D0008251D0008311D000844
:10007000D17D0008D17D0008D17D0008D17D000828
:10008000411D0008D17D0008D17D0008D17D000808
:10009000D17D0008D17D0008D17D0008D17D000808
:1000A000D17D0008511D0008D17D0008D17D0008D8
:1000B000D17D0008D17D0008D17D0008D17D0008E8
:1000C000D17D0008D17D0008D17D0008D17D0008D8
:1000D000D17D0008611D0008711D0008D17D000858
:1000E000D17D0008D17D0008D17D0008D17D0008B8
:1000F000D17D0008D17D0008D17D0008D17D0008A8
:10010000D17D0008D17D0008D17D0008D17D000897
:10011000D17D0008D17D0008D17D0008D17D000887
:10012000811D0008D17D0008D17D0008911D0008C7
:10013000D17D0008D17D0008D17D0008D17D000867
:10014000D17D0008D17D0008D17D0008A11D0008E7
:10015000D17D0008D17D0008D17D0008D17D000847
:10016000D17D0008D17D0008D17D0008D17D000837
:10017000D17D0008D17D0008D17D0008000000007D
:08018000D17D0008D17D0008CB
:10018800044B05481B1A062B02D9044B03B1184728
:10019800704700BF0F0300200C0300200000000080
:1001A80005490648091A891001EBD171491002D096
:1001B800034B03B1184770470C0300200C030020C1
:1001C8000000000010B5064C237843B9FFF7D8FFAC
:1001D800044B13B10448AFF300800123237010BD12
:1001E8000C030020000000003095000808B5084BFB
:1001F8001BB108480849AFF300800848036813B9E1
:10020800BDE80840CCE7064B002BF9D09847F7E744
:100218000000000030950008100300200C030020A7
:100228000000000010F8012B11F8013B012A28BF3B
:100238009A42F7D0D01A704753B94AB9002908BF73
:1002480000281CBF4FF0FF314FF0FF3000F0F8BF1F
:1002580082B0EC462DE9005000F01EF8DDF804E00D
:1002680002B00CBC704700BF2DE9F041069C154652
:1002780006460F46984600F0E5FF05FB01F300FB34
:100288000838A5FB0023B21A434467EB0303C4E90B
:100298000023BDE8F08100BF2DE9F041069C90469F
:1002A80006460F461D4601F01BF900FB05F5A0FBAD
:1002B800082308FB0155B21A2B4467EB0303C4E972
:1002C8000023BDE8F08100BF03685A004CBF43F02B
:1002D800004323F000431844704700BF2DE9F04F56
:1002E80083B099B34B1E17460546019398460026DE
:1002F80006EB080404EBD47464104FEAC40A05EB57
:100308000A0B5846FFF7E0FF019B8146A3420AF11A
:10031800080028440ED0FFF7D7FFB94500F1FF3099
:1003280004D9B4420CD004F1FF38E1E7B84203D253
:10033800661CDDE7B945F4D8584603B0BDE8F08F30
:100348004FF0000B584603B0BDE8F08F8B46584677
:1003580003B0BDE8F08F00BF012807D0022807D0FE
:10036800044B00280CBF184600207047024870470D
:10037800024870476D0A0008710A0008750A0008EB
:1003880030B5244B83B004468D1E7BB3284601A9A3
:10039800AFF3008020B301992A46FFF79FFF054677
:1003A800F0B1FFF791FF6B68A064012B12D0002B0E
:1003B80005F1040020DBFFF787FF0023E0642365D5
:1003C8000368002B1CDBFFF77FFF00232061184622
:1003D80003B030BD002323610523184603B030BDA8
:1003E800002323610923184603B030BD0A490B488E
:1003F800091AC9100191CFE70123E0642365DFE7FB
:10040800C3F30360FFF7A8FF002820610CBF09238E
:100418000023DCE700000000A0BB000840BA000889
:100428000368DA0710B5044606D49B0700F14800B4
:1004380009D500F085FC2368590709D51A070ED598
:10044800DB0613D510BD00F073FC23685907F5D4FB
:1004580004F1D00000F07CFC23681A07F0D404F5FE
:10046800A87000F07DFC2368DB06EBD404F5E87087
:10047800BDE8104000F0B8BC03680BB118447047E1
:100488001846704709207047704700BF70B504468A
:100498000D4608E02B6C63610120236921462A463A
:1004A8009847082808D12046296CFFF769FF0646B7
:1004B8000028EFD007F089FC0728FBD13046296CCB
:1004C800FFF7E2FF281D00F027FC00BF2DE9F047E9
:1004D8000C1D064617460FCCADF5727D03AD0FC552
:1004E8000FCC0FC50FCC0FC594E80F0002AC4FF02E
:1004F800000ED6F80C80D6F8189085E80F00304624
:10050800216CC4F800E0FFF73BFF002F05460CBF45
:1005180009270A277DB1A36B47F010018DE8100267
:100528000120636432463346C04778BB28460DF540
:10053800727DBDE8F087236C736121464FF4F07239
:100548007AA807F075FC336931467AAA3846984785
:10055800889B82468DE81002394663640120324642
:100568003346C04790B920467AA94FF4F07207F095
:100578005FFCBAF1080F06D13046216CFFF700FF87
:1005880009270546C6E7BAF1070F04D009200DF57B
:10059800727DBDE8F0872846216CFFF775FF03A838
:1005A80000F0BAFB406C7047F0B5CB6B0B640E1DC6
:1005B8000F4604460FCEF9B001AD0FC50FCE0FC5DB
:1005C8000FCE0FC596E80F004FF0FF3685E80F00F5
:1005D800009606E0236921466A469847082805469A
:1005E80008D120461099FFF7CBFE0028F2D0092049
:1005F80079B0F0BD6846FFF713FF062DF7D1204606
:100608003946FFF743FF00BF30B4DD6BC16082613C
:1006180019461D64002230BC58E700BF70B5C66893
:1006280043690B6404460D4626B10122FFF74EFFCD
:1006380007F0CBFB0369214602202A469847072882
:1006480007D0082803D120462946FFF71FFF07F0E7
:10065800BCFB3046296CFFF717FF281D00F05CFB38
:10066800C2681AB1CA6B0A6400222FE79CE700BF70
:10067800704700BF836813B10146012018477047CF
:1006880000B5042907D8DFE801F0030906090900C5
:100698000BB90F2A05D902205DF804FB01205DF88B
:1006A80004FB00EB820218465368019A13605DF858
:1006B80004FB00BF00B585B00A4603AB00210093D8
:1006C8000B46FFF7DDFF039805B05DF804FB00BF9C
:1006D80000B5042907D8DFE801F003090609090075
:1006E8000BB90F2A05D902205DF804FB01205DF83B
:1006F80004FB019900EB82020968516018465DF815
:1007080004FB00BF10B584B004AB0C4643F8042DBD
:100718000021009322460B46FFF7DAFF04B010BD14
:10072800F0B5D36B1364151D07460E460FCDADF516
:100738000F7D17AC0FC40FCD0FC40FCD0FC495E8B4
:100748000F004FF0FF3584E80F00169510E016A84B
:10075800FFF7D8FF314616A8B847694616AA78B9F0
:10076800049B08209847052804460AD0092807D082
:1007780026996846FFF704FE6A460C210028E6D051
:10078800092416A8FFF74CFE20460DF50F7DF0BD95
:100798002DE9F04F0D46C96C8BB00C1D0968079107
:1007A8009046089400F003091E46002B64D1090204
:1007B800032307918DF825608DF824302B6DB9F14E
:1007C800020F08BFAC6B13F0010343D100F008001F
:1007D800C2B2039201932768002F3DD0022E47D062
:1007E8002788B4F802A00434AB6C2AF0010B404609
:1007F8000F219B44FFF75EFF834537D827F001039D
:100808009B4458452CBF002001200AF0010A07F03C
:10081800010747EA4A0ABAF1010F43D03AD3BAF1BD
:10082800020F1FD1236823F000420292B9F1000F92
:100838007BD138B1039A002A00F08380029A002AFB
:1008480000F0A680002B7ADB029B03F1010A04EB7F
:100858008A04C0E700230193022E40DDFFF712FE51
:10086800002842D009200BB0BDE8F08F0020CCE76B
:10087800D4F804A00834B7E7022B9FDC0B0CDFB2D6
:10088800090402228DF8253004EB870407918DF8BE
:10089800242093E7B9F1000F02D0002840F0AD8082
:1008A800043498E7B9F1000F26D1B0B194E80C00F0
:1008B800D70F9A1CD6D005F158020133069200F0E2
:1008C8009280201DFFF7D8FD3A46014606AB284620
:1008D800AFF30080002840F0B58008347BE740463D
:1008E80007A900F01BFB0028BCD1019B002B59D1A4
:1008F80008200BB0BDE8F08F40460D212F6AFFF7A6
:10090800D9FE8742E9D1AB6A9C42E6D12046FFF77F
:10091800DBFC0F2102464046FFF7F4FE40462A461C
:100928000021FFF7EFFE07209DE740460D212F6AC3
:10093800FFF7C0FE874245D02368002B84DA0434D1
:1009480082E7029B23B305F15803059604F1040AD4
:10095800039FDDF808B0CDF810901E4602E0D94597
:100968004F4615D050460696FFF786FD00220146F1
:1009780006AB2846AFF3008007F101090AF1040A23
:100988000028ECD0029BDDF81090059E9F42D3D141
:1009980040460D21FFF78EFE069B2862AC626B6213
:1009A800062060E70F214046FFF784FE0E2102462D
:1009B8004046FFF7A7FE40460F21294AFFF7A2FE4F
:1009C800072050E7AB6A9C42B6D104220027A3183F
:1009D8000299A962EF622A636B632368BB421FDB3B
:1009E8000123019330E740460D21FFF763FE28629B
:1009F800069B6B62AC62062035E72046FFF764FC75
:100A080004340646AC632846AFF3008000283FF460
:100A180029AF404632460F21FFF774FE072022E730
:100A28000846013004EB8000FFF74EFC0F21024618
:100A38004046FFF767FE404639462A46FFF762FE02
:100A4800072010E707460D214046FFF733FE022F27
:100A58002862CDD12B46069A43F82C2F6B62C9E742
:100A680000000000002393E6012391E602238FE6AD
:100A7800F0B50546C5B004290CD8DFE801F05603E7
:100A88000B300E00012B4FEA124496B265D0052BAD
:100A980000F08480022045B0F0BD002BFAD1102A66
:100AA800F8D82B68DC0600F1EB8022AE30460192C4
:100AB80000F0A4F9A86B019A0023012404FA03F1B9
:100AC800114203D0016846F8231004300133042B87
:100AD800F4D1A863304600F087F90020DBE7032B48
:100AE800D8D1140C97B23B19102BD3D82B681E07FA
:100AF80000F1E68022AE30467F0000F053F906EBA5
:100B0800C4027B1EAC6B57B1043A214651F8040B62
:100B180042F8040F013B581CF8D104EB8704304617
:100B2800AC6300F01DF90020B5E7002BB2D1AC6B27
:100B380097B2281D012606FA03F1394203F1010391
:100B480002D0216801600434102B00F10400F2D1B6
:100B580012F4005020D1AC639DE73219102A99D8BD
:100B68000F2C97D82968C8074FF0000755D422A83A
:100B7800019300F0E1F8019B19E008463746012B84
:100B880000F098800F2CA86302D822A800F0D8F8AB
:100B980017B102A800F0DCF800207CE73719202FF5
:100BA8003FF678AF0F2C30D93746002E45D1A96BC8
:100BB8003246002EE1D0002744A84FEA420C00EB51
:100BC800C4000CF1FF328C388E465EF8046B40F896
:100BD800046F013A561CF8D101EB8C00002FCED0DF
:100BE800102C224644A938BF102201EBC202A2F5FC
:100BF800C47201467800043A01EB800051F8046B96
:100C080042F8046F8142F9D1B9E7102F42D92A6816
:100C1800D007A7F11007114610D521F00102052BC6
:100C28002A60019328465BD021F0030140F8481B55
:100C380000F082F8019B002F4AD02A6851075BD444
:100C4800012B63D00F2C04D822A8019300F07CF864
:100C5800019B002FABD002A8019300F07DF8019B07
:100C6800A96BC4F11002002AA6DC102C224644A865
:100C780038BF102200EBC202A2F5C4727800BAE7AE
:100C880023F010032B6005F5E870019200F0B6F828
:100C9800019A0AE72968C8071DD521F001022846EC
:100CA80042F0020240F8482B0193002700F04CF86C
:100CB800019BC9E70430A86322A800F039F86BE764
:100CC80023F008032B6005F5A87000F06BF811E716
:100CD800012B3FF44CAF0F2C98BF0027B4D966E71F
:100CE80042F0020240F8482B00F02EF8019B002F3A
:100CF800AAD02A685107A5D5284622F0040240F850
:100D0800D02B019300F028F8019B99E722A80193C2
:100D180000F012F8019BA3E700F1340191E83800D4
:100D28009C46A6464CF8045D90E8FF0FE54600BDDA
:100D380090EC210B704700BF80EC210B704700BF7F
:100D480090EC200B704700BF80EC200B704700BF71
:100D5800D0EC200B704700BFC0EC200B704700BFE1
:100D6800F0EC0201F0EC0211F0EC0221F0EC02319F
:100D7800F0EC0241F0EC0251F0EC0261F0EC02718F
:100D8800F0EC0281F0EC0291F0EC02A1F0EC02B17F
:100D9800F0EC02C1F0EC02D1F0EC02E1F0EC02F16F
:100DA800704700BFE0EC0201E0EC0211E0EC022128
:100DB800E0EC0231E0EC0241E0EC0251E0EC0261CF
:100DC800E0EC0271E0EC0281E0EC0291E0EC02A1BF
:100DD800E0EC02B1E0EC02C1E0EC02D1E0EC02E1AF
:100DE800E0EC02F1704700BFB0FC0181B0FC01915A
:100DF800B0FC01A1B0FC01B1704700BFA0FC0181AB
:100E0800A0FC0191A0FC01A1A0FC01B1704700BFAA
:100E1800EC4600B52DE900502DE9FF1F4FF0000307
:100E28002DE90C0001A9FFF7BFFBDDF840E012B087
:100E3800704700BFEC4600B52DE900502DE9FF1FB3
:100E48004FF000032DE90C0001A9FFF7E7FBDDF8DF
:100E580040E012B0704700BFEC4600B52DE90050E5
:100E68002DE9FF1F4FF000032DE90C0001A9FFF742
:100E7800F7FBDDF840E012B0704700BFEC4600B564
:100E88002DE900502DE9FF1F4FF000032DE90C005C
:100E980001ABFFF7B9FBDDF840E012B0704700BFC7
:100EA800EC4600B52DE900502DE9FF1F4FF0000377
:100EB8002DE90C0001AAFFF733FCDDF840E012B081
:100EC800704700BF037A1BB9437A43B9B020704713
:100ED8005A1E036802721A020260180E70474268AE
:100EE800013B10B4437213680321141D01721A02E6
:100EF800446002605DF8044B180E704700B585B079
:100F080003AB002100930C220B46FFF7B9FB0398B3
:100F180005B05DF804FB00BFF0E700BF2DE9F04322
:100F2800064685B00D464FF000082846FFF7CAFF71
:100F3800B028044600F0B58020F07F0111F0FF01D1
:100F480020D000F0F003802B7AD0902B36D0A02B45
:100F580049D0B02B5CD0C02B00F0898000F0F8039A
:100F6800D02B0BD100F00702013242F400223046A8
:100F780001210523FFF77CFD0028D6D0092005B004
:100F8800BDE8F0830DF10C090B468700CDF8009001
:100F980030460D22FFF774FBFFB2039BCDF800909B
:100FA800043760064FF000014CBFDF1BFF183046C6
:100FB8000B460D220397FFF78BFBB6E700F00D03F6
:100FC8000D2BDBD003AF002100F00F020B4600977A
:100FD8003046FFF755FB002100970B4630460D229F
:100FE800FFF776FBA1E7C34303F007034FF47F62E3
:100FF8001A41010702F47F624FF0000148BF42F432
:1010080080420B463046FFF733FD0028B6D18CE707
:10101800B1284CD0B2285DD0B32800F08A8000F007
:10102800FC03B42BAAD000F007020132012142F4DC
:1010380000220B463046FFF71BFD00289ED174E7BF
:101048002846FFF73FFF24022043B0F5004F95D014
:1010580004010021A2B20B463046FFF709FD002823
:101068008CD114F4004F18BF4FF001085DE7C62873
:1010780072D0C7287AD000F0F803C02B00F089801E
:10108800C82800F0A580C9287FF478AF2846FFF764
:1010980019FF00F00F02013200F0F00042EA0032BE
:1010A80065E7B8F1000F00F08280002067E7284666
:1010B800FFF708FF024600283FF460AF10F0F00188
:1010C8007FF45CAF30460B46FFF7D2FC00287FF474
:1010D80055AF2AE700210DF10C090D220B46CDF87A
:1010E80000903046FFF7CCFA2846FFF7EBFE0206E1
:1010F8004FF002040CD5039B00F07F00A04003448E
:1011080028460393FFF7DEFE030604F10704F2D432
:10111800039BCDF8009000F07F00A04003F5017319
:1011280000211C180D220B4630460394FFF7D0FA15
:10113800FBE62846FFF7C6FE00F00F02013200F07A
:10114800F000012142EA00320B463046FFF790FCDE
:1011580000287FF413AFE8E62846FFF7B3FE00F057
:101168000F02013200F0F0000321EBE72846FFF7F9
:10117800A9FE024600283FF401AF10F0F0037FF407
:10118800FDAE30460421FFF773FC00287FF4F6AE6D
:10119800CBE600F00F020132032142F420220B4675
:1011A8003046FFF765FC00287FF4E8AEBDE603ACE7
:1011B80041460E22434600943046FFF761FA0094F8
:1011C800304641460F224346FFF782FA4046D6E6AC
:1011D8002846FFF777FE00F0F00200F00F03103208
:1011E800013343EA0232C2E610B5C36C84B05A68D0
:1011F80003208DF80C00DC798DF80D4012020833BD
:10120800084601A901920293FFF788FE04B010BDB9
:1012180008B5FFF781FE806C08BD00BF08B5FFF771
:101228007BFEC36CD87903EB8000083008BD00BF93
:1012380008B506F0CAFD00BF08B506F0C6FD00BF38
:10124800704700BF00292DE9F043C0F2A6800026B0
:10125800002BC0F29C80884694469E46154604465C
:101268000F46002B3DD18A4259D9B2FA82F33BB1DD
:10127800C3F120029F4020FA02F29D4017439C4090
:10128800290C220CB7FBF1FEA8B201FB1E7742EA3B
:10129800074700FB0EF3BB420AD97F190EF1FF3254
:1012A80080F00581BB4240F20281AEF1020E2F446C
:1012B800FF1AA4B2B7FBF1F301FB137744EA07471F
:1012C80000FB03F0B84208D97F1903F1FF3280F020
:1012D800F080B84240F2ED80023B43EA0E43002220
:1012E80003E08B420FD900221346341C18BF012497
:1012F80060424FF0000565EB450158405140001928
:101308006941BDE8F083B3FA83F2002A40F0868091
:101318008B4202D3844500F2DB800123E5E712B952
:101328000123B3FBF2F5B5FA85F000283BD1781B11
:101338004FEA154E1FFA85FC0122B0FBFEF8210C7E
:101348000EFB180741EA07470CFB08F3BB4207D915
:101358007F1908F1FF3102D2BB4200F2BD808846F6
:10136800FF1AA4B2B7FBFEF30EFB137744EA074754
:101378000CFB03FCBC4507D97F1903F1FF3102D2EE
:10138800BC4500F2A7800B4643EA0843ADE752424A
:101398006FEA060663EB43035DE7404261EB4101F8
:1013A8004FF0FF3654E7C0F1200224FA02F107FAA1
:1013B80000F385404FEA154ED7401943B7FBFEF2BC
:1013C8000B0C0EFB12771FFA85FC43EA07430CFB54
:1013D80002F79F4204FA00F407D95B1902F1FF30C3
:1013E80074D29F4272D9023A2B44DF1B89B2B7FBF1
:1013F800FEF80EFB187341EA03430CFB08F79F4203
:1014080008D95B1908F1FF315CD29F425AD9A8F17B
:1014180002082B44D81B48EA02428EE7C2F1200397
:101428002CFA03F10EFA02FE20FA03F741EA0E0E37
:1014380008FA02F028FA03F14FEA1E453843B1FBD7
:10144800F5F8030C05FB18111FFA8EF743EA014162
:1014580007FB08F38B420CFA02FC09D911EB0E01C9
:1014680008F1FF3930D28B422ED9A8F10208714415
:10147800C91A80B2B1FBF5F305FB131140EA01412B
:1014880007FB03F78F4208D911EB0E0103F1FF3078
:1014980016D28F4214D9023B714443EA0843C91B50
:1014A800A3FB0C89494509D305D000221DE79646C0
:1014B800FEE6134611E794404445F6D2013BF4E7B3
:1014C8000346EAE78846A5E7C846D1E702468CE71F
:1014D80013460AE7023B57E7A8F102082F443FE703
:1014E8002DE9F041002B44D18A42154604464FD9D4
:1014F800B2FA82F70E464FB1C7F12003B94020FA7D
:1015080003F602FA07F50E4300FA07F44FEA154E00
:10151800230CB6FBFEF0AFB20EFB106143EA0143A9
:1015280007FB00F1994209D95B1900F1FF3280F0FD
:10153800EC80994240F2E98002382B445A1AA4B24E
:10154800B2FBFEF30EFB132244EA024207FB03F749
:10155800974208D9521903F1FF3180F0D880974299
:1015680040F2D580023B43EA004000263146BDE800
:10157800F0818B4247D8B3FA83F6002E48D18B42CC
:1015880002D3824200F2CD8001203146BDE8F081CD
:1015980012B90125B5FBF2F5B5FA85F8B8F1000FD7
:1015A80077D14A1B4FEA154EAFB20126B2FBFEF0C7
:1015B800230C0EFB102143EA014107FB00F38B4289
:1015C80007D9491900F1FF3202D28B4200F2BA80E2
:1015D8001046C91AA4B2B1FBFEF30EFB131144EA7C
:1015E800014407FB03F7A74208D9641903F1FF3246
:1015F80080F08F80A74240F28C80023B43EA004093
:101608003146BDE8F081002630463146BDE8F0811C
:10161800C6F1200422FA04F5B3402B4320FA04FC57
:1016280001FA06F721FA04F54FEA134E4CEA0707C8
:10163800B5FBFEF8390C0EFB18551FFA83FC41EA7E
:1016480005450CFB08F1A94202FA06F204D9ED1887
:1016580008F1FF3467D3A0466D1ABFB2B5FBFEF49C
:101668000EFB145547EA05410CFB04FC8C4504D9D4
:10167800C91804F1FF355CD32C4644EA0844CCEB86
:101688000101A4FB0223994248D344D020460026F6
:101698006CE7C8F1200401FA08F305FA08F520FA06
:1016A80004F7E1404FEA154E1F43B1FBFEF63A0C32
:1016B8000EFB16111FFA85FC42EA01430CFB06F2E9
:1016C8009A4200FA08F407D95B1906F1FF3137D2BC
:1016D8009A4235D9023E2B449B1ABFB2B3FBFEF0A7
:1016E8000EFB103347EA03430CFB00F1994207D97C
:1016F8005B1900F1FF3221D299421FD902382B44DD
:101708005A1A40EA0646674650E7104616E70B465F
:1017180029E7134672E7B0409042B7D2601E002610
:1017280024E7304622E7A94295D9A8F102081D44CA
:1017380092E78C45A0D9023C19449EE71046DFE7A2
:101748000E46C9E70238294443E700BF2DE9F04FA8
:101758008DB000240794089409940A940B9401947A
:10176800704B1A6B42F010021A631A6B02F01002E7
:101778000192019A02941A6B42F004021A631A6BDE
:1017880002F004020292029A03941A6B42F0800259
:101798001A631A6B02F080020392039A04941A6B7C
:1017A80042F001021A631A6B02F001020492049AD1
:1017B80005941A6B42F002021A631A6B02F00202D5
:1017C8000592059A06941A6B42F008021A631B6B7D
:1017D80003F008030693069BDFF8589148460C214E
:1017E800012201F079FE484647F6A031224601F071
:1017F80073FEDFF84481404648F22001224601F09A
:101808006BFEDFF838A150461021012201F064FE7A
:10181800454F384646F20711224601F05DFE38462C
:101828004FF48051012201F057FE404E30464FF4EC
:101838008061012201F050FE30464FF400412246FB
:1018480001F04AFE47F6AC33079301250895099441
:101858000A94484607A901F053FD40F24143079313
:1018680008940994484607A901F04AFD48F2200364
:101878000793089509940A94404607A901F040FD8A
:10188800079508940994404607A901F039FD4FF0DF
:10189800100BCDF81CB0089509944FF00209CDF84B
:1018A8002890504607A901F02BFDCDF81CB0204B1D
:1018B80008930994404607A901F022FD46F2071350
:1018C8000793089509940A94384607A901F018FD6A
:1018D8004FF48053079308950995CDF8289038461A
:1018E80007A901F00DFD40F2FF230793089409941E
:1018F800304607A901F004FD4FF404430793089507
:1019080009940A94304607A901F0FAFC0A202146F6
:10191800224602F01FF80A2002F04EF80DB0BDE88A
:10192800F08F00BF0038024000040240000C024063
:101938000000311000100240000802400000024080
:1019480010B582B0002400941A4B1A6B42F40012AE
:101958001A631A6B02F400120092009A01941A6B2F
:1019680042F480021A631B6B03F480030193019B0A
:101978000B202146224601F0EDFF0B2002F01CF857
:1019880010202146224601F0E5FF102002F014F84D
:1019980038202146224601F0DDFF382002F00CF8FD
:1019A8003B202146224601F0D5FF3B2002F004F8F7
:1019B80002B010BD0038024008B50948094B036061
:1019C800094B436000238360C3604FF48042026187
:1019D80043618361C361036202F000FB08BD00BF7D
:1019E800A006002000540040A086010008B5094860
:1019F800094B0360094B436000238360C3604FF4C5
:101A08008042026143618361C361036202F0E6FAC6
:101A180008BD00BFF4050020005C0040801A0600E5
:101A280008B50C480C4B03604FF4827343600023E5
:101A38008360C360036143614FF4007282611022C6
:101A4800C2610362436283620A23C36203F022FC19
:101A580008BD00BF280800200030014008B50E4826
:101A68000E4B03604FF482734360002383604FF48E
:101A78000062C26002220261012242614FF40072D8
:101A880082612822C2610362436283620A23C362BD
:101A980003F000FC08BD00BF4806002000380040E5
:101AA80008B50848084B03604FF4E133436000234E
:101AB8008360C36003610C2242618361C36104F0E7
:101AC800D9F808BDE80700200010014008B508480B
:101AD800084B03604FF4E133436000238360C36025
:101AE80003610C2242618361C36104F0C3F808BD3D
:101AF800800800200044004008B50A480A4B0360EB
:101B08004FF400734360302383600122C2600023D6
:101B180003614FF4FA5141618361C361026202F0CB
:101B2800D9FE08BDE0090020003C004070B58AB02D
:101B3800002408940994019402940394049405944D
:101B480006940794104D114B2B6002236B60AC6018
:101B58000126EE602C61AC61284603F0C7FD0894AD
:101B68000994284608A903F0E1FE60230193029630
:101B780003940594284601A9042203F00BFE284685
:101B880000F02EFB0AB070BD0007002000040040E2
:101B9800704700BFF0B599B000240C940D940E94D2
:101BA8000F941094119412941394149415941694F9
:101BB80017940794089409940A940B940394049432
:101BC800059406940194204B1A6C42F080521A64D2
:101BD8001B6C03F080530193019B02941B4B1A6802
:101BE80042F480421A601B6803F480430293029B0C
:101BF80009230C934FF4A0230D9301261196022577
:101C080012954FF4800313930F27149748231593C5
:101C18001695032317930CA800F0B8FB07970895AF
:101C280009944FF480530A930B9407A8294600F0AF
:101C380025FE0396802304930523059303A800F04B
:101C480015FF19B0F0BD00BF003802400070004019
:101C580010B501F0D7FEFFF79DFFFFF777FDFFF7FF
:101C68006FFEFFF7A9FEFFF7DBFEFFF7F7FEFFF7B2
:101C780017FFFFF72BFFFFF73FFFFFF757FFFFF7B0
:101C8800B5FE124C2046042103F002FE2046042132
:101C980003F034FE0E480F4904F080FB0E4C236815
:101CA8009868002106F084F92368986800210222C8
:101CB8000B4606F085F90948094940F2011206F079
:101CC800CBF804F065FC002010BD00BF0007002021
:101CD800E807002080080020040300205095000831
:101CE8004895000808B50268024B9A4201D101F0F4
:101CF800A3FE08BD00000140704700BF704700BF49
:101D0800FEE700BFFEE700BFFEE700BFFEE700BF3B
:101D1800704700BF704700BF704700BF08B510206C
:101D280001F0E2FB08BD00BF08B5024801F014FD50
:101D380008BD00BF8009002008B5024801F00CFD6D
:101D480008BD00BF4007002008B5024803F094FB17
:101D580008BD00BF280A002008B5024804F030F981
:101D680008BD00BFE807002008B5024804F028F9BC
:101D780008BD00BF8008002008B5024801F0ECFC4F
:101D880008BD00BFC008002008B5024801F0E4FC07
:101D980008BD00BF20090020704700BF82B00021A5
:101DA80000910B4B5A6C42F480425A645A6C02F40C
:101DB80080420092009A01911A6C42F080521A6493
:101DC8001B6C03F080530193019B02B0704700BF66
:101DD800003802402DE9F0438BB0002305930693A9
:101DE8000793089309930368364A934224D1002540
:101DF8000095354C236B43F002032363236B03F0F8
:101E080002030093009BC02305931223069301232A
:101E1800079303230893042309932C4805A901F089
:101E28006FFA0195236C43F400132364236C03F4C5
:101E380000130193019B42E0254A93423FD10025BC
:101E48000295214C236B43F004032363236B03F0B7
:101E580004030293029B0395236B43F0010323635E
:101E6800236B03F001030393039B4FF40073059363
:101E78004FF01209CDF818904FF00108CDF81C80EA
:101E88000327089704260996124805A901F038FA8D
:101E98004FF480730593CDF81890CDF81C800897FF
:101EA80009960D4805A901F02BFA0495236C43F413
:101EB80000032364236C03F400030493049B0BB016
:101EC800BDE8F0830054004000380240000402409E
:101ED800005C004000080240000002402DE9F0418B
:101EE80088B000230393049305930693079302682D
:101EF800484B9A4240F08B8004460025009503F534
:101F0800FE331A6C42F400421A641A6C02F400425E
:101F18000092009A01951A6B42F001021A631A6B3B
:101F280002F001020192019A02951A6B42F0040232
:101F38001A631B6B03F004030293029B4FF40043E4
:101F4800039302260496069606270797324803A9A4
:101F580001F0D6F94FF4A05303930496059506961D
:101F68000797DFF8C880404603A901F0C9F94FF484
:101F78000067039704960595069605230793404640
:101F880003A901F0BDF92548254B03604FF0C06354
:101F980043608560C5604FF48063036147614FF417
:101FA80000538361C5614FF44033036204234362E5
:101FB80003238362C562056301F01EFB08B1FFF7C6
:101FC8009BFE164BE3639C631648174B0360002384
:101FD800436040228260C3604FF4806202614FF424
:101FE800006242614FF400528261C3614FF4403293
:101FF80002620422426203228262C362036301F026
:10200800FBFA08B1FFF778FE064BA3639C6308B0A0
:10201800BDE8F081003C004000000240800900203B
:10202800106002404007002088600240000802401B
:10203800F0B58BB0044600230593069307930893E5
:1020480009930368504A934261D1002500954F4B8C
:102058005A6C42F480525A645A6C02F480520092CC
:10206800009A01951A6B42F001021A631B6B03F088
:1020780001030193019BE0230593022306930326A2
:10208800089605230993424805A901F039F9414802
:10209800414B03604FF0C063436040238360C560D9
:1020A8004FF48063036145618561C5614FF4403336
:1020B8000362042343628662C562056301F09CFAE9
:1020C80008B1FFF719FE334BA3649C633348344BC4
:1020D80003604FF0C063436000238360C3604FF424
:1020E8008062026143618361C3614FF440320262DE
:1020F8000422426203228262C362036301F07CFA13
:1021080008B1FFF7F9FD254BE3649C6339E0254AE4
:10211800934236D1002402941C4B1A6C42F480423C
:102128001A641A6C02F480420292029A03941A6B9F
:1021380042F004021A631A6B02F004020392039A33
:1021480004941A6B42F002021A631B6B03F0020339
:102158000493049B082305930227069703260896F1
:1021680005250995104805A901F0CAF84FF48063C0
:10217800059306970794089609950C4805A901F058
:10218800BFF80BB0F0BD00BF00300140003802407E
:10219800000002402009002058640240C0080020C6
:1021A8001064024000380040000802400004024069
:1021B8000268094B9A420DD182B000230193074B64
:1021C8001A6C42F002021A641B6C03F002030193BA
:1021D800019B02B0704700BF000400400038024075
:1021E80000B587B0002301930293039304930593EA
:1021F80002680D4B9A4214D1002300930B4B1A6BC3
:1022080042F004021A631B6B03F004030093009B63
:1022180080230193022302930593054801A901F045
:102228006FF807B05DF804FB000400400038024076
:102238000008024010B58AB000230593069307935F
:102248000893099303682F4A93422BD100240194E1
:102258002D4B5A6C42F010025A645A6C02F010026C
:102268000192019A02941A6B42F001021A631B6BE5
:1022780003F001030293029B4FF4C063059302230A
:1022880006930323089307230993204805A901F01F
:1022980037F825202146224601F05CFB252001F075
:1022A8008BFB2CE01A4A934229D100240394164B45
:1022B8001A6C42F400321A641A6C02F40032039267
:1022C800039A04941A6B42F001021A631B6B03F021
:1022D80001030493049B0C23059302230693032311
:1022E800089307230993094805A901F009F826204E
:1022F8002146224601F02EFB262001F05DFB0AB0A4
:1023080010BD00BF0010014000380240000002402C
:102318000044004010B588B001461920002201F0A1
:1023280019FB192001F048FB00240194134B5A6C47
:1023380042F001025A645B6C03F001030193019BB4
:1023480003A802A900F074FB00F062FB0C4BA3FB8E
:1023580000239B0C013B0B480B4A026040F2E7321A
:10236800C26043600461846003F0A4F918B90548A9
:1023780003F068F800E0012008B010BD0038024002
:1023880083DE1B43280A002000000140002800F0DB
:10239800D78170B582B00446036813F0010F5AD094
:1023A800A04B9B6803F00C03042B0AD09D4B9B6841
:1023B80003F00C03082B0DD19A4B5B6813F4800FC4
:1023C80008D0984B1B6813F4003F44D06368002B77
:1023D80041D1B7E16368B3F5803F05D1914A1368ED
:1023E80043F48033136015E0B3F5A02F09D18D4B6A
:1023F8001A6842F480221A601A6842F480321A601D
:1024080008E0884B1A6822F480321A601A6822F4AD
:1024180080221A6063687BB101F01AFB054605E06B
:1024280001F016FB401B642800F28E817D4B1B686F
:1024380013F4003FF4D00EE001F00AFB054605E076
:1024480001F006FB401B642800F28081754B1B6875
:1024580013F4003FF4D1236813F0020F50D0714BEE
:102468009B6813F00C0F0AD06E4B9B6803F00C03AB
:10247800082B16D16B4B5B6813F4800F11D1694B95
:102488001B6813F0020F03D0E368012B40F0608152
:10249800644A136823F0F803216943EAC10313600F
:1024A8002EE0E368D3B101225F4B1A6001F0D0FA45
:1024B800054605E001F0CCFA401B022800F24A81EB
:1024C800584B1B6813F0020FF4D0564A136823F0D8
:1024D800F803216943EAC103136011E00022524B5B
:1024E8001A6001F0B5FA054605E001F0B1FA401BA3
:1024F800022800F231814B4B1B6813F0020FF4D114
:10250800236813F0080F26D0636993B10122474B63
:102518001A6001F09DFA054605E001F099FA401BA2
:10252800022800F21B813F4B5B6F13F0020FF4D0BF
:1025380011E000223D4B1A6001F08AFA054605E0D9
:1025480001F086FA401B022800F20A81354B5B6FC6
:1025580013F0020FF4D1236813F0040F7DD0314B30
:102568001B6C13F0805F0DD1002301932D4B1A6C67
:1025780042F080521A641B6C03F080530193019B54
:10258800012500E000252A4B1B6813F4807F13D136
:10259800274A136843F48073136001F059FA06461A
:1025A80005E001F055FA801B022800F2DB80204B81
:1025B8001B6813F4807FF4D0A368012B05D1194A56
:1025C800136F43F00103136714E0052B09D1154B72
:1025D8001A6F42F004021A671A6F42F001021A6772
:1025E80008E0104B1A6F22F001021A671A6F22F0E6
:1025F80004021A67A3688BB101F02AFA064607E0BD
:1026080001F026FA801B41F28833984200F2AC8030
:10261800044B1B6F13F0020FF2D018E001F018FA08
:1026280006460FE00038024000004742800E47424D
:102638000070004001F00CFA801B41F28833984288
:1026480000F29480554B1B6F13F0020FF2D125B1A5
:10265800524A136C23F080531364A369002B00F0D3
:1026680087804E4A926802F00C02082A48D0022B52
:1026780033D100224A4B1A6001F0EAF9054604E01A
:1026880001F0E6F9401B022874D8444B1B6813F08C
:10269800007FF5D1E269236A1343626A43EA821331
:1026A800A26A5208013A43EA0243E26A43EA026331
:1026B8003A4A536001223A4B1A6001F0C9F90446BC
:1026C80004E001F0C5F9001B022855D8334B1B68FC
:1026D80013F0007FF5D000205DE00022304B1A6037
:1026E80001F0B6F9044604E001F0B2F9001B022833
:1026F80044D82A4B1B6813F0007FF5D100204AE02C
:10270800012B3DD0254B5B6803F48001E2699142BF
:1027180038D103F03F02216A8A4235D1616A47F60F
:10272800C0721A408A4231D103F44032A16A8A4207
:102738002ED103F07063E26A93422BD001202AE085
:1027480001207047012026E0032024E0032022E036
:10275800012020E003201EE003201CE003201AE0F3
:10276800032018E0032016E0032014E0032012E001
:10277800002010E003200EE003200CE003200AE014
:10278800012008E0012006E0012004E0012002E029
:10279800012000E0002002B070BD00BF00380240F8
:1027A8006000474238B5324B9B6803F00C03042B9A
:1027B8005CD0082B01D02F4838BD2D4B5A6802F049
:1027C8003F025B6813F4800F27D0294B5B68C3F383
:1027D8008813DC000025690141EAD4616001041B0B
:1027E80061EB0505A90141EA9461A001001B61EBB9
:1027F8000501C41841F10005290141EA14712001BD
:10280800001B61EB0501CB0143EA5063C40120467C
:1028180019460023FDF710FD1FE0154B5B68C3F355
:102828008813DC000025690141EAD4616001041BBA
:1028380061EB0505A90141EA9461A001001B61EB68
:102848000501C01841F100018B0243EA905384024C
:10285800204619460023FDF7EFFC054B5B68C3F3E0
:10286800014301335B00B0FBF3F038BD024838BDCB
:10287800003802400024F40080C3C901002800F099
:10288800988070B50D460446514B1B6803F00F0342
:102898008B4208D2CBB24E4A1370136803F00F0371
:1028A8008B4240F08880236813F0020F17D013F092
:1028B800040F04D0474A936843F4E05393602368B5
:1028C80013F0080F04D0434A936843F460439360BD
:1028D80040498B6823F0F002A36813438B60236898
:1028E80013F0010F2FD06268012A05D1394B1B68FC
:1028F80013F4003F0ED160E0931E012B05D8354B31
:102908001B6813F0007F05D159E0324B1B6813F0A8
:10291800020F56D02F498B6823F0030313438B60B3
:1029280001F096F8064606E001F092F8801B41F2A5
:102938008833984247D8274B9B6803F00C0362689A
:10294800B3EB820FF0D1224B1B6803F00F03AB42AD
:1029580007D9EAB21E4B1A701B6803F00F03AB428B
:1029680033D1236813F0040F06D01A498B6823F477
:10297800E052E36813438B60236813F0080F07D015
:10298800144A936823F46043216943EAC1039360BE
:10299800FFF708FF0F4B9B68C3F303130E4AD35C82
:1029A800D8400E4B18600E4B1868FFF7B3FC002098
:1029B80070BD01207047012070BD012070BD01204D
:1029C80070BD012070BD032070BD012070BD00BF27
:1029D800003C02400038024068AD000808000020B2
:1029E80000000020014B1868704700BF0800002055
:1029F80008B5FFF7F7FF044B9B68C3F38223034A2C
:102A0800D35CD84008BD00BF0038024078AD00084C
:102A180008B5FFF7E7FF044B9B68C3F34233034A4B
:102A2800D35CD84008BD00BF0038024078AD00082C
:102A38000F2303600B4B9A6802F0030242609A6806
:102A480002F0F00282609A6802F4E052C2609B6869
:102A580003F46043DB080361034B1B6803F00F03B7
:102A68000B60704700380240003C024030B583B02C
:102A78000546036813F0050F2AD000224F4B1A6051
:102A880000F0E6FF044605E000F0E2FF001B022824
:102A980000F288804A4B1B6813F0006FF4D16A6813
:102AA800AB681B0743EA8213454AC2F88430012207
:102AB800424B1A6000F0CCFF044604E000F0C8FF67
:102AC800001B022870D83E4B1B6813F0006FF5D02E
:102AD8002B6813F0020F69D000230193384B1A6C4E
:102AE80042F080521A641B6C03F080530193019BDF
:102AF800344A136843F48073136000F0A9FF044656
:102B080004E000F0A5FF001B022851D82D4B1B68DC
:102B180013F4807FF5D02A4B1B6F13F4407322D037
:102B2800EA6802F440729A421DD0254B1A6F22F4CB
:102B38004072254901200860002008601A671B6F51
:102B480013F0010F0FD000F083FF044606E000F0F9
:102B58007FFF001B41F2883398422BD8184B1B6F1C
:102B680013F0020FF3D0EB6803F44072B2F5407F24
:102B78000AD113498A6822F4F81223F0704323F427
:102B8800407313438B6004E00D4A936823F4F813F1
:102B980093600B4A116FEB68C3F30B030B43136786
:102BA800002008E0032006E0032004E0002002E003
:102BB800032000E0032003B030BD00BF6800474297
:102BC8000038024000700040400E474201282AD1D8
:102BD800174B9B6813F4000303D0012B25D115482C
:102BE8007047134B5B6813F4800F07D0104B5A687B
:102BF80002F03F02104BB3FBF2F206E00C4B5A68AE
:102C080002F03F020D4BB3FBF2F20949D1F8840000
:102C1800C0F3881002FB00F3D1F88400C0F30270FF
:102C2800B3FBF0F07047002070470020704700BFEA
:102C3800003802400080BB0080C3C9010024F400B2
:102C480038B500F005FF0446494A136843F001030C
:102C5800136004E000F0FCFE001B02287DD8444B02
:102C68001B6813F0020FF5D0414D2B6843F0800329
:102C78002B6000F0EDFE04460023AB6006E000F098
:102C8800E7FE001B41F28833984268D8384B9B68AE
:102C980013F00C0FF3D100F0DBFE0446344A13683E
:102CA80023F45023136004E000F0D2FE001B6428D4
:102CB80057D82F4B1B6813F4003FF5D100F0C8FE1E
:102CC80004462B4A136823F08073136004E000F075
:102CD800BFFE001B022846D8254B1B6813F0007F57
:102CE800F5D100F0B5FE0446214A136823F080634D
:102CF800136004E000F0ACFE001B022835D81C4B22
:102D08001B6813F0006FF5D1194B1A4A5A601A4A1A
:102D1800C3F88420DA6822F4F852DA60DA6822F418
:102D28000052DA60DA6842F41F02DA60DA6842F4C4
:102D38000012DA605A6F22F001025A675A6F42F0A5
:102D480080725A670D4A0E4B1A600E4B1868FFF7CF
:102D5800E1FA034650B1012308E0032306E0032308
:102D680004E0032302E0032300E00323184638BDF0
:102D78000038024010300004003000200024F40025
:102D8800080000200000002010B40A490C6924F44F
:102D980040740C610C6944F440740C610C6944F093
:102DA80001040C610260BFF36F8F43605DF8044B50
:102DB800704700BF003C0240074B1A6922F440727A
:102DC8001A611A6942F400721A611A6942F0010222
:102DD8001A610160704700BF003C0240074B1A6946
:102DE80022F440721A611A6942F480721A611A69EF
:102DF80042F001021A610180704700BF003C0240A6
:102E0800064B1A6922F440721A611A691A611A6922
:102E180042F001021A610170704700BF003C024095
:102E2800204BDB6813F0100F07D01F4AD36943F01B
:102E38001003D36110221B4BDA601A4BDB6813F0C6
:102E4800200F07D0184AD36943F00803D361202222
:102E5800144BDA60134BDB6813F0400F07D0124AAB
:102E6800D36943F00403D36140220E4BDA600D4B63
:102E7800DB6813F0800F07D00B4AD36943F00203D5
:102E8800D3618022074BDA60064BDB6813F0020F30
:102E980007D0054AD36943F02003D3610222014BCE
:102EA800DA607047003C0240680A0020094B1B6941
:102EB800002B0ADA074B084A5A6002F188325A6036
:102EC8001B69002B03DB002070470020704701209E
:102ED800704700BF003C024023016745034A13695D
:102EE80043F0004313610020704700BF003C0240DC
:102EF800074B5B6913F0010F07D0054B054A9A6031
:102F080002F144329A60002070470120704700BFE8
:102F1800003C02403B2A190838B504460022154BEC
:102F2800DA6100F095FD054608E0B4F1FF3F05D0F1
:102F3800D4B100F08DFD401BA04217D80E4BDB68C2
:102F480013F4803FF1D10C4BDB6813F0010F02D072
:102F58000122094BDA60084BDB6813F0F20F07D047
:102F6800FFF75EFF012038BD032038BD032038BDC0
:102F7800002038BD680A0020003C0240F8B51F4612
:102F88001C4B1B7E012B33D004460E4615460122EE
:102F9800184B1A764CF25030FFF7BEFF034610BBB1
:102FA80024B93046E9B2FFF72BFF12E0012C04D117
:102FB8003046A9B2FFF712FF0BE0022C04D13046CD
:102FC8002946FFF7F9FE04E030462A463B46FFF75C
:102FD800DBFE4CF25030FFF79FFF034606490A69B3
:102FE80022F001020A610021024A11761846F8BD52
:102FF8000220F8BD680A0020003C0240074B1A690D
:1030080022F440721A611A6942F004021A611A69BC
:1030180042EA002040F4803018617047003C0240CA
:10302800044B1A7802F0F3021A701A7810431870D9
:1030380000207047143C0240024B586900F0E00041
:10304800704700BF003C0240014B188880B27047AF
:10305800163C0240074B1B78DBB2CC2B06D0054B45
:103068001B78DBB2AA2B03D1AA207047CC2070476B
:1030780055207047153C0240024B187800F00C00B0
:10308800704700BF143C024010B504464CF2503063
:10309800FFF742FF034628B9034A108880B220EAA6
:1030A80004001080184610BD163C024010B50446B6
:1030B8004CF25030FFF730FF034620B9034A10881E
:1030C800204380B21080184610BD00BF163C024055
:1030D80010B504464CF25030FFF71EFF034608B9FE
:1030E800014A1470184610BD153C024070B50446DC
:1030F8000E4615464CF25030FFF70EFF034638B91E
:10310800044A117801F01F01314329430C4314701C
:10311800184670BD143C02401D4B1B7E012B35D058
:1031280010B5044601221A4B1A76036813F0010FF2
:103138000CD04368934204D18068E168FFF7A4FF8C
:1031480005E08068E168FFF7B1FF00E0012023682F
:1031580013F0020F02D0207CFFF7BAFF236813F0A8
:10316800040F08D0227E02F0200002F0400102F095
:103178008002FFF7BBFF236813F0080F02D0207D01
:10318800FFF74EFF0022024B1A7610BD022070474F
:10319800680A002010B504460F230360FFF754FFA8
:1031A800A060FFF757FF2061FFF746FF2076FFF783
:1031B80063FF606110BD00BF31B1012906D002294B
:1031C80007D14FF4007106E0002104E04FF480714C
:1031D80001E04FF440710B4B1A6922F440721A61F6
:1031E8001A690A431A611A6922F0F8021A611A69FF
:1031F80042EAC00040F0020018611A6942F48032C5
:103208001A617047003C0240164B1B6813F4007F9C
:1032180010D0144B1A6822F400721A601A6842F42B
:1032280000621A601A6822F400621A601A6842F48E
:1032380000721A600B4B1B6813F4806F10D0094B97
:103248001A6822F480621A601A6842F480521A607E
:103258001A6822F480521A601A6842F480621A606E
:10326800704700BF003C0240F8B5234B1B7E012B82
:103278003FD00E46044601221F4B1A764CF25030BE
:10328800FFF74AFE074678BB4FF0FF3333602368E9
:10329800012B0ED1207C6168FFF7B0FE4CF2503054
:1032A800FFF73AFE0746154A136923F00403136132
:1032B80018E0A56811E02846217CFFF77DFF4CF255
:1032C8005030FFF729FE0D4A136923F0FA03136102
:1032D800074608B1356005E00135E268A368134484
:1032E800AB42E8D8FFF790FF0022034B1A76384626
:1032F800F8BD0220F8BD00BF680A0020003C02406B
:10330800F0B583B00023D2E01D4601229A400C6834
:103318001440944240F0CA804E68771E012F03D9AA
:10332800112E01D0122E15D187684FEA430E0326BD
:1033380006FA0EF627EA0607CE6806FA0EF63E43A8
:103348008660466826EA02064A68C2F30012AA4066
:1033580032434260C5685F000322BA40D24302EAA2
:1033680005068D68BD403543C5604D68022D01D006
:10337800122D14D14FEAD30C0CF1080C50F82C6024
:1033880003F0070E4FEA8E0E0F2505FA0EF526EA12
:1033980005060D6905FA0EF5354340F82C50056809
:1033A80015404A6802F00302BA402A4302604A689C
:1033B80012F0805F7AD0002201923F4A556C45F4A2
:1033C80080455564526C02F480420192019A9A0831
:1033D800961C3A4D55F8266003F00307BF000F25E9
:1033E800BD4026EA0506364DA8422BD005F5806576
:1033F800A84225D005F58065A8421FD005F580654F
:10340800A84219D005F58065A84213D005F5806556
:10341800A8420DD005F58065A84207D005F580655E
:10342800A84201D107250EE008250CE006250AE090
:10343800052508E0042506E0032504E0022502E04E
:10344800012500E00025BD40354302321B4E46F8F9
:1034580022501C4A1568E24302EA05064F6817F431
:10346800803F01D044EA0506164D2E606D6802EAD9
:1034780005064F6817F4003F01D044EA0506114DD0
:103488006E60AD6802EA05064F6817F4801F01D028
:1034980044EA05060B4DAE60ED682A404E6816F406
:1034A800001F01D044EA0502064CE26001330F2BED
:1034B8007FF62AAF03B0F0BD003802400038014063
:1034C80000000240003C014003690B4201D001208A
:1034D80070470020704700BF0AB181617047090436
:1034E80081617047704700BF08B5044B5B690342B0
:1034F80003D0024B5861FFF7F5FF08BD003C0140BF
:1035080030B405682C6824F480242C600468636057
:103518008368402B04D103689A600368D96003E08C
:10352800036899600368DA6030BC70470268D3B2F8
:10353800103B0B49A1FB03131B090A49C95CC16570
:10354800032B06D922F47F7222F00302043282652B
:1035580004E022F47F7222F003028265806D7047D6
:10356800ABAAAAAA60950008836A826982B9012B6E
:1035780008D00BB1022B2ED1C36A13F0807F2CD157
:1035880000207047C36AB3F1C07F28D0002070477D
:10359800B2F5005F13D1032B03D8DFE803F0220450
:1035A800220A00207047C36A13F0807F1BD10020D5
:1035B8007047C36AB3F1C07F17D000207047022B51
:1035C80015D9032B01D000207047C36A13F0807F00
:1035D8000FD100207047002070470120704701205C
:1035E8007047012070470120704701207047012073
:1035F80070470120704700BF70B5044600F028FAF4
:10360800002C5BD00546002384F83430022384F86C
:1036180035302268136823F0010313600AE000F0D4
:1036280017FA401B052805D920236365032084F871
:10363800350070BD23681A6812F0010FEFD11968C0
:103648001F4A0A406068A1680843E1680843216985
:10365800084361690843A1690843E1690843216A8D
:1036680001430A43616A042903D1E06A216B0143DB
:103678000A431A602668756925F00705636A1D43C1
:10368800042B0DD1A36A1D43E36A4BB12046FFF713
:103698006BFF28B140236365012084F8350070BDB5
:1036A80075612046FFF742FFE26D3F239340836038
:1036B80000206065012384F8353070BD012070BD9D
:1036C8003F8010F038B5856D90F83440012C2CD02F
:1036D800012480F8344090F83540E4B2012C1FD121
:1036E8000446022084F83500002060652046FFF774
:1036F80007FFE26D3F239340AB602268136843F0F5
:1037080016031360236C23B12268136843F008037F
:1037180013602268136843F001031360002038BD6A
:10372800002380F83430022038BD022038BD00BFA5
:1037380090F83530DBB2022B03D08023436501209B
:103748007047052380F835300268136823F00103B9
:1037580013600020704700BFF0B583B00446002313
:103768000193714B1B68714DA5FB0335AD0A876D3D
:103778003E68C26D08239340334210D003681A682C
:1037880012F0040F0BD01A6822F004021A60C26DFE
:1037980008239340BB60436D43F001034365E26D2A
:1037A80001239340334209D02268526912F0800FF6
:1037B80004D0BB60636D43F002036365E26D0423CC
:1037C8009340334209D02268126812F0020F04D0E5
:1037D800BB60636D43F004036365E26D102393409F
:1037E800334224D02268126812F0080F1FD0BB6041
:1037F80023681A6812F4802F0DD01B6813F4002F69
:1038080004D1236C9BB12046984710E0A36C73B198
:10381800204698470BE01A6812F4807F03D11A6893
:1038280022F008021A60236C0BB120469847E26D1B
:1038380020239340334252D02268126812F0100FAE
:103848004DD0BB6094F83530DBB2052B22D122680D
:10385800136823F0160313602268536923F080036A
:103868005361236C0BB9A36C23B12268136823F04E
:1038780008031360E26D3F239340BB60002384F884
:103888003430012384F83530236D002B49D020468D
:10389800984746E023681A6812F4802F0DD01B68F9
:1038A80013F4002F04D1636CCBB12046984716E07F
:1038B800E36BA3B12046984711E01A6812F4807FA1
:1038C80009D11A6822F010021A60002384F83430F3
:1038D800012384F83530E36B0BB120469847636DBC
:1038E800FBB1636D13F0010F17D0052384F8353051
:1038F8002268136823F001031360019B01330193CD
:103908009D4204D323681B6813F0010FF5D10023EF
:1039180084F83430012384F83530E36C0BB1204649
:10392800984703B0F0BD00BF08000020B5814E1BCA
:1039380000F00700064AD36823F4E0631B041B0C5D
:1039480043EA002040F0BF6040F40030D060704788
:1039580000ED00E030B4164BDC68C4F30224C4F177
:103968000705042D28BF0425231D062B01D9033C78
:1039780000E00024012303FA05F5013D2940A14098
:10398800A340013B1A400A43002808DB1201D2B2C7
:1039980000F1604000F5614080F8002305E000F088
:1039A8000F001201D2B2034B1A5430BC704700BF4B
:1039B80000ED00E014ED00E0002807DB410900F00D
:1039C8001F0001238340024A42F82130704700BF9C
:1039D80000E100E0704700BF10B5094B4FF0FF321F
:1039E8001A6200241C625A625C621A611C615A6184
:1039F8005C619A619C61FFF7EDFF204610BD00BF36
:103A08000038024008B50B4B1A6842F400721A607D
:103A18001A6842F480621A601A6842F480721A6066
:103A28000320FFF785FF0020FEF774FCFEF7B6F9C8
:103A3800002008BD003C0240034A13680349097886
:103A48000B441360704700BF880A00200400002060
:103A5800014B1868704700BF880A002038B5044633
:103A6800FFF7F6FF0546B4F1FF3F02D0044B1B7881
:103A78001C44FFF7EDFF401B8442FAD838BD00BF55
:103A88000400002003685A6912F4806F11D06FF4A3
:103A980080625A6100230363202280F83D2080F869
:103AA8003E30026C42F00402026480F83C3001208F
:103AB80070470020704700BFF8B506460C46174609
:103AC8001D4618E0B5F1FF3F15D0FFF7C1FF069B73
:103AD800C01AA84200D875B900233363202286F89B
:103AE8003D2086F83E30326C42F02002326486F87F
:103AF8003C300120F8BDC4F30743012B08D13368DB
:103B08005B6924EA03039BB2B3FA83F35B0907E01A
:103B180033689B6924EA03039BB2B3FA83F35B0916
:103B2800BB42CFD00020F8BDF8B504460D46164676
:103B38001F4633E023685A6912F4806F16D01A685A
:103B480042F400721A6023686FF480625A6100239D
:103B58002363202284F83D2084F83E30226C42F012
:103B68000402226484F83C300120F8BDB6F1FF3F1E
:103B780014D0FFF76DFFC01BB04200D876B9002300
:103B88002363202284F83D2084F83E30226C42F0E2
:103B98002002226484F83C300120F8BDC5F30743B5
:103BA800012B08D123685B6925EA03039BB2003324
:103BB80018BF012307E023689B6925EA03039BB22A
:103BC800003318BF0123002BB4D10020F8BD00BF7B
:103BD800F0B583B004460F4616461D46C36A082B47
:103BE80004D0012B02D013F5803F05D12268136859
:103BF80043F48073136007E0036B122B04D102684F
:103C0800136843F480731360009520464FF0011148
:103C180000223346FFF750FF48B123681B6813F4AE
:103C2800807F28D04FF400732364032326E02369A0
:103C3800B3F5804F04D1236807F0FE071F6110E039
:103C4800226807F44073DB1143F0F0031361204648
:103C58000C4932462B46FFF767FF70B92368FFB25D
:103C68001F612046084932462B46FFF75DFF034691
:103C780020B1012302E0032300E00123184603B02A
:103C8800F0BD00BF080001000200010070B5044645
:103C98000D4616461BE02046FFF7F4FEF0B9B5F1D5
:103CA800FF3F14D0FFF7D4FE801BA84200D875B997
:103CB80000232363202284F83D2084F83E30226CC0
:103CC80042F02002226484F83C30012070BD236851
:103CD8005B6913F0800FDED0002070BD012070BD3D
:103CE8002DE9F04184B00446884616461F460B9DD0
:103CF8000268136843F48073136000954FF0011154
:103D080000220A9BFFF7D8FE48B123681B6813F40A
:103D1800807F47D04FF400732364032349E022686F
:103D280008F0FE031361204624490A9A2B46FFF740
:103D3800FBFE002838D10023039323685A690392B5
:103D48009B690393039B20460A992A46FFF79EFF27
:103D5800034648B1236C042B28D12268136843F426
:103D680000731360012324E0012F03D12268F6B207
:103D780016611EE02368320A1A6120460A992A460B
:103D8800FFF784FF034648B1236C042B10D1226847
:103D9800136843F40073136001230AE02268F6B243
:103DA800166106E0032304E0012302E0012300E09A
:103DB8000123184604B0BDE8F08100BF02000100ED
:103DC8002DE9F04184B004460E46174698460B9DEF
:103DD8000268136843F4806313600268136843F44D
:103DE8008073136000954FF0011100220A9BFFF7C2
:103DF80063FE48B123681B6813F4807F7CD04FF4BE
:103E080000732364032382E02368F6B206F0FE02FF
:103E18001A61204640490A9A2B46FFF785FE00287A
:103E28006CD10023039323685A6903929B69039317
:103E3800039B20460A992A46FFF728FF48B1236CBE
:103E4800042B5DD12268136843F4007313600123C7
:103E58005DE0B8F1010F03D12368FFB21F6115E0DF
:103E680023683A0A1A6120460A992A46FFF70EFF84
:103E780048B1236C042B45D12268136843F40073BE
:103E88001360012343E02368FFB21F6120460A99AB
:103E98002A46FFF7FBFE48B1236C042B34D1226875
:103EA800136843F400731360012330E02268136839
:103EB80043F480731360009520464FF001110022EF
:103EC8000A9BFFF7F9FD48B123681B6813F4807F4C
:103ED8001CD04FF400732364032318E0236846F0D2
:103EE80001061E6120460C490A9A2B46FFF71CFE64
:103EF800034660B101230AE0032308E0012306E03A
:103F0800012304E0012302E0012300E00323184613
:103F180004B0BDE8F08100BF0200010070B504469E
:103F28000D4616461BE02046FFF7ACFDF0B9B5F18B
:103F3800FF3F14D0FFF78CFD801BA84200D875B94D
:103F480000232363202284F83D2084F83E30226C2D
:103F580042F02002226484F83C30012070BD2368BE
:103F68005B6913F0040FDED0002070BD012070BD26
:103F780070B505460C46164628E05A6912F0100F2F
:103F88000FD06FF010025A6100232B63202285F8AE
:103F98003D2085F83E302A6C2A6485F83C300120A3
:103FA80070BDFFF755FD801BA04200D874B90023EF
:103FB8002B63202285F83D2085F83E302A6C42F09C
:103FC80020022A6485F83C30012070BD2B685A69AC
:103FD80012F0400FD1D0002070BD00BF002800F0C3
:103FE800C980F8B5044690F83D3013F0FF0F04D1AE
:103FF800002380F83C30FDF7EDFE242384F83D30A3
:104008002268136823F0010313602268136843F4DD
:10401800004313602268136823F400431360FEF71B
:10402800E7FC6268554B9A4205D8554B98428CBFBD
:104038000023012304E0534B98428CBF0023012343
:10404800002B40F09980504BA3FB00239B0C216868
:104058004A6822F03F021A434A602568296A21F01B
:104068003F016668454A964201D8013308E04FF49B
:10407800967202FB03F2454BA3FB02239B09013313
:104088000B432B622168CB6923F44F4525F0FF05CC
:1040980063683A4A93420AD801385B00B0FBF3F3ED
:1040A8000133C3F30B03042B38BF042335E0A668A0
:1040B8005EB9421E03EB4307B2FBF7F2120512F595
:1040C800801F14BF002201220CE0421E03EB83076D
:1040D80007EB8707B2FBF7F2120512F5801F14BF32
:1040E80000220122C2B956B9013803EB4303B0FBE1
:1040F800F3F30133C3F30B0242F400430DE001383C
:1041080003EB830303EB8303B0FBF3F20132C2F347
:104118000B0242F4404300E001232B43CB612168AA
:104128000B6823F0C002E069236A034313430B6062
:1041380021688B6823F4034222F0FF022069E368B8
:10414800034313438B602168CB6823F0FF02606947
:10415800A36903431343CB602268136843F0010348
:10416800136000202064202384F83D30206384F805
:104178003E00F8BD012070470120F8BDA08601006F
:104188007F841E00FF083D0083DE1B43D34D621071
:104198002DE9F04184B004460D4690461F46FFF7CE
:1041A80057FC94F83D30DBB2202B40F09480064653
:1041B800009020464F4901221923FFF77DFC002873
:1041C80040F08B8094F83C30012B00F0888001236C
:1041D80084F83C3023681A6812F0010F03D11A687A
:1041E80042F001021A602268136823F40063136026
:1041F800212384F83D30102384F83E3000232364C3
:10420800C4F824806785638D23853B4BE362204691
:1042180029460A9A3346FFF7DBFC0546002860D199
:104228000023039323685A6903929B690393039BB2
:1042380040E020460A993246FFF728FD48B1236C32
:10424800042B50D12268136843F4007313600125CE
:104258004CE02368626A12781A61616A4B1C6362D7
:10426800638D013B9BB26385238D013B9BB2238504
:104278002268506910F0040F0CD05BB14B781361C1
:10428800636A01336362638D013B9BB26385238D4F
:10429800013B238520460A993246FFF73FFE48B185
:1042A800236C042B21D12268136843F40073136034
:1042B80001251BE0238D002BBBD12268136843F432
:1042C80000731360202384F83D30002384F83E30C7
:1042D80084F83C300AE0022508E0022506E00225C1
:1042E80004E0012502E0012500E00125284604B08C
:1042F800BDE8F081020010000000FFFF2DE9F04149
:1043080082B00446884617461E46FFF7A1FB94F87C
:104318003D30DBB2202B40F09180054600902046CE
:104328004E4901221923FFF7C7FB002840F0888077
:1043380094F83C30012B00F08580012384F83C3050
:1043480023681A6812F0010F03D11A6842F00102BB
:104358001A602268136823F400631360212384F829
:104368003D30402384F83E3000232364089B636279
:10437800BDF824306385638D2385394BE3620A9B3E
:1043880000930195204641463A463346FFF7A8FC7C
:10439800002831D058E020460A992A46FFF776FCD3
:1043A80048B1236C042B51D12268136843F400737D
:1043B800136001234DE02368626A12781A61616A0A
:1043C8004B1C6362238D013B9BB22385628D013AAE
:1043D80092B262852268506910F0040F0CD05BB16C
:1043E8004B781361636A01336362238D013B238534
:1043F800638D013B9BB26385238D002BCBD1204677
:104408000A992A46FFF78AFD034648B1236C042B14
:104418001ED12268136843F400731360012318E067
:1044280021680A6842F400720A60202284F83D205C
:10443800002284F83E2084F83C200AE0022308E0A9
:10444800022306E0022304E0012302E0012300E046
:104458000123184602B0BDE8F08100BF0200100039
:104468000000FFFF2DE9F04186B004468846174654
:104478001D46FFF7EDFA94F83D30DBB2202B40F0F3
:1044880049810646009020469F4901221923FFF7DB
:1044980013FB002840F0408194F83C30012B00F0D9
:1044A8003D81012384F83C3023681A6812F0010F1B
:1044B80003D11A6842F001021A602268136823F4D3
:1044C80000631360222384F83D30402384F83E3093
:1044D800002323640C9B6362BDF834306385638DCD
:1044E80023858A4BE3620E9B009301962046414642
:1044F8003A462B46FFF764FC0546002840F0108139
:10450800238D5BB9029323685A6902929A690292D1
:10451800029A1A6842F400721A60E7E0012B11D17E
:104528002268136823F480631360002303932368CD
:104538005A6903929A690392039A1A6842F40072BC
:104548001A60D3E0022B12D12268136823F4806327
:1045580013602268136843F4006313600023049314
:1045680023685A6904929B690493049BBEE0002364
:10457800059323685A6905929B690593059BB5E0E5
:10458800032B00F28D80012B16D120460E9932465E
:10459800FFF7EEFC002840F0C580636A22681269C4
:1045A8001A70636A01336362238D013B2385638D2F
:1045B800013B9BB2638599E0022B2AD100962046E5
:1045C800534900220E9BFFF777FA002840F0AC8091
:1045D8002268136843F400731360636A22681269DF
:1045E8001A70626A531C6362238D013B2385638DB5
:1045F800013B9BB2638523681B695370636A01336F
:104608006362238D013B2385638D013B9BB26385E8
:104618006CE0009620463E4900220E9BFFF74CFABC
:10462800002840F083802268136823F480631360B5
:10463800636A226812691A70636A01336362238DA0
:10464800013B2385638D013B9BB263850096204621
:104658002F4900220E9BFFF72FFA002868D1226805
:10466800136843F400731360636A226812691A704E
:10467800626A531C6362238D013B2385638D013B72
:104688009BB2638523681B695370636A0133636255
:10469800238D013B2385638D013B9BB2638525E018
:1046A80020460E993246FFF763FC002842D1636A20
:1046B800226812691A70626A531C6362238D013B77
:1046C8002385638D013B9BB263852368596911F08B
:1046D800040F0BD01B695370636A01336362238D27
:1046E800013B2385638D013B9BB26385238D002BA2
:1046F8007FF446AF202384F83D30002384F83E3011
:1047080084F83C3017E000BF020010000000FFFFF3
:104718000400010002250EE002250CE002250AE053
:10472800012508E0012506E0012504E0012502E055
:10473800012500E00125284606B0BDE8F08100BF4C
:104748002DE9F04385B004460F4690461D46FFF715
:104758007FF994F83D30DBB2202B40F0AA80064662
:10476800009020465A4901221923FFF7A5F900288D
:1047780040F0A18094F83C30012B00F09E8001238A
:1047880084F83C3023681A6812F0010F03D11A68C4
:1047980042F001021A602268136823F40063136070
:1047A800242384F83D3000232364A3F58033E36297
:1047B8004FF001092268136843F480731360009670
:1047C80020464FF0011100222B46FFF775F948B13A
:1047D80023681B6813F4807F71D04FF4007323643F
:1047E800032371E0236807F0FE021A61FFF730F92E
:1047F800064623685A69C2F340025969C1F3802109
:104808000FE0FFF725F9801BA84200D815B9A023AF
:1048180084F83D3023685A69C2F340025969C1F3EC
:10482800802194F83D30DBB2A02B02D00AB90029D0
:10483800E7D0202384F83D3023685A6912F0020F2C
:104848001BD01A6842F400721A600023039323688D
:104858005A6903929B690393039B009620461C495F
:1048680001221923FFF728F9034650BB202284F8B8
:104878003D20002284F83C2026E01A6842F40072A9
:104888001A6023686FF480625A61009620461049C6
:1048980001221923FFF710F9A8B909F10109C14547
:1048A80088D3202384F83D30002384F83C3001234A
:1048B8000AE0022308E0022306E0022304E00323BF
:1048C80002E0012300E00123184605B0BDE8F083AB
:1048D80002001000002800F0CD8038B5044690F89A
:1048E800413013F0FF0F06D1002380F84030624BAF
:1048F8004363FDF7F3FA022284F841202168CB696B
:1049080023F47B6323F00F03CB6123681A62636986
:10491800934239D0E3680BB9102500E02025A3683D
:10492800202B00D86D000120FEF750F92369B3F55C
:10493800007F17D1E36853B1AD00B0FBF5F000EB91
:10494800800040006369B0FBF3F0053013E0ED0030
:10495800B0FBF5F000EB800040006369B0FBF3F0BA
:10496800053008E0B0FBF5F000EB8000400063691B
:10497800B0FBF3F00530414BA3FB0023DB0803F049
:1049880001025B08120201E000220223991EFD29A0
:1049980005D9636C43F010036364012038BD2168B6
:1049A8002069024313430B622068C36923F47B62C6
:1049B80022F00F026168A3681943E3681943A369E9
:1049C8000B43134343F40063C361236A012B4BD1A8
:1049D8002B4B636323682B4A934202D1A2F5806272
:1049E80001E04FF0402227498B4201D1264B01E0DC
:1049F8004FF04023DB6923F47B6323F00F03D3617B
:104A08002268204B9A4202D1A3F5806301E04FF05F
:104A1800402302221A6225681A4B9D4202D1A3F54F
:104A2800806301E04FF04023DB699AB26368B3F515
:104A3800007F03D02BB94FF4807103E04FF48071ED
:104A480000E00021208BA3891843238903430B43EB
:104A5800134343F400630B4A954202D1A2F58062E6
:104A680001E04FF04022D36100206064012384F804
:104A7800413038BD01207047094B0008CDCCCCCC63
:104A8800815000080038004000340040704700BFE3
:104A980008B50368426A1288DA60436A02334362DF
:104AA800438D013B9BB24385438D9BB24BB9026852
:104AB800536823F0A0035360012380F84130FFF7C7
:104AC800E5FF08BD704700BF08B5C36A0268D26831
:104AD8001A80C36A0233C362438E013B9BB243868A
:104AE800438E9BB24BB90268536823F0600353604E
:104AF800012380F84130FFF7E5FF08BD704700BF8C
:104B080010B584B0044602689368039390F8413066
:104B1800DBB2042B28D1039B13F0010F05D0536897
:104B280013F0400F01D0FFF7CFFF039B13F0400FA6
:104B38001AD023685A6812F0200F15D05A6822F04C
:104B480060025A60002301932368DA6801929B6827
:104B58000193019B012384F84130636C43F0020305
:104B680063642046FFF7CAFF94F84130DBB2032B99
:104B780028D1039B13F0020F07D023685B6813F05A
:104B8800800F02D02046FFF783FF039B13F0080F26
:104B980018D023685A6812F0200F13D05A6822F0F0
:104BA800A0025A600023029323689B680293029B29
:104BB800012384F84130636C43F0040363642046A6
:104BC800FFF79CFF04B010BD08B5806B02685368FE
:104BD80023F00303536003680F4A934202D1A2F5FE
:104BE800806201E04FF040220B498B4201D10B4B10
:104BF80001E04FF040235B6823F003035360002378
:104C080043854386012380F84130436C43F0080311
:104C18004364FFF773FF08BD0038004000340040CC
:104C280070B582B00446164690F84120D2B2012AE7
:104C380040F0ED800D46002900F0F280002E00F0D3
:104C4800F180002B00F0F08090F84020D2B2012AC9
:104C580000F0EC80012280F840206162C6620268A0
:104C6800D26902F00702032A01D0052A06D15B00A7
:104C78009BB2238563852386638603E0038543858A
:104C88000386438600236364052384F84130E36B7D
:104C980068491964E36B684ADA63E06B674BC3647D
:104CA800A06B0164A16BCA63A26BD3642268D36949
:104CB80003F44073B3F5007F01D0002B4CD1E06BB7
:104CC8005F4B9A4201D15F4901E04FF04021238EAA
:104CD8000C3132469BB2FEF7F5FC2368584A9342E2
:104CE80001D1584901E04FF04021554A934201D182
:104CF800544B01E04FF040235B6843F001034B60E5
:104D08002268238DA06B29460C329BB2FEF7DAFC91
:104D18002268536843F0020353602368DA6912F487
:104D2800806F76D1464A934202D1A2F5806201E0B3
:104D38004FF0402242498B4201D1424B01E04FF0F3
:104D48004023DB6943F48063D3612268D36943F469
:104D58008063D36100205FE0D36903F44073B3F547
:104D6800407F06D100230193D36801939368019390
:104D7800019BA06B324B9A4201D1324A01E04FF0BD
:104D88004022238D29460C329BB2FEF79BFC2368F8
:104D98002B4A934202D1A2F5806201E04FF04022F3
:104DA80027498B4201D1274B01E04FF040235B6834
:104DB80043F0020353602168238EE06B0C313246C6
:104DC8009BB2FEF77FFC2268536843F001035360EF
:104DD8002368DA6912F4806F1DD1194A934202D10F
:104DE800A2F5806201E04FF0402215498B4201D1C3
:104DF800144B01E04FF04023DB6943F48063D36137
:104E08002268D36943F48063D361002004E0022060
:104E180002E0002000E00020002384F8403006E093
:104E2800012004E0012002E0012000E0022002B09D
:104E380070BD00BF554E0008614E0008D14B0008F8
:104E48000038004000340040704700BF08B5806B50
:104E5800FFF7FAFF08BD00BF38B5856BC369002BA3
:104E680061D10446EB6B83422CD12B68DA6902F4DA
:104E78004072B2F5007F03D0DA6912F4407F12D194
:104E8800294A934201D1294901E04FF04021264A9D
:104E9800934201D1254B01E04FF040235B6823F09A
:104EA80001034B6003E05A6822F001025A600023B4
:104EB8006B866B8D9BB22BB9012385F84130284650
:104EC80001F08AF9AB6BA3422DD12B68DA6902F4A1
:104ED8004072B2F5007F03D0DA6912F4407F04D142
:104EE8005A6822F002025A6012E00F4A934202D135
:104EF800A2F5806201E04FF040220B498B4201D1BC
:104F08000A4B01E04FF040235B6823F00203536033
:104F180000236B856B8E9BB22BB9012385F841303A
:104F2800284601F059F938BD0038004000340040E7
:104F380008B50268436A991C41621B88D360438D97
:104F4800013B9BB24385438D9BB263B902685368AA
:104F580023F0A0035360438E9BB223B9012380F84A
:104F6800413001F039F908BD08B5C36A9A1CC2621C
:104F78000168164A914202D1A2F5806201E04FF021
:104F88004022D2681A80438E013B9BB24386438EEF
:104F98009BB2D3B903680D4A934201D10C4901E091
:104FA8004FF04021094A934201D1094B01E04FF0EB
:104FB80040235B6823F060034B60438D9BB223B9A9
:104FC800012380F8413001F007F908BD003800409E
:104FD8000034004008B50268174B9A4201D1174ABD
:104FE80001E04FF04022436A991C41621B88D3605C
:104FF800438D013B9BB24385438D9BB2D3B9036874
:105008000D4A934201D10D4901E04FF040210A4A6F
:10501800934201D1094B01E04FF040235B6823F034
:10502800A0034B60438E9BB223B9012380F8413023
:1050380001F0D2F808BD00BF00380040003400403D
:1050480008B5C36A9A1CC2620268D2681A80438E85
:10505800013B9BB24386438E9BB263B90268536897
:1050680023F060035360438D9BB223B9012380F87A
:10507800413001F0B1F808BD10B586B004460368A8
:105088009A680592814A934202D1A2F5806201E0B2
:105098004FF04022926804925A6803927B4A9342E6
:1050A80001D17B4B01E04FF040235B6802936368BA
:1050B800B3F5007F01D0002B7BD1059B13F0020FC5
:1050C80006D0039B13F0800F02D02046FFF730FF75
:1050D800049B13F0010F06D0029B13F0400F02D07F
:1050E8002046FFF741FF049B13F0400F2ED0029B90
:1050F80013F0200F2AD02368644A934202D1A2F504
:10510800806201E04FF0402260498B4201D1604B40
:1051180001E04FF040235B6823F06003536022688E
:10512800536823F0A0035360002300932368DA68D0
:1051380000929B680093009B012384F84130636CC4
:1051480043F0020363642046FFF7D8FC059B13F085
:10515800080F00F09880039B13F0200F00F0938055
:105168002268536823F0A00353602368474A934298
:1051780001D1474901E04FF04021444A934201D10F
:10518800434B01E04FF040235B6823F060034B6022
:105198000023019323689B680193019B012384F8F2
:1051A8004130636C43F0040363642046FFF7A6FCB8
:1051B80069E0049B13F0020F06D0029B13F0800FE6
:1051C80002D02046FFF706FF059B13F0010F06D01B
:1051D800039B13F0400F02D02046FFF731FF059BD9
:1051E80013F0400F25D0039B13F0200F21D0226825
:1051F800536823F0600353602368244A934201D123
:10520800234901E04FF04021204A934201D1204B2D
:1052180001E04FF040235B6823F0A0034B600123BB
:1052280084F84130636C43F0020363642046FFF75F
:1052380065FC049B13F0080F25D0029B13F0200F88
:1052480021D02368114A934201D1114901E04FF05E
:1052580040210E4A934201D10D4B01E04FF040230B
:105268005B6823F0A0034B602268536823F0600357
:105278005360012384F84130636C43F00403636492
:105288002046FFF73BFC06B010BD00BF00380040C9
:105298000034004000283CD010B504460023836247
:1052A80090F8513013F0FF0F04D1002380F85030EC
:1052B800FCF7BEFE022384F851302268136823F0FD
:1052C8004003136021686268A3681A43E3681A43BD
:1052D80023691A4363691A43A36903F400731343E8
:1052E800E2691343226A1343A26A1A430A602168D7
:1052F800638B03F00402636A13434B602268D3692B
:1053080023F40063D36100206065012384F85130E1
:1053180010BD0120704700BF30B4036A23F00103B9
:105328000362036A4468826922F073020D682A43A3
:1053380023F002038D682B43104DA84203D005F5D6
:105348008065A84205D123F00803CD682B4323F0DC
:1053580004030A4DA84203D005F58065A84205D18B
:1053680024F440744D692C438D692C434460826158
:105378004A684263036230BC704700BF00000140C6
:1053880030B4036A23F480730362036A4468C26911
:1053980022F073020D682A4323F400738D6843EAF0
:1053A8000523124DA84203D005F58065A84206D111
:1053B80023F40063CD6843EA052323F480630B4D8F
:1053C800A84203D005F58065A84207D124F44054CB
:1053D8004D6944EA05148D6944EA05144460C261C4
:1053E8004A68C263036230BC704700BF00000140D6
:1053F80030B4036A23F480530362036A4468C269C1
:1054080022F4E6420D6842EA052223F400538D682F
:1054180043EA0533094DA84203D005F58065A84243
:1054280004D124F480444D6944EA85144460C2617F
:105438004A680264036230BC704700BF0000014044
:10544800704700BF0268D36843F00103D360026865
:10545800936803F00703062B03D0136843F0010396
:1054680013600020704700BF704700BF704700BF3F
:10547800704700BF704700BF10B5044603681A693B
:1054880012F0020F17D0DA6812F0020F13D06FF083
:1054980002021A610123037703689B6913F0030F63
:1054A80002D0FFF7E3FF04E0FFF7DEFF2046FFF737
:1054B800DFFF0023237723681A6912F0040F19D03D
:1054C800DA6812F0040F15D06FF004021A61022393
:1054D800237723689B6913F4407F03D02046FFF7A6
:1054E800C5FF05E02046FFF7BFFF2046FFF7C0FFD6
:1054F8000023237723681A6912F0080F19D0DA6895
:1055080012F0080F15D06FF008021A6104232377F0
:105518002368DB6913F0030F03D02046FFF7A6FFCB
:1055280005E02046FFF7A0FF2046FFF7A1FF002374
:10553800237723681A6912F0100F19D0DA6812F06D
:10554800100F15D06FF010021A6108232377236813
:10555800DB6913F4407F03D02046FFF787FF05E09F
:105568002046FFF781FF2046FFF782FF00232377BD
:1055780023681A6912F0010F09D0DA6812F0010FD6
:1055880005D06FF001021A612046FCF7ABFB2368D7
:105598001A6912F0800F09D0DA6812F0800F05D06E
:1055A8006FF080021A61204600F008FA23681A6931
:1055B80012F0400F09D0DA6812F0400F05D06FF0F2
:1055C80040021A612046FFF755FF23681A6912F056
:1055D800200F09D0DA6812F0200F05D06FF02002F2
:1055E8001A61204600F0E8F910BD00BF0368304A90
:1055F800904212D0B0F1804F0FD0A2F57C42904279
:105608000BD002F58062904207D002F5806290428A
:1056180003D002F57842904203D123F070034A6820
:105628001343234A90422AD0B0F1804F27D0A2F5E5
:105638007C42904223D002F5806290421FD002F54E
:10564800806290421BD002F57842904217D002F552
:105658007052904213D002F5806290420FD002F54A
:10566800806290420BD0A2F59832904207D002F5A2
:105678008062904203D002F58062904203D123F405
:105688004073CA68134323F080034A6913430360D5
:105698008B68C3620B688362054B984203D003F59D
:1056A8008063984201D10B6903630123436170470A
:1056B80000000140C0B110B5044690F83D3013F029
:1056C800FF0F04D1002380F83C30FFF7B9FE022316
:1056D80084F83D30214651F8040BFFF787FF01237A
:1056E80084F83D30002010BD01207047C0B110B5CE
:1056F800044690F83D3013F0FF0F04D1002380F8E2
:105708003C30FCF755FD022384F83D30214651F822
:10571800040BFFF76BFF012384F83D30002010BD18
:105728000120704730B4036A23F010030362036A50
:105738004468826922F4E6420D6842EA052223F0B1
:1057480020038D6843EA0513114DA84203D005F5DF
:105758008065A84206D123F08003CD6843EA05138B
:1057680023F040030A4DA84203D005F58065A842FE
:1057780007D124F440644D6944EA85048D6944EAFC
:105788008504446082614A688263036230BC704762
:105798000000014038B590F83C30012B66D00D462A
:1057A8000446012380F83C30022380F83D300C2A5F
:1057B80055D8DFE802F0075454541A5454542E5460
:1057C800545441000068FFF7A7FD2268936943F02D
:1057D800080393612268936923F0040393612268A4
:1057E80091692B690B43936139E00068FFF79AFFD1
:1057F8002268936943F4006393612268936923F4F0
:105808008063936122689369296943EA012393615C
:1058180025E00068FFF7B4FD2268D36943F0080368
:10582800D3612268D36923F00403D3612268D16964
:105838002B690B43D36112E00068FFF7D9FD22689A
:10584800D36943F40063D3612268D36923F4806386
:10585800D3612268D369296943EA0123D36101230B
:1058680084F83D30002084F83C0038BD022038BD63
:1058780010B401F01F0101238B40046A24EA0303DA
:105888000362036A8A401A4302625DF8044B704758
:1058980010B5044600680122FFF7EAFF23680E4AA4
:1058A800934205D002F58062934203D1012202E0BF
:1058B800012200E000221AB15A6C42F400425A64F4
:1058C8002268936803F00703062B03D0136843F09C
:1058D80001031360002010BD0000014010B401F066
:1058E8001F0104238B40046A24EA03030362036A4A
:1058F8008A401A4302625DF8044B704710B50446AB
:1059080000680422FFF7EAFF2268536C43F400435F
:1059180053642268936803F00703062B03D01368C7
:1059280043F001031360002010BD00BF90F83C3025
:10593800012B3AD030B4012380F83C30022380F8A0
:105948003D3004686368A26823F070030D682B4338
:1059580063600368174CA3421AD0B3F1804F17D085
:10596800A4F57C44A34213D004F58064A3420FD06D
:1059780004F58064A3420BD004F57844A34207D011
:1059880004F57054A34203D0A4F59434A34204D17F
:1059980022F0800249680A439A60012380F83D306A
:1059A800002380F83C30184601E00220704730BCE4
:1059B800704700BF00000140704700BF704700BF3C
:1059C8000268D36823F49073D3600268536923F0A4
:1059D80001035361202380F83A30704790F839303A
:1059E800DBB2212B2AD18368B3F5805F0FD1036A1C
:1059F80002681B88C3F30803536003691BB9036A71
:105A08000233036209E0036A0133036205E00268B6
:105A1800036A591C01621B785360C38C013B9BB21B
:105A2800C3846BB90268D36823F08003D36002682B
:105A3800D36843F04003D3600020704702207047CA
:105A480000207047F8B5044601680B6923F44052FA
:105A5800C36813430B61826803691A4343691A4395
:105A6800C36913430168CA6822F4164222F00C0283
:105A78001343CB6001684B6923F440728369134375
:105A88004B61C369B3F5004F61D103685D4A934226
:105A980003D002F5806293422CD1FCF7B9FF256848
:105AA8000021061841EB010736184F41FB0043EA75
:105AB8005673F20016461F46626800238019794122
:105AC80092185B41FAF7B8FB4F4BA3FB0012510940
