:020000040800F2
:1000000000C00020B9080008C5070008C90700089B
:10001000CD070008D1070008D50700080000000040
:10002000000000000000000000000000D9070008E8
:10003000DD07000800000000E1070008E5070008F0
:100040000109000801090008010900080109000868
:100050000109000801090008010900080109000858
:100060000109000801090008010900080109000848
:100070000109000801090008010900080109000838
:100080000109000801090008010900080109000828
:100090000109000801090008010900080109000818
:1000A0000109000801090008010900080109000808
:1000B00001090008010900080109000801090008F8
:1000C00001090008010900080109000801090008E8
:1000D00001090008E9070008F50700080108000801
:1000E00001090008010900080109000801090008C8
:1000F00001090008010900080109000801090008B8
:1001000001090008010900080109000801090008A7
:10011000010900080D08000801090008010900088C
:100120000109000801090008010900080109000887
:1001300000000000000000000000000000000000BF
:1001400000000000000000000000000000000000AF
:10015000000000000000000000000000000000009F
:10016000000000000000000000000000000000008F
:10017000000000000000000000000000000000007F
:10018000000000000000000000000000000000006F
:10019000000000000000000000000000000000005F
:1001A000000000000000000000000000000000004F
:1001B000000000000000000000000000000000003F
:1001C000000000000000000000000000000000002F
:1001D000000000000000000000000000000000001F
:0401E0005FF8E0F1F3
:1001E40010B5054C237833B9044B13B10448AFF36D
:1001F40000800123237010BD700000200000000067
:10020400143D000808B5034B1BB103490348AFF381
:10021400008008BD0000000074000020143D0008A8
:1002240000B583B001904FF6FF7301220A4801A97B
:1002340002F0A6FB01980A2802D003B05DF804FB83
:100244004FF6FF7301220549034802F099FB019818
:1002540003B05DF804FB00BFE00000202C3D000863
:1002640030B597B0002124220DA802F021FF00240C
:100274000225012210230CA8CDE91023CDE9014465
:10028400CDE90344CDE90744CDE90944009406943B
:100294000C950B9401F0A4FF0F220023CDE9002359
:1002A4000022002321466846CDE90223049402F08B
:1002B40087F906A80695089402F072FA17B030BDC3
:1002C4002DE9F04F002489B000F050FBFFF7C8FF80
:1002D400CDE90444CDE906447D4B4FF002089A6908
:1002E4007C4F42F010029A619A69DFF8ECA102F0A7
:1002F40010020092009A9A69384642F020029A61EC
:100304009A694FF4627102F020020192019A9A698B
:10031400724D42F004029A619A690C2602F00402BA
:100324000292029A9A694FF4E13B42F008029A6100
:100334009B69224603F008030393039B01F022F90F
:100344002246504641F2010101F01CF94146504653
:10035400012201F017F928462821012201F012F99F
:1003640022462846C02101F00DF946F2010200237D
:10037400384604A9CDE90423069400F0DBFF0022EB
:100384000223CDE906234FF462720123384604A9FF
:10039400CDE9042300F0CEFF00220223CDE9062399
:1003A40041F203020123504604A9CDE9042300F0DD
:1003B400C1FFF0220023504604A9CDE9042306948A
:1003C40000F0B8FF30220023384604A9CDE9042305
:1003D400CDF8188000F0AEFF03220023284604A9BC
:1003E400CDE90423CDF8188000F0A4FF4FF4704247
:1003F4000023284604A9CDE90423069400F09AFFBB
:1004040000220223CDE90623E822012304A9284679
:10041400CDE9042300F08EFF4FF480434FF41645DA
:100424002F48304A0361304BC0E90244C0E900233D
:10043400C0E90544C0E9074401F020FB2B482C4BDC
:10044400C0E901B4C0E90344C0E90564C4610360C0
:1004540002F028FA2748284BC0E90154C0E90344B4
:10046400C0E90564C461036002F01CFA2348244B0C
:10047400DFF89090C0E901B4C0E90344C0E9056421
:10048400C461036002F00EFA1F48204BC0E9015416
:10049400C0E90344C0E90564C461036002F002FAE0
:1004A400D9F800302146986802F094FED9F800008B
:1004B400234642462146806802F094FE144802F026
:1004C40081FE02F0EFFB204609B0BDE8F08F00BFCB
:1004D400001002400010014000080140000C0140DF
:1004E4008C00002000580040A0860100E00000209D
:1004F4000038014060010020004800402001002035
:10050400004400400C000020A001002000500040E6
:10051400003E00080E4B82B09A690E4942F0010277
:100524009A619A6902F001020092009ADA6942F033
:100534008052DA61DB6903F080530193019B4B68BD
:1005440023F0E06343F080634B6002B0704700BF68
:1005540000100240000001400023D0B5154A016894
:1005640086B09142CDE90233CDE9043301D006B01F
:10057400D0BD03224FF4406612270F4C0F48A369E5
:1005840002A943F00803A361A369CDE9026703F05C
:1005940008030093009B059200F0CCFEE36943F44A
:1005A4008003E361E36903F480030193019B06B0D4
:1005B400D0BD00BF0058004000100240000C0140B4
:1005C400D0B50024754A03688EB09342CDE90A443D
:1005D400CDE90C4445D0724A93427CD0714A93428F
:1005E40000F0AB80704A934201D00EB0D0BD6F4B87
:1005F4004FF48066DA69022742F48022DA61DA690C
:100604000AA902F480220892089A9A69684842F07A
:1006140010029A619B69CDE90A6703F010030993FC
:100624000323099A0D9300F085FE4FF40062002322
:10063400604E0AA95E48CDE90A230C9400F07AFEC4
:100644007368272023F0300343F0E06343F0100382
:1006540022462146736000F0D1F9272000F00CFAFD
:10066400C3E7524B4FF48056DA69022742F48012F2
:10067400DA61DA690AA902F480120192019A9A698C
:100684004B4842F010029A619A6902F010020292F9
:10069400029A9A6942F020029A619B69CDE90A673D
:1006A40003F0200303930323039A0D9300F042FE07
:1006B400002304220AA94048CDE90A230C9400F03F
:1006C40039FE22462146352000F098F9352000F005
:1006D400D3F90EB0D0BD354B4FF400769A6902279A
:1006E40042F480429A619A690AA902F4804204920F
:1006F400049A9A69314842F004029A619B69CDE9EF
:100704000A6703F0040305930323059A0D9300F08D
:1007140011FE00234FF480620AA92848CDE90A2378
:100724000C9400F007FE22462146252000F066F9CD
:10073400252000F0A1F90EB0D0BD1C4B0426DA69C7
:10074400022742F40032DA61DA690AA902F40032BB
:100754000692069A9A69194842F004029A619B69C2
:10076400CDE90A6703F0040307930323079A0D9363
:1007740000F0E0FD002308220AA91048CDE90A236D
:100784000C9400F0D7FD22462146262000F036F9CD
:10079400262000F071F90EB0D0BD00BF005000401B
:1007A400003801400044004000480040001002406E
:1007B4000010014000000140001401400008014005
:1007C400704700BFFEE700BFFEE700BFFEE700BFC3
:1007D400FEE700BF704700BF704700BF704700BF0F
:1007E40000F0D6B8014802F099B900BFE00000203B
:1007F400014802F093B900BF20010020014802F033
:100804008DB900BF60010020014802F087B900BF24
:10081400A001002070B5161E07DD0C468D19AFF33C
:10082400008004F8010BA542F9D1304670BD00BF29
:1008340070B5161E07DD0C468D1914F8010BFFF771
:10084400EFFCAC42F9D1304670BD00BF4FF0FF3031
:10085400704700BF4FF4005300204B60704700BF47
:1008640001207047002070470C4A08B50346106801
:1008740028B1694603448B4208D8136008BD08496F
:1008840008461160694603448B42F6D902F0D8FB4E
:100894000C2203464FF0FF301A6008BDE00100202F
:1008A400200200204FF00062014B9A60704700BFA5
:1008B40000ED00E0002103E00B4B5B584350043192
:1008C4000A480B4B42189A42F6D30A4A02E0002324
:1008D40042F8043B084B9A42F9D3FFF7E3FF02F0D6
:1008E400B5FBFFF7EDFC7047903E000800000020C8
:1008F400700000207000002020020020FEE70000AD
:10090400704700BF10B54FF0FF320024044BDA608B
:100914001C61DA60DC60FFF7F3FF204610BD00BF06
:100924000010024038B54FF47A730D4A0546117829
:100934000C4AB3FBF1F31268B2FBF3F000F0AAF82F
:1009440008B90F2D01D9012038BD044602462946B5
:100954004FF0FF3000F052F8034B20461D6038BDC5
:10096400040000200000002008000020074A08B509
:100974001368032043F01003136000F02DF80020E7
:10098400FFF7D0FFFFF7C6FD002008BD002002409E
:10099400034A044B11681B780B441360704700BF73
:1009A400E401002004000020014B1868704700BFD8
:1009B400E401002038B50446FFF7F6FF631C054642
:1009C40002D0044B1B781C44FFF7EEFF401BA042EF
:1009D400FAD338BD040000204FF6FF0C0649030289
:1009E400CA6803F4E06302EA0C02134343F0BF63F2
:1009F40043F40033CB60704700ED00E01C4B00B5BE
:100A0400DB68C3F30223C3F1070EBEF1040F03F145
:100A1400040C28BF4FF0040EBCF1060F1BD94FF095
:100A2400FF3C033B0CFA03FC22EA0C024FF0FF3CB0
:100A34000CFA0EFC21EA0C019940002841EA02015B
:100A44000CDB090100F16040C9B200F5614080F897
:100A540000135DF804FB00221346E7E7054B00F0A2
:100A64000F000901C9B2034419765DF804FB00BF05
:100A740000ED00E0FCEC00E0002807DB012300F0BF
:100A84001F01034A40098B4042F82030704700BFE1
:100A940000E100E00138B0F1807F0FD24FF0E02395
:100AA4004FF0F00C0022072110B4054C586184F873
:100AB40023C010469A6110BC196170470120704729
:100AC40000ED00E008B590F821200346022A03D087
:100AD400042201209A6308BD0268454811688242D5
:100AE40021F00E011160116821F0010111604149EA
:100AF40024D98A4255D014318A425ED014318A42B4
:100B04005DD014318A4253D014318A4260D01431FA
:100B14008A4263D0824267D001F567718A4240D02D
:100B240014318A4249D014318A4248D014318A425D
:100B340014BF4FF480324FF4805233E08A4222D003
:100B440014318A4237D014318A423BD014318A425C
:100B54002BD014318A4238D014318A423BD082429D
:100B64003FD001F567718A420DD014318A4222D0F8
:100B740014318A4226D014318A4214BF4FF4803291
:100B84004FF4805200E001221B494A604FF4807107
:100B94005A6B19841AB118469047002008BD1046B4
:100BA40008BD012215494A60F0E74FF48052EBE793
:100BB4004FF48052F6E71022E6E71022F2E74FF4F2
:100BC4008072EFE74FF48072DEE74FF48032DBE7A8
:100BD4004FF48032E6E74FF48012D5E74FF48012E9
:100BE400E0E74FF08072CFE74FF08072DAE700BFA2
:100BF400800002400800024000000240000402405D
:100C04002DE9F04FDFF8C49183B099F81840012C16
:100C140000F0CF809A46012306468846934689F819
:100C24001830FFF7C1FE4CF250370446684D05E01A
:100C3400FFF7BAFE001BB84200F2B980EB68DA078E
:100C4400F6D4EB689B0644BF2023EB60604BDA6864
:100C5400D70653D4DA69D50750D4DF6817F00407F0
:100C64004CD1012E03D0022E0CBF0226042608EB21
:100C740046034CF25036564C0193C7F120010AFA50
:100C840001F12BFA07F30B430021A7F12002C9F865
:100C94001C102AFA02F2134322699BB242F00102A9
:100CA4002261A8F80030FFF77FFE054604E0FFF755
:100CB4007BFE401BB04272D8E368D907F7D4E368DF
:100CC4009A0644BF2023E360E368DB0639D4E36972
:100CD400DD0736D4E06810F0040032D1236908F14E
:100CE400020823F001032361019B10379845C4D106
:100CF400002389F8183003B0BDE8F08F344BDB686B
:100D040013F0100359D10421314AD268540706D58F
:100D14000B46D9F81C2042F00102C9F81C202C4AC9
:100D2400D169C80709D5D9F81C1041F00401C9F8E4
:100D34001C10D16921F00101D161254A0120D36041
:100D4400D6E7234BDA6812F010022ED014211022B9
:100D5400D9F81C3043F00203C9F81C301C4BDB6883
:100D6400580706D50A46D9F81C3043F00103C9F8E0
:100D74001C30174BD969C90709D5D9F81C1041F0A3
:100D84000401C9F81C10D96921F00101D961104B83
:100D94000120DA601A6922F001021A61A8E72369C6
:100DA400032023F001032361A2E70421D6E70320F3
:100DB4009EE7022003B0BDE8F08FD9F81C2014216F
:100DC40042F002021023C9F81C209DE7E80100202C
:100DD40000200240064B186910F0800006D0054937
:100DE400054A59605A601869C0F3C010704700BFC3
:100DF4000020024023016745AB89EFCD034A002060
:100E0400136943F080031361704700BF0020024060
:100E1400054B186910F4007004D10449044A996020
:100E24009A60704701207047002002402301674503
:100E3400AB89EFCD70B50446FFF7B6FD0546264EE7
:100E4400601C36D1244AD368D907FCD4224BDA6813
:100E5400960644BF2022DA601F4BDA68D50607D411
:100E6400DA69D40704D4D86810F0040000D170BD46
:100E7400194BDB6813F0100326D10421164AD268FB
:100E8400500705D50B461549CA6942F00102CA61EB
:100E9400114AD169C90708D51048C16941F0040154
:100EA400C161D16921F00101D1610B4A0120D360F4
:100EB40070BDF368DB07C9D524B1FFF775FD401B8E
:100EC400A042BDD9032070BD04481421C269102377
:100ED40042F00202C261D1E700200240E801002092
:100EE4002DE9F8432D4E337E012B54D00123337664
:100EF40003688146022B31D04CF250308846FFF70C
:100F040099FF074678BB4FF0FF33C8F80030D9E9A2
:100F1400025305EBC3239D4225D2214C07E005F57E
:100F24000065D9E9023203EBC223AB421CD9F76155
:100F340023694CF2503043F0020323616561236955
:100F440043F040032361FFF775FF236923F0020395
:100F540023610028E3D0C8F8005005E04CF250307B
:100F6400FFF768FF20B1012000233376BDE8F88342
:100F74000B4CF06123694CF2503043F004032361BD
:100F8400236943F040032361FFF754FF236923F0EF
:100F940004032361E8E70220BDE8F883E8010020A8
:100FA4000020024070B5274C4CF25030E36913F036
:100FB400020F14BF0025A525FFF73CFF034608B127
:100FC400184670BD204E4CF25030F361236943F053
:100FD40020032361236943F040032361FFF72AFFC1
:100FE400236923F02003236103460028E8D14CF24F
:100FF4005030FFF71FFF03460028E1D1F061236959
:101004004CF2503043F020032361236943F0400342
:101014002361FFF70FFF236923F0200323610346B5
:101024000028CDD12369094A43F0100323614CF20F
:1010340050301580FFF7FEFE236923F0100323616F
:101044000346BDE700200240E801002000F8FF1F2E
:101054002DE9F843AA4E337E012B00F009810546A1
:10106400012030762B68DC070DD4044699075ED442
:101074005A0700F193801B0700F1B5800023204636
:101084003376BDE8F8836B689E4F8342D5F80890A9
:101094004CF25030D7F8208000F0C380FFF7CAFE2E
:1010A40004460028EAD1F061FFF77CFF04460028DB
:1010B400E4D13B6949EA080843F010033B615FFA55
:1010C40088F3FF2B09D090494CF250300A8992B230
:1010D40013430B81FFF7AEFEF0B9C8F30723FF2BD0
:1010E40009D089494CF250304A8992B213434B815A
:1010F400FFF7A0FE80B9C8F30743FF2B00F0BC80C4
:1011040081494CF250308A8992B213438B81FFF7A4
:1011140091FE002800F0B08004467A4A136923F057
:1011240010031361002CA9D12B689907A0D54CF2A8
:10113400503095F81080FFF77DFE044600289DD1BD
:10114400704FF0613B694CF2503043F020033B6137
:101154003B6943F040033B61FFF76CFE3B69044687
:1011640023F020033B61002888D13B691FFA88F8EB
:1011740043F010033B61644B4CF25030A3F8008001
:10118400FFF758FE3B69044623F010033B61002837
:101194007FF474AF2B685A077FF56DAF4CF2503073
:1011A40095F81180FFF746FE044600287FF466AFE9
:1011B400544FF0613B6948F0880843F010033B61E9
:1011C400514B4CF25030A3F80280FFF733FE3B69D9
:1011D400044623F010033B6100287FF44FAF2B68D3
:1011E4001B077FF54BAF4CF25030D5F814802F7E9F
:1011F400FFF720FE044600287FF440AF414DF06124
:101204002B69BFB243F010032B614CF25030A8F8A5
:101214000070FFF70FFE2B69044623F010032B61C7
:101224002CE7FFF707FE044600287FF427AFF061A0
:10123400FFF7B8FE044600287FF420AF3B6928EA94
:10124400090843F010033B615FFA88F3FF2B2BD0AE
:101254002D4A4CF2503011890B401381FFF7EAFDFF
:1012640010B3284A0446136923F01003136159E7A5
:1012740002242046BDE8F8834FEA1868B8F1FF0F4E
:101284000BD0214A4CF25030D3899BB243EA080375
:10129400D381FFF7CFFD04463FE71A4A136923F0D1
:1012A400100313612B68E1E6C8F30723FF2B09D071
:1012B400154A4CF2503051890B405381FFF7BAFD67
:1012C4000028CED1C8F30743FF2B09D00E4A4CF2B5
:1012D400503091890B409381FFF7ACFD0028C0D1B9
:1012E4004FEA1868B8F1FF0FD7D0074B4CF25030D3
:1012F400DA8908EA0208A3F80E80FFF79BFDB0E73D
:10130400E80100200020024000F8FF1F0722084BDC
:1013140002601A6A8260DA6912F0020F14BF0022B6
:10132400A5220274DB69C3F382034374704700BFD0
:10133400002002402DE9F04F0E6883B0002E00F02B
:10134400BE800022854F92461346854DDFF81482F5
:1013540006E0013336FA03F402F1040200F0AF8030
:1013640001249C4034EA060E04EA060CF1D14E68CE
:10137400122E00F2A780122E1AD8DFE806F0B0C2AF
:10138400BED719191919191919191919191919BAC5
:10139400C500DFF8D4E1764500F0A1800EF5702E8B
:1013A400764500F09C80AEF5801E764500F097806F
:1013B400BCF1FF0F9CBF864693464FF00F0684BFD7
:1013C40000F1040EA2F1200BDEF800400AFA0BF93A
:1013D40006FA0BFB24EA0B0444EA0904CEF80040A5
:1013E4004C6814F0805F00F08280D7F818E003F0B6
:1013F40003094EF0010EC7F818E0D7F818E04FEAD9
:1014040089090EF0010ECDF804E0DDF804E023F0C4
:10141400030E0EF1804E0EF5803EDEF808B006FA9B
:1014240009F62BEA0606DFF844B158451BD00BF544
:10143400806B584573D0DFF838B1584568D0DFF871
:1014440034B158457CD0DFF830B158457FD0DFF84F
:101454002CB158450CBF4FF0050B4FF0060B0BFA9F
:1014640009F946EA0906CEF808602E6814F4803FAC
:1014740014BF46EA0C0626EA0C062E606E6814F4C5
:10148400003F14BF46EA0C0626EA0C066E60AE68FE
:1014940014F4801F14BF46EA0C0626EA0C06AE605C
:1014A40014F4001FEC681FD044EA0C04EC600E68CE
:1014B400013336FA03F402F104027FF451AF03B0AE
:1014C400BDE8F08F46450AD07FF663AFDFF8B0E0A1
:1014D400764504D00EF5803E76457FF469AF8E687C
:1014E4003EBB4FF0040A63E724EA0C04EC600E6888
:1014F4002FE7CC6804F1040A5AE7CC6804F1080A1F
:1015040056E7D1F80CA053E7CC6804F10C0A4FE776
:101514004FF0020B0BFA09F946EA0906A3E74FF06C
:10152400010B0BFA09F946EA09069CE74FF0000A99
:101534003EE7012E4FF0080A0CBF0461446137E70F
:101544004FF0030B0BFA09F946EA09068BE74FF053
:10155400040B0BFA09F946EA090684E70010024075
:101564000004014000002210000012100008014095
:10157400001001400014014000180140001C01400B
:101584000000311002B90904016170472DE9F04FE0
:1015940006468A46174604689846236883B043F48F
:1015A40080732360DDE90C9BB9F1FF3F36D1656997
:1015B400E807FCD50AF0FE012161B9F1FF3F03D031
:1015C40052E061694D0560D461698B07F9D5002348
:1015D400019363690193A3690193019BB9F1FF3FEF
:1015E40040F0A48063691A0667D463695B05F9D582
:1015F400002220236FF480616161326386F83D30FC
:1016040086F83E20336C86F83C2043F004033364B0
:10161400336C042B00F0838001204BE06369D9070D
:10162400C8D4FFF7C1F9A0EB0B00814504D3B9F18D
:10163400000F01D03468B7E700222023326386F814
:101644003D3086F83E20336C316843F0200386F841
:101654003C2033640B68DC0538D54FF40073032059
:10166400336403B0BDE8F08F63699807AFD463694E
:101674005A050AD4FFF798F9A0EB0B00814567D30C
:10168400B9F1000F64D0346897E700226FF48065E5
:1016940020210120236843F40073236065613263D1
:1016A40086F83D1086F83E20336C86F83C2043F0E3
:1016B4000403336403B0BDE8F08FB8F1010F09D11E
:1016C4000020FFB2276103B0BDE8F08F032003B010
:1016D400BDE8F08F3B0A2361B9F1FF3F47D163694D
:1016E4001906EDD463695A05F9D5002220236FF455
:1016F40080616161326386F83D3086F83E20336C48
:1017040086F83C2043F004033364336C042B83D108
:1017140032680120136843F400731360CAE7326827
:101724000120136843F400731360C3E763691D0663
:10173400C3D4636959053FF55BAFFFF735F9A0EBF7
:101744000B03994524D3B9F1000F21D0346845E740
:1017540000222023326386F83D3086F83E20336C25
:10176400012043F0200386F83C203364A2E7636938
:101774001B06A5D463695805B7D4FFF715F9A0EB88
:101784000B03994512D3B9F1000F0FD03468A3E7C6
:1017940000222023326386F83D3086F83E20336CE5
:1017A40086F83C2043F02003336431E700222023F1
:1017B400326386F83D3086F83E20336C86F83C2050
:1017C40043F020033364A0E72DE9F04F06468B462F
:1017D400174604689846236883B043F48063236003
:1017E4002368DDE90CA943F480732360BAF1FF3F59
:1017F40039D16569EB07FCD50BF0FE0323615FFA71
:101804008BFBBAF1FF3F03D06BE061694A0550D40A
:1018140061698907F9D50023019363690193A36979
:101824000193019BBAF1FF3F40F0BF806369180642
:101834006AD463695905F9D5002220236FF48061C5
:101844006161326386F83D3086F83E20336C86F859
:101854003C2043F004033364336C042B73D0012025
:1018640003B0BDE8F08F6369DD07C5D4FFF79CF8CA
:10187400A0EB0900824504D3BAF1000F01D034680B
:10188400B4E700222023326386F83D3086F83E20F8
:10189400336C316843F0200386F83C2033640B68D2
:1018A400DA0540D54FF400730320336403B0BDE878
:1018B400F08F00226FF4806520210120236843F417
:1018C400007323606561326386F83D1086F83E201C
:1018D400336C86F83C2043F00403336403B0BDE862
:1018E400F08F63699B0796D463695805E1D4FFF7C9
:1018F4005BF8A0EB09008245C0F08F80BAF1000FBD
:1019040000F08B8034687CE7B8F1010F0FD1FFB28F
:101914002761BAF1FF3F6ED163691B061AD463696C
:101924005F05F9D588E7032003B0BDE8F08F3B0AD3
:101934002361BAF1FF3F7FD163691D06E7D4636970
:101944005805F9D578E732680120136843F4007329
:101954001360C3E7236843F480732360BAF1FF3F45
:1019640013D16369D807FCD54BF001032361BAF1A5
:10197400FF3F03D02BE063695B059AD46369DB43C3
:1019840013F00203F7D11846A8E76369D907EBD42B
:10199400FFF70AF8A0EB09039A45FFF472AFBAF116
:1019A400000F3FF46EAF3468D8E763691A06ABD40E
:1019B40063695D053FF540AFFEF7F6FFA0EB090351
:1019C4009A454CD3BAF1000F49D034682AE76369C9
:1019D400DB4313F00203D6D063695A053FF569AFC0
:1019E400FEF7E2FFA0EB09039A4516D3BAF1000F04
:1019F40013D03468BBE763691D06ABD463695A0529
:101A04003FF51AAFFEF7D0FFA0EB09039A4526D3A2
:101A1400BAF1000F23D034687BE70022202332631D
:101A240086F83D3086F83E20336C012043F02003D5
:101A340086F83C20336451E7636919063FF567AFC4
:101A440063695B053FF5F8AEFEF7AEFFA0EB090353
:101A54009A4504D3BAF1000F01D0346869E7002233
:101A64002023326386F83D3086F83E20336C86F8B6
:101A74003C2043F020033364EEE600BF002800F06E
:101A8400B98038B590F83D30044603F0FF02002BCE
:101A940000F098802422236884F83D201A6822F0FC
:101AA40001021A601A6842F400421A601A6822F4A9
:101AB40000421A6000F054FE63684F498B424FD8CD
:101AC4004E4A90427CD94E4D5A00A5FB0035431E28
:101AD400B3FBF2F340F6FC7E2268A90C506801F1D6
:101AE400010C20F03F0040EA95405060116A013338
:101AF40021F03F0141EA0C011162D16913EA0E0F92
:101B040021F44F4121F0FF0161D104230B43D36140
:101B14001168D4E9073021F0C00103430B4313607B
:101B24009168D4E9030321F40341034321F0FF0145
:101B34000B439360D068D4E9053120F0FF000B43D8
:101B44000343D3601368002143F00103136020238F
:101B5400216484F83D30216384F83E10084638BD82
:101B6400284A90422CD9264DA5FB002C4FF496729E
:101B74004FEA9C4102FB01F1234D2268A5FB015170
:101B84005568890925F03F0545EA9C455560156A65
:101B9400013125F03F0529431162D169A56821F47B
:101BA4004F4121F0FF01ADB9013803EB4303B0FB12
:101BB400F3F30133C3F30B03D3B143F40043A5E7B9
:101BC400012038BD80F83C20FEF7C6FC62E7C3F371
:101BD4000B039BE703EB8303013803EB8303B0FBA5
:101BE400F3F30133C3F30B0313B143F440438DE721
:101BF40001238BE701207047A08601007F841E002B
:101C040083DE1B43FF083D00D34D62102DE9F04FE6
:101C1400044683B099460F469046BDF834A00E9E04
:101C2400FEF7C2FE94F83D30202B04D0022738463C
:101C340003B0BDE8F08F054605E0FEF7B5FE401B96
:101C4400192800F2C080206883696FEA030C1CF035
:101C5400020BF2D094F83C30012BE7D0012384F836
:101C64003C300368DB0740F18E8042464FF0400E63
:101C74004FF0000C4FF02108394607684B4627F413
:101C8400006707600C986062CDE9006584F83D80C8
:101C940084F83EE0C4F840C0A4F82AA0608D2085F2
:101CA4006A48E0622046FFF771FC074600BB238DBB
:101CB400002B00F0BA802368711C69D15A6912069E
:101CC4001BD45A695005F9D500226FF48060202195
:101CD4005861226384F83D1084F83E20236C84F814
:101CE4003C2043F004032364236C042B00F08A801B
:101CF4000127384603B0BDE8F08F606AB4F828C005
:101D0400024612F801EB0CF1FF31C3F810E06262F5
:101D1400628D89B2013A92B262855A69218552076D
:101D24002ED509BB721C74D15A6950075DD45A6907
:101D34005105F9D500226FF4806020215861226397
:101D440084F83D1084F83E20236C84F83C2043F052
:101D540004032364236C042BCAD12268012713686B
:101D640043F40073136062E74278ACF102011A6134
:101D7400628D89B2013A023092B260622185628535
:101D8400002999D1CEE7036843F0010303606CE7AF
:101D94005A691106B1D45A69500595D4FEF704FE68
:101DA400401B864201D3002E85D1002220232263CA
:101DB40084F83D3084F83E20236C84F83C2043F0C2
:101DC4002003236490E7022720233846C4F830B068
:101DD40084F83D3084F83EB0236C84F83CB043F082
:101DE4002003236403B0BDE8F08F002120201A688B
:101DF40042F400721A6084F83D0084F83C1084F8C0
:101E04003E1014E722680127136843F4007313603B
:101E14000DE75A695207E8D45A6951058AD4FEF786
:101E2400C3FD431B9E4202D30EB123687AE700220E
:101E34002023226384F83D3084F83E20236C84F808
:101E44003C2043F02003236484E700BF0000FFFF2D
:101E54002DE9F04F002489B00394044699460F46B7
:101E64009046BDF84CA0149EFEF79EFD94F83D30BC
:101E7400202B04D00227384609B0BDE8F08F054670
:101E840005E0FEF791FD401B192800F2C18020688F
:101E940083696FEA030C1CF0020BF2D094F83C3017
:101EA400012BE7D0012384F83C300368D90739D5E6
:101EB40042464FF0400E4FF0000C4FF022083946D6
:101EC40007684B4627F40067076012986062CDE903
:101ED400006584F83D8084F83EE0C4F840C0A4F86E
:101EE4002AA0608D20859C48E0622046FFF76CFCA8
:101EF4000746002840F09E80228DC2B923680490D2
:101F04005A6904929A690492049A1A6842F4007213
:101F14001A600023202284F83C3084F83D2084F8A1
:101F24003E30A8E7036843F001030360C0E7012AD9
:101F340000F04381022A00F0CD802368196841F43F
:101F44008061196007905969079199690791079908
:101F5400032ADFF80892DFF8088232D8012A00F059
:101F6400F880022A76D1711C40F0CC805A6952075D
:101F7400FCD572B62368616A1A6842F400721A606A
:101F84001B690B70638D013B9BB26385636A0133EC
:101F94006362238D013B238562B623681A69636AF1
:101FA4001A70638D228D013B9BB26385636A013A8B
:101FB40092B2013322856362002AAAD0032A2368DD
:101FC400CCD95EB9AAE05A69D00600F1D880FEF7F0
:101FD400EBFC401B8642C0F0AA8023685A69520673
:101FE400F1D51A69636A1A70638D2168013B9BB24B
:101FF400228D63854869636A013A92B203F1010C48
:1020040040072285C4F824C0D6D50A695A70C8E7A7
:10201400022720233846C4F830B084F83D3084F8D1
:102024003EB0236C84F83CB043F02003236409B031
:10203400BDE8F08F0127384609B0BDE8F08F5A6932
:1020440052070CD4FEF7B0FC401B86426FD3002E1F
:102054006DD02368701CF2D15A695107FCD51A68F7
:1020640022F480621A6072B623681A69636A1A706D
:10207400D9F80030616ADB08A8FB0323628D1B0AD0
:1020840003EB8303013AC3EBC30392B26285039368
:10209400238D013B23854B1C636203E023685A694B
:1020A40050077FD4039B013B0393039B002BF5D183
:1020B4002022236384F83D2084F83E30226C42F0D1
:1020C4002002226462B60127384684F83C3009B005
:1020D400BDE8F08F2268136843F40063136072B69E
:1020E400236806905A6906929A690692069A1A68B3
:1020F40022F480621A6062B6228D002A3FF409AF8E
:10210400236825E75B695B073FF533AFFEF74CFCBB
:10211400401B86420BD356B1236824E75A69520602
:102124003FF55FAF5A69D10629D4FEF73DFC01277C
:10213400002220233846226384F83D3084F83E2070
:10214400236C84F83C2043F02003236409B0BDE8E9
:10215400F08F6EB92DE000BF0000FFFF00000020EB
:1021640089B5F814FEF720FC401B8642DFD32368B0
:102174005A6951063FF512AF5A69D206F2D56FF08B
:10218400100001270022202158613846226384F878
:102194003D1084F83E20236C84F83C20236409B06D
:1021A400BDE8F08F1A6842F400721A601B694B7024
:1021B400E8E65A695006B5D5F0E62268136823F4B8
:1021C4008063136072B6236805905A6905929A6910
:1021D4000592059A1A6842F400721A6062B68BE797
:1021E400002800F0B6812DE9F04103680446DD07BC
:1021F40082B035D59A494A6802F00C02042A00F0EC
:10220400EF804A6802F00C02082A00F0E580636857
:10221400B3F5803F10D0002B00F00C81B3F5A02F54
:1022240000F082818E4B1A6822F480321A601A6898
:1022340022F480221A6004E0894A136843F480334C
:102244001360FEF7B1FB864E054605E0FEF7ACFBD6
:10225400401B642800F2EA8033689A03F6D52368A9
:102264009F0728D57E4A516811F00C0F00F08D802D
:10227400516801F00C01082900F083802369002BC8
:1022840000F018810122774B754E1A60FEF78CFB23
:10229400054605E0FEF788FB401B022800F2C680D5
:1022A40033689807F6D53368626923F0F80343EA84
:1022B400C203336023681A071FD45D0742D5684BF5
:1022C400DA69D0007DD50025674E3368D90540F121
:1022D4009D80E368012B00F0FE80002B00F0CA8093
:1022E400052B5F4B1A6A00F02C8122F001021A625E
:1022F4001A6A22F004021A62F2E0A369002B4FD09A
:102304000122584B564EC3F88024FEF74DFB054678
:1023140005E0FEF749FB401B022800F28780736A40
:102324009B07F6D5514B524A1B68A2FB03235B0A59
:10233400019300BF019B5A1E0192002BF9D123681F
:102344005D07BCD4E069C0B1454D6B6803F00C0374
:10235400082B00F0D8800022424B02281A6600F0B5
:10236400FA80FEF721FB044604E0FEF71DFB001B88
:1023740002285BD82B689B01F7D4002002B0BDE88B
:10238400F0815268D6033FF579AF354A1268950754
:1023940030D52269012A2DD0012002B0BDE8F08198
:1023A400304A2F4EC2F88034FEF7FEFA054604E0A8
:1023B400FEF7FAFA401B022838D8736A9F07F7D44D
:1023C400BDE7DA69012542F08052DA61DB6903F086
:1023D40080530093009B77E74A68D0037FF517AFDB
:1023E4001F4A126891037FF53BAF6268002A7FF4AD
:1023F40037AFD1E71A4960690A6822F0F80242EA65
:10240400C0020A601A077FF558AF76E7336843F4D1
:1024140080733360FEF7C8FA07463368DA053FF580
:1024240058AFFEF7C1FAC01B6428F6D9032002B0E6
:10243400BDE8F0810A4D2B6823F480332B602B68B0
:1024440023F480232B60FEF7AFFA064604E0FEF780
:10245400ABFA801B6428E9D82B689B03F7D4FEE60B
:1024640000100240000042420070004000000020C2
:10247400D34D6210504E41F28838336A23F0010381
:102484003362336A23F004033362FEF78DFA07469E
:1024940004E0FEF789FAC01B4045C7D8336A9807A1
:1024A400F7D4002D3FF44EAF434AD36923F0805351
:1024B400D36147E7414A404E1360FEF775FA05467B
:1024C40004E0FEF771FA401B0228AFD8336899077D
:1024D400F7D42368EFE6384A136A43F00103136222
:1024E400FEF762FA41F288380646334F04E0FEF7FD
:1024F4005BFA801B404599D83B6A9B07F7D5002DB2
:102504003FF420AFD0E701283FF438AF6B68226A6C
:1025140003F4803191427FF43FAF606A03F4701397
:10252400181A18BF012029E703F18043A3F53C33AF
:102534001A6842F480221A601A6842F480321A60DF
:102544007FE642F004021A621A6A42F001021A6239
:10255400C6E701207047FEF727FA064605E0FEF7B6
:1025640023FA801B02283FF661AF2B689901F6D449
:10257400236AB3F5803F05D16A68A16822F400326A
:102584000A436A6001200C4D616A6A680B4322F4B5
:1025940074120A4913436B600866FEF705FA044691
:1025A40005E0FEF701FA001B02283FF63FAF2B6857
:1025B4009A01F6D5E1E600BF001002400000424255
:1025C400002800F0B1805E4A2DE9F041136804460A
:1025D40003F007038B420D4686B00DD2136823F037
:1025E40007030B431360136803F007038B4203D004
:1025F400012006B0BDE8F08123689E0714D5580772
:1026040004D550494A6842F4E0624A60190704D587
:102614004C494A6842F460524A604A49A0684A6890
:1026240022F0F00202434A60DA0720D56268454B83
:10263400012A1B687AD0022A73D09E07D8D5414E4E
:1026440041F28838736823F0030313437360FEF781
:10265400ABF9074604E0FEF7A7F9C01B404568D86C
:102664007368626803F00C03B3EB820FF3D1344A4E
:10267400136803F00703AB4209D9136823F0070377
:102684002B431360136803F00703AB42B0D12368F4
:10269400580706D52B49E0684A6822F4E0620243F1
:1026A4004A60190707D5274A2169536823F4605300
:1026B40043EAC103536040F20124234B06AD0FCB20
:1026C40005E90F001F49ADF804404A6802F00C0305
:1026D400082B11D01D4B1B4A1D4852681D49C2F3DB
:1026E4000312805C1C4AC34008681360FEF71AF9A1
:1026F400002006B0BDE8F081C2F3834318336B4475
:10270400D20313F8103C16D54A681049C2F340426C
:1027140001FB03F318326A4412F8142CB3FBF2F3EE
:10272400D9E79F018BD463E7012070479B0386D4CC
:102734005EE703205DE7094A02FB03F3CBE700BF32
:102744000020024000100240483D000800127A00B8
:10275400303D0008080000200000002000093D0072
:10276400044B054A5B680549C3F30223CB5C10683C
:10277400D84070470010024000000020403D00088F
:10278400044B054A5B680549C3F3C223CB5C10685C
:10279400D84070470010024000000020403D00086F
:1027A4002DE9F0410446006882B0C1072CD53A4BAC
:1027B400DA69D2003FD5394D00262B68DF0548D5AC
:1027C400354D2B6A13F4407311D0616801F44072E3
:1027D4009A420DD0012700202B6A314A23F440711C
:1027E400C2F84074C2F840042962D90744D461682D
:1027F400294A136A23F440730B4313621EB1D3694D
:1028040023F08053D3612068830706D52249A36847
:102814004A6822F440421A434A6010F0100007D07C
:1028240000201D4A6169536823F480030B435360FD
:1028340002B0BDE8F081DA69184D42F08052DA61E5
:10284400DB69012603F080530193019B2B68DF05AC
:10285400B6D42B6843F480732B60FEF7A5F80746C3
:102864002B68D805ACD4FEF79FF8C31B642BF7D9AB
:10287400032002B0BDE8F081FEF796F841F28838F3
:10288400074604E0FEF790F8C01B4045F0D82B6AD9
:102894009A07F7D5ABE700BF001002400070004074
:1028A40000004242002864D0F8B590F8393004465C
:1028B40003F0FF02002B54D0D4E90227242120691D
:1028C40023680243606984F839100243D868A66912
:1028D40020F40050D8601969274D21F44051394340
:1028E4001961D968AB4221F4B05121F00C0142EADC
:1028F4000102DA605A6922F4407242EA06025A611D
:1029040034D0FFF72DFF626800EB8003920003EBE5
:102914008303B3FBF2F3642600254FF0200C174821
:102924002168A0FB0372520906FB12331B013233E8
:10293400A0FB0303120102EB53138B600B692846BF
:1029440023F490430B614B6923F02A034B61CB685A
:1029540043F40053CB60E56384F839C084F83AC08B
:10296400F8BD80F83820FDF72BFEA5E7FFF708FF38
:10297400C9E70120704700BF003801401F85EB51B3
:102984002DE9F8431D4690F83930202B68D188464C
:10299400002940D01746002A3DD090F8383004462C
:1029A400012B5DD0212301224FF0000980F838204B
:1029B400C0F83C9080F83930FDF7F6FFA36806466E
:1029C400B3F5805FA784E7844DD0002384F83830C2
:1029D400E38C9BB2002B58D02368691C1ED11A6863
:1029E4001206FCD5B8F1000F35D018F8012B5A6047
:1029F400E28C013A92B2E284E28C92B2002AECD1E7
:102A0400681C36D11A685106FCD5202384F8393065
:102A14000020BDE8F8830120BDE8F8831A68170692
:102A2400E0D42DB1FDF7C0FF801B85422368D4D2CA
:102A340020210025DA68032022F4D072DA605A6972
:102A440022F001025A6184F8391084F8385084F86D
:102A54003A10BDE8F88339F8022BC2F30802C6E73E
:102A64000220BDE8F8832369002BAED1C146984605
:102A7400ABE71A685206C8D4002DD9D0FDF794FFED
:102A8400831B9D422368BBD2D2E72368B8E700BF0B
:102A9400704700BF704700BF08B58368B3F5805F17
:102AA40029D0826A03B303685B6803F07F03137061
:102AB400836A01338362C38D013B9BB2C38503B137
:102AC40008BD20210368DA6822F02002DA60DA689F
:102AD40022F48072DA605A6922F001025A6180F8A5
:102AE4003A10FFF7D7FF08BD0369002BDBD1036859
:102AF4005B681370DCE7036943B90268836A526850
:102B0400C2F3080223F8022B8362D4E70368826AC3
:102B14005B681370CCE700BF704700BF036870B5F3
:102B24001A6804461607DD6859690CD1910601D567
:102B3400AE064ED4160601D5280652D4510601D548
:102B44006A066AD470BD01F0010105F4907008436F
:102B5400F0D0D00705D5EE0503D5E06B40F00100B9
:102B6400E063500730D549B1E06B960740F00200AE
:102B7400E06303D5E06B40F00400E063160707D57B
:102B840005F02000014303D0E16B41F00801E1634B
:102B9400E16B0029D6D0900609D5A90607D594F88B
:102BA4003A20222A03D12046FFF776FF23685A6988
:102BB400E56B02F0400205F00805154338D12046C4
:102BC400FFF7AAFFE56370BD9007D7D50029D1D1DF
:102BD400D4E790F83A30222BB4D1BDE87040FFF727
:102BE4005BBF94F83920212AACD1A268B2F5805F8A
:102BF40042D0226A511C216212785A60E28C013A56
:102C040092B2E284002A9DD1DA6822F08002DA606E
:102C1400DA6842F04002DA6070BD2021DA682046AA
:102C240022F04002DA6084F83910FFF731FF70BDFA
:102C34002021DA6822F49072DA605A6922F00102E3
:102C44005A6184F83A105A69520611D55A69606B70
:102C540022F040025A6158B10D4B4363FDF732FF35
:102C640000283FF46FAF606BBDE87040436B1847BA
:102C74002046FFF751FF70BD2269002AB9D1226AAC
:102C840032F8021BC1F3080159602262B6E700BFA3
:102C9400992C000808B50023406AC385C384FFF754
:102CA4003BFF08BDF0B50524ADF5077D4FF4FA7080
:102CB400FDF780FE674800F085FA03AB2022A021CF
:102CC4006548009400F0A0F99DF80C30AA2B03D1BC
:102CD4009DF80D30552B29D00A2000F0F1F95F48FA
:102CE40000F070FA4FF47A70FDF764FE5C4A5D4BB5
:102CF40011680B40B3F1005F0AD012685A4B1340BD
:102D0400B3F1005F04D04FF47A70FDF753FEFAE795
:102D1400564800F057FA524A5548536855490360DB
:102D240012680B6082F308889847ECE7524A4E4BCE
:102D340012681340B3F1005FCED1504800F042FA5C
:102D44004F49474800F0CAF84E4800F03BFA4E4855
:102D540000F038FA40F6B830FDF72CFE9DF80F303D
:102D64009DF80E401B0243EA04435C0A002000F075
:102D740001F904F580232133394D444F5E024FF4A9
:102D8400007205F5003106A800F084F9FEF722F878
:102D94008022284606A9062400F0BCF878B1013C3C
:102DA4000DD0384600F00EFA4FF47A70FDF702FEAB
:102DB4008022284606A900F0ADF80028EFD1FEF7DE
:102DC4001DF805F50075232000F07AF9B542D6D137
:102DD400052500242E4800F0F5F92E4800F0F2F9FC
:102DE4002022A02103AB1C480095CDE90344ADF893
:102DF400144000F0E9F8284800F0E4F91E4800F017
:102E04004FF80A2000F05CF9244800F0DBF94FF495
:102E14007A70FDF7CFFD124A124B11680B40B3F1E3
:102E2400005F06D01268104B1340B3F1005F7FF4CB
:102E34006AAF0B4D0D4800F0C5F90E4C6B680C4A97
:102E440023601360FDF75EFD2B6883F30888236815
:102E5400984758E75C3D00088C000020143E0008A9
:102E6400004000080000FE2F0000F02F083E00087C
:102E7400080200200C02002000400208683D0008FF
:102E8400000002087C3D0008983D0008A43D0008AD
:102E9400B03D0008C43D0008DC3D0008F83D0008D2
:102EA400D0B5002304460026012786B00193FDF720
:102EB40091FFC4F1006303F58023DB0A01A902A892
:102EC40005930494CDE90267FEF70AF80446FDF77A
:102ED40095FF201E18BF012006B0D0BD002330B5D9
:102EE40005460C4687B00193FDF774FF00220123C9
:102EF400641B01A902A8E40ACDE902230594049500
:102F0400FDF7EEFF0446FDF779FF201E18BF0120F0
:102F140007B030BD2DE9F041174604460D46FDF7D4
:102F240059FFE7B1DFF84880444518D80026043D2E
:102F340008E022682B6804349A4215D1B7420ED0B7
:102F440044450CD821460023022055F8042FFDF7F0
:102F540057FE01360028ECD00320BDE8F081FDF7D0
:102F64004DFF0020BDE8F0810220BDE8F08100BFE4
:102F7400FCFF030830B504468FB0B4FA84F407A804
:102F8400FEF7C4F90122A5239DF82D1064098DF8DC
:102F9400111000928DF81030099D0194FDF71AFF6D
:102FA400FDF736FFFDF7FEFF10B104200FB030BD72
:102FB40045F47F2545F47F6568460295FEF748F899
:102FC4000028F2D10FB030BD2DE9F0470B244FF4A7
:102FD4007A7807468A4616461D4684B0BDF8309076
:102FE4000123324651463846CDE901980095FEF753
:102FF4000DFE08B1013CF3D11E20FDF7DBFC0120DE
:1030040004B0BDE8F08700BF2DE9F0470B244FF46E
:103014007A7807468A4616461D4684B0BDF8309035
:103024000123324651463846CDE901980095FEF712
:103034000FFF08B1013CF3D1012004B0BDE8F087D3
:10304400014B1868704700BF0C00002070B50026C3
:103054000C4D0D4C641BA410A64209D100F058FE7F
:1030640000260A4D0A4C641BA410A64205D170BD6B
:1030740055F8043B98470136EEE755F8043B98476A
:103084000136F2E7883E0008883E0008883E0008C2
:103094008C3E00080A44914200F1FF3300D170478E
:1030A40010B511F8014B914203F8014FF9D110BD4D
:1030B40003460244934200D1704703F8011BF9E729
:1030C40038B5084B05461C6824B1A36913B92046DA
:1030D40000F024FB29462046A268BDE8384000F0F1
:1030E40007BD00BF0C00002070B50E46054618B1A0
:1030F40083690BB900F012FBAB69AC6813B92846BD
:1031040000F00CFB2C4B9C4220D16C68636EDB07F7
:1031140005D4A389980502D4A06D00F09DFBA38972
:1031240019071DD52369DBB1013EA36816F8011FF9
:10313400013BA36039BB002B38DA22460A2128461A
:1031440000F016F9013011D00A2511E01B4B9C4206
:1031540001D1AC68DAE71A4B9C4208BFEC68D5E7AA
:103164002146284600F056F90028DDD04FF0FF35FF
:10317400636EDA0705D4A3899B0502D4A06D00F021
:103184006CFB284670BD002B04DAA2699A4206DC67
:103194000A2904D023685A1C22601970C5E7224604
:1031A400284600F0E5F80130BFD1DFE70A2523689F
:1031B4005A1C22601D70DBE7483E0008683E000888
:1031C400283E0008024B01461868FFF78DBF00BF78
:1031D4000C00002000294FF480630CBF022200225F
:1031E40000F000B82DE9F7431D465D4B04461F6807
:1031F4000E46904627B1BB6913B9384600F08EFAE3
:10320400584B9C4267D17C68B8F1020F06D0B8F1E4
:10321400010F00F29F80002DC0F29C80636EDB07DB
:1032240005D4A389980502D4A06D00F015FB2146AE
:10323400384600F0DFF9616B41B104F1440399426F
:1032440002D0384600F078FB002363630023A361B7
:103254006360A389190603D53846216900F06CFB25
:10326400A389B8F1020F23F44A6323F00303A38173
:103274006CD001AB6A462146384600F0EFFAA389C8
:103284001843A081002D30D1009D284600F04CFB4E
:103294000646002855D1DDF80090A9454AD14FF0E3
:1032A400FF350022A26004F147022260226101225C
:1032B400B4F90C306261626E43F00203D207A38159
:1032C40005D413F4007F02D1A06D00F0C6FA28469D
:1032D40003B0BDE8F083244B9C4201D1BC6893E762
:1032E400224B9C4208BFFC688EE7002ECDD0BB6900
:1032F40013B9384600F012FAB8F1010F08BFA389D8
:10330400C4E9046504BF43F00103A381A2892660D4
:1033140012F008031CD0D30741BF00236D42A36001
:10332400A56158BFA560656E15F0010515D112F4AD
:10333400007FC8E7484600F0F7FA06460028AED0FA
:103344004D46A38943F08003A381D0E70025A8E775
:10335400A360E8E74FF0FF35B9E70025B7E700BF02
:103364000C000020483E0008683E0008283E000883
:10337400F8B50E461446054618B183690BB900F03A
:10338400CDF9214B9C422BD16C68A369A360A3891E
:103394001A072FD523696BB323692068F6B2C01AC4
:1033A40063693746834204DC2146284600F022F94B
:1033B40030BBA3680130013BA36023685A1C226020
:1033C4001E706369834204D0A389DB0706D50A2EE5
:1033D40004D12146284600F00DF988B93846F8BDD5
:1033E4000A4B9C4201D1AC68CFE7094B9C4208BF11
:1033F400EC68CAE72146284600F00CF80028CBD038
:103404004FF0FF37EAE700BF483E0008683E000877
:10341400283E0008324B70B51D6806460C4625B19F
:10342400AB6913B9284600F079F92E4B9C420FD1B1
:103434006C68A389B4F90C2019072CD4DD0611D4C7
:103444000923336042F040034FF0FF30A3813EE094
:10345400254B9C4201D1AC68EBE7244B9C4208BF4E
:10346400EC68E6E7580712D5616B41B104F14403F7
:10347400994202D0304600F05FFA00236363A389C7
:1034840023F02403A3810023636023692360A389B9
:1034940043F00803A38123694BB9A38903F4207380
:1034A400B3F5007F03D02146304600F0FDF9A08932
:1034B400B4F90C2010F001030AD00023A36063695F
:1034C4005B42A361236943B910F08000BAD170BD97
:1034D400810758BF6369A360F4E70020F7E700BFE2
:1034E4000C000020483E0008683E0008283E000802
:1034F4008A89F8B5054610070C4657D44B68002B4B
:1035040004DC0B6C002B01DC0020F8BDE66A002E05
:10351400FAD0002312F480522F682B6032D0606DF1
:10352400A3895A0705D56368C01A636B0BB1236C72
:10353400C01A00230246E66A2846216AB047431CA3
:10354400A38906D129681D292CD8294ACA40D6073F
:1035540028D5002262602269D904226004D5421C65
:1035640001D12B6803B96065616B2F600029CBD052
:1035740004F14403994202D0284600F0DDF900200A
:103584006063C2E7216A01232846B047411CC7D1C2
:103594002B68002BC4D01D2B01D0162B01D12F601A
:1035A400B2E7A38943F04003A381AEE70F69002F7C
:1035B400AAD0930718BF00230E6808BF4B69F61BF7
:1035C4000F608B60002E9FDD33463A462846216A01
:1035D400D4F828C0E047002806DCA3894FF0FF3068
:1035E40043F04003A38190E70744361AEAE700BF9B
:1035F4000100402038B50B6905460C4613B9002577
:10360400284638BD18B183690BB900F087F8144B0C
:103614009C421BD16C68B4F90C30002BEFD0626E65
:10362400D00704D4990502D4A06D00F015F92846FA
:103634002146FFF75DFF636E0546DA07E0D4A389F0
:103644009B05DDD4A06D00F008F9D9E7054B9C4239
:1036540001D1AC68DFE7044B9C4208BFEC68DAE7B1
:10366400483E0008683E0008283E0008002310B5C4
:103674000446C0E90033C0E90433836081814366B2
:10368400C2818361194608225C30FFF711FD054BA6
:1036940024626362044BA362044BE362044B23631E
:1036A40010BD00BFA53B0008C73B0008FF3B000856
:1036B400233C0008014900F0AFB800BFF935000809
:1036C400682270B54D1E55430E4605F1740100F095
:1036D4009BF9044640B10021C0E900160C30A060FB
:1036E40005F16802FFF7E4FC204670BD014800F0D4
:1036F400B3B800BF11020020014800F0AEB800BF0B
:1037040011020020014800F0A7B800BF12020020F7
:10371400014800F0A2B800BF1202002010B5044610
:10372400FFF7F0FFA3691BB1BDE81040FFF7F0BF3E
:10373400C4E912332365134B134A1B68A262A342E4
:1037440008BF0123204608BFA36100F01FF8606092
:10375400204600F01BF8A060204600F017F8002275
:103764000421E0606068FFF781FF01220921A0685D
:10377400FFF77CFF02221221E068FFF777FF0123A5
:10378400A361D1E7243E0008B9360008F8B507461E
:10379400FFF7ACFF1E4B1E68B36913B93046FFF741
:1037A400BDFF4836D6E90134013B03D533680BB37A
:1037B4003668F7E7B4F90C50D5B9164B04F1580044
:1037C400E360656600F047F8FFF796FF0822294694
:1037D400C4E90155C4E904552560A56104F15C0000
:1037E400FFF766FCC4E90D55C4E912552046F8BD3F
:1037F4006834D9E704213846FFF762FF0446306095
:103804000028D5D1FFF778FF0C233B60EEE700BF1B
:10381400243E00080100FFFF2DE9F84306468846D0
:10382400002700F14804D4E90195B9F1010905D54F
:103834002468002CF7D13846BDE8F883AB89012B06
:1038440007D9B5F90E30013303D029463046C047B5
:1038540007436835E9E770477047704770B50E460F
:10386400B1F90E10144600291D4696B008DA00225C
:10387400B6F90C302A601A0610D44FF480630EE0B7
:103884006A4600F0F3F90028F1DB019A02F4704271
:10389400A2F500535A425A412A60EEE74023002021
:1038A400236016B070BD00008B8973B59D07064672
:1038B4000C4607D504F147032360236101236361A8
:1038C40002B070BD6A4601ABFFF7C8FF0099054618
:1038D400304600F099F848B9B4F90C309A05EFD4A1
:1038E40023F0030343F00203A381E3E70D4BB36228
:1038F400A389206043F08003A381009B206163615E
:10390400019B5BB13046B4F90E1000F0C1F928B147
:10391400A38923F0030343F00103A381A089054392
:10392400A581CDE7B9360008024B0146186800F0BE
:103934006BB800BF0C00002038B50546002940D004
:1039440051F8043C0C1F002BB8BFE41800F0C2F976
:103954001C4A136833B9636014602846BDE83840D4
:1039640000F0BEB9A34208D9206821188B4201BFD8
:1039740019685B6809182160EDE71A465B680BB1AA
:10398400A342FAD911685018A0420BD1206801440F
:10399400501883421160E0D118685B6801441160DB
:1039A4005360DAE702D90C232B60D6E7206821188C
:1039B4008B4201BF19685B68091821606360546019
:1039C400CBE738BD1402002070B50E4E0C463168AA
:1039D400054611B900F0D4F830602146284600F0BD
:1039E400CFF8431C0AD0C41C24F00304A04207D01F
:1039F400211A284600F0C4F8013001D14FF0FF34F9
:103A0400204670BD180200202DE9F041CD1C25F0A0
:103A1400030508350C2D38BF0C25002D074601DBA6
:103A2400A94205D90C2300263B603046BDE8F0814D
:103A34002E4E00F04FF933681C4634BB29463846F5
:103A4400FFF7C2FF431C04464DD134682646002EBE
:103A540040D123683146384604EB030800F090F85F
:103A640080453AD1216803356D1A25F003050835E0
:103A74000C2D38BF0C2538462946FFF7A5FF013029
:103A84002BD023682B4423600EE02268521B1ED4E3
:103A94000B2A16D96119A342256018BF59606368BF
:103AA40008BF316062514B60384604F10B0600F0E8
:103AB40017F926F00706231DF21AB6D09B1BA35054
:103AC400B3E76268A3420CBF32605A60ECE7234656
:103AD4006468B2E734467668B9E70C2338463B603D
:103AE40000F0FEF8A1E72560DEE700BF1402002025
:103AF40070B50D461446064618B183690BB9FFF735
:103B04000DFE1C4B9C4224D17468636ED80705D407
:103B1400A389990502D4A06DFFF79EFEA368013B1B
:103B2400002BA36005DAA26993421CDBEBB20A2BDB
:103B340019D023685A1C22601D70EDB2636EDA0737
:103B440005D4A3899B0502D4A06DFFF786FE284601
:103B540070BD094B9C4201D1B468D6E7074B9C4227
:103B640008BFF468D1E7294622463046FFF700FC37
:103B74000546E3E7483E0008683E0008283E000882
:103B840038B50023054D044608462B60FCF76CFE4F
:103B9400431C02D12B6803B1236038BD1C020020F2
:103BA40010B50C46B1F90E1000F0A0F80028ABBF18
:103BB400636DA3891B1823F48053ACBF6365A38191
:103BC40010BD2DE9F0411F468B890546DB050C46E7
:103BD400164605D502230022B1F90E1000F068F84C
:103BE400A389324623F48053A38128463B46B4F983
:103BF4000E10BDE8F04100F017B810B50C46B1F94D
:103C04000E1000F055F8431CA38915BF606523F41A
:103C1400805343F48053A38118BFA38110BDB1F92D
:103C24000E1000F013B8000038B5044608461146DB
:103C34000022054D2A601A46FCF7FAFD431C02D106
:103C44002B6803B1236038BD1C02002038B5002363
:103C5400054D044608462B60FCF7F8FD431C02D1D1
:103C64002B6803B1236038BD1C02002038B5002343
:103C7400064D0446084611462B60FCF7EBFD431C39
:103C840002D12B6803B1236038BD00BF1C020020A1
:103C940038B50023054D044608462B60FCF7E0FDCB
:103CA400431C02D12B6803B1236038BD1C020020E1
:103CB40038B50446084611460022054D2A601A46C6
:103CC400FCF7D0FD431C02D12B6803B1236038BD3F
:103CD4001C0200200148FFF7BFBD00BF10020020F6
:103CE4000148FFF7BABD00BF1002002038B50446F2
:103CF400084611460022054D2A601A46FCF78AFD43
:103D0400431C02D12B6803B1236038BD1C02002080
:103D1400F8B500BFF8BC08BC9E467047F8B500BFB4
:083D2400F8BC08BC9E46704784
:103D2C000D00000000000000000000000102030470
:103D3C000607080900000000010203040203040541
:103D4C00060708090A0B0C0D0E0F101000000000DE
:103D5C00426F6F745461736B0000000046696E64AF
:103D6C002061204E65772056657273696F6E2E0048
:103D7C00496E7465726E616C20666C617368206547
:103D8C007261736520646F6E652E000045726173FD
:103D9C00652044656C6179005772697465204572C1
:103DAC00720000000A4E657720535720466C6173F1
:103DBC006820446F6E650000457261736520557014
:103DCC00677261646520436F6E666967000000006E
:103DDC004572617365205570677261646520426934
:103DEC006E61727920496D61676500004E657720C0
:103DFC00532F5720426F6F7400000000204A756DDE
:103E0C0070204170700000004175746F6D617469B1
:103E1C006320426F6F74000010000020000000004F
:103E2C000000000000000000000000000000000086
:103E3C000000000000000000000000000000000076
:103E4C000000000000000000000000000000000066
:103E5C000000000000000000000000000000000056
:103E6C000000000000000000000000000000000046
:0C3E7C000000000000000000000000003A
:043E88000902000823
:043E8C00E501000844
:103E90000024F400010000001000000010000020C9
:103EA00000000000483E0008683E0008283E000868
:103EB0000000000000000000000000000000000002
:103EC00000000000000000000000000000000000F2
:103ED00000000000000000000000000000000000E2
:103EE00000000000000000000000000000000000D2
:103EF00000000000000000000000000000000000C2
:04000005080008B92E
:020000040800F2
:1040000000C0002009540008A5520008A952000869
:10401000AD520008B1520008B5520008000000007F
:10402000000000000000000000000000B95200087D
:10403000BD52000800000000C1520008C55200082F
:1040400051540008515400085154000851540008BC
:1040500051540008515400085154000851540008AC
:10406000515400085154000851540008515400089C
:10407000515400085154000851540008515400088C
:104080005154000851540008C95200085154000806
:10409000515400085154000851540008515400086C
:1040A000515400085154000851540008515400085C
:1040B000E5520008515400085154000851540008BA
:1040C000515400085154000851540008515400083C
:1040D0005154000839530008455300085153000853
:1040E000515400085154000851540008515400081C
:1040F000515400085154000851540008515400080C
:1041000051540008515400085154000851540008FB
:10411000515400085D5300085154000851540008E0
:1041200051540008515400085154000851540008DB
:10413000000000000000000000000000000000007F
:10414000000000000000000000000000000000006F
:10415000000000000000000000000000000000005F
:10416000000000000000000000000000000000004F
:10417000000000000000000000000000000000003F
:10418000000000000000000000000000000000002F
:10419000000000000000000000000000000000001F
:1041A000000000000000000000000000000000000F
:1041B00000000000000000000000000000000000FF
:1041C00000000000000000000000000000000000EF
:1041D00000000000000000000000000000000000DF
:0441E0005FF8E0F1B3
:1041E40010B5054C237833B9044B13B10448AFF32D
:1041F40000800123237010BDA801002000000000EE
:10420400B0D2000808B5034B1BB103490348AFF310
:10421400008008BD00000000AC010020B0D20008FE
:1042240010F8012B11F8013B012A28BF9A42F7D05C
:10423400D01A7047034613F8012B002AFBD1181A31
:1042440001387047D0B596B0242200210DA806F09D
:10425400F7FE1021012000240A220123CDE91001D8
:104264000CA80C92129300260027CDE90144CDE955
:104274000344CDE90744CDE90944009406940B9422
:1042840003F020F80F22002321466846CDE90023DD
:10429400CDE90267049403F005FA022306A8069305
:1042A400089403F031FB03F009FB084BA3FB003037
:1042B400800901F0F9FC042001F00EFD224621469C
:1042C4004FF0FF3001F0A4FC16B0D0BDD34D621006
:1042D4002DE9F04F002491B001F0DEF8FFF7B2FFB2
:1042E400CDE90C44CDE90E44BC4D4FF46271AA698A
:1042F400BB4842F01002AA61AA69BA4E02F0100249
:104304000692069AAA69B84F42F02002AA61AA69E5
:10431400DFF8D89202F020020792079AAA69DFF820
:10432400D0B242F00402AA61AA69DFF8C88202F09E
:1043340004020892089AAA69DFF8BCA242F00802B3
:10434400AA61AA6902F008020992099A224602F0B7
:104354005BF8224641F20101A84802F055F8012217
:104364000221A64802F050F828210122A44802F0B4
:104374004BF82246C021A24802F046F846F2010258
:10438400002397480CA9CDE90C230E9401F00EFFED
:1043940000220223CDE90E234FF4627201239048D8
:1043A4000CA9CDE90C2301F001FF00220223CDE981
:1043B4000E2341F20302012390480CA9CDE90C23FA
:1043C40001F0F4FEF02200238C480CA9CDE90C2363
:1043D4000E9401F0EBFE022330220E93002380485A
:1043E4000CA9CDE90C2301F0E1FE022303220E9374
:1043F400002383480CA9CDE90C2301F0D7FE4FF428
:10440400704200237E480CA9CDE90C230E9401F0E0
:10441400CDFE00220223CDE90E23E82201237848B1
:104424000CA9CDE90C2301F0C1FE4FF00102754B3C
:1044340001211A734FF46022DA61734A1846196134
:104444001A609C601C755C60CDE90C440E9401F00C
:1044540059F86C4B0C22184601230CA9CDE90C2306
:104464000E9401F083FA0322AB69654843F0080314
:10447400AB61AB690F9203F008030493049B4FF400
:1044840040621223CDE90C23AB690CA943F0080365
:10449400AB61AB690C2503F008030593059B01F0A0
:1044A40085FE01224FF48061554801F0ADFF0122E1
:1044B4004FF40061524801F0A7FF4FF48043534981
:1044C4003361534B3046C6E90013C6E90244C6E9DA
:1044D4000544C6E9074402F01DFA4FF4E133C7E985
:1044E40001344C4B3846C7E905543B60C7E90344E3
:1044F400FC6103F053FD4FF41641474B4846C9E9AC
:104504000114C9E90554C9F80030C9E90344C9F8DC
:104514001C4003F043FD4FF46022404B0120DA615C
:104524004FF001021A731A4618619C601C755C6096
:104534003B4B10461360CDE90C440E9400F0E2FFAF
:104544000CAA114601230B223448CDE90C230E9406
:1045540001F00CFA4FF080400723CBE9000340F24E
:10456400E7335846CBF80C30CDE90C44CDE90E4482
:10457400CDE90A44CBF80840CBF81040CBF81840FA
:1045840003F0CAFA4FF480530CAA114658460C9310
:1045940003F06CFB0AAA1146002300225846CDE919
:1045A4000A2303F0BDFC4FF4E133C8E901341D4B89
:1045B4004046C8E90554C8F80030C8E90344C8F8BF
:1045C4001C4003F0EBFC184B4FF416411A4659609B
:1045D4005D61C3E902441C6128E000BF0010024091
:1045E4000010014024020020CC0200204C030020D3
:1045F400840200200C0300207802002000080140FF
:10460400000C0140C4010020002401400058004077
:10461400A08601000038014000480040F401002059
:1046240000280140004400408C0300209C61DC61B0
:10463400834B10461360052503F0B0FC4FF47A63F6
:10464400CAE901537F4B5046CAF800307E4D02F050
:1046540015FE584603F0D6FA05F034FE4A464146A4
:104664007A4B384605F046FE05F088FA2B68214659
:10467400986806F08FFD2B6802222146986823462D
:1046840006F090FD00F026FF0146714806F0E0FCBC
:10469400012000F031F9304604F00EFF00F02CFA4E
:1046A40001466C4806F0D4FC6B4806F06BFD02230F
:1046B40030461A46D82102F0DFFC002840F0BA80C8
:1046C400664806F05FFD0125FF240022D8216448D6
:1046D4000CAB00958DF8304004F0CAFE002800F0C1
:1046E400A5809DF830105F4806F0B2FC0122FF243B
:1046F400D8215B480CAB00928DF8304004F0B8FE32
:10470400002800F08F809DF83010574806F0A0FC78
:10471400012000F075F9DFF8548100F001F9DFF8A9
:104724005091544E544D554FDFF854B115E0336851
:10473400E31AB3F57A7F43DA41F287322B68E31A3E
:10474400934204DD4F4B2C601B78002B4AD043F678
:1047540097223B68E31A934254DC00F0BBFE044604
:1047640004F048FA05F03EFA05F0EEFA05F09EFB77
:10477400D8F8003023B14AF6AA22DAF800301A60D9
:1047840000F0DEF900F0F8F900F08AFA00F0C8FA57
:1047940000F070FB632CCADD00F096F8D9F8002015
:1047A4000346824205D00390002837D004F0EEFF80
:1047B400039BC9F800303368E31AB3F57A7FBBDB97
:1047C400346000F021FB00F08BF8584605F034FD0E
:1047D4002D4805F031FD2D4805F02EFD1B4805F050
:1047E4002BFDA9E700F048FB0028B0D0284A137835
:1047F400052B9CBF0133137043F697223B68E31AE1
:104804009342AADD234A13780BB1013B1370204A6B
:1048140013780BB1013B13703C609EE704F09AFFE0
:10482400039BC6E71C4806F0ADFC71E71B4806F085
:10483400A9FC5BE701461A4806F00AFC43E700BFFF
:104844000050004000300040400100208C03002054
:10485400D4D20008E0D200080CD3000834D30008F6
:104864002402002060D3000898D300080000002030
:10487400D0030020D8030020D4030020CC03002060
:10488400CC020020000400200C0300204C03002074
:104894000204002001040020B0D3000878D30008EB
:1048A40048D3000808B503F0CBFE642202FB00F0F5
:1048B400044BA3FB0023C01A03EB5000C0F3C72032
:1048C40008BD00BF010110004FF4005108B50348B2
:1048D40001F094FD003818BF012008BD001001400C
:1048E400402108B5034801F089FD003818BF0120B4
:1048F40008BD00BF0008014038B50446074D2246F4
:1049040028464FF4807101F07FFD22462846BDE819
:1049140038404FF4807101F077BD00BF00100140B2
:10492400022310B5D82186B01A460F4802F0A4FB22
:1049340008B106B010BD01240C224FF01F0CD82181
:1049440009480DEB020300948DF80CC004F066FDD9
:1049540020B1064806F016FC06B010BD044806F067
:1049640011FC06B010BD00BF24020020D0D3000803
:10497400E0D30008022310B5D82188B01A461B489A
:1049840002F07AFB08B108B010BD012484460C2261
:10499400D821164802AB00948DF808C004F03EFDFF
:1049A400C8B9134806F0EEFB3220012400F098FD4C
:1049B4004FF0FF0C0622D8210C4805AB00948DF86B
:1049C40014C004F055FD60B19DF81410094806F0B8
:1049D4003FFB08B010BD9DF80810074806F038FBEF
:1049E400E2E7064806F0CEFB08B010BD2402002022
:1049F40018D400083CD40008F0D300086CD4000894
:104A040030B5044687B001228021354801F0FCFC12
:104A140001228021324801F0F7FC01224FF4807119
:104A24002F4801F0F1FC01224FF480712C4801F071
:104A3400EBFC24B9962000F053FD07B030BD0223EF
:104A4400D8211A46274802F017FB0028F2D1012585
:104A5400AA240822D821234803AB00958DF80C40E2
:104A640004F0DCFC002837D00C2401250A22D821CC
:104A74001C480DEB040300958DF80C4004F0CEFCAB
:104A840030B30125D6240B22D821164803AB009558
:104A94008DF80C4004F0C2FCB0B11E2000F020FDE3
:104AA400012409231E208DF80C3000F019FD0C227E
:104AB400D8210C4803AB009404F0B0FC0028B9D111
:104AC400094806F05FFBB5E7084806F05BFBE4E73E
:104AD400074806F057FBD4E7064806F053FBC3E744
:104AE4000010014024020020FCD40008D8D400089F
:104AF400ACD400088CD40008F8B5104D4FF4004134
:104B0400284601F07BFC4FF480410646284601F01C
:104B140075FC4FF400510746284601F06FFC04462B
:104B24004FF48051284601F069FCA40044EA47048C
:104B3400344364B244EAC000C0B2F8BD000C014082
:104B440008B52021094801F059FC40B10022202178
:104B5400074801F059FC0122064B1A6008BD0122E6
:104B6400BDE808402021024801F04EBC001001407D
:104B7400000C0140E403002010B54FF4804140488C
:104B840001F03CFC002850D140F68B233D4A1288AA
:104B94009A423D4A137837D91BB302218B4229D05C
:104BA40041F2883C394C3A4823781170A0F800C08F
:104BB400022B1AD0032B3FD0012B2AD00023012231
:104BC40008213448237001F01FFC012240213148A0
:104BD40001F01AFCBDE81040012280212D4801F0AB
:104BE40013BC0223294913700B702B4B1A88002A1B
:104BF40037D010BD254C22789A42D9D0244909884F
:104C040000293AD12370D3E73BBB01231F4913701A
:104C14000B70224B1A88002AEBD14FF4FA72082148
:104C24001C481A8001F0F4FBCFE7174A1378B3B994
:104C34000323164913700B7001220821154801F053
:104C4400E3FB01224021134801F0DEFBBDE81040E4
:104C5400002280210F4801F0D7BB01219EE70321E8
:104C64009CE74FF4FA7408210A481C8001F0CCFB3D
:104C74004021084801F0CCFBACE7134698E700BF9D
:104C840000100140F003002003040020E003002092
:104C9400FE030020000C0140FA030020FC03002066
:104CA40038B5194B1B78DBB1184A10211368184822
:104CB4000133136001F0A2FB051E18BF0125154C3A
:104CC40002462378AB4209D0A0B1114801224FF427
:104CD400007101F099FB104806F054FA257038BDB4
:104CE40001224FF400710A4801F08EFB0122094BA6
:104CF4001A7038BD4FF40071054801F085FB074870
:104D040006F040FA2570EAE704000020E8030020DA
:104D140000100140DF03002018D5000820D500084A
:104D240030B5022187B02E4801F068FB20B301247E
:104D34002C4B2D491A780C7022B12C4B1A7892B94D
:104D440007B030BD20461C70FFF75AFE2246802172
:104D5400274801F059FB4FF4FA72264B1A80234B73
:104D64001A78002AECD000221A70FFF703FE012201
:104D7400214B1A7007B030BD1A4C1B4923780246E8
:104D840008703BB9194B1A78002AD9D000221A703E
:104D940007B030BD02232270D8211A46174802F00A
:104DA4006BF938B14FF4FA7000221249124B0880A3
:104DB4001A70E7E701250C221F24D8210F480DEBB8
:104DC400020300958DF80C4004F028FB18B10C4840
:104DD40006F0D8F9E6E70B4806F0D4F9E2E700BF9D
:104DE400000C0140DE030020DC030020DD03002072
:104DF40000100140EE0300200004002024020020E3
:104E0400D0D30008E0D3000838B5144D2B88013303
:104E14002B8003F02BFC01210446114801F0EEFA2B
:104E240088B1553CA4B20F4B2A881968B2F57A7F31
:104E34000C441C6006D3B4FBF2F400220A492A8015
:104E44000C801A6038BD094B1B780BB14B34A4B2EB
:104E54000221074801F0D2FAE5E700BFF803002079
:104E640000100140F4030020F0030020DF030020C1
:104E7400000C0140704700BF70B5012484B0204687
:104E8400FFF7BEFD322000F02BFB1B4D0222D82180
:104E940002AB1A48009404F0EBFAD82103AB0322C6
:104EA4001648009404F0E4FA9DF808102B788B421D
:104EB4001ED1134C9DF80C202378934215D0114831
:104EC40006F0C6F89DF80C309DF808109B1003F00E
:104ED400020343EAD11631460B4806F0B9F89DF8AF
:104EE40008209DF80C302A702370304604B070BD41
:104EF4009DF80C20024CE2E7EC0300202402002081
:104F0400ED0300202CD5000854D500080E4B82B0C8
:104F14009A690E4942F001029A619A6902F001020B
:104F24000092009ADA6942F08052DA61DB6903F098
:104F340080530193019B4B6823F0E06343F080634B
:104F44004B6002B0704700BF0010024000000140F7
:104F540030B50024254A036889B09342CDE904445E
:104F6400CDE9064404D0224A934226D009B030BD8C
:104F7400204B21489A6904A942F400729A619A6903
:104F840002F400720092009A9A6942F010029A6147
:104F94009B69042203F0100301930323019DCDE9CF
:104FA400042301F003F922462146122000F030FECA
:104FB400122000F06BFE09B030BD0E4B0E489A690A
:104FC40004A942F480629A619A6902F480620292AE
:104FD400029A9A6942F010029A619B69022203F0D4
:104FE40010030393039D0323D9E700BF002401406A
:104FF4000028014000100240001001400023D0B5F9
:10500400154A016886B09142CDE90233CDE90433F3
:1050140001D006B0D0BD03224FF4406612270F4CD6
:105024000F48A36902A943F00803A361A369CDE96A
:10503400026703F008030093009B059201F0B6F8A1
:10504400E36943F48003E361E36903F480030193B8
:10505400019B06B0D0BD00BF0058004000100240C4
:10506400000C01400368B3F1804F00D07047002268
:1050740003F50433D96900B541F00101D961DB6955
:1050840083B003F0010301931C201146019B00F03F
:10509400BFFD1C2003B05DF804EB00F0F7BD00BFBA
:1050A400D0B50024754A03688EB09342CDE90A4412
:1050B400CDE90C4445D0724A93427CD0714A934264
:1050C40000F0AB80704A934201D00EB0D0BD6F4B5C
:1050D4004FF48066DA69022742F48022DA61DA69E1
:1050E4000AA902F480220892089A9A69684842F050
:1050F40010029A619B69CDE90A6703F010030993D2
:105104000323099A0D9301F051F84FF40062002330
:10511400604E0AA95E48CDE90A230C9401F046F8D2
:105124007368272023F0300343F0E06343F0100357
:1051340022462146736000F06BFD272000F0A6FD97
:10514400C3E7524B4FF48056DA69022742F48012C7
:10515400DA61DA690AA902F480120192019A9A6961
:105164004B4842F010029A619A6902F010020292CE
:10517400029A9A6942F020029A619B69CDE90A6712
:1051840003F0200303930323039A0D9301F00EF815
:10519400002304220AA94048CDE90A230C9401F013
:1051A40005F822462146352000F032FD352000F076
:1051B4006DFD0EB0D0BD354B4FF400769A690227D1
:1051C40042F480429A619A690AA902F480420492E4
:1051D400049A9A69314842F004029A619B69CDE9C4
:1051E4000A6703F0040305930323059A0D9300F063
:1051F400DDFF00234FF480620AA92848CDE90A2381
:105204000C9400F0D3FF22462146252000F000FD37
:10521400252000F03BFD0EB0D0BD1C4B0426DA69FE
:10522400022742F40032DA61DA690AA902F4003290
:105234000692069A9A69194842F004029A619B6997
:10524400CDE90A6703F0040307930323079A0D9338
:1052540000F0ACFF002308220AA91048CDE90A2374
:105264000C9400F0A3FF22462146262000F0D0FC37
:10527400262000F00BFD0EB0D0BD00BF0050004052
:105284000038014000440040004800400010024043
:1052940000100140000001400014014000080140DA
:1052A400704700BFFEE700BFFEE700BFFEE700BF98
:1052B400FEE700BF704700BF704700BF704700BFE4
:1052C40000F0FCB808B5044800F0D4FABDE8084082
:1052D400024800F0CFBA00BFC4010020F40100204E
:1052E40008B50E4802F072FD0D4A13880BB1013B5C
:1052F40013800C4A13880BB1013B13800A4A1388AC
:105304000BB1013B1380094A138833B1013B9BB2B3
:10531400138013B90122064B1A7008BD84020020C1
:10532400FE030020FC030020FA030020EE0300200B
:10533400DD030020014803F015B800BFCC020020B3
:10534400014803F00FB800BF0C030020014803F02C
:1053540009B800BF4C030020014803F003B800BFA4
:105364008C03002070B5161E07DD0C468D1904F061
:10537400CBFE04F8010BA542F9D1304670BD00BF45
:1053840070B5161E07DD0C468D1914F8010B04F0D8
:105394009BFEAC42F9D1304670BD00BF4FF0FF30E8
:1053A400704700BF4FF4005300204B60704700BFAC
:1053B40001207047002070470C4A08B50346106866
:1053C40028B1694603448B4208D8136008BD0849D4
:1053D40008461160694603448B42F6D905F0E6FDA0
:1053E4000C2203464FF0FF301A6008BD040400206D
:1053F400400F0020014B024A9A60704700ED00E024
:1054040000400008002103E00B4B5B58435004317B
:105414000A480B4B42189A42F6D30A4A02E0002388
:1054240042F8043B084B9A42F9D3FFF7E3FF05F037
:10543400D5FDFEF74DFF704740E100080000002055
:10544400A4010020A80100203C0F0020FEE700007A
:1054540038B54FF47A730D4A054611780C4AB3FBFC
:10546400F1F31268B2FBF3F000F01EFC08B90F2D43
:1054740001D9012038BD0446024629464FF0FF30C9
:1054840000F0C6FB034B20461D6038BD0C00002015
:105494000800002010000020074A08B51368032004
:1054A40043F01003136000F0A1FB0020FFF7D0FFCE
:1054B400FFF72CFD002008BD00200240034A044BE6
:1054C40011681B780B441360704700BF0804002068
:1054D4000C000020014B1868704700BF080400202E
:1054E40038B50446FFF7F6FF631C054602D0044BAB
:1054F4001B781C44FFF7EEFF401BA042FAD338BDD3
:105504000C000020002800F08A8038B5836A044625
:10551400002B66D023689A68D00743D4A26AD206C7
:1055240059D4A26A544922F4885222F0020242F069
:1055340002028B42A262E16962686AD0257B42EA78
:1055440045020A43A168B1F5807F50D0207D01292E
:105554000CBF4FF4807C4FF0000C01286BD05868CE
:1055640020F4694040EA0C0058609D684348284094
:1055740010439860012948D00020D96A21F47001B1
:105584000143D96299683E4B0B409A4249D00120AD
:10559400A36A23F0120343F01003A362E36A0343F4
:1055A400E36238BD9A6822F001029A60FFF792FF25
:1055B400054623689A68D107B0D5FFF78BFF401BD7
:1055C4000228F6D9A36A43F01003A362E36A43F006
:1055D4000103E362A36AA36A012043F01003A362F8
:1055E40038BDC36280F82430FFF7B2FC92E7207D17
:1055F40001281FD05868214920F4694040F4807084
:10560400586098680140114399602169013908057F
:10561400B3E7B1F5402F08BF4FF400218EE7012016
:1056240070470020E062A36A23F0030343F0010300
:10563400A36238BD8C46C5B1A06A40F02000A062C8
:10564400E06A40F00100E0625868B1F5807F20F420
:10565400694040EA0C0058609D68084800EA05006B
:1056640040EA0200986085D1CFE7A06901384CEA8E
:10567400403040F4006CE7E7003C0140FDF7E1FFF7
:10568400FE0E1FFF38B590F82430012B2DD00122D7
:10569400036880F824209A680446D2070CD40020BA
:1056A400A36A23F4885323F0010343F00103A362A4
:1056B400002384F8243038BD9A6822F001029A60ED
:1056C400FFF708FF054623689B68DB07E7D5FFF76C
:1056D40001FF401B0228F6D90120A36A43F01003FE
:1056E400A362E36A0343E362E2E7022038BD00BF3A
:1056F4002DE9F0410546002682B00C460196FFF7DD
:10570400E9FE2B689A68D1056FD45A680746D2051A
:1057140019D4DA6A12F4700F15D1661C6FD11A68A5
:105724009407FCD56FF012021A60AA6A42F4007260
:10573400AA629B6803F46023B3F5602F75D0002040
:1057440002B0BDE8F081434B0220D3F8008002F0A0
:105754005DF92A684049166913460E42B8FBF0F019
:1057640010D1D66801F15C410E420BD116693B4958
:105774000E426DD1D66801F16E410E4214BF292646
:10578400142609E0166935490E4224D1D66801F180
:105794006E410E421FD1542600FB06F601998E423B
:1057A400C0D9611C37D034B90AE0019B013301939D
:1057B400019B9E4249D9FFF78DFEC31B9C42F4D244
:1057C40000220320AB6A85F8242043F00403AB6273
:1057D40002B0BDE8F081166921490E4223D1D66892
:1057E4000E4214BFFC265426D6E70120AB6A85F886
:1057F400246043F02003AB6202B0BDE8F0811A6874
:1058040090078FD4002CDBD0FFF764FEC01BA042AE
:10581400D6D82B6881E7019B01330193019B9E42FB
:10582400F9D813467EE7FC26B6E7287B002886D104
:10583400AB6A23F48073AB62AB6ADB043FF57FAFE2
:10584400AB6A43F00103AB627AE72A68134669E75F
:105854002926A1E708000020244992249224491211
:10586400499224000368D86C704700BF704700BF9A
:10587400704700BF036810B55A680446900602D505
:105884001A6891072AD45A68100602D51A68510773
:1058940006D45A68520602D51B68DB0733D410BD00
:1058A400A26AD20603D4A26A42F40052A2629A689F
:1058B40002F4E042B2F5E04F34D05A68500505D402
:1058C4009A6802F46022B2F5602F28D0204600F0D6
:1058D4008BF96FF00C0223681A60DAE7A26AD20629
:1058E40003D4A26A42F40072A2629A6802F46022AB
:1058F400B2F5602F26D02046FFF7B8FF6FF01202F2
:1059040023681A60BFE7A36A204643F48033A36286
:10591400FFF7AEFF6FF0010223681A6010BD227B0F
:10592400002AD3D15A6822F080025A60A36A23F471
:105934008053A362A36AD905C8D4A36A43F00103C0
:10594400A362C3E7227B002AD5D15A6822F0200241
:105954005A60A36A23F48073A362A36ADB04CAD4E3
:10596400A36A43F00103A362C5E700BF002330B577
:1059740083B0019390F82430012B74D0012380F874
:1059840024304B680246062B046832D90C2B03EBF7
:1059940083034ED84FF01F0C0868256B233B00FA95
:1059A40003FE0CFA03F325EA030343EA0E0323631D
:1059B400092830D94FF0070C8D6800EB4001E368EB
:1059C4001E398D400CFA01F123EA0103A0F1100104
:1059D4002B430129E36044D82E4B9C4238D001204C
:1059E400936A43F020039362002382F8243003B0C7
:1059F40030BD4FF01F0C086803EB8303656B053B58
:105A040000FA03FE0CFA03F325EA030343EA0E0348
:105A140009286363CED807258968236900EB400011
:105A2400814005FA00F023EA00030B4300202361C0
:105A3400DAE74FF01F0C0868E56A413B00FA03FE01
:105A44000CFA03F325EA030343EA0E03E362AFE728
:105A5400A3681B0205D4A368102843F40003A360C1
:105A640004D00020C0E7022003B030BD0A4B0B492C
:105A74001B68A1FB03139B0C03EB83035B000193E3
:105A8400019B002BEDD0019B013B0193019B002B5B
:105A9400F9D1E6E7002401400800002083DE1B431F
:105AA400002370B5026882B001939368DB0721D4A8
:105AB400184B05461B6818489168A0FB030341F086
:105AC40001019B0C91600193019B2BB1019B013B54
:105AD4000193019B002BF9D1FFF7FCFC064604E07F
:105AE400FFF7F8FC831B022B07D82B689C6814F083
:105AF4000104F5D0002002B070BD0120AB6A85F826
:105B0400244043F01003AB62EB6A0343EB6202B040
:105B140070BD00BF0800002083DE1B4390F82430D2
:105B2400012B38D0012310B580F824300446FFF748
:105B3400B7FF60BBA36A2268294923F4407323F0AA
:105B4400010343F480738A42A36226D0A36A23F438
:105B54008013A362536859052BD4A36A002113F45C
:105B6400805318BFE36A84F8241018BF23F0060397
:105B7400E3626FF002031360936803F46023B3F5E8
:105B8400602F1DD0936843F48013936010BD0023ED
:105B940084F8243010BD02207047124B596811F468
:105BA400702FD3D0A16A41F48011A1625B685B05B8
:105BB400D3D5A36A23F4405343F48053A362CCE7C0
