:020000040800F2
:1000000000C0002085080008910700089507000837
:10001000990700089D070008A107000800000000DC
:10002000000000000000000000000000A50700081C
:10003000A907000800000000AD070008B10700088C
:10004000CD080008CD080008CD080008CD0800083C
:10005000CD080008CD080008CD080008CD0800082C
:10006000CD080008CD080008CD080008CD0800081C
:10007000CD080008CD080008CD080008CD0800080C
:10008000CD080008CD080008CD080008CD080008FC
:10009000CD080008CD080008CD080008CD080008EC
:1000A000CD080008CD080008CD080008CD080008DC
:1000B000CD080008CD080008CD080008CD080008CC
:1000C000CD080008CD080008CD080008CD080008BC
:1000D000CD080008B5070008C1070008CD070008D3
:1000E000CD080008CD080008CD080008CD0800089C
:1000F000CD080008CD080008CD080008CD0800088C
:10010000CD080008CD080008CD080008CD0800087B
:10011000CD080008D9070008CD080008CD08000860
:10012000CD080008CD080008CD080008CD0800085B
:1001300000000000000000000000000000000000BF
:1001400000000000000000000000000000000000AF
:10015000000000000000000000000000000000009F
:10016000000000000000000000000000000000008F
:10017000000000000000000000000000000000007F
:10018000000000000000000000000000000000006F
:10019000000000000000000000000000000000005F
:1001A000000000000000000000000000000000004F
:1001B000000000000000000000000000000000003F
:1001C000000000000000000000000000000000002F
:1001D000000000000000000000000000000000001F
:0401E0005FF8E0F1F3
:1001E40010B5054C237833B9044B13B10448AFF36D
:1001F40000800123237010BD700000200000000067
:10020400D43A000808B5034B1BB103490348AFF3C4
:10021400008008BD0000000074000020D43A0008EB
:1002240000B583B002A941F8040D4FF6FF73012213
:10023400094802F047FB01980A2802D003B05DF890
:1002440004FB4FF6FF7301220449034802F03AFB12
:10025400019803B05DF804FB6C010020FC3A00082F
:1002640030B597B0002124220DA802F0BAFE002474
:100274000122022510230CA8CDE910230194069431
:10028400CDE90244CDE90444CDE90744CDE909446C
:10029400CDE90B4501F046FF0F23214601A8019348
:1002A400CDE90244CDE9044402F034F906A80695E8
:1002B400089402F01BFA17B030BD00BF2DE9F043DB
:1002C400002489B000F038FBFFF7CAFFCDE90444ED
:1002D400CDE90644744B4FF001089A69734F42F01C
:1002E40010029A619A69DFF8F89102F01002009204
:1002F400009A9969224641F020019961996938462A
:1003040001F02001019101999D694FF4627145F05A
:1003140004059D619D69664E05F004050295029DE4
:100324009D6945F008059D619B69022503F008035A
:100334000393039B01F0F4F82246484641F201017D
:1003440001F0EEF848464246022101F0E9F8304651
:100354004246282101F0E4F822463046C02101F04B
:10036400DFF846F2010304A938460493CDE90544B5
:1003740000F0BAFF4FF4627304A93846CDE904389B
:100384000694079500F0B0FF41F20303484604A920
:10039400CDE905840493079500F0A6FF3023384681
:1003A40004A90493CDE9054500F09EFF032304A9A5
:1003B40030460493CDE9054500F096FF4FF47043B1
:1003C40004A930460493CDE9054400F08DFFE823E9
:1003D40004A93046CDE905840493079500F084FF11
:1003E4004FF480420C264FF4E1384FF41647314B5A
:1003F400DFF8F0C030491846C3E900C1C3E902443C
:10040400C3E90544C3E907441A6101F0E5FA2B4B3B
:100414002B4A1846C3E90028C3E902441C61C3E916
:1004240006445E6102F0E4F9264B274A1846C3E904
:100434000027C3E90244C3E90446C3E9064402F0C1
:10044400D7F9224B224A1846C3E90184C3E903447D
:10045400C3E90564DC611A6002F0CAF91D4B1E4A47
:10046400DFF8848018461A60C3E90174C3E90344C1
:10047400C3E90564DC6102F0BBF9D8F80030214619
:10048400986802F02FFED8F800302A462146986872
:10049400234602F02FFE114802F01CFE02F09EFBE0
:1004A400204609B0BDE8F08300100240001001406E
:1004B400000C0140D8000020A08601006C0100203F
:1004C400003801409800002000480040AC010020A2
:1004D400004400402C01002000500040BC3B0008B8
:1004E40000080140005800400C0000200E4B82B070
:1004F4009A690E4942F001029A619A6902F0010276
:100504000092009ADA6942F08052DA61DB6903F002
:1005140080530193019B4B6823F0E06343F08063B5
:100524004B6002B0704700BF001002400000014061
:10053400002330B50168154A87B09142CDE90233F2
:10054400CDE9043301D007B030BD4FF4406003223D
:1005540012250F4C02A9A36943F00803A361A36900
:10056400029003F0080300930A48009B0395059248
:1005740000F0BAFEE36943F48003E361E36903F442
:1005840080030193019B07B030BD00BF00580040B9
:1005940000100240000C014070B500240368724A48
:1005A4008EB09342CDE90A44CDE90C4445D06F4A5C
:1005B40093427BD06E4A934200F0A9806D4A9342E5
:1005C40001D00EB070BD4FF48061022603256A4B42
:1005D4006A48DA6942F48022DA61DA6902F4802234
:1005E4000892089A9A6942F010029A619B690A91EA
:1005F40003F0100309930AA9099B0B960D9500F0CB
:1006040073FE4FF400630AA95C480A93CDE90B44D6
:1006140000F06AFE5A4822464368214623F030031C
:1006240043F0E06343F010034360272000F0CCF96B
:10063400272000F0FFF90EB070BD4FF48051022660
:1006440003254D4B4D48DA6942F48012DA61DA69C8
:1006540002F480120192019A9A6942F010029A619E
:100664009A6902F010020292029A9A6942F02002F8
:100674009A619B690A9103F0200303930AA9039BDF
:100684000B960D9500F030FE04230AA93D480A9309
:10069400CDE90B4400F028FE22462146352000F027
:1006A40093F9352000F0C6F90EB070BD4FF4007117
:1006B40002260325304B34489A6942F480429A61F9
:1006C4009A6902F480420492049A9A6942F00402FC
:1006D4009A619B690A9103F0040305930AA9059B97
:1006E4000B960D9500F000FE4FF480630AA926488E
:1006F4000A93CDE90B4400F0F7FD2246214625205C
:1007040000F062F9252000F095F90EB070BD0421C7
:1007140002260325184B1C48DA6942F40032DA61D8
:10072400DA6902F400320692069A9A690A439A61D7
:100734009B690A910B4007930AA9079B0B960D9599
:1007440000F0D2FD08230AA90F480A93CDE90B440F
:1007540000F0CAFD22462146262000F035F9262065
:1007640000F068F90EB070BD005000400038014040
:1007740000440040004800400010024000100140C6
:10078400000001400014014000080140704700BF10
:10079400FEE700BFFEE700BFFEE700BFFEE700BFC5
:1007A400704700BF704700BF704700BF00F0D6B865
:1007B400014802F04DB900BF6C010020014802F06D
:1007C40047B900BFAC010020014802F041B900BFA5
:1007D40098000020014802F03BB900BF2C01002022
:1007E40070B5161E07DD0C468D19AFF3008004F8B2
:1007F400010BA542F9D1304670BD00BF70B5161E7D
:1008040007DD0C468D1914F8010BFFF709FDAC4206
:10081400F9D1304670BD00BF4FF0FF30704700BFC4
:100824004FF4005300204B60704700BF0120704715
:10083400002070470C4A08B5136833B16946184460
:10084400884209D81060184608BD08490B46116053
:10085400694618448842F5D902F08EFB0C224FF009
:10086400FF330260184608BD8C00002020020020DF
:100874004FF00062014B9A60704700BF00ED00E04A
:10088400002103E00B4B5B58435004310A480B4BE7
:1008940042189A42F6D30A4A02E0002342F8043B83
:1008A400084B9A42F9D3FFF7E3FF02F06BFBFFF723
:1008B40005FD70474C3C000800000020700000203B
:1008C400700000201C020020FEE70000704700BFFB
:1008D40010B54FF0FF320024044BDA601C61DA607B
:1008E400DC60FFF7F3FF204610BD00BF001002409C
:1008F40038B54FF47A730D490D4A09781268B3FB81
:10090400F1F30546B2FBF3F000F0A2F808B90F2D9D
:1009140001D9012038BD0446024629464FF0FF3074
:1009240000F052F8034B20461D6038BD040000203F
:100934000000002008000020074A08B513680320BF
:1009440043F01003136000F02DF80020FFF7D0FFF0
:10095400FFF7CCFD002008BD00200240034A044BF1
:1009640011681B780B441360704700BFEC01002032
:1009740004000020014B1868704700BFEC01002000
:1009840038B50446FFF7F6FF631C054602D0044B56
:100994001B781C44FFF7EEFF401BA042FAD338BD7E
:1009A400040000204FF6FF01064A0002D36800F459
:1009B400E0600B4043F0BF6343F400330343D36070
:1009C400704700BF00ED00E0184B30B4DB68C3F3A0
:1009D4000223C3F10705042D03F1040428BF0425F1
:1009E400062C19D94FF0FF34033B9C4022EA04043F
:1009F4004FF0FF32AA4021EA020101FA03F2224336
:100A040012010028D2B20ADB00F1604000F5614017
:100A140080F8002330BC704700242346E8E7044BE9
:100A240000F00F0003441A7630BC704700ED00E07C
:100A3400FCEC00E0002807DB012300F01F01034A5F
:100A44008B40400942F82030704700BF00E100E0CD
:100A54000138B0F1807F0DD230B4F0250022072197
:100A6400054B064C586084F82350104630BC9A60FD
:100A7400196070470120704710E000E000ED00E0CD
:100A840090F8213010B5022B04D004220124826393
:100A9400204610BD036846491A688B4222F00E02B4
:100AA4001A601A6822F001021A60424A24D9934259
:100AB40055D0143293425CD01432934260D0143235
:100AC400934250D0143293425FD01432934262D096
:100AD4008B4266D002F56772934240D0143293423F
:100AE40047D0143293424BD01432934214BF4FF484
:100AF40080334FF4805333E0934222D01432934234
:100B040039D01432934238D0143293422ED0143256
:100B140093423DD01432934240D08B4244D002F5EC
:100B2400677293420DD01432934224D0143293420C
:100B340023D01432934214BF4FF480334FF48053C4
:100B440000E001231C4A536001220024436B80F817
:100B5400212080F82040B3B19847204610BD0123DE
:100B6400164A5360F0E74FF48053F9E74FF480538B
:100B7400E8E71023F4E71023E4E74FF48073E1E798
:100B84004FF48073ECE71C4682E74FF48033E7E7C9
:100B94004FF48033D6E74FF48013E1E74FF480132A
:100BA400D0E74FF08073DBE74FF08073CAE700BFF4
:100BB400800002400800024000000240000402409D
:100BC4002DE9F04F6E4F8046387E83B0012800F047
:100BD400AB809A460123894693463B76FFF7CAFECB
:100BE400684C4CF25036054605E0FFF7C3FE401B47
:100BF400B04200F29D80E368D807F6D4E368990612
:100C040044BF2023E3605F4BDA68D2066DD4DA690F
:100C1400D6076AD4DB685D0767D4B8F1010F00F02A
:100C2400AB80B8F1020F14BF0423022301934FF0E9
:100C340000084CF25036534C00204FEA0812C2F11F
:100C44002001F8610AFA01F12BFA02F3203A0B436E
:100C54002AFA02F2216913439BB241F00101216196
:100C6400A9F80030FFF786FE054604E0FFF782FE90
:100C7400401BB04278D8E368D907F7D4E3689A06F2
:100C840044BF2023E360E368DB0606D4E369DD07A1
:100C940003D4E06810F0040057D03A4BDB6813F03B
:100CA400100367D0FB69142143F00203FB61102396
:100CB400344AD268500704D50B46FA6942F001025F
:100CC400FA61304AD169C90707D5F96941F00401CD
:100CD400F961D16921F00101D1612A4A0120D3606F
:100CE400136923F00103136123E0264BDB6813F03F
:100CF400100323D10421234AD268540704D50B4698
:100D0400FA6942F00102FA611E4AD169C80707D59F
:100D1400F96941F00401F961D16921F00101D1615E
:100D2400184A0120D36004E0022003B0BDE8F08F2C
:100D3400032000233B7603B0BDE8F08FFB69142148
:100D440043F00203FB611023D5E7236908F101088E
:100D540023F001032361019B5FFA88F2934209F1B6
:100D640002093FF669AFE4E72369032023F0010396
:100D74002361DEE704219BE7CDF8048057E700BF39
:100D8400F001002000200240064B186910F080009A
:100D940006D00549054A59605A601869C0F3C01065
:100DA400704700BF0020024023016745AB89EFCDA7
:100DB400034A0020136943F080031361704700BFA6
:100DC40000200240054B186910F4007004D1044956
:100DD400044A99609A6070470120704700200240DD
:100DE40023016745AB89EFCD70B50446FFF7C2FD1B
:100DF4000646294D601C31D1274AD368D907FCD453
:100E0400254BDA68960644BF2022DA60224BDA6862
:100E1400D50602D4DA69D40733D51F4BDB6813F047
:100E2400100326D104211C4AD268500705D50B466D
:100E34001A49CA6942F00102CA61174AD169C9074D
:100E440008D51648C16941F00401C161D16921F096
:100E54000101D1610120104AD36070BDEB68DB074A
:100E6400CED524B1FFF786FD801BA042C2D9032052
:100E740070BD0A481421C269102342F00202C26103
:100E8400D1E7D86810F00400E7D0034BDB6813F017
:100E94001003C7D0EDE700BF00200240F00100209E
:100EA4002DE9F843DFF8C09099F81830012B56D09B
:100EB400012203680646022B884689F818204CF262
:100EC40050302FD0FFF790FF78BB4FF0FF33C8F8B6
:100ED4000030D6E9025305EBC3239D4225D20746D1
:100EE400204C07E0D6E9023205F5006503EBC22386
:100EF400AB421BD9C9F81C7023694CF2503043F043
:100F0400020323616561236943F040032361FFF712
:100F14006BFF236923F0020323610028E2D0C8F8A1
:100F2400005003E0FFF760FF28B10120002389F897
:100F34001830BDE8F8830B4CC9F81C0023694CF247
:100F4400503043F004032361236943F040032361D9
:100F5400FFF74AFF236923F004032361E6E7022035
:100F6400BDE8F88300200240F001002070B5274C52
:100F74004CF25030E36913F0020F0CBFA525002595
:100F8400FFF732FF034608B1184670BD204E4CF2FD
:100F94005030F361236943F020032361236943F054
:100FA40040032361FFF720FF2269034622F0200259
:100FB40022610028E8D14CF25030FFF715FF0346B8
:100FC4000028E1D1F06123694CF2503043F0200352
:100FD4002361236943F040032361FFF705FF22697E
:100FE400034622F0200222610028CDD12369094A58
:100FF40043F0100323614CF250301580FFF7F4FEE8
:101004002269034622F010022261BDE7002002405B
:10101400F001002000F8FF1F2DE9F843A54E337EB0
:10102400012B00F0AE80012403680546D80734760E
:1010340044D5D5E90139A04FA3424CF25030D7F83A
:10104400208000F0BF80FFF7CFFE044600283BD18C
:10105400F061FFF78BFF0446002835D13B6949EA6C
:1010640008085FFA88F243F01003FF2A3B6140F05E
:10107400D080C8F30723FF2B08D0904A4CF250309D
:1010840051890B435381FFF7AFFE78B9C8F3074387
:10109400FF2B00F0CA80894A4CF2503091890B43EF
:1010A4009381FFF7A1FE002800F0BF800446824A26
:1010B400136923F01003136134B92B68990708D41A
:1010C4005A073AD41B0760D4002320463376BDE880
:1010D400F8834CF2503095F81080FFF785FE0446F3
:1010E4000028F1D1744FF0613B694CF2503043F069
:1010F40020033B613B6943F040033B61FFF774FE0F
:101104003B69044623F020033B610028DCD13B69A2
:101114006A4A43F010031FFA88F83B614CF25030DE
:10112400A2F80080FFF760FE3B69044623F0100339
:101134003B610028C8D12B68C2E74CF250306F7C69
:10114400FFF752FE04460028BED1DFF86C81F0613F
:10115400D8F81030594A43F0100347F08807C8F80C
:1011640010304CF250305780FFF73EFED8F8103064
:10117400044623F01003C8F810300028A4D12B68CB
:10118400A0E702242046BDE8F8834CF25030D5F89D
:1011940014802D7EFFF728FE0446002894D1464F84
:1011A400F0613B69ADB243F010033B614CF2503047
:1011B400A8F80050FFF718FE3B69044623F010031B
:1011C4003B6181E7FFF710FE044600287FF47CAF03
:1011D400F061FFF7CBFE044600287FF475AF3B694E
:1011E40028EA09085FFA88F243F01003FF2A3B61FA
:1011F40033D0324B4CF2503019890A401A81FFF730
:10120400F3FD50B32C4A0446136923F01003136111
:1012140052E72A4B4CF2503019890A431A81FFF7DE
:10122400E3FD00283FF425AF40E74FEA1868B8F122
:10123400FF0F0BD0214B4CF25030DA8948EA0208F8
:10124400A3F80E80FFF7D0FD044630E71A4A13696D
:1012540023F0100313612B6830E7C8F30723FF2B37
:1012640009D0164A4CF2503051890B405381FFF794
:10127400BBFD0028C6D1C8F30743FF2B09D00F4A92
:101284004CF2503091890B409381FFF7ADFD00285B
:10129400B8D14FEA1868B8F1FF0FD7D0074B4CF21A
:1012A4005030DA8908EA0208A3F80E80FFF79CFDA3
:1012B400A8E700BFF00100200020024000F8FF1F53
:1012C4000722084B02601A6A8260DA6912F0020F80
:1012D4000CBFA52200220274DB69C3F382034374AA
:1012E400704700BF002002400A68002A00F0F08026
:1012F4002DE9F04F4FF0000A85B05546DFF814C2CF
:10130400DFF814E27C4FDFF8148204E0013532FA8E
:1013140005F300F083800123AB4002EA0304A342F7
:10132400F4D14A68122A00F0A98000F29280022ABD
:1013340000F0A88040F28680032A72D0112A02D1DC
:10134400CB6803F1040AFF2C6FD881460368AA0016
:101354000F2606FA02FB23EA0B030AFA02F21343EE
:10136400C9F800304A68D3006AD5DCF8189025F033
:10137400030349F00109CCF81890DCF8189003F144
:10138400804309F00109CDF80C9003F5803305F092
:101394000309DDF80CB04FEA8909D3F808B006FA5E
:1013A40009F62BEA06067045019619D040456DD022
:1013B400524EB04200F08D80514EB04200F0928007
:1013C400504EB0427BD0504EB0420CBF4FF0050B94
:1013D4004FF0060B019E0BFA09F946EA090601963D
:1013E4009E603B68D6034CBF2343A3433B607B68AA
:1013F40096034CBF2343A3437B60BB68D6024CBF18
:101404002343A343BB609202FB6816D51C43FC60D4
:101414000A68013532FA05F37FF47DAF05B0BDE803
:10142400F08FFF2C4FF0000A8FD905F18042083A63
:101434004368920000F104098AE723EA0404FC608B
:101444000A6863E7AAB1012A7FF47DAFD1F80CA042
:1014540079E72E4EB2420CD020D92D4EB24208D09C
:1014640006F58036B24204D0A6F58016B2427FF467
:101474006AAF8A68E2B94FF0040A64E7CB6803F103
:101484000C0A60E7CB6803F1080A5CE74FF0010B34
:101494000BFA09F946EA09060196A1E7A6F58016B2
:1014A400B242E6D006F58036B2427FF44CAFE0E7B4
:1014B400012A0CBF036143614FF0080A43E74FF070
:1014C400040B019E0BFA09F946EA0906019687E71F
:1014D40070474FF0020B019E0BFA09F946EA090620
:1014E40001967DE74FF0030B019E0BFA09F946EADA
:1014F4000906019674E700BF000401400010014092
:101504000014014000180140001C0140000021109B
:10151400000031100010024000080140000C01409E
:1015240002B90904016170472DE9F0428946164663
:101534001F460446006882B0056845F4807505605E
:10154400089D6A1C41D14369DB07FCD509F0FE0103
:1015540001616B1C14D043699B0714D443695A0579
:101564005AD4FFF707FA099BC01A8542C0F0C2801B
:10157400002D00F0BF802068EBE743695A054BD487
:1015840043699907F9D5002301934369019383695A
:101594000193019B6A1C03D056E04369590563D447
:1015A40043691B06F9D5012F0BD0330A03616F1C65
:1015B40004D075E043695A0500F182804369190635
:1015C400F8D5F6B2066100201CE04369D907BDD402
:1015D400FFF7D0F9099BC01A8542206801D3002D7A
:1015E400AFD100222023226384F83D3084F83E20CA
:1015F400236C84F83C2043F0200323640368D9055A
:1016040003D4032002B0BDE8F0824FF4007303203A
:10161400236402B0BDE8F0826FF4806500222021CB
:10162400036843F40073036045610120226384F876
:101634003D1084F83E20236C84F83C2043F00403DE
:10164400236402B0BDE8F08243691A06ABD443694F
:10165400590509D4FFF78EF9099BC01A854258D35E
:10166400002D56D0206895E7002220236FF4806176
:101674004161226384F83D3084F83E20236C84F871
:101684003C2043F004032364236C042B01D0012089
:10169400B8E722680120136843F400731360B1E7CC
:1016A40043691B068DD443695B0509D4FFF762F9CE
:1016B400099BC01A85423AD3002D38D0206876E7BA
:1016C400002220236FF480614161226384F83D305D
:1016D40084F83E20236C84F83C2043F00403236404
:1016E400236C042BD3D122680120136843F40073C4
:1016F400136087E700222023226384F83D3084F8B6
:101704003E20236C84F83C2043F020032364012012
:1017140078E700222023226384F83D3084F83E20B9
:10172400236C84F83C2043F020032364ACE70022BC
:101734002023226384F83D3084F83E20236C84F80F
:101744003C2043F020032364CAE700BF2DE9F042A4
:101754001F460446006889460168164641F48061C4
:101764000160026882B042F48072089D0260691CC4
:101774005AD14369DA07FCD55FFA89F909F0FE0307
:1017840003616A1C14D043699A0714D44369590548
:1017940071D4FFF7EFF8099BC01A8542C0F0EB80C3
:1017A400002D00F0E8802068EBE74369590562D416
:1017B40043699B07F9D50023019343690193836926
:1017C4000193019B691C03D087E043695B056AD4DC
:1017D40043691A06F9D5012F40F09080F6B20661EC
:1017E4006F1C03D097E0436959055CD443691E0616
:1017F400F9D5036843F4807303606B1C40F0AB803D
:101804004369DF07FCD549F00109C0F810906A1C50
:1018140003D0CDE043695B052DD44369DB4313F06A
:101824000203F7D118461CE04369DB07A4D4FFF791
:10183400A1F8099BC01A8542206801D3002D96D1D6
:1018440000222023226384F83D3084F83E20236C58
:1018540084F83C2043F0200323640368D80503D4B0
:10186400032002B0BDE8F0824FF400730320236428
:1018740002B0BDE8F08200226FF480652021036885
:1018840043F4007303604561226384F83D1084F8D7
:101894003E20236C84F83C2043F00403236401209D
:1018A40002B0BDE8F082002220236FF48061416120
:1018B400226384F83D3084F83E20236C84F83C2075
:1018C40043F004032364236C042BE8D12268012031
:1018D400136843F400731360C3E7436919063FF5C3
:1018E4007AAF43695B05DED4FFF744F8099BC01A5D
:1018F40085424FD3002D4DD0206863E7330A03613E
:101904006B1C03D017E043695905CCD443691F0607
:101914003FF564AFF7E743691A063FF56AAF4369D9
:101924005B05C0D4FFF726F8099BC01A854231D362
:1019340085B3206854E743691A063FF54FAF4369FE
:101944005A05B0D4FFF716F8099BC01A854221D373
:1019540005B32068D4E74369DE073FF554AFFFF7CA
:1019640009F8099BC01A85422068FFF469AF002D6D
:101974007FF443AF64E700222023226384F83D30E0
:1019840084F83E20236C84F83C2043F02003236435
:10199400012066E700222023226384F83D3084F886
:1019A4003E20236C84F83C2043F0200323648AE720
:1019B4004369DB4313F002033FF434AF4369590531
:1019C4003FF559AFFEF7D6FF099BC01A8542D2D323
:1019D400002DD0D020681AE7002800F09F80F8B5C9
:1019E40090F83D30044603F0FF02002B00F08F8096
:1019F4002422236884F83D201A6822F001021A6028
:101A04001A6842F400421A601A6822F400421A600A
:101A140000F04CFE62684B4B9A424BD84A4B9842BA
:101A24007AD9431E5200B3FBF2F248492368A1FB62
:101A340000105968800C21F03F0101435960196A74
:101A4400013021F03F0108431862501CC0F30B0021
:101A5400042838BF0420D96921F44F4121F0FF0143
:101A6400002520260843D8611968D4E9072021F00D
:101A7400C00102430A431A609968D4E9030221F4BD
:101A8400034121F0FF0102430A439A60D968D4E973
:101A9400052021F0FF0102430A43DA601A68284650
:101AA40042F001021A60256484F83D60256384F8DD
:101AB4003E50F8BD264B98422ED94FF49671234DD3
:101AC4002368A5FB0065AD0C01FB05F15E68214FA1
:101AD40026F03F06A7FB017135435D601D6A890945
:101AE40025F03F05013129431962D969A56821F41C
:101AF4004F41013821F0FF0195B902EB4202B0FBDE
:101B0400F2F00130C0F30B00C0B90120A8E780F85F
:101B14003C20FEF70DFD6BE70120F8BD0120704766
:101B240002EB820202EB8202B0FBF2F00130C0F35E
:101B34000B000028E9D040F4404091E740F4004015
:101B44008EE700BFA08601007F841E0083DE1B4356
:101B5400FF083D00D34D62102DE9F04F044683B0D9
:101B64009A460F469046BDF834900E9EFEF702FF4B
:101B740094F83D30202B04D00227384603B0BDE84A
:101B8400F08F054605E0FEF7F5FE401B192800F22C
:101B9400A68022689369DB4313F0020BF3D094F818
:101BA4003C30012BE8D00121136884F83C10D8079D
:101BB40002D413680B4313604FF0210E4FF0400C16
:101BC40000201168534621F40061116084F83DE05F
:101BD40084F83EC02064A4F82A90B4F82AC0394698
:101BE4000C9FA0F5803067624246CDE90065E06253
:101BF400A4F828C02046FFF797FC074600284BD1DD
:101C04002368228DFAB1721C03D04AE05A69510547
:101C14002FD45A691006F9D5D4F824E0B4F82880F2
:101C2400F4461CF8011B08F1FF321961618D92B270
:101C3400013989B261855869C4F824C040072285F6
:101C4400E0D5002A3CD1721C03D05DE05A695105ED
:101C540068D45A695007F9D5002120201A6842F443
:101C640000721A6084F83D0084F83C1084F83E1039
:101C740083E700226FF4806020215861226384F896
:101C84003D1084F83E20236C84F83C2043F0040388
:101C94002364236C042B30D00127384603B0BDE8FD
:101CA400F08F5A691206B7D45A695105E1D4FEF788
:101CB40061FE401B86424FD3002E4DD02368A2E71D
:101CC4009EF80110A8F102021961608D92B20138E8
:101CD4000EF1020180B222856162608592E72023C1
:101CE400C4F830B084F83D3084F83EB0236C84F8F6
:101CF4003CB043F0200323643EE7226801271368C5
:101D040043F40073136038E75A695207A4D45A693C
:101D1400510507D4FEF72EFE401B86422AD34EB34C
:101D2400236890E700226FF48060202158612263C9
:101D340084F83D1084F83E20236C84F83C2043F062
:101D440004032364236C042BA6D12268012713689F
:101D540043F40073136010E700222023226384F805
:101D64003D3084F83E20236C84F83C2043F020036B
:101D740023648EE700222023226384F83D3084F814
:101D84003E20236C84F83C2043F020032364D9E7ED
:101D94002DE9F04F0446002089B09A460F4690463C
:101DA4000390BDF84C90149EFEF7E4FD94F83D308A
:101DB400202B04D00227384609B0BDE8F08F054631
:101DC40004E0FEF7D7FD401B19284DD8226893691B
:101DD400DB4313F0020BF4D094F83C30012BE9D030
:101DE4000121136884F83C10D80702D413680B430C
:101DF40013604FF0220E4FF0400C00201168534640
:101E040021F40061116084F83DE084F83EC0206450
:101E1400A4F82A90B4F82AC03946129FA0F580305D
:101E240067624246CDE90065E062A4F828C0204616
:101E3400FFF78CFC0746A8B9238D226813BB0490D6
:101E44005369049393690493049B136843F40073E4
:101E540013600023202284F83C3084F83D2084F869
:101E64003E30A8E70127A6E72023C4F830B084F861
:101E74003D3084F83EB0236C84F83CB043F020033A
:101E8400236497E7012B00F09180022B00F032814C
:101E9400116841F48061116007905169079192695A
:101EA4000792079ADFF87492DFF87482002BD0D07F
:101EB400032B00F28E80012B00F0E480022B36D13C
:101EC400711C226840F0D18053695B07FCD572B65F
:101ED4002368616A1A6842F400721A601B690B7005
:101EE400638D616A228D013B0131013A9BB26162CB
:101EF4002285638562B62268636A12691A70628DEC
:101F0400238D616A013A013B013192B29BB2616255
:101F140062852385CAE7536958070ED4FEF72AFD64
:101F2400401B8642C0F08F80002E00F08C80711C14
:101F34002268F0D153695B07FCD5136823F48063EE
:101F4400136072B62268636A12691A70D9F8003095
:101F5400618DDB08A8FB0323208D626A1B0A01390B
:101F640089B203EB830361850138C3EBC303511CBE
:101F740061622085039304E023685969490700F1ED
:101F84009380039B013B0393039B002BF4D12022FA
:101F9400236384F83D2084F83E30226C42F0200212
:101FA400226462B6012784F83C3004E7136823F402
:101FB4008063136072B6236805905A6905929A6922
:101FC4000592059A1A6842F400721A6062B6238D6B
:101FD40068E746B92EE05A69D10676D4FEF7CAFC02
:101FE400401B86422FD323685A695006F3D51A69D9
:101FF400636A1A70628D2168013A92B2238D6285F8
:102004004869626A013B9BB202F1010C40072385D7
:10201400C4F824C07FF54AAF0B695370238D628DD9
:10202400616A013B013A9BB292B201312385628518
:1020340061623BE723685A695206D8D45A69D506C7
:1020440043D4FEF797FC012700222023384622635D
:1020540084F83D3084F83E20236C84F83C2043F01F
:102064002003236409B0BDE8F08F536958073FF596
:102074002EAFFEF77FFC401B8642E4D3002E7FF494
:102084001FAFE0E746B930E05A69D2061DD4FEF727
:1020940071FC401B8642D6D323685A695106F3D596
:1020A4001A69636A1A70B9E7196841F40071196012
:1020B4001B695370638D616A228D013B9BB20131B0
:1020C400013A63856162228514E700226FF01000F3
:1020D40020215861226384F83D1084F83E20236C4B
:1020E40084F83C202364012765E623685A69500676
:1020F400A4D5D5E7136843F40063136072B623686C
:1021040006905A6906929A690692069A1A6822F407
:1021140080621A6062B6238DC4E600BF000000200E
:1021240089B5F814002800F055812DE9F0410368C1
:1021340082B0DD07044635D5A8494A6802F00C028E
:10214400042A00F005814A6802F00C02082A00F013
:10215400FB806368B3F5803F10D0002B00F0208132
:10216400B3F5A02F00F078819C4B1A6822F48032DA
:102174001A601A6822F480221A6004E0974A1368ED
:1021840043F480331360FEF7F5FB944D064605E0F7
:10219400FEF7F0FB801B642800F2F5802B689A039D
:1021A400F6D523689F074DD41A0722D5A369002BBF
:1021B40000F0BA8001228A4B884D1A60FEF7DAFBE0
:1021C400064605E0FEF7D6FB801B022800F2DB8002
:1021D4006B6A9B07F6D5834B834A1B68A2FB0323D8
:1021E4005B0A019300BF019B5A1E0192002BF9D197
:1021F40023685D0769D5794BDA69D00000F1EC807A
:102204000125DA6942F08052DA61DB6903F0805318
:102214000093009B754B1A68D10540F1A380E368D5
:10222400012B37D0002B00F0E780052B6B4B1A6A8B
:1022340000F01F8122F001021A621A6A22F00402DD
:102244001A622CE0654A516811F00C0F61D0516894
:1022540001F00C01082959D02369002B00F0EB8010
:102264000122634B5D4D1A60FEF784FB064605E0D0
:10227400FEF780FB801B022800F285802B689807FC
:10228400F6D52B68626923F0F80343EAC2032B6096
:10229400236889E7514A136A43F001031362FEF786
:1022A40069FB4E4E804641F2883705E0FEF762FB3B
:1022B400A0EB0800B84266D8336A9B07F6D525B16F
:1022C400464AD36923F08053D361E069D0B1434DCA
:1022D4006A6802F00C02082A00F0D38002284FF04A
:1022E4000001444A00F0DE801160FEF743FB2C46F7
:1022F400054604E0FEF73EFB401B022843D8236852
:102304009B01F7D4002002B0BDE8F0815268D603E7
:10231400A2D4324A1268950739D52269012A36D0E7
:10232400012002B0BDE8F0812D4A2C4D1360FEF768
:1023340021FB064604E0FEF71DFB801B022822D881
:102344006B6A9F07F7D453E74A68D0037FF501AF60
:10235400224A126891037FF525AF6268002A7FF450
:1023640021AFDDE71A681E4642F480721A60FEF758
:1023740001FB07463368DA053FF551AFFEF7FAFA79
:10238400C01B6428F6D9032002B0BDE8F0811349CC
:1023940060690A6822F0F80242EAC0020A6003E7B0
:1023A40003F1804303F504331A681D4622F4803296
:1023B4001A601A6822F480221A60FEF7DBFA0646D5
:1023C40004E0FEF7D7FA801B6428DCD82B689B0353
:1023D400F7D4E6E60120704700251BE70010024011
:1023E4008004424200000020D34D6210007000407F
:1023F400000042426000424203F1804303F504338B
:102404001A6A1E4622F001021A621A6A41F28838D8
:1024140022F004021A62FEF7ADFA074604E0FEF762
:10242400A9FAC01B4045AED8336A9807F7D4002DEB
:102434003FF44BAF44E7344A344D1360FEF79AFA45
:10244400064604E0FEF796FA801B02289BD82B6808
:102454009907F7D42368A7E603F18043A3F53C3337
:102464001A6842F480221A601A6842F480321A60B0
:1024740089E642F004021A621A6A42F001021A6200
:102484000DE701283FF44DAF6B68226A03F48031F5
:1024940091427FF445AF606A03F47013181A18BFB1
:1024A40001203EE71160FEF765FA064605E0FEF7F7
:1024B40061FA801B02283FF666AF2B689901F6D4B7
:1024C400226AB2F5803F05D16B68A16823F400331A
:1024D4000B436B6001250D4B606A5968024321F47C
:1024E40074110B480A435A6005601C46FEF742FA11
:1024F400054605E0FEF73EFA401B02283FF643AFCF
:1025040023689A01F6D5FDE600004242001002401D
:102514006000424278B15D4A136803F007038B42BE
:102524000BD2136823F007030B431360136803F003
:1025340007038B4201D0012070472DE9F041036865
:1025440086B09D0714D55C0704D5514C626842F4EB
:10255400E06262601A0704D54D4C626842F460522E
:1025640062604B4C8568626822F0F0022A43626024
:10257400DB0704460D4620D54268454B012A1B68FB
:102584006FD0022A7ED0980727D5414E41F2883871
:10259400736823F0030313437360FEF7EBF90746F4
:1025A40004E0FEF7E7F9C01B404569D87368626828
:1025B40003F00C03B3EB820FF3D1344A136803F036
:1025C4000703AB420DD9136823F007032B431360B1
:1025D400136803F00703AB4203D0012006B0BDE843
:1025E400F0812368590706D52949E0684A6822F42E
:1025F400E06202434A601A0707D5254A21695368F5
:1026040023F4605343EAC103536040F20122214B97
:1026140006ACADF804200FCB04E90F001C494A684E
:1026240002F00C03082B1AD1C2F38343234413F89A
:10263400100CD30318D4184B03FB00F3144A1748A7
:1026440052681749C2F30312805C164AC3400868F3
:102654001360FEF74DF9002006B0BDE8F081124B7F
:10266400ECE79F0391D4B8E74A680F4BC2F34042AA
:1026740003FB00F3224412F8142CB3FBF2F3DDE75E
:102684000320ABE79E0180D4A7E700BF00200240EF
:1026940000100240EC3A000800093D00003B00082D
:1026A400080000200000002000127A00044B0549B5
:1026B4005B68054AC3F30223CB5C1068D8407047BB
:1026C40000100240103B000800000020044B0549A4
:1026D4005B68054AC3F3C223CB5C1068D8407047DB
:1026E40000100240103B0008000000202DE9F041DA
:1026F4000446006882B0C5072AD53A4BDA69D1008E
:102704003DD5394B00251A68D20546D53549606850
:102714000A6A12F440720FD000F4407393420BD053
:10272400012700260B6A314A23F4407017601660B3
:102734000862D80745D460682A4A136A23F44073B0
:10274400034313621DB1D36923F08053D36120681E
:10275400830706D5234AA168536823F440430B43F7
:10276400536010F0100007D000201E4A61695368BE
:1027740023F480030B43536002B0BDE8F081DA69AF
:10278400012542F08052DA61DB6903F08053019342
:10279400019B154B1A68D205B8D41A681E4642F438
:1027A40080721A60FEF7E6F807463368DB05ADD49D
:1027B400FEF7E0F8C01B6428F7D9032002B0BDE897
:1027C400F0810E46FEF7D6F841F288378046336A28
:1027D4009A07B0D4FEF7CEF8A0EB0800B842F6D9B9
:1027E400EBE700BF0010024000700040400442428A
:1027F40000285ED090F8393070B503F0FF0204462B
:10280400002B51D02422236884F83920DA68E06848
:1028140022F40052DA601969A26821F4405101439C
:102824001961D968D4E9045021F4B0512A4321F044
:102834000C0102430A43DA605A69A0691F4922F471
:10284400407202438B425A6135D0FFF72FFF636811
:1028540000EB80009B0000EB8000B0FBF3F06423EE
:1028640000252021164EA6FB00C2520903FB1200CC
:1028740000013230A6FB00301201236802EB501035
:1028840098601A69284622F490421A615A6922F023
:102894002A025A61DA6842F40052DA60E56384F885
:1028A400391084F83A1070BD80F83820FDF774FEB2
:1028B400A8E701207047FFF709FFC8E70038014087
:1028C4001F85EB512DE9F043054690F8390083B09C
:1028D400202840D10F46002941D00192002A3ED041
:1028E4001E4695F83830012B35D0212301210024D0
:1028F40085F83810EC6385F83930FEF73BF8AB689F
:10290400019AB3F5805F8146AA84EA845AD0A0462E
:102914000022EB8C85F838209BB22C688BB1721C9A
:1029240021D122681306FCD5002F39D017F8013BBA
:102934006360EB8C013B9BB2EB84EB8C9BB2002B72
:10294400EDD1711C31D123685A06FCD52023002017
:1029540085F8393000E0022003B0BDE8F08301209F
:1029640003B0BDE8F08323681806DDD436B1FEF762
:1029740001F8A0EB090086422C68D0D22022002165
:10298400E368032023F4D073E360636923F0010355
:10299400636185F8392085F8381085F83A20DBE73B
:1029A40038F8023BC3F30803C2E723685B06CDD4BF
:1029B400002EE3D0FDF7DEFFA0EB090086422C6871
:1029C400BFD2DBE72B69002BA1D1B8461F469FE796
:1029D400704700BF704700BF8268836AB2F5805FAA
:1029E400016829D06AB14A6802F07F021A70836ACA
:1029F40001338362C38D013B9BB2C3853BB100208D
:102A040070470269002AEED14A681A70EFE710B5E0
:102A140020240368D96821F02001D960D96821F401
:102A24008071D960596921F00101596180F83A40F7
:102A3400FFF7D0FF002010BD0269002AE4D14A68E4
:102A4400C2F3080223F8022B8362D3E7704700BF66
:102A5400036870B51A6804461607DD68596947D0DB
:102A640011F001014DD0D00705D5EE0503D5E06B7B
:102A740040F00100E063500775D529B1E06B96077B
:102A840040F00200E06372D4160703D5A80673D49D
:102A9400002971D1E16B002932D0960601D5A80630
:102AA40073D45D69E16B090702D415F0400579D050
:102AB4002021DA6822F49072DA605A6922F0010265
:102AC4005A6184F83A105A6952065AD55A69616BA8
:102AD40022F040025A61002953D03A4B08464B6316
:102AE400FDF7CEFF60B1606BBDE87040436B1847E3
:102AF400910609D5AE0607D590F83A30222B4DD071
:102B040070BD15F4907FAED116060ED45106F7D5DC
:102B14006A06F5D52021DA68204622F04002DA6000
:102B240084F83910FFF754FF70BD2806EED594F8E9
:102B34003920212AE4D1A168226AB1F5805F36D018
:102B4400511C216212785A60E28C013A92B2E284FA
:102B5400002AD5D1DA6822F08002DA60DA6842F01D
:102B64004002DA6070BD90078ED500298CD0E06BEE
:102B740040F00400E06387E7E16B41F00801E163A2
:102B840088E72046FFF762FF70BD94F83A20222AB6
:102B940087D12046FFF720FF236882E7BDE8704015
:102BA400FFF71ABF2046FFF751FFE56370BD2169A7
:102BB4000029C5D132F8021BC1F308015960226211
:102BC400C2E700BFCD2B0008002208B5436ADA85AE
:102BD4001846DA84FFF73AFF08BD00BFF0B54FF49A
:102BE400FA70ADF5077DFDF7CBFE684800F072FA88
:102BF400052320220093A02103AB654800F0A0F92F
:102C04009DF80C30AA2B03D19DF80D30552B1DD007
:102C14000A2000F0EFF95F4800F05CFA4FF47A7094
:102C2400FDF7AEFE5C4A5D4B11680B40B3F1005FEB
:102C340000F09C8012685A4B1340B3F1005F00F01F
:102C440095804FF47A70FDF79BFEFAE7554A544B92
:102C540012681340B3F1005FDAD1534800F03AFA36
:102C640052494D4800F0D8F8514800F033FA514821
:102C740000F030FA40F6B830FDF782FE9DF80F30D0
:102C84009DF80E401B0243EA04435C0A002000F056
:102C94000FF904F5802321333F4D474F5C024FF475
:102CA400007205F5003106A800F090F90626FEF73B
:102CB4006BF808E0013E0DD0384600F00BFA4FF4F3
:102CC4007A70FDF75DFE802206A9284600F0C0F860
:102CD4000028EFD1FEF76CF805F50075232000F00D
:102CE40089F9AC42DBD1354800F0F4F9344800F0FE
:102CF400F1F9052300242022A0210093244803ABEA
:102D0400CDE90344ADF8144000F0FCF82D4800F080
:102D1400E1F9244800F062F80A2000F06BF92A482F
:102D240000F0D8F94FF47A70FDF72AFE1A4A1B4BCB
:102D340011680B40B3F1005F06D01268184B1340C2
:102D4400B3F1005F7FF47DAF204800F0C3F9204B5E
:102D5400204A1B68204C13602360FDF7B9FD0E4B1D
:102D64001B6883F30888236898476AE7174800F0CC
:102D7400B1F9174B17481B681749074A03600B60E2
:102D8400126882F3088898475BE700BF183B000885
:102D9400D8000020D03B0008004000080000FE2FAF
:102DA4000000F02F00400208243B00080000020845
:102DB400383B0008543B0008603B00086C3B0008AB
:102DC400803B0008983B0008B43B0008C43B000863
:102DD40004400008100200201402002030B5002531
:102DE400044687B00195FDF7CFFF0122C4F10063CB
:102DF40003F58023DB0A01A902A8CDE90443039269
:102E04000295FEF74DF80446FDF7D2FF601B18BF8C
:102E1400012007B030BD00BF70B5002605460C4642
:102E240086B00196FDF7B0FF0123641B01A9E40AF3
:102E340002A80594CDE903350296FEF731F804465D
:102E4400FDF7B6FFA01B18BF012006B070BD00BF80
:102E54002DE9F041904604460D46FDF795FFB8F183
:102E6400000F1BD0114FBC4218D80026043D08E0C7
:102E740022682B6804349A4215D1B0450ED0BC4266
:102E84000CD855F8042F002321460220FDF798FEA4
:102E940001360028ECD00320BDE8F081FDF788FF5F
:102EA4000020BDE8F0810220BDE8F081FCFF0308AA
:102EB40010B504468EB007A8B4FA84F4FEF700FAFD
:102EC4000121A5229DF82D306409CDE900148DF867
:102ED40010208DF81130099CFDF756FFFDF772FFA5
:102EE400FEF744F810B104200EB010BD44F47F2462
:102EF40044F47F6468460294FEF78EF80028F2D109
:102F04000EB010BD2DE9F0438146884617461E4693
:102F14004FF47A7585B0BDF83040CDE9014500968F
:102F240010233A4641464846FEF716FE0028F4D1DF
:102F34000520FDF725FD012005B0BDE8F08300BFA5
:102F44002DE9F0478246894690461F460B244FF4EC
:102F54007A7684B0BDF83050CDE90156009710233D
:102F6400424649465046FEF713FF08B1013CF3D1EF
:102F7400012004B0BDE8F087014B1868704700BF1A
:102F84000C00002070B500250C4E0D4CA41BA410A1
:102F9400A54209D100F09CFD00250A4E0A4CA41B51
:102FA400A410A54205D170BD56F8253098470135C7
:102FB400EEE756F8253098470135F2E7443C00081F
:102FC400443C0008443C0008483C000810B5431E3B
:102FD4000A44914200D110BD11F8014B03F8014F8E
:102FE400F7E703460244934200D1704703F8011BFC
:102FF400F9E7000038B5084B05461C6824B1A369FD
:1030040013B9204600F0D4FAA26829462046BDE848
:10301400384000F069BC00BF0C00002070B50E46BB
:10302400054618B183690BB900F0C2FAAB69AC6804
:1030340013B9284600F0BCFA234B9C4217D16C68A4
:10304400A3891B071DD52369DBB1013EA36816F8CC
:10305400011F013BA360E9B9002B2EDA22460A21A5
:10306400284600F0F5F8013011D00A2011E0174B82
:103074009C4201D1AC68E3E7154B9C4208BFEC6865
:10308400DEE72146284600F035F90028DDD04FF070
:10309400FF3070BD002B04DAA2699A4206DC0A29CB
:1030A40004D023685A1C22601970CFE722462846B0
:1030B40000F0CEF80130C9D1E9E70A2023685A1C90
:1030C40022601870E5E700BF043C0008243C0008B7
:1030D400E43B0008024B01461868FFF79FBF00BF9E
:1030E4000C00002000294FF480630CBF0222002250
:1030F40000F000B82DE9F7431D46514B04461E6805
:103104000F46904626B1B36913B9304600F050FA21
:103114004C4B9C4252D17468B8F1020F06D0B8F1FE
:10312400010F00F28980002DC0F2868021463046CE
:1031340000F0D4F9616B41B104F14403994202D027
:10314400304600F02BFB002363630023A36163601C
:10315400A3891B0603D52169304600F01FFBA38910
:10316400B8F1020F23F44A6323F00303A3815DD073
:1031740001AB6A462146304600F0A4FAA3891843FD
:10318400A0812DBB009D284600F000FB07460028C7
:103194004ED1DDF80090A9453CD14FF0FF30A38912
:1031A40043F00203A3810023A36004F147032360D7
:1031B40023610123636103B0BDE8F083224B9C4289
:1031C40001D1B468A8E7214B9C4208BFF468A3E787
:1031D400002FD8D0B36913B9304600F0E9F9B8F13B
:1031E400010F08BFA389276004BF43F00103A38133
:1031F400A389C4E9047513F008001BD013F001007F
:103204004FF000031FBF6D42A360A561184608BFBD
:10321400A560D0E7484600F0B9FA07460028BCD0BC
:10322400A3894D4643F08003A381D3E70020B6E78A
:10323400A946F5E7A060BEE74FF0FF30BBE700BF4B
:103244000C000020043C0008243C0008E43B000877
:10325400F8B50E461446054618B183690BB900F05B
:10326400A7F9214B9C422AD16C68A369A360A38966
:103274001A072ED5236963B323692068F6B2C01AEE
:1032840063693746834204DC2146284600F026F968
:1032940028BBA3680130013BA36023685A1C226049
:1032A4001E706369834204D0A389DB0719D50A2EF3
:1032B40017D12146284600F011F990B10FE00B4BCD
:1032C4009C4201D1AC68D0E7094B9C4208BFEC6832
:1032D400CBE72146284600F00DF80028CCD04FF06B
:1032E400FF373846F8BD00BF043C0008243C000802
:1032F400E43B0008324B70B51D6806460C4625B108
:10330400AB6913B9284600F053F92E4B9C420FD1F8
:103314006C68B4F90C309AB215072CD4D00611D4C9
:103324000922326043F04003A3814FF0FF303EE0B6
:10333400254B9C4201D1AC68EBE7244B9C4208BF6F
:10334400EC68E6E7510712D5616B41B104F144031F
:10335400994202D0304600F021FA00236363A38926
:1033640023F02403A3810023636023692360A389DA
:1033740043F00803A38123694BB9A38903F42073A1
:10338400B3F5007F03D02146304600F0BFF9A2898F
:1033940012F001030CD00023A36063695B42A361B4
:1033A400236953B9B4F90C3013F08000BAD170BD5D
:1033B400920758BF6369A360F2E70020F7E700BFF4
:1033C4000C000020043C0008243C0008E43B0008F6
:1033D4008A892DE9F041054610070C4658D44B68FC
:1033E400002B05DC0B6C002B02DC0020BDE8F08117
:1033F400E66A002EF9D0002312F480522F68216A65
:103404002B6032D0606DA3895A0705D56368C01A52
:10341400636B0BB1236CC01A00230246E66A216A6F
:103424002846B047431CA38906D129681D2948D8DA
:10343400294ACA40D60744D5002262602269D904C9
:10344400226004D5421C01D12B6803B96065616B0D
:103454002F600029C9D004F14403994202D02846C0
:1034640000F09CF900206063C0E701232846B047C0
:10347400411CC8D12B68002BC5D01D2B01D0162BA5
:1034840001D12F60B1E7A38943F04003A381ADE7E5
:103494000F69002FA9D0930718BF00230E6808BF37
:1034A4004B69A6EB07080F608B60B8F1000F9CDD39
:1034B40043463A46216A2846A66AB047002806DCF5
:1034C400A38943F04003A3814FF0FF308EE7074404
:1034D400A8EB0008E9E700BF0100402038B50B69FC
:1034E40005460C46DBB118B183690BB900F060F8EE
:1034F4000C4B9C4209D16C68B4F90C307BB1214669
:103504002846BDE83840FFF763BF074B9C4201D112
:10351400AC68F1E7054B9C4208BFEC68ECE700207F
:1035240038BD00BF043C0008243C0008E43B00080C
:10353400002310B50446C0E90033836081814366EB
:10354400C281C0E904338361194608225C30FFF765
:1035540048FD054B24626362044BA362044BE3629F
:10356400044B236310BD00BF793900089B39000860
:10357400D3390008F7390008014900F085B800BFC5
:10358400E134000870B568254A1E55430E4605F11E
:10359400740100F04FF9044640B10021C0E900165F
:1035A4000C30A06005F16802FFF71BFD204670BDDA
:1035B400836910B5044633BBC0E912330365124B6B
:1035C400124A1B688262984204BF0123836100F09F
:1035D4001FF86060204600F01BF8A060204600F051
:1035E40017F80022E06004216068FFF7A1FF0122C0
:1035F4000921A068FFF79CFF02221221E068FFF76F
:1036040097FF0123A36110BDE03B00087D3500084E
:10361400F8B51B4B07461E68B36913B93046FFF76C
:10362400C7FF4836D6E90134013B03D5336833B1CB
:103634003668F7E7B4F90C506DB16834F4E7042147
:103644003846FFF79FFF30600028F1D10C23044671
:103654003B602046F8BD0B4B6566C4E90055A56088
:10366400C4E90335C4E905550822294604F15C0080
:10367400FFF7B7FCC4E90D55C4E91255E9E700BFEB
:10368400E03B00080100FFFF2DE9F843804689462E
:10369400002600F1480414B93046BDE8F883D4E9A3
:1036A4000175013F01D52468F5E7AB89012B07D9E2
:1036B400B5F90E30013303D029464046C8470643C6
:1036C4006835EEE770B50E46B1F90E1096B00029D4
:1036D40014461D4607DA00232B60B3891A0610D45A
:1036E4004FF480630EE06A4600F0AAF90028F2DB8A
:1036F400019A02F47042A2F500535A425A412A60D8
:10370400EEE740230020236016B070BD8B8973B5AB
:103714009D0706460C4607D504F147032360236141
:103724000123636102B070BD01AB6A46FFF7CAFFB3
:1037340000990546304600F07DF848B9B4F90C30DC
:103744009A05EFD423F0030343F00203A381E3E7D4
:103754000D4BB362A389206043F08003A381009BD7
:1037640020616361019B5BB1B4F90E10304600F037
:1037740079F928B1A38923F0030343F00103A3815A
:10378400A3891D43A581CDE77D350008024B014681
:10379400186800F04FB800BF0C00002038B505468B
:1037A400002943D051F8043C0C1F002BB8BFE41887
:1037B40000F07AF91E4A1368104633B96360146046
:1037C4002846BDE8384000F070B9A3420BD92168FF
:1037D4006218934201BF1A685B68521822606360E2
:1037E4000460EDE713465A680AB1A242FAD919688F
:1037F4005818A0420BD1206801445818824219601D
:10380400DED110685268014419605A60D8E702D9C1
:103814000C232B60D4E7206821188A4201BF116869
:1038240052680918216062605C60C9E738BD00BF56
:103834009000002070B5CD1C25F0030508350C2D33
:1038440038BF0C25002D064601DBA94203D90C2301
:103854003360002070BD00F027F9214A1468214626
:1038640091B9204C23681BB9304600F073F82060EE
:103874002946304600F06EF8431C24D10C23304610
:10388400336000F012F9E4E70B685B1B18D40B2BD0
:103894000FD90B60CC18CD50304600F006F904F176
:1038A4000B00231D20F00700C31AD3D05A42E25064
:1038B400D0E74B688C4216BF636013600C46EBE79D
:1038C4000C464968CCE7C41C24F00304A04205D08C
:1038D400211A304600F03EF80130CFD02560DBE7F6
:1038E400900000209400002070B50D461446064652
:1038F40018B183690BB9FFF75BFE134B9C4212D1DD
:103904007468A368013B002BA36016DAA269934292
:1039140002DBEBB20A2B10D1224629463046BDE821
:103924007040FFF795BC094B9C4201D1B468E8E7AD
:10393400074B9C4208BFF468E3E72368E8B25A1CCB
:1039440022601D7070BD00BF043C0008243C0008C8
:10395400E43B000838B50023054C054608462360BF
:10396400FCF768FF431C02D1236803B12B6038BD08
:103974001802002010B50C46B1F90E1000F096F8AC
:103984000028ABBF636DA3891B1823F48053ACBF1D
:103994006365A38110BD2DE9F0411F468B8905465F
:1039A400DB050C46164605D502230022B1F90E109C
:1039B40000F068F8A389324623F48053A381B4F954
:1039C4000E103B462846BDE8F04100F017B810B58C
:1039D4000C46B1F90E1000F055F8431CA38915BF2D
:1039E400606523F4805343F48053A38118BFA381FB
:1039F40010BDB1F90E1000F013B8000038B505463B
:103A0400084611460022054C22601A46FCF7F6FED1
:103A1400431C02D1236803B12B6038BD1802002077
:103A240038B50023054C054608462360FCF7F4FE30
:103A3400431C02D1236803B12B6038BD1802002057
:103A440038B50023064C0546084611462360FCF7AA
:103A5400E7FE431C02D1236803B12B6038BD00BFCD
:103A64001802002038B50023054C0546084623609B
:103A7400FCF7DCFE431C02D1236803B12B6038BD84
:103A84001802002038B50546084611460022054CA8
:103A940022601A46FCF7CCFE431C02D1236803B112
:103AA4002B6038BD180200207047704738B50546B2
:103AB400084611460022054C22601A46FCF790FE87
:103AC400431C02D1236803B12B6038BD18020020C7
:103AD400F8B500BFF8BC08BC9E467047F8B500BFF7
:083AE400F8BC08BC9E467047C7
:103AEC0002030405060708090A0B0C0D0E0F101033
:103AFC000D000000000000000000000001020304A3
:103B0C00060708090000000001020304426F6F74ED
:103B1C005461736B0000000046696E642061204E96
:103B2C0065772056657273696F6E2E00496E7465E9
:103B3C00726E616C20666C6173682065726173656E
:103B4C0020646F6E652E00004572617365204465BC
:103B5C006C617900577269746520457272000000BF
:103B6C000A4E657720535720466C61736820446F6A
:103B7C006E650000457261736520557067726164F3
:103B8C006520436F6E6669670000000045726173C3
:103B9C006520557067726164652042696E61727947
:103BAC0020496D61676500004E657720532F5720C3
:103BBC00426F6F7400000000204A756D70204170D8
:103BCC00700000004175746F6D6174696320426F01
:103BDC006F740000100000200000000000000000C6
:103BEC0000000000000000000000000000000000C9
:103BFC0000000000000000000000000000000000B9
:103C0C0000000000000000000000000000000000A8
:103C1C000000000000000000000000000000000098
:103C2C000000000000000000000000000000000088
:083C3C00000000000000000080
:043C44000902000869
:043C4800E50100088A
:103C4C000024F4000100000010000000100000200F
:103C5C0000000000043C0008243C0008E43B000881
:103C6C000000000000000000000000000000000048
:103C7C000000000000000000000000000000000038
:103C8C000000000000000000000000000000000028
:103C9C000000000000000000000000000000000018
:103CAC000000000000000000000000000000000008
:040000050800088562
:020000040800F2
:1040000000C00020094E0008A54C0008A94C00087B
:10401000AD4C0008B14C0008B54C00080000000091
:10402000000000000000000000000000B94C000883
:10403000BD4C000800000000C14C0008C54C000841
:10404000514E0008514E0008514E0008514E0008D4
:10405000514E0008514E0008514E0008514E0008C4
:10406000514E0008514E0008514E0008514E0008B4
:10407000514E0008514E0008514E0008514E0008A4
:10408000514E0008514E0008C94C0008514E00081E
:10409000514E0008514E0008514E0008514E000884
:1040A000514E0008514E0008514E0008514E000874
:1040B000E54C0008514E0008514E0008514E0008D2
:1040C000514E0008514E0008514E0008514E000854
:1040D000514E0008394D0008454D0008514D00086B
:1040E000514E0008514E0008514E0008514E000834
:1040F000514E0008514E0008514E0008514E000824
:10410000514E0008514E0008514E0008514E000813
:10411000514E00085D4D0008514E0008514E0008F8
:10412000514E0008514E0008514E0008514E0008F3
:10413000000000000000000000000000000000007F
:10414000000000000000000000000000000000006F
:10415000000000000000000000000000000000005F
:10416000000000000000000000000000000000004F
:10417000000000000000000000000000000000003F
:10418000000000000000000000000000000000002F
:10419000000000000000000000000000000000001F
:1041A000000000000000000000000000000000000F
:1041B00000000000000000000000000000000000FF
:1041C00000000000000000000000000000000000EF
:1041D00000000000000000000000000000000000DF
:0441E0005FF8E0F1B3
:1041E40010B5054C237833B9044B13B10448AFF32D
:1041F40000800123237010BDD802002000000000BD
:1042040040C0000808B5034B1BB103490348AFF392
:10421400008008BD00000000DC02002040C000084F
:1042240010F8012B11F8013B012A28BF9A42F7D05C
:10423400D01A7047034613F8012B002AFBD1181A31
:104244000138704730B597B0002124220DA806F03C
:1042540024F800240122022510230CA8CDE9102300
:1042640001940694CDE90244CDE90444CDE9074420
:10427400CDE90944CDE90B4502F0B4FB0F232146F7
:1042840001A80193CDE90244CDE9044402F0A2FD62
:1042940006A80695089402F0BFFE17B030BD00BF13
:1042A4002DE9F04F00268DB000F0F6FDFFF7CAFFB0
:1042B400CDE90866CDE90A66C54B4FF00108996956
:1042C4004FF0020941F0100199619869324600F0FB
:1042D4001000029002989C694FF4627144F020042B
:1042E4009C619C69BB4804F020040394039C9C6972
:1042F4004FF00C0A44F004049C619C69B64F04F02E
:1043040004040494049C9C69B44D44F008049C6126
:104314009B69B34C03F008030593059B01F056FD1C
:10432400324641F20101AF4801F050FD4246494690
:10433400AC4801F04BFD42462821AB4801F046FD54
:104344003246C021A84801F041FD46F2010308A904
:10435400A0480893CDE9096601F016FC4FF4627396
:1043640008A99C48CDE908380A96CDF82C9001F0AC
:104374000BFC41F2030308A99A48CDE90986089386
:10438400CDF82C9001F000FC302308A99148089343
:10439400CDE9096901F0F8FB032308A992480893C1
:1043A400CDE9096901F0F0FB4FF4704308A98E4888
:1043B4000893CDE9096601F0E7FBE82308A98A48D8
:1043C400CDE909860893CDF82C9001F0DDFB874BED
:1043D400204623604FF4602384F80C80E361C4F822
:1043E4001080A66026756660CDE908660A9600F01E
:1043F40089FD204608A9CDE90986CDF820A001F061
:104404005FF84FF480437A497A4A38467A4CC7E9D0
:1044140000123B61C7E90266C7E90566C7E907669A
:1044240001F03AFF754B204623604FF4E133C4E9B1
:10443400046A6360C4E90266C4E9066603F026F907
:104444004FF416436E4A2846C5E9046A2A606B6035
:10445400C5E90266C5E9066603F018F94FF460235E
:10446400DFF8BCB1674A5846CBF81C308BF80C8097
:10447400CBF81080CBF80020CBF808608BF81460E0
:10448400CBF80460CDE908660A9600F03BFD0B22E8
:10449400584608A9CDE90986089201F011F84FF0B1
:1044A4008040072140F2E732574BCDE90866186097
:1044B40018465960DA609E601E619E610193CDE9E1
:1044C4000A66CDE9066602F0ABFE4FF48052019B0A
:1044D40008A91846089202F03FFF019B06A9184656
:1044E400CDE9066603F092F84FF4E133DFF8348146
:1044F400464A4046C8E90136C8E905A6C8F800207E
:10450400C8E90366C8F81C6003F0C0F84FF416430A
:10451400DFF808B13E4A5846CBF80020CBE9013613
:10452400CBE905A6CBE90366CBF81C6003F0AEF833
:10453400019BDFF8F4A0184602F0DAFE04F0D2FF83
:104544002A465B464146204604F0E4FF04F0BAFDE7
:10455400DAF800303146986805F038FFDAF80030B0
:104564004A4631469868334605F038FF00F0B2FCFD
:104574000146284805F09AFE384604F0F3FA264F1F
:1045840000F0A8FC064603F05DFE04F0BFFD00F059
:104594004DF800F05FF800F075F800F007F900F04E
:1045A4002BF900F0B7F93B68F31AB3F57A7FE7DB30
:1045B4003E6000F079F9204604F04EFF404604F0D6
:1045C4004BFF284604F048FF144804F045FFD7E7A2
:1045D400001002400010014088040020180400204C
:1045E4001C05002000080140000C0140002401408B
:1045F40000580040A08601004C050020003801400E
:1046040000480040002801408C0500200044004080
:10461400005000409CC00008F4020020DC0400208C
:1046240058040020D40500200401002008B54FF4EC
:104634000051064801F0C4FBBDE80840021C4FF4D9
:10464400805118BF0122024801F0C0BB0010014094
:104654000008014008B52021084801F0B1FB30B939
:10466400BDE8084001222021054801F0AFBB00222B
:10467400BDE808402021024801F0A8BB0010014019
:10468400000C014038B54FF48041404801F098FBDC
:1046940000283CD140F68B233D4A12889A423D4A79
:1046A400137824D9002B4AD002203B4C8342217832
:1046B40052D041F28835394B10701D80022942D006
:1046C40003292BD0012917D00023012208213448C3
:1046D400237001F07BFB01224021314801F076FB7D
:1046E400BDE83840012280212D4801F06FBB73BB27
:1046F4000123294913700B702A4B1A8832BB4FF4DB
:10470400FA72082126481A8001F064FBE3E7214A83
:10471400137853BB0323204913700B700122082123
:104724001F4801F053FB012240211D4801F04EFBBC
:10473400BDE8384000228021194801F047BB02231C
:10474400154913700B70184B1A8882B138BD0120BB
:10475400114C83422178ACD1994214D00F4A12886B
:10476400002AABD123701946A8E703209DE74FF434
:10477400FA7408210A481C8001F028FB40210848EB
:1047840001F028FBACE7194698E700BF0010014090
:104794000003002010030020FC0200200E03002070
:1047A400000C01400C0300200A03002010B54FF454
:1047B40000510F4801F004FB80B110210C4801F0B6
:1047C400FFFA021E16BF0124002401224FF40071D7
:1047D400074801F0FBFA074B1C7010BD01224FF48F
:1047E4000071034801F0F2FA0122024B1A7010BD65
:1047F40000100140FB02002010B50221244801F002
:10480400DFFA48B10123234C234922780B70B2B15B
:10481400224B1A780ABB10BD1E4C1F49227803464E
:10482400087022BB1D4B1A78002AF4D00024802182
:1048340022461C701A48BDE8104001F0C7BA1A4657
:1048440080211748237001F0C1FA4FF4FA72154B16
:104854001A80124B1A78002ADDD0002401221C7021
:104864004FF48071BDE810400D4801F0AFBA024624
:104874004FF480710A48237001F0A8FA4FF4FA72D9
:10488400084B1A80054B1A78002AC4D0CEE700BF23
:10489400000C0140FA020020F8020020F902002076
:1048A40000100140FE02002038B5144D2B8801335E
:1048B4002B8003F041FA01210446114801F080FAEB
:1048C40088B1553CA4B20F4B2A881968B2F57A7F97
:1048D4000C441C6006D3B4FBF2F400220A492A807B
:1048E4000C801A6038BD094B1B780BB14B34A4B251
:1048F4000221074801F064FAE5E700BF080300203D
:10490400001001400403002000030020FB020020EB
:10491400000C0140704700BF0E4B82B09A690E49EB
:1049240042F001029A619A6902F001020092009A2F
:10493400DA6942F08052DA61DB6903F08053019353
:10494400019B4B6823F0E06343F080634B6002B04B
:10495400704700BF001002400000014030B5002441
:104964000368254A89B09342CDE90444CDE906445D
:1049740029D0224A934201D009B030BD0220032538
:104984001F4B04A99A6942F480629A619A6902F4FD
:1049940080620292029A9A6942F010029A619B69BB
:1049A400049003F0100303931648039B059501F04C
:1049B400EBF822462146122000F026FE122000F0D9
:1049C40059FE09B030BD04200D4B03259A6904A992
:1049D40042F400729A619A6902F400720092009A99
:1049E4009A6942F010029A619B69049003F01003E3
:1049F40001930448019BD9E70024014000280140A9
:104A04000010024000100140002330B50168154A2F
:104A140087B09142CDE90233CDE9043301D007B028
:104A240030BD4FF44060032212250F4C02A9A36944
:104A340043F00803A361A369029003F00803009301
:104A44000A48009B0395059201F09EF8E36943F43C
:104A54008003E361E36903F480030193019B07B0DE
:104A640030BD00BF0058004000100240000C01405F
:104A74000368B3F1804F00D07047002203F504337C
:104A840010B5DC6982B044F00104DC61DB691146D5
:104A940003F0010301931C20019B00F0B5FD1C20D1
:104AA40002B0BDE8104000F0E5BD00BF70B50024C1
:104AB4000368724A8EB09342CDE90A44CDE90C44AE
:104AC40045D06F4A93427BD06E4A934200F0A9804E
:104AD4006D4A934201D00EB070BD4FF4806102263E
:104AE40003256A4B6A48DA6942F48022DA61DA699A
:104AF40002F480220892089A9A6942F010029A619C
:104B04009B690A9103F0100309930AA9099B0B9668
:104B14000D9501F039F84FF400630AA95C480A9333
:104B2400CDE90B4401F030F85A4822464368214647
:104B340023F0300343F0E06343F010034360272085
:104B440000F062FD272000F095FD0EB070BD4FF41B
:104B54008051022603254D4B4D48DA6942F48012F8
:104B6400DA61DA6902F480120192019A9A6942F0D8
:104B740010029A619A6902F010020292029A9A69EA
:104B840042F020029A619B690A9103F02003039387
:104B94000AA9039B0B960D9500F0F6FF04230AA9BE
:104BA4003D480A93CDE90B4400F0EEFF224621462E
:104BB400352000F029FD352000F05CFD0EB070BDFD
:104BC4004FF4007102260325304B34489A6942F4AD
:104BD40080429A619A6902F480420492049A9A6922
:104BE40042F004029A619B690A9103F0040305935D
:104BF4000AA9059B0B960D9500F0C6FF4FF4806340
:104C04000AA926480A93CDE90B4400F0BDFF2246C9
:104C14002146252000F0F8FC252000F02BFD0EB0E5
:104C240070BD042102260325184B1C48DA6942F49E
:104C34000032DA61DA6902F400320692069A9A695D
:104C44000A439A619B690A910B4007930AA9079B3F
:104C54000B960D9500F098FF08230AA90F480A93B4
:104C6400CDE90B4400F090FF22462146262000F0B7
:104C7400CBFC262000F0FEFC0EB070BD00500040BE
:104C84000038014000440040004800400010024049
:104C940000100140000001400014014000080140E0
:104CA400704700BFFEE700BFFEE700BFFEE700BF9E
:104CB400FEE700BF704700BF704700BF704700BFEA
:104CC40000F0FCB808B5044800F07EFBBDE80840DD
:104CD400024800F079BB00BF1C05002058040020E6
:104CE40008B50E4802F0E8FB0D4A13880BB1013BEE
:104CF40013800C4A13880BB1013B13800A4A1388B2
:104D04000BB1013B1380094A138833B1013B9BB2B9
:104D1400138013B90122064B1A7008BD8C050020BC
:104D24000E0300200C0300200A030020FE020020D2
:104D3400F9020020014802F087BE00BF4C050020A4
:104D4400014802F081BE00BFD4050020014802F0F2
:104D54007BBE00BF18040020014802F075BE00BFEE
:104D6400DC04002070B5161E07DD0C468D1904F016
:104D7400F5FA04F8010BA542F9D1304670BD00BF25
:104D840070B5161E07DD0C468D1914F8010B04F0DE
:104D9400C5FAAC42F9D1304670BD00BF4FF0FF30C8
:104DA400704700BF4FF4005300204B60704700BFB2
:104DB40001207047002070470C4A08B5136833B1CE
:104DC40069461844884209D81060184608BD084945
:104DD4000B461160694618448842F5D905F016FA65
:104DE4000C224FF0FF330260184608BD1403002064
:104DF400180F0020014B024A9A60704700ED00E052
:104E040000400008002103E00B4B5B584350043181
:104E14000A480B4B42189A42F6D30A4A02E000238E
:104E240042F8043B084B9A42F9D3FFF7E3FF05F03D
:104E340005FAFFF735FA704790CB00080000002010
:104E4400D4020020D8020020180F0020FEE7000042
:104E540038B54FF47A730D490D4A09781268B3FBDB
:104E6400F1F30546B2FBF3F000F012FC08B90F2D84
:104E740001D9012038BD0446024629464FF0FF30CF
:104E840000F0C2FB034B20461D6038BD0400002027
:104E94000000002008000020074A08B5136803201A
:104EA40043F01003136000F09DFB0020FFF7D0FFD8
:104EB400FFF732FD002008BD00200240034A044BE6
:104EC40011681B780B441360704700BF1406002060
:104ED40004000020014B1868704700BF140600202E
:104EE40038B50446FFF7F6FF631C054602D0044BB1
:104EF4001B781C44FFF7EEFF401BA042FAD338BDD9
:104F040004000020002875D0836A70B50446002B85
:104F140066D023689A68D0074DD4A26AD20644D4D6
:104F2400A26A5B4922F4885222F0020242F0020291
:104F34008B42A262E069626878D0257BA16842EA6C
:104F44004502B1F5807F42EA0002207D5DD001294F
:104F540000F08D80012800F0988058684D4920F4B5
:104F64006940586000209D68294011439960D96ABE
:104F7400494D21F470010143D9629B681D40AA4246
:104F84003AD00120A36A23F0120343F01003A36272
:104F9400E36A0343E36270BDA36A43F01003A362B0
:104FA400E36A43F00103E362A36AA36A012043F0C6
:104FB4001003A36270BD9A6822F001029A60FFF7A1
:104FC40089FF054604E0FFF785FF401B0228E3D86C
:104FD40023689A68D107F6D4A26AD206E5D49FE77B
:104FE400C36280F82430FFF7B9FC23689A68D007BD
:104FF400E1D492E7012070470020E062A36A23F025
:10500400030343F00103A36270BD012814D0586860
:10501400204920F4694040F4807058609868014049
:1050240011439960216901390805A0E7B0F5402FC3
:1050340008BF4FF4002080E70E46EDB9A069451E75
:1050440046EA453545F400665D68124825F469452D
:1050540035435D609D68B1F5807F00EA050040EA54
:1050640002009860DED00129DCD000207FE701280F
:10507400CDD14FF48076E0E7A06A40F02000A06232
:10508400E06A40F00100E062DEE70026D5E700BFF9
:10509400003C0140FDF7E1FFFE0E1FFF90F82430B5
:1050A400012B66D00023012170B5026882B0019300
:1050B4009368044680F82410D80720D4404B414814
:1050C4001B689168A0FB030341F001019B0C9160F4
:1050D4000193019B2BB1019B013B0193019B002B8D
:1050E400F9D1FFF7F7FE064604E0FFF7F3FE801B55
:1050F400022832D82268956815F00105F5D0A36A14
:10510400314923F4407323F0010343F480738A424A
:10511400A36230D0A36A23F48013A36253685905B1
:1051240035D4A36A002113F4805318BFE36A84F8CA
:10513400241018BF23F00603E3626FF00203136028
:10514400936803F46023B3F5602F27D0002093689D
:1051540043F48013936002B070BD0120A36A84F805
:10516400245043F01003A362E36A0343E36202B0F2
:1051740070BD02207047154B596811F4702FC9D0C7
:10518400A16A41F48011A1625B685B05C9D5A36A79
:1051940023F4405343F48053A362C2E70A4B9A4278
:1051A40006D00020936843F4A003936002B070BD5E
:1051B400A3F580635B6813F4702FC7D1F1E700BFD8
:1051C4000000002083DE1B4300280140002401402E
:1051D40038B590F82430012B26D00122036880F8DA
:1051E40024209A680446D2070CD40020A36A23F42E
:1051F400885323F0010343F00103A362002384F8DE
:10520400243038BD9A6822F001029A60FFF762FEEA
:10521400054604E0FFF75EFE401B022806D823681B
:105224009B68DB07F6D4E0E7022038BD0120A36ABF
:1052340043F01003A362E36A0343E362DEE700BFC3
:105244002DE9F0410446002582B00E460195FFF792
:1052540041FE23689A68D7056FD45A680746D50576
:1052640019D4DA6A12F4700F15D1701C79D11A6846
:105274009107FCD56FF012021A60A26A42F4007220
:10528400A2629B6803F46023B3F5602F75D00020FD
:1052940002B0BDE8F081444B0220D3F8008001F055
:1052A4003DFF226841491569B8FBF0F00D421346F1
:1052B40010D1D56801F15C410D420BD115693C490F
:1052C4000D426ED1D56801F16E410D4214BF2925FE
:1052D400142509E0156936490D4224D1D56801F138
:1052E4006E410D421FD1542505FB00F501998D42F5
:1052F400C0D9731C2BD036B90AE0019B013301934A
:10530400019B9D424AD9FFF7E5FDC01B8642F4D2BA
:1053140000220320A36A84F8242043F00403A36238
:1053240002B0BDE8F081156922490D4217D1D56854
:105334000D4214BFFC255425D6E70120A36A84F846
:10534400245043F02003A36202B0BDE8F081019B26
:1053540001330193019B9D42F9D813468AE7FC254A
:10536400C2E71A68920785D4002ED1D0FFF7B2FDA8
:10537400C01BB042CCD8236877E7237B002B86D1AF
:10538400A36A23F48073A362A06A10F480507FF4AC
:105394007EAFA36A43F00103A36279E72268134650
:1053A40068E72925A0E700BF0000002024499224D3
:1053B40092244912499224000368D86C704700BFB4
:1053C400704700BF704700BF036810B55A680446B1
:1053D400900602D51A6891072AD45A68100602D595
:1053E4001A68510706D45A68520602D51B68DB07AF
:1053F40033D410BDA26AD20603D4A26A42F4005286
:10540400A2629A6802F4E042B2F5E04F34D05A68DE
:10541400500505D49A6802F46022B2F5602F28D0B2
:10542400204600F0DDF86FF00C0223681A60DAE71A
:10543400A26AD20603D4A26A42F40072A2629A68F3
:1054440002F46022B2F5602F26D02046FFF7B8FFA1
:105454006FF0120223681A60BFE7A36A204643F480
:105464008033A362FFF7AEFF6FF0010223681A6076
:1054740010BD227B002AD3D15A6822F080025A60E0
:10548400A36A23F48053A362A36AD905C8D4A36A88
:1054940043F00103A362C3E7227B002AD5D15A68F3
:1054A40022F020025A60A36A23F48073A362A36AE1
:1054B400DB04CAD4A36A43F00103A362C5E700BFB7
:1054C400002270B490F8243083B0012B01925FD095
:1054D40001234D680468062D80F824300A6805EB22
:1054E40085034FF01F0625D90C2D47D8233B256B88
:1054F4009E4025EA060502FA03F32B432363092A97
:105504008B684FF0070602EB420123D91E39E56888
:105514008E408B4025EA06010B43E360A2F11003A1
:10552400012B22D90023002280F82420184603B03E
:1055340070BC7047053B656B9E4025EA060502FA80
:1055440003F32B43092A63634FF007068B6802EBCE
:105554004201DBD825698E408B4025EA06010B43C6
:105564002361A2F11003012BDCD81A4B9C4214D006
:10557400826A012342F020028262D4E7413BE56A59
:105584009E4025EA060502FA03F32B43E362B6E7DD
:105594000223184603B070BC7047A3681B02C1D431
:1055A400A368102A43F40003A360BBD10A4B0B4A3F
:1055B4001B68A2FB03239B0C03EB83035B00019397
:1055C400019B002BAED0019B013B0193019B002B5F
:1055D400F9D1A7E7002401400000002083DE1B432B
:1055E400704700BF4FF6FF01064A0002D36800F47B
:1055F400E0600B4043F0BF6343F400330343D360E4
:10560400704700BF00ED00E0184B30B4DB68C3F313
:105614000223C3F10705042D03F1040428BF042564
:10562400062C19D94FF0FF34033B9C4022EA0404B2
:105634004FF0FF32AA4021EA020101FA03F22243A9
:1056440012010028D2B20ADB00F1604000F561408B
:1056540080F8002330BC704700242346E8E7044B5D
:1056640000F00F0003441A7630BC704700ED00E0F0
:10567400FCEC00E0002807DB012300F01F01034AD3
:105684008B40400942F82030704700BF00E100E041
:105694000138B0F1807F0DD230B4F025002207210B
:1056A400054B064C586084F82350104630BC9A6071
:1056B400196070470120704710E000E000ED00E041
:1056C40090F8213010B5022B04D004220124826307
:1056D400204610BD036846491A688B4222F00E0228
:1056E4001A601A6822F001021A60424A24D99342CD
:1056F40055D0143293425CD01432934260D01432A9
:10570400934250D0143293425FD01432934262D009
:105714008B4266D002F56772934240D014329342B2
:1057240047D0143293424BD01432934214BF4FF4F7
:1057340080334FF4805333E0934222D014329342A7
:1057440039D01432934238D0143293422ED01432CA
:1057540093423DD01432934240D08B4244D002F560
:10576400677293420DD01432934224D01432934280
:1057740023D01432934214BF4FF480334FF4805338
:1057840000E001231C4A536001220024436B80F88B
:10579400212080F82040B3B19847204610BD012352
:1057A400164A5360F0E74FF48053F9E74FF48053FF
:1057B400E8E71023F4E71023E4E74FF48073E1E70C
:1057C4004FF48073ECE71C4682E74FF48033E7E73D
:1057D4004FF48033D6E74FF48013E1E74FF480139E
:1057E400D0E74FF08073DBE74FF08073CAE700BF68
:1057F4008000024008000240000002400004024011
:105804002DE9F04F6E4F8046387E83B0012800F0BA
:10581400AB809A460123894693463B76FFF75AFBB1
:10582400684C4CF25036054605E0FFF753FB401B2D
:10583400B04200F29D80E368D807F6D4E368990685
:1058440044BF2023E3605F4BDA68D2066DD4DA6983
:10585400D6076AD4DB685D0767D4B8F1010F00F09E
:10586400AB80B8F1020F14BF0423022301934FF05D
:1058740000084CF25036534C00204FEA0812C2F193
:105884002001F8610AFA01F12BFA02F3203A0B43E2
:105894002AFA02F2216913439BB241F0010121610A
:1058A400A9F80030FFF716FB054604E0FFF712FBEA
:1058B400401BB04278D8E368D907F7D4E3689A0666
:1058C40044BF2023E360E368DB0606D4E369DD0715
:1058D40003D4E06810F0040057D03A4BDB6813F0AF
:1058E400100367D0FB69142143F00203FB6110230A
:1058F400344AD268500704D50B46FA6942F00102D3
:10590400FA61304AD169C90707D5F96941F0040140
:10591400F961D16921F00101D1612A4A0120D360E2
:10592400136923F00103136123E0264BDB6813F0B2
:10593400100323D10421234AD268540704D50B460B
:10594400FA6942F00102FA611E4AD169C80707D513
:10595400F96941F00401F961D16921F00101D161D2
:10596400184A0120D36004E0022003B0BDE8F08FA0
:10597400032000233B7603B0BDE8F08FFB691421BC
:1059840043F00203FB611023D5E7236908F1010802
:1059940023F001032361019B5FFA88F2934209F12A
:1059A40002093FF669AFE4E72369032023F001030A
:1059B4002361DEE704219BE7CDF8048057E700BFAD
:1059C4001806002000200240064B186910F08000E1
:1059D40006D00549054A59605A601869C0F3C010D9
:1059E400704700BF0020024023016745AB89EFCD1B
:1059F400034A0020136943F080031361704700BF1A
:105A04000020024070B50446FFF764FA0646294DAB
:105A1400601C31D1274AD368D907FCD4254BDA68F6
:105A2400960644BF2022DA60224BDA68D50602D4F7
:105A3400DA69D40733D51F4BDB6813F0100326D182
:105A440004211C4AD268500705D50B461A49CA6975
:105A540042F00102CA61174AD169C90708D516483C
:105A6400C16941F00401C161D16921F00101D16131
:105A74000120104AD36070BDEB68DB07CED524B19A
:105A8400FFF728FA801BA042C2D9032070BD0A4840
:105A94001421C269102342F00202C261D1E7D8681E
:105AA40010F00400E7D0034BDB6813F01003C7D0F9
:105AB400EDE700BF00200240180600202DE9F8435E
:105AC400DFF8C09099F81830012B56D001220368F2
:105AD4000646022B884689F818204CF250302FD005
:105AE400FFF790FF78BB4FF0FF33C8F80030D6E9DA
:105AF400025305EBC3239D4225D20746204C07E001
:105B0400D6E9023205F5006503EBC223AB421BD98B
:105B1400C9F81C7023694CF2503043F0020323612E
:105B24006561236943F040032361FFF76BFF236939
:105B340023F0020323610028E2D0C8F8005003E0F8
:105B4400FFF760FF28B10120002389F81830BDE871
:105B5400F8830B4CC9F81C0023694CF2503043F015
:105B640004032361236943F040032361FFF74AFFE1
:105B7400236923F004032361E6E70220BDE8F883E8
:105B840000200240180600200A68002A00F0F08075
:105B94002DE9F04F4FF0000A85B05546DFF814C2E6
:105BA400DFF814E27C4FDFF8148204E0013532FAA6
:105BB40005F300F083800123AB4002EA0304A3420F
:105BC400F4D14A68122A00F0A98000F29280022AD5
:105BD40000F0A88040F28680032A72D0112A02D1F4
:105BE400CB6803F1040AFF2C6FD881460368AA002E
:105BF4000F2606FA02FB23EA0B030AFA02F2134306
:105C0400C9F800304A68D3006AD5DCF8189025F04A
:105C1400030349F00109CCF81890DCF8189003F15B
:105C2400804309F00109CDF80C9003F5803305F0A9
:105C34000309DDF80CB04FEA8909D3F808B006FA75
:105C440009F62BEA06067045019619D040456DD039
:105C5400524EB04200F08D80514EB04200F092801E
:105C6400504EB0427BD0504EB0420CBF4FF0050BAB
:105C74004FF0060B019E0BFA09F946EA0906019654
:105C84009E603B68D6034CBF2343A3433B607B68C1
:105C940096034CBF2343A3437B60BB68D6024CBF2F
:105CA4002343A343BB609202FB6816D51C43FC60EC
:105CB4000A68013532FA05F37FF47DAF05B0BDE81B
:105CC400F08FFF2C4FF0000A8FD905F18042083A7B
:105CD4004368920000F104098AE723EA0404FC60A3
:105CE4000A6863E7AAB1012A7FF47DAFD1F80CA05A
:105CF40079E72E4EB2420CD020D92D4EB24208D0B4
:105D040006F58036B24204D0A6F58016B2427FF47E
:105D14006AAF8A68E2B94FF0040A64E7CB6803F11A
:105D24000C0A60E7CB6803F1080A5CE74FF0010B4B
:105D34000BFA09F946EA09060196A1E7A6F58016C9
:105D4400B242E6D006F58036B2427FF44CAFE0E7CB
:105D5400012A0CBF036143614FF0080A43E74FF087
:105D6400040B019E0BFA09F946EA0906019687E736
:105D740070474FF0020B019E0BFA09F946EA090637
:105D840001967DE74FF0030B019E0BFA09F946EAF1
:105D94000906019674E700BF0004014000100140A9
:105DA4000014014000180140001C014000002110B3
:105DB400000031100010024000080140000C0140B6
:105DC4008368194214BF01200020704702B90904F6
:105DD40001617047C36801EA030221EA030141EA51
:105DE40002410161704700BF2DE9F0428946164621
:105DF4001F460446006882B0056845F48075056056
