:020000040802F0
:1000000000000220D51A0208311802083F18020821
:10001000451802084B180208511802080000000099
:100020000000000000000000000000005718020857
:10003000651802080000000073180208251B02085A
:10004000251B0208251B0208251B0208251B020888
:10005000251B0208251B0208251B0208251B020878
:10006000251B0208251B02088118020891180208A6
:10007000251B0208251B0208251B0208251B020858
:10008000A5180208251B0208251B0208251B0208CB
:10009000251B0208251B0208251B0208251B020838
:1000A000251B0208B9180208251B0208251B020897
:1000B000251B0208251B0208251B0208251B020818
:1000C000251B0208251B0208251B0208251B020808
:1000D000251B0208CD180208E1180208251B02089A
:1000E000251B0208251B0208251B0208251B0208E8
:1000F000251B0208251B0208251B0208251B0208D8
:10010000251B0208251B0208251B0208251B0208C7
:10011000251B0208251B0208251B0208251B0208B7
:10012000F5180208251B0208251B020809190208F8
:10013000251B0208251B0208251B0208251B020897
:10014000251B0208251B0208251B02081D19020891
:10015000251B0208251B0208251B0208251B020877
:10016000251B0208251B0208251B0208251B020867
:10017000251B0208251B0208251B020800000000A1
:08018000251B0208251B0208E3
:1001900010B5054C237833B9044B13B10448AFF3C1
:1001A00000800123237010BD840D0020000000009A
:1001B000FC98030808B5034B1BB103490348AFF390
:1001C000008008BD00000000880D0020FC98030896
:1001D00010F8012B11F8013B012A28BF9A42F7D0F1
:1001E000D01A7047034613F8012B002AFBD1181AC6
:1001F000013870470000000000000000000000000F
:1002000001F0FF01102A2BDB10F0070F08D010F8C7
:10021000013B013A8B422DD010F0070F42B3F6D1CB
:10022000F0B441EA012141EA014122F007047FF0E4
:1002300000070023F0E80256083C85EA010586EA3B
:10024000010685FA47F5A3FA87F586FA47F6A5FA77
:1002500087F68EB9EED1F0BC01F0FF0102F0070283
:1002600032B110F8013B013A83EA010313B1F8D12E
:100270000020704701387047002D06BF354603380F
:10028000073815F0010F07D1013015F4807F02BF48
:10029000013015F4C03F0130F0BC0138704700BF99
:1002A00053B94AB9002908BF00281CBF4FF0FF31DD
:1002B0004FF0FF3000F072B9ADF1080C6DE904CEDB
:1002C00000F006F8DDF804E0DDE9022304B0704731
:1002D0002DE9F047089E04468846002B4BD18A4200
:1002E000154667D9B2FA82F24AB1C2F1200701FA83
:1002F00002F320FA07F7954047EA030894404FEAD3
:10030000154E230CB8FBFEF71FFA85FC0EFB178871
:1003100043EA084307FB0CF1994209D9EB1807F1AE
:10032000FF3080F01B81994240F21881023F2B443C
:100330005B1AA4B2B3FBFEF00EFB103344EA034495
:1003400000FB0CFCA44509D92C1900F1FF3380F007
:100350000781A44540F2048102382C4440EA07405A
:10036000A4EB0C0400271EB1D4400023C6E90043CF
:100370003946BDE8F0878B4209D9002E00F0EB80AA
:100380000027C6E9000138463946BDE8F087B3FAD0
:1003900083F7002F47D18B4202D3824200F2FA80CA
:1003A000841A61EB030301209846002EE0D0C6E9D1
:1003B0000048DDE702B9FFDEB2FA82F2002A40F01F
:1003C0008F80491B4FEA154E1FFA85F80127B1FBB4
:1003D000FEFC230C0EFB1C1143EA014308FB0CF14D
:1003E000994207D9EB180CF1FF3002D2994200F282
:1003F000CD808446591AA3B2B1FBFEF00EFB101457
:1004000043EA044408FB00F8A04507D92C1900F181
:10041000FF3302D2A04500F2B6801846A4EB0804D0
:1004200040EA0C409FE7C7F1200CBB4022FA0CFECB
:100430004EEA030E01FA07F420FA0CF521FA0CF348
:100440004FEA1E482543B3FBF8F92C0C08FB19337F
:100450001FFA8EFA44EA034309FB0AF49C4202FAAB
:1004600007F200FA07F10BD91EEB030309F1FF3085
:1004700080F087809C4240F28480A9F10209734495
:100480001B1BADB2B3FBF8F008FB103345EA034485
:1004900000FB0AFAA24508D91EEB040400F1FF3361
:1004A0006BD2A24569D90238744440EA0940A0FBE6
:1004B0000289A4EB0A044C45C2464B4654D351D0A2
:1004C000002E69D0B1EB0A0564EB030404FA0CFCBE
:1004D000FD40FC404CEA0505C6E90054002747E70B
:1004E000C2F1200320FA03F7954001FA02F021FA45
:1004F00003F34FEA154E3843010CB3FBFEF71FFA26
:1005000085F80EFB173341EA034107FB08F38B42E2
:1005100004FA02F407D9691807F1FF3C2FD28B4285
:100520002DD9023F2944CB1A81B2B3FBFEF00EFB5A
:10053000103341EA034100FB08F38B4207D96918E5
:1005400000F1FF3C17D28B4215D902382944C91A51
:1005500040EA07473BE73746304609E70746E7E604
:100560001846FBE64145ABD2B8EB020A69EB0E0236
:1005700001381346A4E76046E9E7184695E7674661
:10058000D1E781467CE702382C4447E7ACF1020C06
:100590002B442FE7384608E73746E9E6704700BFA7
:1005A00080B584B000AF0346FB80FB8818460DF091
:1005B00009FB1021094802F0D7FF0346FB73FB7BC0
:1005C000002B03D0064B01221A7002E0044B0022DC
:1005D0001A7000BF1037BD4680BD00BF0008024042
:1005E0001C1F002080B584B000AF78600E4B1B68E4
:1005F0004AF6AA221A600D4B1B687A68D31AB3F523
:100600007A7F0DDB0A4BFB60F868FFF7EBFD0346D2
:1006100001331946F86816F0AFFB044A7B68136093
:1006200000BF1037BD4680BDE81D0020A00D002092
:100630001499030880B400AF00BFBD465DF8047B89
:100640007047000080B582B000AF01F06DFA00F095
:1006500071F800F047FB00F0FFFA00F03FF900F0FE
:10066000E1F900F015FA00F0A3FA00F0CBFA00F07F
:1006700091F900F045FA00F0DFF800F05DF900F0C4
:10068000B7F916F0B5FA0421214807F0ABFC0421B4
:100690001F4808F050F91F491F4814F07BFA1F4B00
:1006A0001B689B680021184617F0ECF91B4B1B6870
:1006B000986800230222002117F0ECF940F20112A1
:1006C0001749184817F0E6F813F03EFF01F062FAF8
:1006D00003467B607B68184612F03CF910F064FC1E
:1006E000114B1B687A68D31AB3F57A7FEEDB4FF4AF
:1006F00000410E4802F069FF7B684FF4947208498C
:100700000B4817F0C7F8084A7B681360DEE700BFA4
:10071000F41D0020781F0020DC1E0020B40B0020F8
:100720000CBE030828990308A40D0020000C024009
:100730003899030880B598B000AF07F13003302234
:100740000021184616F0F5FF07F11C0300221A607D
:100750005A609A60DA601A6107F10C0300221A608D
:100760005A609A60DA600023BB60314B1B6C304AE0
:1007700043F0805313642E4B1B6C03F08053BB601B
:10078000BB6800237B602B4B1B682A4A43F48043E1
:100790001360284B1B6803F480437B607B6809234C
:1007A0003B634FF4A0237B6301237B640223BB6480
:1007B0004FF48003FB640F233B6548237B650223D2
:1007C000BB650323FB6507F13003184606F05AFAB0
:1007D0000346002B01D000F0C9FB0F23FB6102236D
:1007E0003B6200237B624FF48053BB620023FB62B9
:1007F00007F11C030221184606F0B4FC0346002B47
:1008000001D000F0B3FB0123FB6080233B61052393
:100810007B6107F10C03184606F0A2FE0346002B8D
:1008200001D000F0A3FB00BF6037BD4680BD00BF14
:10083000003802400070004080B584B000AF3B46F5
:1008400000221A605A609A60DA60214B214A1A60CD
:100850001F4B00225A601E4B00229A601C4B002244
:100860001A611B4B00221A76194B002283F82020B4
:10087000174B0022DA62164B174A9A62144B002279
:10088000DA60134B0122DA61114B002283F8302029
:100890000F4B01225A610E4801F0AAF90346002BC2
:1008A00001D000F063FB0B233B6001237B6000233E
:1008B000BB603B461946064801F036FB0346002B59
:1008C00001D000F053FB00BF1037BD4680BD00BF14
:1008D000941E0020002001400100000F80B500AFF1
:1008E000124B134A1A60114B124A5A600F4B0022E6
:1008F0009A600E4B0022DA600C4B4FF480421A6172
:100900000A4B00225A61094B00229A61074B0022D0
:10091000DA61064B00221A62044802F089FE03469F
:10092000002B01D000F022FB00BF80BD941D0020F1
:1009300000540040A086010080B500AF124B134A5E
:100940001A60114B124A5A600F4B00229A600E4BEC
:100950000022DA600C4B4FF480421A610A4B0022ED
:100960005A61094B00229A61074B0022DA61064B5B
:1009700000221A62044802F05BFE0346002B01D0FD
:1009800000F0F4FA00BF80BDE81C0020005C0040CD
:10099000801A060080B500AF134B144A1A60124B40
:1009A0004FF400725A60104B30229A600E4B0122B5
:1009B000DA600D4B00221A610B4B4FF4FA525A6168
:1009C000094B00229A61084B0022DA61064B012292
:1009D0001A62054804F08AF80346002B01D000F0A3
:1009E000C5FA00BF80BD00BFD8200020003C0040F9
:1009F00080B500AF094B0A4A1A60084B05225A60BD
:100A0000064B4FF47A629A60044804F07FFF034675
:100A1000002B01D000F0AAFA00BF80BDE81D002025
:100A20000030004080B500AF174B184A1A60164BD3
:100A30004FF482725A60144B00229A60124B0022CB
:100A4000DA60114B00221A610F4B00225A610E4BE3
:100A50004FF400729A610C4B1022DA610A4B0022AB
:100A60001A62094B00225A62074B00229A62064B17
:100A70000A22DA62044806F07FFF0346002B01D009
:100A800000F074FA00BF80BD201F0020003001403C
:100A900080B500AF184B194A1A60174B4FF4827299
:100AA0005A60154B00229A60134B4FF40062DA60D3
:100AB000114B02221A61104B01225A610E4B4FF466
:100AC00000729A610C4B2822DA610B4B00221A62E9
:100AD000094B00225A62084B00229A62064B0A22F6
:100AE000DA62054806F048FF0346002B01D000F00B
:100AF0003DFA00BF80BD00BF3C1D00200038004013
:100B000080B58AB000AF07F1200300221A605A6056
:100B10003B1D00221A605A609A60DA601A615A61BD
:100B20009A61214B214A1A601F4B02225A601E4BC8
:100B300000229A601C4B0122DA601B4B00221A61D2
:100B4000194B00229A61184807F021FA0346002B3E
:100B500001D000F00BFA00233B6200237B6207F117
:100B600020031946104807F011FF0346002B01D05F
:100B700000F0FCF960237B600123BB600023FB6075
:100B800000237B613B1D04221946074807F070FBD8
:100B90000346002B01D000F0E9F9034800F02AFDDC
:100BA00000BF2837BD4680BDF41D00200004004072
:100BB00080B500AF114B124A1A60104B4FF4E1326E
:100BC0005A600E4B00229A600C4B0022DA600B4BED
:100BD00000221A61094B0C225A61084B00229A61CB
:100BE000064B0022DA61054807F085FF0346002B1B
:100BF00001D000F0BBF900BF80BD00BFDC1E0020AB
:100C00000010014080B500AF114B124A1A60104B22
:100C10004FF4E1325A600E4B00229A600C4B0022D6
:100C2000DA600B4B00221A61094B0C225A61084B07
:100C300000229A61064B0022DA61054807F05BFF4B
:100C40000346002B01D000F091F900BF80BD00BF2A
:100C5000781F00200044004080B582B000AF002320
:100C60007B601F4B1B6B1E4A43F4001313631C4B2A
:100C70001B6B03F400137B607B6800233B60184B05
:100C80001B6B174A43F480031363154B1B6B03F470
:100C900080033B603B68002200210B2001F03CFCFC
:100CA0000B2001F055FC00220021102001F034FC43
:100CB000102001F04DFC00220021382001F02CFC16
:100CC000382001F045FC002200213B2001F024FCEB
:100CD0003B2001F03DFC00BF0837BD4680BD00BF92
:100CE0000038024080B58CB000AF07F11C03002231
:100CF0001A605A609A60DA601A610023BB618B4BFC
:100D00001B6B8A4A43F010031363884B1B6B03F081
:100D10001003BB61BB6900237B61844B1B6B834A5F
:100D200043F004031363814B1B6B03F004037B61EB
:100D30007B6900233B617D4B1B6B7C4A43F0800346
:100D400013637A4B1B6B03F080033B613B69002309
:100D5000FB60764B1B6B754A43F001031363734BC7
:100D60001B6B03F00103FB60FB680023BB606F4B50
:100D70001B6B6E4A43F0020313636C4B1B6B03F057
:100D80000203BB60BB6800237B60684B1B6B674A38
:100D900043F008031363654B1B6B03F008037B6090
:100DA0007B6801220C21624802F0F6FB002247F624
:100DB000A0315F4802F0F0FB002248F220015D48BC
:100DC00002F0EAFB012210215B4802F0E5FB002261
:100DD00046F20711594802F0DFFB01224FF480511F
:100DE000564802F0D9FB01224FF48061544802F0CA
:100DF000D3FB00224FF40041514802F0CDFB47F6EF
:100E0000AC33FB6101233B6200237B620023BB62A6
:100E100007F11C031946464802F00CFA40F2414320
:100E2000FB6100233B6200237B6207F11C03194630
:100E30003F4802F0FFF948F22003FB6101233B62C7
:100E400000237B620023BB6207F11C03194639486B
:100E500002F0F0F90123FB6100233B6200237B6277
:100E600007F11C031946334802F0E4F91023FB6133
:100E700001233B6200237B620223BB6207F11C0358
:100E800019462D4802F0D6F91023FB612D4B3B6229
:100E900000237B6207F11C031946264802F0CAF9B9
:100EA00046F20713FB6101233B6200237B620023B0
:100EB000BB6207F11C031946204802F0BBF94FF44E
:100EC0008053FB6101233B6201237B620223BB62EF
:100ED00007F11C031946194802F0ACF940F2FF2350
:100EE000FB6100233B6200237B6207F11C03194670
:100EF000134802F09FF94FF40443FB6101233B6266
:100F000000237B620023BB6207F11C0319460C48D7
:100F100002F090F9002200210A2001F0FDFA0A20D7
:100F200001F016FB00BF3037BD4680BD00380240DF
:100F3000001002400008024000000240000402408D
:100F4000000C02400000311080B582B000AF786024
:100F50007B681B68044A934201D100F007FE00BF82
:100F60000837BD4680BD00BF0000014080B400AF1F
:100F700000BFBD465DF8047B7047000080B483B0BD
:100F800000AF00237B60104B5B6C0F4A43F480433F
:100F900053640D4B5B6C03F480437B607B680023E0
:100FA0003B60094B1B6C084A43F080531364064BAB
:100FB0001B6C03F080533B603B6800BF0C37BD46A1
:100FC0005DF8047B704700BF0038024080B58AB0EE
:100FD00000AF786007F1140300221A605A609A602B
:100FE000DA601A617B681B68174A934227D1002395
:100FF0003B61164B5B6C154A43F480735364134B8F
:101000005B6C03F480733B613B690023FB600F4B17
:101010001B6B0E4A43F0040313630C4B1B6B03F072
:101020000403FB60FB6802237B610323BB61002395
:10103000FB6107F114031946054802F0FBF800BFF5
:101040002837BD4680BD00BF002001400038024067
:101050000008024080B58CB000AF786007F11C0337
:1010600000221A605A609A60DA601A617B681B6815
:10107000424A93422CD10023BB61414B1B6B404A37
:1010800043F0020313633E4B1B6B03F00203BB618F
:10109000BB69C023FB6112233B6201237B620323F4
:1010A000BB620423FB6207F11C031946354802F0BA
:1010B000C1F800237B61324B1B6C314A43F40013AF
:1010C00013642F4B1B6C03F400137B617B6950E0AE
:1010D0007B681B682C4A93424BD100233B61284B11
:1010E0001B6B274A43F004031363254B1B6B03F070
:1010F00004033B613B690023FB60214B1B6B204ACF
:1011000043F0010313631E4B1B6B03F00103FB60F1
:10111000FB684FF40073FB6112233B6201237B6287
:101120000323BB620423FB6207F11C031946174823
:1011300002F080F84FF48073FB6112233B620123BD
:101140007B620323BB620423FB6207F11C03194685
:101150000F4802F06FF80023BB60094B1B6C084A74
:1011600043F400031364064B1B6C03F40003BB60E1
:10117000BB6800BF3037BD4680BD00BF0054004093
:101180000038024000040240005C004000080240B9
:101190000000024080B58AB000AF786007F1140308
:1011A00000221A605A609A60DA601A617B681B68D4
:1011B0006B4A934240F0D08000233B61694B1B6C2B
:1011C000684A43F400431364664B1B6C03F400430A
:1011D0003B613B690023FB60624B1B6B614A43F040
:1011E000010313635F4B1B6B03F00103FB60FB68A0
:1011F0000023BB605B4B1B6B5A4A43F00403136331
:10120000584B1B6B03F00403BB60BB684FF40043F7
:101210007B610223BB610023FB6102233B62062347
:101220007B6207F1140319464F4802F003F84FF4AC
:10123000A0537B610223BB610023FB6102233B625D
:1012400006237B6207F114031946484801F0F2FFB8
:101250004FF400637B610223BB610023FB61022327
:101260003B6205237B6207F1140319463F4801F0F6
:10127000E1FF3F4B3F4A1A603D4B4FF0C0625A605E
:101280003B4B00229A603A4B0022DA60384B4FF415
:1012900080621A61364B4FF400625A61344B4FF44E
:1012A00000529A61324B0022DA61314B4FF44032E6
:1012B0001A622F4B04225A622D4B03229A622C4B46
:1012C0000022DA622A4B00221A63294801F05CF9F5
:1012D0000346002B01D0FFF749FE7B68244ADA63FE
:1012E000234A7B689363244B244A1A60224B0022D2
:1012F0005A60214B40229A601F4B0022DA601E4B3D
:101300004FF480621A611C4B4FF400625A611A4B11
:101310004FF400529A61184B0022DA61164B4FF4D9
:1013200040321A62144B04225A62134B03229A620F
:10133000114B0022DA62104B00221A630E4801F0B2
:1013400023F90346002B01D0FFF710FE7B680A4A01
:101350009A63094A7B68936300BF2837BD4680BD06
:10136000003C0040003802400000024000080240FB
:101370007820002010600240341E00208860024067
:1013800080B58CB000AF786007F11C0300221A60B2
:101390005A609A60DA601A617B681B687A4A9342E5
:1013A00040F09D800023BB61784B5B6C774A43F42F
:1013B00080535364754B5B6C03F48053BB61BB6912
:1013C00000237B61714B1B6B704A43F00103136375
:1013D0006E4B1B6B03F001037B617B69E023FB61B8
:1013E00002233B6200237B620323BB620523FB6273
:1013F00007F11C031946664801F01CFF654B664A5D
:101400001A60644B4FF0C0625A60624B40229A608F
:10141000604B0022DA605F4B4FF480621A615D4BD3
:1014200000225A615B4B00229A615A4B0022DA611A
:10143000584B4FF440321A62564B04225A62554BB5
:1014400003229A62534B0022DA62524B00221A6343
:10145000504801F099F80346002B01D0FFF786FDB4
:101460007B684C4A9A644B4A7B6893634B4B4C4A6B
:101470001A604A4B4FF0C0625A60484B00229A6093
:10148000464B0022DA60454B4FF480621A61434BB1
:1014900000225A61414B00229A61404B0022DA61DE
:1014A0003E4B4FF440321A623C4B04225A623B4B93
:1014B00003229A62394B0022DA62384B00221A6307
:1014C000364801F061F80346002B01D0FFF74EFDCE
:1014D0007B68324ADA64314A7B6893634FE07B6809
:1014E0001B68304A93424AD100233B61274B1B6C57
:1014F000264A43F480431364244B1B6C03F480435B
:101500003B613B690023FB60204B1B6B1F4A43F090
:10151000040313631D4B1B6B03F00403FB60FB68A8
:101520000023BB60194B1B6B184A43F00203136383
:10153000164B1B6B03F00203BB60BB680823FB6107
:1015400002233B6200237B620323BB620523FB6211
:1015500007F11C031946144801F06CFE4FF4806338
:10156000FB6102233B6200237B620323BB620523F2
:10157000FB6207F11C0319460C4801F05BFE00BF3B
:101580003037BD4680BD00BF00300140003802400A
:10159000000002401820002058640240B81F0020BC
:1015A000106402400038004000080240000402407D
:1015B00080B485B000AF78607B681B680B4A9342AB
:1015C0000DD10023FB600A4B1B6C094A43F0020358
:1015D0001364074B1B6C03F00203FB60FB6800BF46
:1015E0001437BD465DF8047B704700BF000400401F
:1015F0000038024080B588B000AF786007F10C0376
:1016000000221A605A609A60DA601A617B681B686F
:10161000124A93421DD10023BB60114B1B6B104A31
:1016200043F0040313630E4B1B6B03F00403BB6016
:10163000BB688023FB6002233B6100237B610023A6
:10164000BB610223FB6107F10C031946054801F059
:10165000F1FD00BF2037BD4680BD00BF0004004043
:10166000003802400008024080B58CB000AF7860BE
:1016700007F11C0300221A605A609A60DA601A614E
:101680007B681B683A4A934235D10023BB61394BD2
:101690005B6C384A43F010035364364B5B6C03F0C9
:1016A0001003BB61BB6900237B61324B1B6B314A6A
:1016B00043F0010313632F4B1B6B03F001037B61AA
:1016C0007B694FF4C063FB6102233B6200237B62B2
:1016D0000323BB620723FB6207F11C03194626485C
:1016E00001F0A8FD00220021252000F015FF252093
:1016F00000F02EFF38E07B681B68204A934233D10C
:1017000000233B611B4B1B6C1A4A43F400331364E8
:10171000184B1B6C03F400333B613B690023FB60F7
:10172000144B1B6B134A43F001031363114B1B6BE8
:1017300003F00103FB60FB680C23FB6102233B62A7
:1017400000237B620323BB620723FB6207F11C03B8
:101750001946094801F06EFD00220021262000F004
:10176000DBFE262000F0F4FE00BF3037BD4680BD12
:1017700000100140003802400000024000440040D8
:1017800080B58CB000AF78600023FB620023BB62A1
:1017900000227968192000F0BFFE192000F0D8FE61
:1017A0000023FB601E4B5B6C1D4A43F00103536436
:1017B0001B4B5B6C03F00103FB60FB6807F110023D
:1017C00007F114031146184605F098FE05F082FE55
:1017D000F862FB6A134AA2FB03239B0C013BBB622A
:1017E000114B124A1A60104B40F2E732DA600E4A8F
:1017F000BB6A53600C4B00221A610B4B00229A60AB
:10180000094806F06BFB0346002B04D1064806F09E
:101810009AFB034600E0012318463037BD4680BDE1
:101820000038024083DE1B432021002000000140DD
:1018300080B400AF00BFBD465DF8047B704780B444
:1018400000AFFEE780B400AFFEE780B400AFFEE774
:1018500080B400AFFEE780B400AF00BFBD465DF8C6
:10186000047B704780B400AF00BFBD465DF8047BC9
:10187000704780B400AF00BFBD465DF8047B704781
:1018800080B500AF102001F0BBFE00BF80BD00009E
:1018900080B500AF024800F09FFF00BF80BD00BFD1
:1018A0007820002080B500AF024800F095FF00BF0F
:1018B00080BD00BF341E002080B500AF024806F096
:1018C000CFFB00BF80BD00BF2021002080B500AF4E
:1018D000024807F04BFA00BF80BD00BFDC1E0020AD
:1018E00080B500AF024807F041FA00BF80BD00BFDD
:1018F000781F002080B500AF024800F06DFF00BFE8
:1019000080BD00BFB81F002080B500AF024800F0C6
:1019100063FF00BF80BD00BF1820002080B500AF6E
:10192000024804F07CF900BF80BD00BF5840002091
:1019300080B400AF01231846BD465DF8047B7047B4
:1019400080B582B000AF7860396015F073FE024652
:10195000162313604FF0FF3318460837BD4680BD8D
:1019600080B582B000AF78604FF0FF317868FFF744
:10197000E7FFFEE780B586B000AFF860B9607A6037
:1019800000237B610AE013F0ABF80146BB685A1CE8
:10199000BA60CAB21A707B6901337B617A697B686D
:1019A0009A42F0DB7B6818461837BD4680BD80B58B
:1019B00086B000AFF860B9607A6000237B6109E00F
:1019C000BB685A1CBA601B78184613F04BF87B6949
:1019D00001337B617A697B689A42F1DB7B68184648
:1019E0001837BD4680BD80B483B000AF78604FF03B
:1019F000FF3318460C37BD465DF8047B704780B452
:101A000083B000AF786039603B684FF400525A6091
:101A1000002318460C37BD465DF8047B704780B440
:101A200083B000AF7860012318460C37BD465DF8DF
:101A3000047B704780B485B000AFF860B9607A600D
:101A4000002318461437BD465DF8047B704700003C
:101A500080B584B000AF7860114B1B68002B02D1B9
:101A60000F4B104A1A600E4B1B68FB600C4B1A6838
:101A70007B6813446A46934207D915F0DBFD0246A2
:101A80000C2313604FF0FF3306E0054B1A687B68A8
:101A90001344034A1360FB6818461037BD4680BDE7
:101AA000A80D00206844002080B400AF074BD3F895
:101AB0008830064A43F47003C2F88830034B044A66
:101AC0009A6000BFBD465DF8047B704700ED00E002
:101AD00000000208DFF834D0002103E00C4B5B5813
:101AE000435004310B480C4B42189A42F6D30B4A30
:101AF00002E0002342F8043B094B9A42F9D3FFF776
:101B0000D3FF15F0AFFDFEF79DFD704700000220EA
:101B1000F883040800000020840D0020840D0020BC
:101B200064440020FEE7000080B500AF0E4B1B6848
:101B30000D4A43F4007313600B4B1B680A4A43F4CD
:101B400080631360084B1B68074A43F4807313607B
:101B5000032000F0D6FC0020FFF712FEFFF70EFA7C
:101B60000023184680BD00BF003C024080B400AF97
:101B7000064B1B781A46064B1B681344044A136035
:101B800000BFBD465DF8047B704700BF0800002021
:101B90006021002080B400AF034B1B681846BD468F
:101BA0005DF8047B704700BF6021002080B584B0E1
:101BB00000AF7860FFF7EEFFB8607B68FB60FB6802
:101BC000B3F1FF3F05D0094B1B781A46FB6813445D
:101BD000FB6000BFFFF7DEFF0246BB68D31AFA685E
:101BE0009A42F7D800BF1037BD4680BD08000020DC
:101BF00080B584B000AF78600023FB737B68002B56
:101C000001D1012333E07B681B6C002B09D178687C
:101C1000FFF7DCF97B6800225A647B68002283F8B6
:101C20003C207B681B6C03F01003002B18D17B68F1
:101C30001B6C23F4885323F0020343F002027B68F9
:101C40001A64786800F092FA7B6800225A647B6814
:101C50001B6C23F0030343F001027B681A6401E06C
:101C60000123FB737B68002283F83C20FB7B184632
:101C70001037BD4680BD000080B485B000AF7860ED
:101C80000023BB607B6893F83C30012B01D1022319
:101C9000A5E07B68012283F83C207B681B689B6879
:101CA00003F00103012B18D07B681B689A687B68DE
:101CB0001B6842F001029A604C4B1B684C4AA2FB25
:101CC00003239A0C13465B001344BB6002E0BB681D
:101CD000013BBB60BB68002BF9D17B681B689B682C
:101CE00003F00103012B79D17B681B6C23F4E063C3
:101CF00023F0010343F480727B681A647B681B68DD
:101D00005B6803F48063002B07D07B681B6C23F4B3
:101D1000405343F480527B681A647B681B6C03F465
:101D20008053B3F5805F06D17B685B6C23F00602BD
:101D30007B685A6402E07B6800225A647B68002258
:101D400083F83C202B4BFB607B681B686FF0220202
:101D50001A60FB685B6803F01F03002B2AD17B68C5
:101D60001B68254A934215D07B681B68234A93421F
:101D700005D1204B5B6803F01F03002B0AD07B6862
:101D80001B681F4A934229D11A4B5B6803F01F035B
:101D90000F2B23D87B681B689B6803F04053002BF4
:101DA0001CD17B681B689A687B681B6842F0804284
:101DB0009A6013E07B681B680F4A93420ED17B68E0
:101DC0001B689B6803F04053002B07D17B681B689E
:101DD0009A687B681B6842F080429A60002318462C
:101DE0001437BD465DF8047B704700BF000000203B
:101DF00083DE1B43002301400020014000210140FD
:101E00000022014080B584B000AF786039600023C3
:101E1000FB607B681B689B6803F48063B3F5806F8D
:101E200013D17B681B689B6803F48073B3F5807FD4
:101E30000BD17B681B6C43F020027B681A647B68C3
:101E4000002283F83C2001235CE0FFF7A3FEF8604A
:101E50001AE03B68B3F1FF3F16D03B68002B07D078
:101E6000FFF798FE0246FB68D31A3A689A420BD2F3
:101E70007B681B6C43F004027B681A647B68002259
:101E800083F83C2003233DE07B681B681B6803F05C
:101E90000203022BDDD17B681B686FF012021A600F
:101EA0007B681B6C43F400727B681A647B681B6858
:101EB0009B6803F04053002B23D17B681B7E002BD3
:101EC0001FD17B681B68DB6A03F47003002B06D00C
:101ED0007B681B689B6803F48063002B11D17B68CF
:101EE0001B6C23F480727B681A647B681B6C03F4A0
:101EF0008053002B05D17B681B6C43F001027B688B
:101F00001A64002318461037BD4680BD80B483B0E4
:101F100000AF78607B681B68DB6C18460C37BD46E9
:101F20005DF8047B7047000080B485B000AF786036
:101F300039600023BB607B6893F83C30012B01D1F2
:101F4000022305E17B68012283F83C203B681B6883
:101F5000092B25D97B681B68D9683B681B689BB235
:101F60001A4613465B0013441E3B072202FA03F392
:101F7000DA437B681B680A40DA607B681B68D968B3
:101F80003B689A683B681B689BB2184603465B0037
:101F900003441E3B9A407B681B680A43DA6022E0D8
:101FA0007B681B6819693B681B689BB21A4613461D
:101FB0005B001344072202FA03F3DA437B681B68D1
:101FC0000A401A617B681B6819693B689A683B681C
:101FD0001B689BB2184603465B0003449A407B682B
:101FE0001B680A431A613B685B68062B24D87B6830
:101FF0001B68596B3B685A6813469B001344053BAA
:102000001F2202FA03F3DA437B681B680A405A6313
:102010007B681B68596B3B681B689BB218463B6822
:102020005A6813469B001344053B00FA03F27B6891
:102030001B680A435A634CE03B685B680C2B24D84E
:102040007B681B68196B3B685A6813469B001344F6
:10205000233B1F2202FA03F3DA437B681B680A4022
:102060001A637B681B68196B3B681B689BB2184638
:102070003B685A6813469B001344233B00FA03F263
:102080007B681B680A431A6323E07B681B68D96A74
:102090003B685A6813469B001344413B1F2202FAD7
:1020A00003F3DA437B681B680A40DA627B681B68CB
:1020B000D96A3B681B689BB218463B685A6813464E
:1020C0009B001344413B00FA03F27B681B680A4300
:1020D000DA62224BFB607B681B68214A934209D17C
:1020E0003B681B68122B05D1FB685B6843F48002D8
:1020F000FB685A607B681B68194A934223D13B688E
:102100001B68102B03D03B681B68112B1BD1FB688D
:102110005B6843F40002FB685A603B681B68102B45
:1021200011D1104B1B68104AA2FB03239A0C1346D3
:102130009B0013445B00BB6002E0BB68013BBB60DB
:10214000BB68002BF9D17B68002283F83C20002378
:1021500018461437BD465DF8047B704700230140E4
:10216000002001400000002083DE1B4380B485B0C6
:1021700000AF7860794BFB60FB685B6823F440320A
:10218000FB685A60FB685A687B685B681A43FB68A7
:102190005A607B681B685A687B681B6822F48072EF
:1021A0005A607B681B6859687B681B691A027B68E8
:1021B0001B680A435A607B681B685A687B681B6807
:1021C00022F040725A607B681B6859687B689A6885
:1021D0007B681B680A435A607B681B689A687B6847
:1021E0001B6822F400629A607B681B6899687B68B0
:1021F000DA687B681B680A439A607B689B6A584A66
:10220000934222D07B681B689A687B681B6822F027
:1022100070629A607B681B6899687B689A6A7B68C1
:102220001B680A439A607B681B689A687B681B6816
:1022300022F040529A607B681B6899687B68DA6A72
:102240007B681B680A439A600FE07B681B689A688A
:102250007B681B6822F070629A607B681B689A68D2
:102260007B681B6822F040529A607B681B689A6802
:102270007B681B6822F002029A607B681B68996881
:102280007B681B7E5A007B681B680A439A607B68E8
:1022900093F82030002B1BD07B681B685A687B6842
:1022A0001B6842F400625A607B681B685A687B684E
:1022B0001B6822F460425A607B681B6859687B681F
:1022C0005B6A013B5A037B681B680A435A6007E05C
:1022D0007B681B685A687B681B6822F400625A603E
:1022E0007B681B68DA6A7B681B6822F47002DA621A
:1022F0007B681B68D96A7B68DB69013B1A057B68D0
:102300001B680A43DA627B681B689A687B681B68F3
:1023100022F400729A607B681B6899687B6893F866
:1023200030305A027B681B680A439A607B681B68DE
:102330009A687B681B6822F480629A607B681B68DD
:1023400099687B685B699A027B681B680A439A609C
:1023500000BF1437BD465DF8047B70470023014081
:102360000100000F80B485B000AF78607B6803F097
:102370000703FB600C4BDB68BB60BA684FF6FF03DA
:102380001340BB60FB681A02BB68134343F0BF6392
:1023900043F40033BB60044ABB68D36000BF14370A
:1023A000BD465DF8047B704700ED00E080B400AFEF
:1023B000044BDB681B0A03F007031846BD465DF8B3
:1023C000047B704700ED00E080B483B000AF0346AB
:1023D000FB7197F90730002B0BDBFB7903F01F0231
:1023E000074997F907305B09012000FA02F241F82A
:1023F000232000BF0C37BD465DF8047B704700BF4B
:1024000000E100E080B483B000AF0346FB7197F9B0
:102410000730002B10DBFB7903F01F02094997F905
:1024200007305B09012000FA02F2203341F8232033
:10243000BFF34F8FBFF36F8F00BF0C37BD465DF802
:10244000047B704700E100E080B483B000AF034636
:102450003960FB7197F90730002B0ADB3B68DAB271
:102460000C4997F907301201D2B20B4483F80023CC
:102470000AE03B68DAB20849FB7903F00F03043B3A
:102480001201D2B20B441A7600BF0C37BD465DF87C
:10249000047B704700E100E000ED00E080B489B00B
:1024A00000AFF860B9607A60FB6803F00703FB6176
:1024B000FB69C3F10703042B28BF0423BB61FB693D
:1024C0000433062B02D9FB69033B00E000237B6148
:1024D0004FF0FF32BB6902FA03F3DA43BB681A40DC
:1024E0007B699A404FF0FF317B6901FA03F3D943CE
:1024F0007B680B40134318462437BD465DF8047BC8
:10250000704780B582B000AF78607868FFF72AFF27
:1025100000BF0837BD4680BD80B586B000AF03461A
:10252000B9607A60FB7300237B61FFF73FFF78613E
:102530007A68B9687869FFF7B1FF024697F90F30FA
:1025400011461846FFF780FF00BF1837BD4680BD13
:1025500080B582B000AF0346FB7197F9073018468B
:10256000FFF732FF00BF0837BD4680BD80B582B09F
:1025700000AF0346FB7197F907301846FFF742FF9B
:1025800000BF0837BD4680BD80B586B000AF78601B
:1025900000237B61FFF7FEFA38617B68002B01D1D5
:1025A000012399E07B68002283F834207B680222B3
:1025B00083F835207B681B681A687B681B6822F0EB
:1025C00001021A600FE0FFF7E5FA02463B69D31AF1
:1025D000052B08D97B6820225A657B68032283F883
:1025E0003520032378E07B681B681B6803F0010338
:1025F000002BE8D17B681B681B687B617A69384BCC
:1026000013407B617B685A687B689B681A437B68D0
:10261000DB681A437B681B691A437B685B691A4352
:102620007B689B691A437B68DB691A437B681B6A7A
:1026300013437A6913437B617B685B6A042B07D180
:102640007B68DA6A7B681B6B13437A6913437B618F
:102650007B681B687A691A607B681B685B697B61B1
:102660007B6923F007037B617B685B6A7A691343AC
:102670007B617B685B6A042B17D17B689B6A7A69F4
:1026800013437B617B68DB6A002B0ED0786800F017
:1026900091FA0346002B08D07B6840225A657B687C
:1026A000012283F83520012316E07B681B687A69D4
:1026B0005A61786800F048FA0346FB607B68DB6D7E
:1026C0003F229A40FB689A607B6800225A657B68CB
:1026D000012283F83520002318461837BD4680BDF7
:1026E0003F8010F080B586B000AFF860B9607A60C6
:1026F0003B600023FB75FB689B6D3B61FB6893F8B7
:102700003430012B01D1022340E0FB68012283F821
:102710003420FB6893F83530DBB2012B2FD1FB68F6
:10272000022283F83520FB6800225A653B687A68EC
:10273000B968F86800F0DAF9FB68DB6D3F229A406F
:102740003B699A60FB681B681A68FB681B6842F06B
:1027500016021A60FB681B6C002B07D0FB681B6815
:102760001A68FB681B6842F008021A60FB681B6865
:102770001A68FB681B6842F001021A6005E0FB68FA
:10278000002283F834200223FB75FB7D184618379E
:10279000BD4680BD80B483B000AF78607B6893F89D
:1027A0003530DBB2022B04D07B6880225A650123CE
:1027B0000CE07B68052283F835207B681B681A686B
:1027C0007B681B6822F001021A60002318460C3750
:1027D000BD465DF8047B704780B586B000AF786079
:1027E0000023BB60924B1B68924AA2FB03239B0A07
:1027F0007B617B689B6D3B613B691B68FB607B6811
:10280000DB6D08229A40FB681340002B1AD07B68CE
:102810001B681B6803F00403002B13D07B681B6844
:102820001A687B681B6822F004021A607B68DB6D03
:1028300008229A403B699A607B685B6D43F0010215
:102840007B685A657B68DB6D01229A40FB68134008
:10285000002B12D07B681B685B6903F08003002BA0
:102860000BD07B68DB6D01229A403B699A607B68E4
:102870005B6D43F002027B685A657B68DB6D042266
:102880009A40FB681340002B12D07B681B681B68C2
:1028900003F00203002B0BD07B68DB6D04229A400F
:1028A0003B699A607B685B6D43F004027B685A6504
:1028B0007B68DB6D10229A40FB681340002B43D0ED
:1028C0007B681B681B6803F00803002B3CD07B6807
:1028D000DB6D10229A403B699A607B681B681B681D
:1028E00003F48023002B18D07B681B681B6803F45B
:1028F0000023002B08D17B681B6C002B24D07B6845
:102900001B6C786898471FE07B689B6C002B1BD082
:102910007B689B6C7868984716E07B681B681B682F
:1029200003F48073002B07D17B681B681A687B68EF
:102930001B6822F008021A607B681B6C002B03D016
:102940007B681B6C786898477B68DB6D20229A4017
:10295000FB681340002B00F08E807B681B681B68AF
:1029600003F01003002B00F086807B68DB6D2022D3
:102970009A403B699A607B6893F83530DBB2052B4F
:1029800036D17B681B681A687B681B6822F01602C8
:102990001A607B681B685A697B681B6822F080029A
:1029A0005A617B681B6C002B03D17B689B6C002BEE
:1029B00007D07B681B681A687B681B6822F00802D6
:1029C0001A607B68DB6D3F229A403B699A607B68A6
:1029D000002283F834207B68012283F835207B684D
:1029E0001B6D002B7DD07B681B6D7868984778E065
:1029F0007B681B681B6803F48023002B1CD07B685A
:102A00001B681B6803F40023002B08D17B685B6CF8
:102A1000002B30D07B685B6C786898472BE07B6834
:102A2000DB6B002B27D07B68DB6B7868984722E054
:102A300000000020B5814E1B7B681B681B6803F4F7
:102A40008073002B0FD17B681B681A687B681B683A
:102A500022F010021A607B68002283F834207B6821
:102A6000012283F835207B68DB6B002B03D07B6869
:102A7000DB6B786898477B685B6D002B32D07B6896
:102A80005B6D03F00103002B22D07B68052283F8E5
:102A900035207B681B681A687B681B6822F001027E
:102AA0001A60BB680133BB607A699A4207D37B68BE
:102AB0001B681B6803F00103002BF2D100E000BF8C
:102AC0007B68002283F834207B68012283F835205C
:102AD0007B68DB6C002B05D07B68DB6C78689847E3
:102AE00000E000BF1837BD4680BD00BF80B485B090
:102AF00000AFF860B9607A603B60FB681B681A68D9
:102B0000FB681B6822F480221A60FB681B683A6825
:102B10005A60FB689B68402B08D1FB681B687A6889
:102B20009A60FB681B68BA68DA6007E0FB681B689C
:102B3000BA689A60FB681B687A68DA6000BF14376D
:102B4000BD465DF8047B704780B485B000AF786007
:102B50007B681B68DBB2103B144AA2FB03231B09F2
:102B6000FB60134AFB6813441B781A467B68DA65DE
:102B7000FB68032B09D97B681B6823F47F7323F060
:102B800003031A1D7B689A6507E07B681B6823F4C2
:102B90007F7323F003037A6893657B689B6D184607
:102BA0001437BD465DF8047B704700BFABAAAAAAE4
:102BB0002CBE030880B485B000AF78600023FB739F
:102BC0007B689B6ABB607B689B69002B1FD1BB68DD
:102BD000032B55D801A252F823F000BFED2B0208B9
:102BE000FF2B0208ED2B0208812C02087B68DB6AB0
:102BF00003F08073002B45D00123FB7342E07B6818
:102C0000DB6AB3F1C07F3FD10123FB733CE07B68FB
:102C10009B69B3F5005F21D1BB68032B36D801A2B5
:102C200052F823F0352C02083B2C0208352C020800
:102C30004D2C02080123FB732FE07B68DB6A03F055
:102C40008073002B24D00123FB7321E07B68DB6AB7
:102C5000B3F1C07F1ED10123FB731BE0BB68022BC5
:102C600002D9032B03D018E00123FB7315E07B6826
:102C7000DB6A03F08073002B0ED00123FB730BE0A3
:102C800000BF0AE000BF08E000BF06E000BF04E0AC
:102C900000BF02E000BF00E000BFFB7B1846143716
:102CA000BD465DF8047B704780B586B000AFF86024
:102CB000B960C7E900230123FB75234B1B7E012B61
:102CC00001D102233BE0204B01221A764CF2503016
:102CD00000F060F80346FB75FB7D002B2BD1FB68F1
:102CE000002B05D13B781946B86800F009F916E0C9
:102CF000FB68012B05D13B881946B86800F0DCF869
:102D00000DE0FB68022B05D13B681946B86800F05E
:102D1000B1F804E0D7E90023B86800F07BF84CF282
:102D2000503000F037F80346FB75084B1B69074A23
:102D300023F001031361044B00221A76FB7D184631
:102D40001837BD4680BD00BF380A0020003C024055
:102D500080B483B000AF0023FB710B4B1B69002BC9
:102D60000BDA094B094A5A60074B094A5A60064B6D
:102D70001B69002B01DA0123FB71FB7918460C3724
:102D8000BD465DF8047B7047003C02402301674567
:102D9000AB89EFCD80B584B000AF78600023FB60D5
:102DA0001A4B0022DA61FEF7F5FEF86010E07B684E
:102DB000B3F1FF3F0CD07B68002B07D0FEF7EAFE93
:102DC0000246FB68D31A7A689A4201D2032319E0BB
:102DD0000F4BDB6803F48033002BE8D10C4BDB682E
:102DE00003F00103002B02D0094B0122DA60084BEB
:102DF000DB6803F0F203002B03D000F0A3F80123FB
:102E000000E0002318461037BD4680BD380A002078
:102E1000003C024090B484B000AFF860C7E90023E2
:102E2000134B1B69124A23F440731361104B1B6947
:102E30000F4A43F4407313610D4B1B690C4A43F076
:102E400001031361FB683A681A60BFF36F8FD7E91B
:102E500000124FF000034FF0000413000024FA6842
:102E60000432136000BF1037BD4690BC704700BFEE
:102E7000003C024080B483B000AF786039600D4BF5
:102E80001B690C4A23F4407313610A4B1B69094AFE
:102E900043F400731361074B1B69064A43F00103B7
:102EA00013617B683A681A6000BF0C37BD465DF855
:102EB000047B7047003C024080B483B000AF786070
:102EC0000B467B800D4B1B690C4A23F44073136146
:102ED0000A4B1B69094A43F480731361074B1B6952
:102EE000064A43F0010313617B687A881A8000BFA9
:102EF0000C37BD465DF8047B704700BF003C0240C4
:102F000080B483B000AF78600B46FB700C4B1B693C
:102F10000B4A23F440731361094B094A1B6913617F
:102F2000074B1B69064A43F0010313617B68FA787B
:102F30001A7000BF0C37BD465DF8047B704700BFB8
:102F4000003C024080B400AF274BDB6803F0100365
:102F5000002B08D0254BDB6943F01003234AD361D3
:102F6000214B1022DA60204BDB6803F02003002B9A
:102F700008D01E4BDB6943F008031C4AD3611A4B8F
:102F80002022DA60184BDB6803F04003002B08D0E6
:102F9000164BDB6943F00403144AD361124B402201
:102FA000DA60114BDB6803F08003002B08D00F4B75
:102FB000DB6943F002030D4AD3610B4B8022DA60D8
:102FC000094BDB6803F00203002B08D0074BDB69D9
:102FD00043F02003054AD361034B0222DA6000BFAD
:102FE000BD465DF8047B7047003C0240380A002073
:102FF00080B584B000AF786039600123FB73002393
:10300000BB60314B1B7E012B01D1022358E02E4BBC
:1030100001221A764CF25030FFF7BCFE0346FB73D8
:10302000FB7B002B48D13B684FF0FF321A607B6876
:103030001B68012B15D17B681B69DAB27B685B6862
:103040001946104600F044F84CF25030FFF7A2FE4B
:103050000346FB731D4B1B691C4A23F004031361D9
:1030600028E07B689B68BB601CE07B681B69DBB267
:103070001946B86800F050F84CF25030FFF78AFE5D
:103080000346FB73114B1B69104A23F0FA031361CB
:10309000FB7B002B03D03B68BA681A600AE0BB6870
:1030A0000133BB607B68DA687B689B681344BA684D
:1030B0009A42DAD300F078F8034B00221A76FB7BB1
:1030C00018461037BD4680BD380A0020003C02403B
:1030D00080B483B000AF03463960FB710D4B1B69B0
:1030E0000C4A23F4407313610A4B1B69094A43F0ED
:1030F00004031361074B1A69FB791B021343054A4A
:1031000043F48033136100BF0C37BD465DF8047B88
:10311000704700BF003C024080B485B000AF7860CB
:103120000B46FB700023FB60FB78002B02D10023D1
:10313000FB6010E0FB78012B03D14FF48073FB6040
:1031400009E0FB78022B03D14FF40073FB6002E02F
:103150004FF44073FB60134B1B69124A23F4407316
:103160001361104B1A690F49FB6813430B610D4B38
:103170001B690C4A23F0F80313610A4B1A697B6838
:10318000DB001343074A43F002031361054B1B693D
:10319000044A43F48033136100BF1437BD465DF821
:1031A000047B7047003C024080B400AF204B1B689A
:1031B00003F40073002B17D01D4B1B681C4A23F42B
:1031C000007313601A4B1B68194A43F400631360C1
:1031D000174B1B68164A23F400631360144B1B68DB
:1031E000134A43F400731360114B1B6803F48063AC
:1031F000002B17D00E4B1B680D4A23F4806313601D
:103200000B4B1B680A4A43F480531360084B1B683E
:10321000074A23F480531360054B1B68044A43F4A8
:103220008063136000BFBD465DF8047B704700BF3C
:10323000003C024080B489B000AF78603960002360
:103240007B6100233B610023BB610023FB616BE1D9
:103250000122FB6902FA03F37B613B681B687A6910
:1032600013403B613A697B699A4240F05A813B685E
:103270005B68012B0BD03B685B68022B07D03B6877
:103280005B68112B03D03B685B68122B30D17B68E5
:103290009B68BB61FB695B00032202FA03F3DB431B
:1032A000BA691340BB613B68DA68FB695B0002FAEC
:1032B00003F3BA691343BB617B68BA699A607B68A0
:1032C0005B68BB610122FB6902FA03F3DB43BA6965
:1032D0001340BB613B685B681B0903F00102FB699B
:1032E00002FA03F3BA691343BB617B68BA695A6097
:1032F0007B68DB68BB61FB695B00032202FA03F3B6
:10330000DB43BA691340BB613B689A68FB695B00A9
:1033100002FA03F3BA691343BB617B68BA69DA60E6
:103320003B685B68022B03D03B685B68122B23D1A0
:10333000FB69DA087B68083253F82230BB61FB690D
:1033400003F007039B000F2202FA03F3DB43BA6981
:103350001340BB613B681A69FB6903F007039B00DC
:1033600002FA03F3BA691343BB61FB69DA087B68AD
:103370000832B96943F822107B681B68BB61FB699E
:103380005B00032202FA03F3DB43BA691340BB611B
:103390003B685B6803F00302FB695B0002FA03F31E
:1033A000BA691343BB617B68BA691A603B685B68A2
:1033B00003F08053002B00F0B4800023FB605F4BD0
:1033C0005B6C5E4A43F4804353645C4B5B6C03F478
:1033D0008043FB60FB685A4AFB699B08023352F842
:1033E0002330BB61FB6903F003039B000F2202FA49
:1033F00003F3DB43BA691340BB617B68514A9342D4
:103400002BD07B68504A934225D07B684F4A934229
:103410001FD07B684E4A934219D07B684D4A934235
:1034200013D07B684C4A93420DD07B684B4A934241
:1034300007D07B684A4A934201D107230EE0082354
:103440000CE006230AE0052308E0042306E003233A
:1034500004E0022302E0012300E00023FA6902F005
:10346000030292009340BA691343BB613449FB697C
:103470009B080233BA6941F823203A4B1B68BB61B1
:103480003B69DB43BA691340BB613B685B6803F48B
:103490008033002B03D0BA693B691343BB61314AC7
:1034A000BB6913602F4B5B68BB613B69DB43BA6947
:1034B0001340BB613B685B6803F40033002B03D00F
:1034C000BA693B691343BB61264ABB695360254B0C
:1034D0009B68BB613B69DB43BA691340BB613B68D6
:1034E0005B6803F48013002B03D0BA693B69134374
:1034F000BB611C4ABB6993601A4BDB68BB613B69CB
:10350000DB43BA691340BB613B685B6803F400139B
:10351000002B03D0BA693B691343BB61114ABB69F5
:10352000D360FB690133FB61FB690F2B7FF690AE23
:1035300000BF2437BD465DF8047B70470038024069
:103540000038014000000240000402400008024030
:10355000000C02400010024000140240001802401B
:10356000001C0240003C014080B485B000AF786090
:103570000B467B807B681A697B881340002B02D046
:103580000123FB7301E00023FB73FB7B1846143718
:10359000BD465DF8047B704780B483B000AF7860AF
:1035A0000B467B8013467B707B78002B03D07A8898
:1035B0007B689A6103E07B881A047B689A6100BF8C
:1035C0000C37BD465DF8047B704780B483B000AF14
:1035D00078600B467B807B685A697B881A407B88C1
:1035E0009A4204D17B881A047B689A6102E07A8847
:1035F0007B689A6100BF0C37BD465DF8047B70475D
:1036000080B582B000AF0346FB80084B5A69FB8847
:103610001340002B06D0054AFB885361FB881846EF
:10362000FCF7BEFF00BF0837BD4680BD003C01402F
:1036300080B584B000AF78607B68002B01D1012396
:103640001FE17B6893F83D30DBB2002B06D17B682D
:10365000002283F83C207868FDF7FCFC7B6824227C
:1036600083F83D207B681B681A687B681B6822F022
:1036700001021A607B681B681A687B681B6842F449
:1036800000421A607B681B681A687B681B6822F41A
:1036900000421A6003F00AFFF8607B685B687B4AAF
:1036A000934207D8FB687A4A934294BF01230023D0
:1036B000DBB206E0FB68774A934294BF0123002304
:1036C000DBB2002B01D00123DBE0FB68724AA2FBD6
:1036D00003239B0CBB607B681B685B6823F03F0186
:1036E0007B681B68BA680A435A607B681B681B6A60
:1036F00023F03F017B685B68644A934202D8BB6851
:10370000013309E0BB684FF4967202FB03F3634A8E
:10371000A2FB03239B0901337A6812680B431362EF
:103720007B681B68DB6923F44F4222F0FF027B6851
:103730005B6856498B420DD8FB68591E7B685B68F5
:103740005B00B1FBF3F30133C3F30B03042B38BF6E
:1037500004234FE07B689B68002B11D1FB68581E47
:103760007B6859680B465B000B44B0FBF3F30133F5
:10377000C3F30B03002B0CBF01230023DBB212E0C9
:10378000FB68581E7B6859680B469B000B449900E8
:103790000B44B0FBF3F30133C3F30B03002B0CBF5B
:1037A00001230023DBB2002B01D0012322E07B6840
:1037B0009B68002B0ED1FB68581E7B6859680B462E
:1037C0005B000B44B0FBF3F30133C3F30B0343F48F
:1037D00000430FE0FB68581E7B6859680B469B004E
:1037E0000B4499000B44B0FBF3F30133C3F30B0319
:1037F00043F44043796809681343CB617B681B68D5
:103800001B6823F0C0017B68DA697B681B6A1A4376
:103810007B681B680A431A607B681B689B6823F4FB
:10382000034323F0FF037A6811697A68D268114371
:103830007A6812680B4393607B681B68DB6823F02F
:10384000FF017B685A697B689B691A437B681B6828
:103850000A43DA607B681B681A687B681B6842F061
:1038600001021A607B6800221A647B68202283F8B8
:103870003D207B6800221A637B68002283F83E208B
:10388000002318461037BD4680BD00BFA08601004A
:103890007F841E00FF083D0083DE1B43D34D621072
:1038A00080B588B002AFF8607A601A460B467B811B
:1038B00013463B81FEF76EF97861FB6893F83D3063
:1038C000DBB2202B40F0E0807B69009319230122BA
:1038D0007049F86800F02CFF0346002B01D002234A
:1038E000D3E0FB6893F83C30012B01D10223CCE0FC
:1038F000FB68012283F83C20FB681B681B6803F00F
:103900000103012B07D0FB681B681A68FB681B6862
:1039100042F001021A60FB681B681A68FB681B68AA
:1039200022F400621A60FB68212283F83D20FB68C4
:10393000102283F83E20FB6800221A64FB687A6834
:103940005A62FB683A895A85FB685B8D9AB2FB68BC
:103950001A85FB68504ADA6279897B693A6AF868A5
:1039600000F0EAFC0346002B01D001238DE0002388
:103970003B61FB681B685B693B61FB681B689B697B
:103980003B613B6966E07A69396AF86800F0A6FF36
:103990000346002B0DD0FB681B6C042B07D1FB6882
:1039A0001B681A68FB681B6842F400721A600123E6
:1039B0006BE0FB685B6A1A78FB681B681A61FB683E
:1039C0005B6A5A1CFB685A62FB685B8D9BB2013BC9
:1039D0009AB2FB685A85FB681B8D013B9AB2FB6863
:1039E0001A85FB681B685B6903F00403042B1BD179
:1039F000FB681B8D002B17D0FB685B6A1A78FB688D
:103A00001B681A61FB685B6A5A1CFB685A62FB6898
:103A10005B8D9BB2013B9AB2FB685A85FB681B8D9C
:103A2000013B9AB2FB681A857A69396AF86800F036
:103A300096FF0346002B0DD0FB681B6C042B07D1AF
:103A4000FB681B681A68FB681B6842F400721A6006
:103A500001231AE0FB681B8D002B94D1FB681B68C7
:103A60001A68FB681B6842F400721A60FB68202227
:103A700083F83D20FB68002283F83E20FB6800228B
:103A800083F83C20002300E0022318461837BD4687
:103A900080BD00BF020010000000FFFF80B588B0AD
:103AA00002AFF860084611461A4603467B810B4672
:103AB0003B811346FB80FEF76DF87861FB6893F855
:103AC0003D30DBB2202B40F0D9807B690093192375
:103AD00001226D49F86800F02BFE0346002B01D04F
:103AE0000223CCE0FB6893F83C30012B01D1022388
:103AF000C5E0FB68012283F83C20FB681B681B685B
:103B000003F00103012B07D0FB681B681A68FB68F0
:103B10001B6842F001021A60FB681B681A68FB68A8
:103B20001B6822F400621A60FB68212283F83D20A2
:103B3000FB68402283F83E20FB6800221A64FB6881
:103B40003A6A5A62FB68BA8C5A85FB685B8D9AB2F6
:103B5000FB681A85FB684D4ADA62F8883A897989E8
:103B60007B690193BB6A00930346F86800F066FC2A
:103B70000346002B52D0012381E07A69B96AF868C4
:103B800000F0ACFE0346002B0DD0FB681B6C042B31
:103B900007D1FB681B681A68FB681B6842F4007257
:103BA0001A6001236BE0FB685B6A1A78FB681B688C
:103BB0001A61FB685B6A5A1CFB685A62FB681B8DC2
:103BC000013B9AB2FB681A85FB685B8D9BB2013B97
:103BD0009AB2FB685A85FB681B685B6903F00403B3
:103BE000042B1BD1FB681B8D002B17D0FB685B6A75
:103BF0001A78FB681B681A61FB685B6A5A1CFB68D1
:103C00005A62FB681B8D013B9AB2FB681A85FB6800
:103C10005B8D9BB2013B9AB2FB685A85FB681B8D9A
:103C2000002BAAD17A69B96AF86800F098FE0346B9
:103C3000002B0DD0FB681B6C042B07D1FB681B68A5
:103C40001A68FB681B6842F400721A60012316E0D0
:103C5000FB681B681A68FB681B6842F400721A60F4
:103C6000FB68202283F83D20FB68002283F83E2079
:103C7000FB68002283F83C20002300E00223184662
:103C80001837BD4680BD00BF020010000000FFFFD6
:103C900080B58CB002AFF860084611461A4603465C
:103CA0007B810B463B811346FB80FDF773FF7862F7
:103CB000FB6893F83D30DBB2202B40F008827B6A32
:103CC0000093192301227B49F86800F031FD034677
:103CD000002B01D00223FBE1FB6893F83C30012B61
:103CE00001D10223F4E1FB68012283F83C20FB6848
:103CF0001B681B6803F00103012B07D0FB681B68DE
:103D00001A68FB681B6842F001021A60FB681B68B6
:103D10001A68FB681B6822F400621A60FB682222A2
:103D200083F83D20FB68402283F83E20FB68002298
:103D30001A64FB683A6B5A62FB68BA8E5A85FB6854
:103D40005B8D9AB2FB681A85FB685B4ADA62F88879
:103D50003A8979897B6A0193BB6B00930346F868C3
:103D600000F000FC0346002B01D00123B0E1FB680A
:103D70001B8D002B13D100233B62FB681B685B6922
:103D80003B62FB681B689B693B623B6AFB681B6884
:103D90001A68FB681B6842F400721A6084E1FB68D1
:103DA0001B8D012B1BD1FB681B681A68FB681B6805
:103DB00022F480621A600023FB61FB681B685B6968
:103DC000FB61FB681B689B69FB61FB69FB681B6807
:103DD0001A68FB681B6842F400721A6064E1FB68B1
:103DE0001B8D022B1BD1FB681B681A68FB681B68C4
:103DF00022F480621A60FB681B681A68FB681B6803
:103E000042F400621A600023BB61FB681B685B69B7
:103E1000BB61FB681B689B69BB61BB6944E1002314
:103E20007B61FB681B685B697B61FB681B689B6946
:103E30007B617B6938E1FB681B8D032B00F2F1800D
:103E4000FB681B8D012B23D17A6AB96BF86800F0EF
:103E5000C7FD0346002B01D0012339E1FB681B6835
:103E60001A69FB685B6AD2B21A70FB685B6A5A1CFB
:103E7000FB685A62FB681B8D013B9AB2FB681A858E
:103E8000FB685B8D9BB2013B9AB2FB685A850BE1E4
:103E9000FB681B8D022B4ED17B6A0093BB6B00220B
:103EA0000649F86800F044FC0346002B08D00123C3
:103EB0000EE100BF020010000000FFFF040001003F
:103EC000FB681B681A68FB681B6842F400721A6082
:103ED000FB681B681A69FB685B6AD2B21A70FB68E0
:103EE0005B6A5A1CFB685A62FB681B8D013B9AB2E5
:103EF000FB681A85FB685B8D9BB2013B9AB2FB683D
:103F00005A85FB681B681A69FB685B6AD2B21A7033
:103F1000FB685B6A5A1CFB685A62FB681B8D013B9D
:103F20009AB2FB681A85FB685B8D9BB2013B9AB223
:103F3000FB685A85B8E07B6A0093BB6B0022664938
:103F4000F86800F0F5FB0346002B01D00123BFE029
:103F5000FB681B681A68FB681B6822F480621A60A1
:103F6000FB681B681A69FB685B6AD2B21A70FB684F
:103F70005B6A5A1CFB685A62FB681B8D013B9AB254
:103F8000FB681A85FB685B8D9BB2013B9AB2FB68AC
:103F90005A857B6A0093BB6B00224F49F86800F09A
:103FA000C7FB0346002B01D0012391E0FB681B688F
:103FB0001A68FB681B6842F400721A60FB681B6891
:103FC0001A69FB685B6AD2B21A70FB685B6A5A1C9A
:103FD000FB685A62FB681B8D013B9AB2FB681A852D
:103FE000FB685B8D9BB2013B9AB2FB685A85FB680C
:103FF0001B681A69FB685B6AD2B21A70FB685B6A5D
:104000005A1CFB685A62FB681B8D013B9AB2FB6825
:104010001A85FB685B8D9BB2013B9AB2FB685A859F
:1040200042E07A6AB96BF86800F0DAFC0346002BCC
:1040300001D001234CE0FB681B681A69FB685B6ACE
:10404000D2B21A70FB685B6A5A1CFB685A62FB6842
:104050001B8D013B9AB2FB681A85FB685B8D9BB296
:10406000013B9AB2FB685A85FB681B685B6903F0E9
:104070000403042B18D1FB681B681A69FB685B6A90
:10408000D2B21A70FB685B6A5A1CFB685A62FB6802
:104090001B8D013B9AB2FB681A85FB685B8D9BB256
:1040A000013B9AB2FB685A85FB681B8D002B7FF49D
:1040B000C2AEFB68202283F83D20FB68002283F813
:1040C0003E20FB68002283F83C20002300E002230E
:1040D00018462837BD4680BD0400010080B58AB06F
:1040E00002AFF8607A603B600B467B81FDF752FDC2
:1040F000F8610123BB61FB6893F83D30DBB2202BF4
:1041000040F01081FB690093192301228849F86867
:1041100000F00EFB0346002B01D0022303E1FB68F5
:1041200093F83C30012B01D10223FCE0FB68012213
:1041300083F83C20FB681B681B6803F00103012B1C
:1041400007D0FB681B681A68FB681B6842F0010215
:104150001A60FB681B681A68FB681B6822F400621F
:104160001A60FB68242283F83D20FB6800221A6451
:10417000FB68704ADA62FB681B681A68FB681B6898
:1041800042F480721A60FB6900933B6800224FF092
:104190000111F86800F0CCFA0346002B0CD0FB6844
:1041A0001B681B6803F48073002B03D0FB684FF47B
:1041B00000721A640323B6E07B89DBB21A46FB68FF
:1041C0001B6802F0FE021A61FDF7E4FCF861FB686F
:1041D0001B685B6903F00203022B0CBF0123002361
:1041E000DBB2FB75FB681B685B6903F48063B3F5A6
:1041F000806F0CBF01230023DBB2BB7525E0FDF708
:10420000C9FC0246FB69D31A3A689A4202D33B685A
:10421000002B03D1FB68A02283F83D20FB681B68BC
:104220005B6903F00203022B0CBF01230023DBB206
:10423000FB75FB681B685B6903F48063B3F5806FF3
:104240000CBF01230023DBB2BB75FB6893F83D3044
:10425000DBB2A02B05D0FB7D002B02D1BB7D002B58
:10426000CDD0FB68202283F83D20FB681B685B698A
:1042700003F00203022B29D1FB681B681A68FB6854
:104280001B6842F400721A6000233B61FB681B68E4
:104290005B693B61FB681B689B693B613B69FB6930
:1042A0000093192301222249F86800F041FA0346DD
:1042B000002B01D0012336E0FB68202283F83D204B
:1042C000FB68002283F83C2000232CE0FB681B687D
:1042D0001A68FB681B6842F400721A60FB681B686E
:1042E0006FF480625A61FB6900931923012210491F
:1042F000F86800F01DFA0346002B01D0012312E0FC
:10430000BB690133BB61BA697B689A42FFF433AF82
:10431000FB68202283F83D20FB68002283F83C20C4
:10432000012300E0022318462037BD4680BD00BFB0
:10433000020010000000FFFF80B588B002AFF860F7
:104340007A603B600B467B81FB68DB6A7B617B6943
:10435000082B06D07B69012B03D07B6913F5803FC6
:1043600008D1FB681B681A68FB681B6842F48072FE
:104370001A600BE0FB681B6B122B07D1FB681B68F4
:104380001A68FB681B6842F480721A603B680093ED
:104390007B6800224FF00111F86800F0C9F903466C
:1043A000002B0CD0FB681B681B6803F48073002B88
:1043B00003D0FB684FF400721A64032335E0FB68F6
:1043C0001B69B3F5804F08D17B89DBB21A46FB68C5
:1043D0001B6802F0FE021A611BE07B89DB11DBB275
:1043E00003F00603DBB263F00F03DAB2FB681B686D
:1043F0001A613B687A680F49F86800F0F0F90346E3
:10440000002B01D0012310E07B89DAB2FB681B6826
:104410001A613B687A680849F86800F0E0F90346D9
:10442000002B01D0012300E0002318461837BD46B9
:1044300080BD00BF080001000200010080B588B007
:1044400002AFF860084611461A4603467B810B46C8
:104450003B811346FB80FB681B681A68FB681B687E
:1044600042F480721A607B6A00933B6A00224FF02C
:104470000111F86800F05CF90346002B0CD0FB68D2
:104480001B681B6803F48073002B03D0FB684FF498
:1044900000721A6403235FE07B89DBB21A46FB6873
:1044A0001B6802F0FE021A617B6A3A6A2C49F868BE
:1044B00000F095F90346002B01D001234CE00023C6
:1044C0007B61FB681B685B697B61FB681B689B69A0
:1044D0007B617B697A6A396AF86800F0FFF9034604
:1044E000002B0DD0FB681B6C042B07D1FB681B68ED
:1044F0001A68FB681B6842F400721A6001232BE003
:10450000FB88012B05D13B89DAB2FB681B681A6175
:1045100021E03B891B0A9BB2DAB2FB681B681A6177
:104520007A6A396AF86800F0D9F90346002B0DD091
:10453000FB681B6C042B07D1FB681B681A68FB68BF
:104540001B6842F400721A60012305E03B89DAB26D
:10455000FB681B681A61002318461837BD4680BDEA
:104560000200010080B588B002AFF860084611462D
:104570001A4603467B810B463B811346FB80FB6852
:104580001B681A68FB681B6842F480621A60FB684B
:104590001B681A68FB681B6842F480721A607B6AA9
:1045A00000933B6A00224FF00111F86800F0C0F858
:1045B0000346002B0CD0FB681B681B6803F4807358
:1045C000002B03D0FB684FF400721A640323A9E0A8
:1045D0007B89DBB21A46FB681B6802F0FE021A6197
:1045E0007B6A3A6A5149F86800F0F9F80346002BF3
:1045F00001D0012396E000237B61FB681B685B69A7
:104600007B61FB681B689B697B617B697A6A396A9D
:10461000F86800F063F90346002B0DD0FB681B6CB3
:10462000042B07D1FB681B681A68FB681B6842F4FF
:1046300000721A60012375E0FB88012B05D13B89CC
:10464000DAB2FB681B681A6121E03B891B0A9BB246
:10465000DAB2FB681B681A617A6A396AF86800F096
:104660003DF90346002B0DD0FB681B6C042B07D1D2
:10467000FB681B681A68FB681B6842F400721A60CA
:1046800001234FE03B89DAB2FB681B681A617A6A42
:10469000396AF86800F022F90346002B0DD0FB6858
:1046A0001B6C042B07D1FB681B681A68FB681B682E
:1046B00042F400721A60012334E0FB681B681A6838
:1046C000FB681B6842F480721A607B6A00933B6A45
:1046D00000224FF00111F86800F02AF80346002B81
:1046E0000CD0FB681B681B6803F48073002B03D09D
:1046F000FB684FF400721A64032313E07B89DBB27A
:1047000043F00103DAB2FB681B681A617B6A3A6AFC
:104710000649F86800F063F80346002B01D0012336
:1047200000E0002318461837BD4680BD0200010096
:1047300080B584B000AFF860B9603B601346FB7190
:1047400025E03B68B3F1FF3F21D0FDF723FA024695
:10475000BB69D31A3A689A4202D33B68002B16D140
:10476000FB6800221A63FB68202283F83D20FB6867
:10477000002283F83E20FB681B6C43F02002FB689C
:104780001A64FB68002283F83C20012323E0BB6805
:104790001B0CDBB2012B0DD1FB681B685B69DA4394
:1047A000BB6813409BB2002B0CBF01230023DBB27C
:1047B0001A460CE0FB681B689B69DA43BB68134030
:1047C0009BB2002B0CBF01230023DBB21A46FB79FE
:1047D0009A42B6D0002318461037BD4680BD80B53A
:1047E00084B000AFF860B9607A603B6051E0FB686C
:1047F0001B685B6903F48063B3F5806F23D1FB68AA
:104800001B681A68FB681B6842F400721A60FB6838
:104810001B686FF480625A61FB6800221A63FB68B0
:10482000202283F83D20FB68002283F83E20FB68AD
:104830001B6C43F00402FB681A64FB68002283F8D7
:104840003C20012346E07B68B3F1FF3F21D0FDF718
:10485000A1F902463B68D31A7A689A4202D37B6870
:10486000002B16D1FB6800221A63FB68202283F814
:104870003D20FB68002283F83E20FB681B6C43F060
:104880002002FB681A64FB68002283F83C200123A5
:1048900020E0BB681B0CDBB2012B0CD1FB681B6852
:1048A0005B69DA43BB6813409BB2002B14BF012342
:1048B0000023DBB20BE0FB681B689B69DA43BB6833
:1048C00013409BB2002B14BF01230023DBB2002B4B
:1048D0008DD1002318461037BD4680BD80B584B009
:1048E00000AFF860B9607A602DE0F86800F0CEF8AB
:1048F0000346002B01D001232DE0BB68B3F1FF3F3D
:1049000021D0FDF747F902467B68D31ABA689A426C
:1049100002D3BB68002B16D1FB6800221A63FB6828
:10492000202283F83D20FB68002283F83E20FB68AC
:104930001B6C43F02002FB681A64FB68002283F8BA
:104940003C20012307E0FB681B685B6903F08003E0
:10495000802BCAD1002318461037BD4680BD80B5D4
:1049600084B000AFF860B9607A602DE0F86800F0BC
:104970008DF80346002B01D001232DE0BB68B3F175
:10498000FF3F21D0FDF706F902467B68D31ABA68CB
:104990009A4202D3BB68002B16D1FB6800221A632F
:1049A000FB68202283F83D20FB68002283F83E202C
:1049B000FB681B6C43F02002FB681A64FB68002252
:1049C00083F83C20012307E0FB681B685B6903F068
:1049D0000403042BCAD1002318461037BD4680BDFE
:1049E00080B584B000AFF860B9607A6042E0FB68DF
:1049F0001B685B6903F01003102B19D1FB681B685F
:104A00006FF010025A61FB6800221A63FB682022D3
:104A100083F83D20FB68002283F83E20FB681A6C77
:104A2000FB681A64FB68002283F83C20012329E01C
:104A3000FDF7B0F802467B68D31ABA689A4202D3EF
:104A4000BB68002B16D1FB6800221A63FB6820228A
:104A500083F83D20FB68002283F83E20FB681B6C36
:104A600043F02002FB681A64FB68002283F83C20B4
:104A7000012307E0FB681B685B6903F04003402BE0
:104A8000B5D1002318461037BD4680BD80B483B031
:104A900000AF78607B681B685B6903F48063B3F5E3
:104AA000806F1BD17B681B686FF480625A617B68E2
:104AB00000221A637B68202283F83D207B68002255
:104AC00083F83E207B681B6C43F004027B681A6409
:104AD0007B68002283F83C20012300E00023184675
:104AE0000C37BD465DF8047B7047000080B588B088
:104AF00000AF78607B68002B01D1012328E17B683F
:104B000093F84130DBB2002B09D17B68002283F897
:104B100040207B68904A5A637868FCF73BFB7B68CF
:104B2000022283F841207B681B68DB697A6812687F
:104B300023F47B6323F00F03D3617B681B6802229D
:104B40001A627B685B69022B60D07B68DB68002B94
:104B500002D110237B6101E020237B617B689B688D
:104B6000202B02D87B695B007B61012002F0DAFD1B
:104B7000F8607B681B69B3F5007F25D17B68DB6833
:104B8000002B10D07B699B00FA68B2FBF3F213464E
:104B90009B0013445B001A467B685B69B2FBF3F32E
:104BA00005333B611FE07B69DB00FA68B2FBF3F27F
:104BB00013469B0013445B001A467B685B69B2FB9B
:104BC000F3F305333B610EE0FA687B69B2FBF3F265
:104BD00013469B0013445B001A467B685B69B2FB7B
:104BE000F3F305333B613B695C4AA2FB0323DB081B
:104BF0003B613B6903F00103BB613A69BB69D31AAE
:104C00005B08FB61BB691B02BB6103E00223FB6124
:104C10000023BB61FB69012B02D9FB69FF2B07D97C
:104C20007B685B6C43F010027B685A6401238FE061
:104C30007B681A69BB6942EA03017B681B68FA69F1
:104C40000A431A627B681B68DB6923F47B6323F0E9
:104C50000F037A6851687A68926811437A68D2685B
:104C600011437A6892690A431A437B681B6842F4CD
:104C70000062DA617B681B6A012B61D17B68384A6C
:104C80005A637B681B68374A934201D1364B01E077
:104C90004FF04023DB697A68126832498A4201D1B9
:104CA000314A01E04FF0402223F47B6323F00F03ED
:104CB000D3617B681B682B4A934201D12A4B01E0E8
:104CC0004FF0402302221A627B681B68254A9342F8
:104CD00001D1254B01E04FF04023DB697B817B68EC
:104CE0005B68B3F5007F03D07B685B68002B03D162
:104CF0004FF480733B6101E000233B613B699AB252
:104D00007B689B6899B27B68DB6898B27B689B691B
:104D10009BB203439BB20B439BB213439AB27B8972
:104D200013439BB243F400637B817B681B680D4A8D
:104D3000934201D10C4B01E04FF040237A89DA61B4
:104D40007B6800225A647B68012283F8412000239B
:104D500018462037BD4680BD634E0208CDCCCCCC72
:104D60008D520208003800400034004080B483B007
:104D700000AF786000BF0C37BD465DF8047B70471C
:104D800080B483B000AF786000BF0C37BD465DF8DB
:104D9000047B704780B483B000AF786000BF0C37ED
:104DA000BD465DF8047B704780B582B000AF786087
:104DB0007B685B6A1A887B681B68DA607B685B6A61
:104DC0009A1C7B685A627B685B8D9BB2013B9AB2EE
:104DD0007B685A857B685B8D9BB2002B0ED17B680C
:104DE0001B685A687B681B6822F0A0025A607B68C7
:104DF000012283F841207868FFF7B8FF00BF083729
:104E0000BD4680BD80B582B000AF78607B681B680E
:104E1000DA687B68DB6A92B21A807B68DB6A9A1C6C
:104E20007B68DA627B685B8E9BB2013B9AB27B68DF
:104E30005A867B685B8E9BB2002B0ED17B681B6809
:104E40005A687B681B6822F060025A607B68012206
:104E500083F841207868FFF793FF00BF0837BD460D
:104E600080BD80B586B000AF78607B681B689B68AA
:104E70007B617B6893F84130DBB2042B3AD17B69CC
:104E800003F00103012B09D17B681B685B6803F009
:104E90004003402B02D17868FFF7B4FF7B6903F031
:104EA0004003402B26D17B681B685B6803F020031E
:104EB000202B1FD17B681B685A687B681B6822F017
:104EC00060025A6000233B617B681B68DB683B61C2
:104ED0007B681B689B683B613B697B68012283F8A8
:104EE00041207B685B6C43F002027B685A647868FF
:104EF000FFF750FF7B6893F84130DBB2032B36D1CC
:104F00007B6903F00203022B09D17B681B685B6895
:104F100003F08003802B02D17868FFF745FF7B699F
:104F200003F00803082B22D17B681B685B6803F041
:104F30002003202B1BD17B681B685A687B681B6889
:104F400022F0A0025A600023FB607B681B689B680C
:104F5000FB60FB687B68012283F841207B685B6C07
:104F600043F004027B685A647868FFF713FF00BFC0
:104F70001837BD4680BD000080B588B000AFF8602E
:104F8000B9607A607B800023BB6100237B610023D2
:104F9000FB77FB6893F84130DBB2012B02D0022390
:104FA000FB7760E1BB68002B05D07B68002B02D04B
:104FB0007B88002B01D101235AE1FB6893F8403034
:104FC000DBB2012B01D1022352E1FB68012283F8FD
:104FD0004020BA68FB685A627A68FB68DA62FB684C
:104FE0001B68DB6903F007037B617B69032B02D03D
:104FF0007B69052B14D17B885B009AB2FB681A850C
:105000007B885B009AB2FB685A857B885B009AB20A
:10501000FB681A867B885B009AB2FB685A860BE0B5
:10502000FB687A881A85FB687A885A85FB687A88D3
:105030001A86FB687A885A86FB6800225A64FB68E5
:10504000052283F84120FB68DB6B8B4A1A64FB68FE
:10505000DB6B8A4ADA63FB68DB6B894ADA64FB68DC
:105060009B6B854A1A64FB689B6B844ADA63FB6816
:105070009B6B834ADA64FB681B68DB6903F440734B
:105080007B617B69B3F5007F02D07B69002B6BD11C
:105090003B1DBB61FB68D86BFB681B68794A934278
:1050A00001D1794B01E04FF040230C331946BB6925
:1050B0001A68FB681B8E9BB2FDF714FBFB681B682C
:1050C000704A934201D1704B01E04FF040235A687F
:1050D000FB681B686B498B4201D16B4B01E04FF0C1
:1050E000402342F001025A6007F10803BB61FB68EC
:1050F000986BBB691968FB681B680C331A46FB6820
:105100001B8D9BB2FDF7EEFAFB681B685A68FB68C3
:105110001B6842F002025A60FB681B68DB6903F4FB
:105120008063B3F5806F00F09E80FB681B68554A72
:10513000934201D1544B01E04FF04023DA69FB6800
:105140001B6850498B4201D14F4B01E04FF0402387
:1051500042F48062DA61FB681B68DA69FB681B68ED
:1051600042F48062DA617EE0FB681B68DB6903F46D
:105170004073B3F5407F0AD100233B61FB681B6895
:10518000DB683B61FB681B689B683B613B6907F11F
:105190000803BB61FB68986BBB691968FB681B68F7
:1051A000384A934201D1384B01E04FF040230C3391
:1051B0001A46FB681B8D9BB2FDF794FAFB681B68CF
:1051C000304A934201D1304B01E04FF040235A68FE
:1051D000FB681B682B498B4201D12B4B01E04FF040
:1051E000402342F002025A603B1DBB61FB68D86B52
:1051F000FB681B680C331946BB691A68FB681B8E79
:105200009BB2FDF76FFAFB681B685A68FB681B6866
:1052100042F001025A60FB681B68DB6903F480639B
:10522000B3F5806F1ED0FB681B68164A934201D10C
:10523000154B01E04FF04023DA69FB681B68114908
:105240008B4201D1104B01E04FF0402342F48062C9
:10525000DA61FB681B68DA69FB681B6842F48062EC
:10526000DA6100E000BFFB68002283F84020FB7F8A
:1052700018462037BD4680BD4955020865550208CD
:1052800095560208003800400034004080B588B0D0
:1052900000AF78607B681B689B68FB617B681B685C
:1052A000A24A934201D1A24B01E04FF040239B68F8
:1052B000BB617B681B685B687B617B681B689B4A82
:1052C000934201D19A4B01E04FF040235B683B6170
:1052D0007B685B68B3F5007F04D07B685B68002B5C
:1052E00040F09980FB6903F00203022B07D17B6930
:1052F00003F08003002B02D0786800F00BFABB6942
:1053000003F00103012B07D13B6903F04003002B9D
:1053100002D0786800F0AEFABB6903F04003402B7E
:105320003AD13B6903F02003002B35D07B681B6822
:105330007E4A934201D17E4B01E04FF040235A68F0
:105340007B681B6879498B4201D1794B01E04FF0B2
:10535000402322F060025A607B681B685A687B68B1
:105360001B6822F0A0025A600023FB607B681B6868
:10537000DB68FB607B681B689B68FB60FB687B6885
:10538000012283F841207B685B6C43F002027B685A
:105390005A647868FFF7FEFCFB6903F00803082BEA
:1053A00040F0BE807B6903F02003002B00F0B88042
:1053B0007B681B685A687B681B6822F0A0025A60F1
:1053C0007B681B68594A934201D1594B01E04FF069
:1053D00040235A687B681B6854498B4201D1544B67
:1053E00001E04FF0402322F060025A600023BB60CE
:1053F0007B681B689B68BB60BB687B68012283F885
:1054000041207B685B6C43F004027B685A647868D7
:10541000FFF7C0FC84E0BB6903F00203022B07D155
:105420003B6903F08003002B02D0786800F0A4F9F8
:10543000FB6903F00103012B07D17B6903F04003F3
:10544000002B02D0786800F0E3F9FB6903F0400319
:10545000402B2FD17B6903F02003002B2AD07B68DF
:105460001B685A687B681B6822F060025A607B6880
:105470001B682E4A934201D12D4B01E04FF040238F
:105480005A687B681B6829498B4201D1284B01E08F
:105490004FF0402322F0A0025A607B68012283F87B
:1054A00041207B685B6C43F002027B685A64786839
:1054B000FFF770FCBB6903F00803082B31D13B698F
:1054C00003F02003002B2CD07B681B68174A934203
:1054D00001D1174B01E04FF040235A687B681B68ED
:1054E00012498B4201D1124B01E04FF0402322F0D0
:1054F000A0025A607B681B685A687B681B6822F0B0
:1055000060025A607B68012283F841207B685B6CF3
:1055100043F004027B685A647868FFF73BFC00E0C4
:1055200000BF00BF2037BD4680BD00BF003800402F
:105530000034004080B483B000AF786000BF0C3707
:10554000BD465DF8047B704780B584B000AF7860DD
:105550007B689B6BFB60F868FFF7ECFF00BF1037C0
:10556000BD4680BD80B584B000AF78607B689B6B22
:10557000FB607B68DB69002B40F08480FB68DB6BA1
:105580007A689A423CD1FB681B68DB6903F440737C
:10559000B3F5007F06D0FB681B68DB6903F440733A
:1055A000002B16D1FB681B68384A934201D1384B57
:1055B00001E04FF040235A68FB681B6833498B4277
:1055C00001D1334B01E04FF0402322F001025A6039
:1055D00007E0FB681B685A68FB681B6822F0010241
:1055E0005A60FB6800225A86FB685B8D9BB2002BD9
:1055F00006D1FB68012283F84120F8680BF080FB9C
:10560000FB689B6B7A689A423CD1FB681B68DB693C
:1056100003F44073B3F5007F06D0FB681B68DB69B9
:1056200003F44073002B08D1FB681B685A68FB68C1
:105630001B6822F002025A6015E0FB681B68134ADF
:10564000934201D1124B01E04FF040235A68FB68AE
:105650001B680E498B4201D10D4B01E04FF04023F6
:1056600022F002025A60FB6800225A85FB685B8EBA
:105670009BB2002B06D1FB68012283F84120F86819
:105680000BF03EFB00BF1037BD4680BD0038004028
:105690000034004080B584B000AF78607B689B6BBD
:1056A000FB60FB681B685A68FB681B6822F00302FA
:1056B0005A60FB681B68154A934201D1144B01E004
:1056C0004FF040235A68FB681B6810498B4201D198
:1056D0000F4B01E04FF0402322F003025A60FB68B9
:1056E00000225A85FB6800225A86FB68012283F853
:1056F0004120FB685B6C43F00802FB685A64F86861
:10570000FFF748FB00BF1037BD4680BD00380040A2
:105710000034004080B582B000AF78607B685B6A7F
:10572000991C7A6851621A887B681B68DA607B680A
:105730005B8D9BB2013B9AB27B685A857B685B8D1F
:105740009BB2002B13D17B681B685A687B681B686F
:1057500022F0A0025A607B685B8E9BB2002B06D1C0
:105760007B68012283F8412078680BF0C9FA00BFFA
:105770000837BD4680BD000080B582B000AF7860BC
:105780007B685B6A991C7A68516219887B681B6820
:105790001D4A934201D11D4B01E04FF040230A46C0
:1057A000DA607B685B8D9BB2013B9AB27B685A855D
:1057B0007B685B8D9BB2002B21D17B681B68124AF2
:1057C000934201D1114B01E04FF040235A687B68AE
:1057D0001B680D498B4201D10C4B01E04FF0402377
:1057E00022F0A0025A607B685B8E9BB2002B06D130
:1057F0007B68012283F8412078680BF081FA00BFB2
:105800000837BD4680BD00BF00380040003400406E
:1058100080B582B000AF78607B681B68D8687B6811
:10582000DB6A991C7A68D16282B21A807B685B8ECF
:105830009BB2013B9AB27B685A867B685B8E9BB2B7
:10584000002B13D17B681B685A687B681B6822F0A9
:1058500060025A607B685B8D9BB2002B06D17B682F
:10586000012283F8412078680BF04AFA00BF08371C
:10587000BD4680BD80B582B000AF78607B681B6894
:10588000204A934201D1204B01E04FF04023D868D9
:105890007B68DB6A991C7A68D16282B21A807B6865
:1058A0005B8E9BB2013B9AB27B685A867B685B8EAB
:1058B0009BB2002B21D17B681B68124A934201D115
:1058C000114B01E04FF040235A687B681B680D497B
:1058D0008B4201D10C4B01E04FF0402322F06002DB
:1058E0005A607B685B8D9BB2002B06D17B680122DE
:1058F00083F8412078680BF003FA00BF0837BD46F3
:1059000080BD00BF003800400034004080B584B046
:1059100000AF78607B68002B01D101232BE07B680E
:105920001B684CF6CC421A607B681B6845F25552E6
:105930001A607B681B687A6852685A607B681B68CB
:105940007A6892689A60FCF725F9F86008E0FCF73D
:1059500021F90246FB68D31A302B01D903230AE050
:105960007B681B68DB68002BF1D17B681B684AF6FB
:10597000AA221A60002318461037BD4680BDF0B534
:105980008FB00AAF78607B68002B01D101230FE153
:105990007B681B68BB607B6893F8BD33DBB2002B70
:1059A00006D17B68002283F8BC23786811F02AFBBB
:1059B0007B68032283F8BD23BB68DB6B03F4807331
:1059C000002B02D17B6800221A617B681B68184695
:1059D00004F0DDF87B681B683B607E686D4606F16D
:1059E00010040FCC0FC50FCC0FC594E8030085E859
:1059F0000300331D0ECB386803F0B4FF0346002BC1
:105A000005D07B68022283F8BD230123D0E07B68A8
:105A10001B680021184604F0CBF80023FB734AE012
:105A2000FA7B79681346DB009B1A9B000B443D33DD
:105A300001221A70FA7B79681346DB009B1A9B00DF
:105A40000B443C33FA7B1A70FA7BFB7B98B2796883
:105A50001346DB009B1A9B000B44423302461A801C
:105A6000FA7B79681346DB009B1A9B000B443F339B
:105A700000221A70FA7B79681346DB009B1A9B00A0
:105A80000B44443300221A60FA7B79681346DB002A
:105A90009B1A9B000B44483300221A60FA7B7968FA
:105AA0001346DB009B1A9B000B44503300221A6004
:105AB000FB7B0133FB73FA7B7B685B689A42AFD355
:105AC0000023FB7344E0FA7B79681346DB009B1AE2
:105AD0009B000B4403F2FD1300221A70FA7B7968D5
