:020000040802F0
:100000000000022015130208DD110208DF110208AA
:10001000E1110208E3110208E511020800000000E6
:10002000000000000000000000000000E7110208CE
:10003000E911020800000000EB1102086513020834
:1000400065130208651302086513020865130208A8
:100050006513020865130208651302086513020898
:100060006513020865130208ED110208F511020874
:100070006513020865130208651302086513020878
:1000800001120208651302086513020865130208CD
:100090006513020865130208651302086513020858
:1000A000651302080D1202086513020865130208A1
:1000B0006513020865130208651302086513020838
:1000C0006513020865130208651302086513020828
:1000D00065130208191202082512020865130208A6
:1000E0006513020865130208651302086513020808
:1000F00065130208651302086513020865130208F8
:1001000065130208651302086513020865130208E7
:1001100065130208651302086513020865130208D7
:100120003112020865130208651302083D12020825
:1001300065130208651302086513020865130208B7
:1001400065130208651302086513020849120208C4
:100150006513020865130208651302086513020897
:100160006513020865130208651302086513020887
:1001700065130208651302086513020800000000F9
:08018000651302086513020873
:1001900010B5054C237833B9044B13B10448AFF3C1
:1001A00000800123237010BD480B002000000000D8
:1001B00068EE020808B5034B1BB103490348AFF3CF
:1001C000008008BD000000004C0B002068EE020813
:1001D00010F8012B11F8013B012A28BF9A42F7D0F1
:1001E000D01A7047034613F8012B002AFBD1181AC6
:1001F000013870470000000000000000000000000F
:1002000001F0FF01102A2BDB10F0070F08D010F8C7
:10021000013B013A8B422DD010F0070F42B3F6D1CB
:10022000F0B441EA012141EA014122F007047FF0E4
:1002300000070023F0E80256083C85EA010586EA3B
:10024000010685FA47F5A3FA87F586FA47F6A5FA77
:1002500087F68EB9EED1F0BC01F0FF0102F0070283
:1002600032B110F8013B013A83EA010313B1F8D12E
:100270000020704701387047002D06BF354603380F
:10028000073815F0010F07D1013015F4807F02BF48
:10029000013015F4C03F0130F0BC0138704700BF99
:1002A00053B94AB9002908BF00281CBF4FF0FF31DD
:1002B0004FF0FF3000F072B9ADF1080C6DE904CEDB
:1002C00000F006F8DDF804E0DDE9022304B0704731
:1002D0002DE9F047089E04468846002B4BD18A4200
:1002E000154667D9B2FA82F24AB1C2F1200701FA83
:1002F00002F320FA07F7954047EA030894404FEAD3
:10030000154E230CB8FBFEF71FFA85FC0EFB178871
:1003100043EA084307FB0CF1994209D9EB1807F1AE
:10032000FF3080F01B81994240F21881023F2B443C
:100330005B1AA4B2B3FBFEF00EFB103344EA034495
:1003400000FB0CFCA44509D92C1900F1FF3380F007
:100350000781A44540F2048102382C4440EA07405A
:10036000A4EB0C0400271EB1D4400023C6E90043CF
:100370003946BDE8F0878B4209D9002E00F0EB80AA
:100380000027C6E9000138463946BDE8F087B3FAD0
:1003900083F7002F47D18B4202D3824200F2FA80CA
:1003A000841A61EB030301209846002EE0D0C6E9D1
:1003B0000048DDE702B9FFDEB2FA82F2002A40F01F
:1003C0008F80491B4FEA154E1FFA85F80127B1FBB4
:1003D000FEFC230C0EFB1C1143EA014308FB0CF14D
:1003E000994207D9EB180CF1FF3002D2994200F282
:1003F000CD808446591AA3B2B1FBFEF00EFB101457
:1004000043EA044408FB00F8A04507D92C1900F181
:10041000FF3302D2A04500F2B6801846A4EB0804D0
:1004200040EA0C409FE7C7F1200CBB4022FA0CFECB
:100430004EEA030E01FA07F420FA0CF521FA0CF348
:100440004FEA1E482543B3FBF8F92C0C08FB19337F
:100450001FFA8EFA44EA034309FB0AF49C4202FAAB
:1004600007F200FA07F10BD91EEB030309F1FF3085
:1004700080F087809C4240F28480A9F10209734495
:100480001B1BADB2B3FBF8F008FB103345EA034485
:1004900000FB0AFAA24508D91EEB040400F1FF3361
:1004A0006BD2A24569D90238744440EA0940A0FBE6
:1004B0000289A4EB0A044C45C2464B4654D351D0A2
:1004C000002E69D0B1EB0A0564EB030404FA0CFCBE
:1004D000FD40FC404CEA0505C6E90054002747E70B
:1004E000C2F1200320FA03F7954001FA02F021FA45
:1004F00003F34FEA154E3843010CB3FBFEF71FFA26
:1005000085F80EFB173341EA034107FB08F38B42E2
:1005100004FA02F407D9691807F1FF3C2FD28B4285
:100520002DD9023F2944CB1A81B2B3FBFEF00EFB5A
:10053000103341EA034100FB08F38B4207D96918E5
:1005400000F1FF3C17D28B4215D902382944C91A51
:1005500040EA07473BE73746304609E70746E7E604
:100560001846FBE64145ABD2B8EB020A69EB0E0236
:1005700001381346A4E76046E9E7184695E7674661
:10058000D1E781467CE702382C4447E7ACF1020C06
:100590002B442FE7384608E73746E9E6704700BFA7
:1005A00008B506F0CDFF1021044801F0ABFD044B67
:1005B00010B101221A7008BD1870FCE70008024053
:1005C0004C1B002038B5094B094C1B684AF6AA227F
:1005D0001A602368C31AB3F57A7F054604DB13213A
:1005E00004480CF0CBF8256038BD00BF181A002075
:1005F000680B002018F3020870470000F0B50024D3
:1006000099B02146142207A8CDE90E4410940CF0AD
:1006100046FB2146102203A80CF041FB204B01941D
:100620001A6C42F080521A641B6C03F080530193E1
:10063000019B1C4B02941A6842F480421A601B68AA
:1006400003F4804302930922029B4FF4A023CDE9D7
:100650000C230F274FF480030225CDE913374823DD
:100660000126CDE915350CA803231793CDE91165B3
:1006700003F05EFB4FF48053294607A8CDE90A3406
:10068000CDE90775099403F027FD8021052303A810
:100690000396CDE9041303F0FDFD19B0F0BD00BFD2
:1006A00000380240007000402DE9F04F95B0002462
:1006B000C64D00F059FEFFF7A1FF142200210DA83E
:1006C0000CF0EDFA05942B6BC14843F010032B633B
:1006D0002B6B03F010030593059B06942B6B43F0E3
:1006E00004032B632B6B03F004030693069B079410
:1006F0002B6B43F080032B632B6B03F0800307937A
:10070000079B08942B6B43F001032B632B6B03F0C7
:1007100001030893089B09942B6B43F002032B639E
:100720002B6B03F002030993099B0A942B6B43F094
:1007300008032B632B6B03F008030A9301220C219F
:100740000A9B01F0E5FC224647F6A031A04801F0E3
:10075000DFFC224648F220019E4801F0D9FC01222C
:1007600010219D4801F0D4FC224646F207119B4817
:1007700001F0CEFC01224FF48051984801F0C8FCF2
:1007800001224FF48061964801F0C2FC22464FF4EA
:100790000041934801F0BCFC012647F6AC330DA99B
:1007A0008B48CDE90D36CDE90F4401F0CBFB40F28B
:1007B00041430DA986480F94CDE90D3401F0C2FBE9
:1007C00048F220030DA98348CDE90D36CDE90F4449
:1007D00001F0B8FB0DA97F480F944FF010094FF0BE
:1007E0000208CDE90D6401F0ADFB0DA97A480F9424
:1007F000CDE90D96CDF8408001F0A4FB794B75480A
:10080000CDF834900DA9CDE90E3401F09BFB46F2F2
:1008100007130DA97148CDE90D36CDE90F4401F05C
:1008200091FB4FF480530DA96C48CDE90D36CDE90D
:100830000F6801F087FB40F2FF230DA968480F9471
:10084000CDE90D3401F07EFB4FF404430DA964485B
:10085000CDE90D36CDE90F4401F074FB2246214667
:100860000A2000F0D3FF0A2001F004F803942B6B58
:1008700043F400132B632B6B03F400130393039BCC
:1008800004942B6B43F480032B632B6B03F48003E2
:100890002246214604930B20049B00F0B7FF0B2057
:1008A00000F0E8FF22462146484600F0AFFF4846E8
:1008B00000F0E0FF22462146382000F0A7FF382054
:1008C00000F0D8FF214622463B2000F09FFF3B204E
:1008D00000F0D0FF4448454A454B04624FF4804A3B
:1008E000C0E90023C0E90244C0E904A4C0E9064409
:1008F00001F0FAFD3F48404B84624FF400754FF41D
:10090000827B0A27C0E9003BC0E90659C762C0E9FB
:100910000244C0E90444C0E9084403F079FE3748C2
:10092000374BC762C0E9003B4FF40063DFF8F0B01B
:100930008460C0E903382823C0E90565C0E90734AD
:10094000C0E9094403F064FE2E4BCBF810404FF48D
:10095000E1320C275846CBE900320192CBE905740D
:10096000CBE90244CBF81C4004F038FB264B019A3B
:10097000264919601846C3E90124C3E90574C3E98F
:100980000344DC61019304F029FB2148214A224FF2
:100990000461C0E900253022C0E902264FF4FA5272
:1009A000C0E90524C0E9074602F06AF921461C2285
:1009B0000DA8CDE90B440CF072F9184A3C61384699
:1009C000C7E90028C7E90246BC612BE000380240B5
:1009D00000100240000802400000024000040240F3
:1009E000000C024000003110C419002000540040E7
:1009F000A0860100501B0020003001406C1900202F
:100A00000038004000100140A81B002000440040B6
:100A1000081D0020003C0040241A00200004004073
:100A20000C1B002004F0E8F80BA93846CDE90B4474
:100A300004F0EAF96022CDE90D260DA9042238461A
:100A40000F94119404F028F9384600F0F1FA214689
:100A50004A460DA80CF023F93A4D3B4AEE61C5E930
:100A600000242846394AAA626E61AC602C612C765B
:100A700085F82040EC62EC6085F8304000F0B4FC72
:100A80000B220DA92846CDE90D260F9400F01CFE7F
:100A90002F483049304A314D0462C0E90012C0E9A4
:100AA0000244C0E904A4C0E9064401F01DFD2C483D
:100AB0002C4E0522C0E900524FF47A62826002F0A7
:100AC0005BFC0BF019FE0421384604F075F9042193
:100AD000384604F097F9019B234D244F1946584698
:100AE0000AF07EFE2B68214698680CF081FA28688F
:100AF0001F4D80682346424621460CF081FA40F2A1
:100B0000011218491B480CF07BF90AF0C3FD00F0F4
:100B100051FC044609F0F6FC08F0AAFB2B68E31A26
:100B2000B3F57A7FF3DB4FF40041384601F0F5FA74
:100B300023464FF4947231460F480CF061F92C6053
:100B4000E5E700BFC41A0020002001400100000FAB
:100B500018190020005C0040801A06000030004098
:100B6000181A00202BF3020878090020000C02401C
:100B7000640B002030F3020840F302080268034BC4
:100B80009A4201D100F00ABC704700BF000001404A
:100B90007047000082B00C4B002100915A6C42F467
:100BA00080425A645A6C02F480420092009A019189
:100BB0001A6C42F080521A641B6C03F0805301934C
:100BC000019B02B0704700BF0038024010B50446D8
:100BD00088B01422002103A80CF061F82268124B9F
:100BE0009A421ED103F58C33002101915A6C0F48B3
:100BF00042F480725A645A6C02F480720192019A33
:100C000002911A6B42F004021A631B6B03F0040397
:100C10000293029B0222032303A9CDE9032301F0DF
:100C200091F908B010BD00BF00200140000802404B
:100C30002DE9F04314228BB0044600210DEB020095
:100C40000CF02DF82368354A934226D1344C3548B0
:100C500000250095236B43F002032363236B03F00D
:100C600002030093009BC0221223CDE9052301213A
:100C70000323CDE90713042305A9099301F062F9C1
:100C80000195236C43F400132364236C03F40013D5
:100C90000193019B0BB0BDE8F083234A9342F9D145
:100CA0001F4C224800250295236B43F00403236365
:100CB000236B03F004030293029B0395236B43F021
:100CC00001032363236B03F001030393039B4FF0A2
:100CD00012094FF400734FF001080327042605A9F9
:100CE000CDE90539CDE90787099601F02BF94FF4D5
:100CF000807305A90E480996CDE90539CDE9078726
:100D000001F020F90495236C43F400032364236C61
:100D100003F400030493049BBCE700BF00540040AD
:100D20000038024000040240005C0040000802401D
:100D300000000240F0B5064689B01422002103A845
:100D40000BF0ADFF3268474B9A4240F08980002596
:100D500003F5FE3300951A6C434842F400421A64CE
:100D60001A6C02F400420092009A01951A6B42F04C
:100D700001021A631A6B02F001020192019A0295B4
:100D80001A6B42F004021A631B6B03F00403029314
:100D900002240627029B06944FF4004303A9CDE9E1
:100DA0000334079701F0CEF84FF4A05303A92F485E
:100DB0000797CDE90334CDE905544FF4006701F0FE
:100DC000C1F805232948079303A9CDE90374CDE9A8
:100DD000055401F0B7F8264CDFF8A0C025634FF0AA
:100DE000C063C4E900C34FF48063C4E904374FF41F
:100DF0000053C4E906354FF4403E0423C4E908E338
:100E000020460323C4E90255C4E90A3500F06AFD0F
:100E100008B1FFF7BDFE174AF463A663164C002322
:100E2000C4E900234022C4E902234FF480614FF457
:100E30000062C4E904124FF400524FF44030C4E998
:100E400006230422C4E9080203222046C4E90A2337
:100E5000236300F047FD08B1FFF79AFEB463A66371
:100E600009B0F0BD003C0040000002400008024014
:100E7000A81C002088600240641A00201060024014
:100E8000F0B514228BB0064600210DEB02000BF0EA
:100E900006FF3368504A934263D100254F4B0095BB
:100EA0005A6C4F4C42F480525A645A6C02F480528D
:100EB0000092009A01951A6B42F001021A631B6BB3
:100EC00003F001030193019BE0200223CDE9050318
:100ED00003270523434805A9CDE9087301F032F83B
:100EE000DFF818C125634FF0C063C4E900C3402395
:100EF000C4E902354FF48063C4E904354FF4403E41
:100F000004232046C4E90655C4E908E3C4E90A7588
:100F100000F0E8FC08B1FFF73BFE334AB464A66377
:100F2000324C4FF0C063C4E9002300234FF48062C9
:100F3000C4E904234FF440310422C4E908122046D6
:100F40000322C4E90233C4E90633C4E90A23236354
:100F500000F0C8FC08B1FFF71BFEF464A6630BB0F9
:100F6000F0BD234A9342FAD11C4B2248002402943C
:100F70001A6C42F480421A641A6C02F480420292A3
:100F8000029A03941A6B42F004021A631A6B02F07D
:100F900004020392039A04941A6B42F002021A6349
:100FA0001B6B03F002030493049B02270823032610
:100FB000052505A9CDE90537CDE9086500F0C2FF93
:100FC0004FF4806305A90C480995CDE90537CDE9B3
:100FD000074600F0B7FFC2E700300140003802408A
:100FE000481C00200000024010640240E81B002062
:100FF00000380040000802400004024058640240EB
:101000000268094B9A4282B00BD100230193074B2F
:101010001A6C42F002021A641B6C03F00203019383
:10102000019B02B0704700BF00040040003802403E
:1010300010B5044686B01422002101A80BF02FFE43
:1010400022680D4B9A4214D1002300930B4B0C489D
:101050001A6B42F004021A631B6B03F00403009343
:10106000009B8022022301A9CDE90123059300F012
:1010700069FF06B010BD00BF000400400038024008
:101080000008024010B514228AB0044600210DEB7E
:1010900002000BF004FE23682E4A93422DD12E4B02
:1010A000002401945A6C42F010025A645A6C02F007
:1010B00010020192019A02941A6B42F001021A6323
:1010C0001B6B03F001030293029B4FF4C0600223E9
:1010D000CDE905034FF0030C072305A91F48CDE90F
:1010E00008C300F02FFF25202246214600F08EFB8A
:1010F000252000F0BFFB0AB010BD194A9342FAD177
:10110000154B1648002403941A6C42F400321A64FA
:101110001A6C02F400320392039A04941A6B42F0A0
:1011200001021A631B6B03F0010304930C22049B5E
:101130000223CDE9052303210723CDE9081305A9DF
:1011400000F000FF26202246214600F05FFB26200B
:10115000CFE700BF0010014000380240000002400D
:101160000044004030B5014689B00022192000F04B
:101170004DFB192000F07EFB0025144B02955A6CA4
:10118000134C42F001025A645B6C03F001030293BA
:1011900001A903A8029B03F05FF803F04DF80D4B83
:1011A000236040F2E733E3600B4BB0FBF3F0013810
:1011B000606020462561A56003F004FD20B920464B
:1011C00003F0E3FB09B030BD0120FBE7003802402B
:1011D000501D00200000014040420F007047FEE714
:1011E000FEE7FEE7FEE7704770477047102000F00B
:1011F0009BBF0000014800F03FBC00BFA81C0020BE
:10120000014800F039BC00BF641A0020014803F017
:10121000D0BB00BF501D0020014803F0CDBF00BF70
:101220000C1B0020014803F0C7BF00BFA81B002013
:10123000014800F021BC00BFE81B0020014800F07D
:101240001BBC00BF481C0020014802F05DB900BF74
:10125000104C00200120704708B50BF0A1FC1623AC
:1012600003604FF0FF3008BD08B50BF099FC162362
:101270000360FEE770B50E4615460C46A31B9D4263
:1012800001DC284670BD0AF063FA04F8010BF5E7AB
:1012900070B50E4615460C46A31B9D4201DC284640
:1012A00070BD14F8010B0AF021FAF5E74FF0FF309A
:1012B00070474FF400534B60002070470120704787
:1012C0000020704708B50A4B1968024609B9094958
:1012D00019601868694602448A4206D90BF060FC1E
:1012E0000C2303604FF0FF3008BD1A60FCE700BF1D
:1012F0006C0B002020500020044BD3F8882042F4CF
:101300007002C3F88820024A9A60704700ED00E03E
:1013100000000208DFF834D0002103E00C4B5B58DA
:10132000435004310B480C4B42189A42F6D30B4AF7
:1013300002E0002342F8043B094B9A42F9D3FFF73D
:10134000DBFF0BF045FCFFF7AFF970470000022010
:10135000B4D2030800000020480B0020480B0020F6
:101360001C500020FEE7000008B50B4B1A6842F441
:1013700000721A601A6842F480621A601A6842F4B5
:1013800080721A60032000F02FFA0020FFF7EAFEB7
:10139000FFF700FC002008BD003C0240034A044B5C
:1013A00011681B780B441360704700BF901D00202C
:1013B00004000020014B1868704700BF901D0020FA
:1013C00038B50446FFF7F6FF631C1CBF054B1B78BE
:1013D000054618BFE418FFF7EDFF401BA042FAD303
:1013E00038BD00BF0400002038B50446002800F0D6
:1013F0009B80056C25B9FFF7E9FB656484F83C50D8
:10140000236CDB0600F18E80236C23F4885323F0D9
:10141000020343F002032364444B5A6822F440322F
:101420005A605A6861680A435A60236821695A6899
:1014300022F480725A605A6842EA01225A605A685D
:10144000A16822F040725A605A680A435A609A684A
:10145000E16822F400629A609A680A439A6034490B
:10146000A26A8A4252D0996821F0706199609968A5
:101470000A439A609A68E16A22F040529A609A6838
:101480000A439A609A68217E22F002029A609A6862
:1014900042EA41029A6094F82020002A3ED05A681D
:1014A000616A42F400625A605A6822F460425A60EB
:1014B0005A68013942EA41325A60DA6AE16922F433
:1014C0007002DA62DA6A013942EA0152DA629A6833
:1014D00094F8301022F400729A609A6842EA41222D
:1014E0009A609A68616922F480629A609A68002022
:1014F00042EA81229A606064236C23F0030343F084
:1015000001032364002384F83C3038BD9A6822F03C
:1015100070629A609A6822F04052B2E75A6822F4E8
:101520000062C9E70120EDE70120EEE7002301405A
:101530000100000F82B00023019390F83C30012B92
:1015400061D0012380F83C3003689A68D10705D543
:101550009A68D20714D4002002B070479A682B49C9
:1015600042F001029A602A4A1268B2FBF1F202EBE1
:1015700042020192019A002AEAD0019A013AF8E760
:10158000026C22F4E06222F0010242F480720264F2
:101590005A68510541BF026C22F4405242F4805215
:1015A0000264026C12F480521CBF426C22F00602EC
:1015B0004264002280F83C206FF022021A60154A33
:1015C000516811F01F0F14491AD18B4206D001F552
:1015D00080718B420BD15268D206BCD1986810F052
:1015E0004050B8D19A6842F080429A60B4E70B4903
:1015F0008B42B0D1526802F01F020F2AEED9AAE73F
:101600008B42A8D1EAE70220A6E700BF40420F00C4
:101610000000002000230140002001400022014082
:1016200003689A6870B5560504460D460BD59B684D
:10163000D80508D5236C43F020032364002384F8E5
:101640003C30012070BDFFF7B5FE064623681A68DE
:1016500092070CD56FF012021A60226C42F40072ED
:1016600022649A6812F0405F13D00020EAE7691CF8
:10167000EDD045B9236C43F004032364002384F8C0
:101680003C300320DEE7FFF795FE801BA842DDD942
:10169000F0E7227E002AE8D1DA6A12F4700F02D055
:1016A0009B685B05E1D4236C23F480732364206C76
:1016B00010F48050D9D1236C43F001032364C1E7B7
:1016C0000368D86C70470000F7B50023019390F8C9
:1016D0003C30012B7ED00D688E680123092D80F8E7
:1016E0003C30ACB2036829D904EB4402DF681E3AEF
:1016F0004FF0070C0CFA02FC27EA0C07DF60DF68EA
:1017000006FA02F23A43DA604968062901EB8102DF
:1017100024D8596B053A1F26964021EA06015963E1
:10172000596B04FA02F20A435A632B4A934231D0AE
:10173000002380F83C30184603B0F0BD1F6905EB6C
:1017400045024FF0070C0CFA02FC27EA0C071F6158
:101750001F6906FA02F23A431A61D5E70C294FF0E5
:101760001F010BD81E6B233A914026EA0101196331
:10177000196B04FA02F20A431A63D6E7DE6A413AA9
:10178000914026EA0101D962D96A04FA02F20A43B9
:10179000DA62CAE7122D04D1104A536843F4800379
:1017A0005360A5F11003012BC2D80C4A5368102DC9
:1017B00043F400035360BBD1094B0A4A1B68B3FBD7
:1017C000F2F20A2353430193019B002BB0D0019BFB
:1017D000013BF8E70220AFE7002001400023014071
:1017E0000000002040420F00074AD36823F4E06362
:1017F0001B041B0C43F0BF63000243F4003300F4EE
:10180000E0600343D360704700ED00E0174B70B514
:10181000DC68C4F30224C4F10705042D04F10403B9
:1018200028BF04254FF0FF36062B06FA05F38CBFC0
:10183000033C002421EA0303A34006FA04F422EA4D
:101840000404002843EA0403A8BF00F160404FEA03
:101850000313BCBF00F00F00054ADBB2AABF00F5BE
:101860006140135480F8003370BD00BF00ED00E00C
:1018700014ED00E0002808DB4209012300F01F00FE
:1018800003FA00F0014B43F82200704700E100E04A
:1018900000280DDB4309012200F01F0002FA00F0CE
:1018A0002033044A42F82300BFF34F8FBFF36F8FFA
:1018B000704700BF00E100E00368DAB223F47F73F1
:1018C00023F003031821103AB2FBF1F20449032A72
:1018D00088BF0433895C8365C165806D704700BF34
:1018E0006BF3020870B50446FFF764FD0546002C53
:1018F00071D0002384F834302268022384F8353014
:10190000136823F00103136021680B68D8073CD4E7
:101910000B68324DA0691D40D4E901231343E268EE
:1019200013432269134362691343E2690343134378
:10193000226A1343626A042A43EA050302BFD4E918
:101940000B5635432B430B604B69042A23F00703E6
:1019500043EA02030BD1A26AE56A13433DB1F8B929
:10196000012A2DD001D3022A01D1EA012BD44B61E7
:101970002046FFF7A1FFE26D3F23934083600020E4
:101980000123606584F8353009E0FFF713FD401B43
:101990000528B9D920236365032084F8350070BD7C
:1019A000B0F5005F13D1032AE1D801A050F822F06E
:1019B000C71902086B190208C7190208C1190208E1
:1019C000B5F1C07FD3D1402363650120E5E7022A4A
:1019D000F9D9032AC8E70120E1E700BF3F8010F0F2
:1019E00070B590F83440012C32D0012480F8344096
:1019F00090F83540866D012C4FF000054FF0020441
:101A000024D180F8354004684565256825F4802593
:101A1000256063608368402B0EBFA260A160E26016
:101A2000C26D08BFE1603F239340B360236843F079
:101A300016032360036C1BB1236843F00803236083
:101A4000236843F001032360002070BD80F8345008
:101A50000220FAE790F83530022B03D0802343654B
:101A6000012070470268052380F83530136823F0A1
:101A70000103136000207047F7B5002301935C4B0E
:101A8000856D1F68C36D2E6808229A403242044655
:101A90000CD001680868400708D5086820F00400E9
:101AA0000860AA60626D42F00102626501229A40FC
:101AB000324208D021684969090641BFAA60626DB7
:101AC00042F00202626504229A40324208D0216844
:101AD0000968880741BFAA60626D42F0040262652E
:101AE00010229A40324210D02368196809070CD599
:101AF000AA601A68500337D51B68190301D4236CF8
:101B000000E0A36C0BB120469847E16D20228A408B
:101B100032423AD023681868C60636D5AA6094F8CF
:101B20003520052A1A6827D122F016021A605A6950
:101B300022F080025A61226C0AB9A26C1AB11A68AA
:101B400022F008021A603F238B40AB60002384F828
:101B50003430012384F83530236D002B45D02046E6
:101B600003B0BDE8F04018471A68D2055EBF1A6896
:101B700022F008021A60C2E7500327D51B68190338
:101B800031D4636C0BB120469847636D6BB3636DC2
:101B9000DA0719D50523226884F83530136823F055
:101BA000010313604FF41653B7FBF3F7019B0133A6
:101BB000BB42019302D81368DB07F7D4002384F8F3
:101BC0003430012384F83530E36CC6E71A6812F428
:101BD000807208D1196821F010011960012384F87E
:101BE000342084F83530E36BCCE703B0F0BD00BFA0
:101BF00000000020094910B50C6924F440740C6100
:101C00000C6944F440740C610C6944F001040C61EB
:101C10000260BFF36F8F436010BD00BF003C024005
:101C2000074B1A6922F440721A611A6942F4007271
:101C30001A611A6942F001021A610160704700BF1F
:101C4000003C0240074B1A6922F440721A611A697B
:101C500042F480721A611A6942F001021A6101802D
:101C6000704700BF003C02401A4BDA68D20606D526
:101C70001949CA6942F01002CA611022DA60DA68B2
:101C8000900606D51449CA6942F00802CA612022AA
:101C9000DA60104BDA68510606D50F49CA6942F07E
:101CA0000402CA614022DA60DA68120606D50A49DF
:101CB000CA6942F00202CA618022DA60054AD3682A
:101CC0009B0706D50449CB6943F02003CB6102236F
:101CD000D3607047003C0240FC070020064B1A69A5
:101CE000002ABFBF054A5A6002F188325A60BABF63
:101CF0001869C00F00207047003C0240230167456F
:101D0000F8B5124B124C00220546DA61FFF752FB80
:101D100026460746E368DA030CD4E368DB0744BFD2
:101D20000123E360F06810F0F20007D0FFF79CFF9A
:101D3000012003E0691CEDD00DB90320F8BDFFF7C9
:101D400039FBC01BA842E5D9F7E700BFFC0700201C
:101D5000003C02402DE9F0411F4D98462B7E012B9F
:101D600007460E46144635D001234CF250302B76F0
:101D7000FFF7C6FFB0B9CFB9184B1A6922F4407209
:101D80001A611A691A611A69E4B242F001021A6111
:101D900034704CF25030FFF7B3FF104A136923F050
:101DA0000103136100232B76BDE8F081012F04D1DC
:101DB000A1B23046FFF746FFEBE7022F04D12146E0
:101DC0003046FFF72DFFE4E7224643463046FFF753
:101DD00011FFDEE70220E7E7FC070020003C02409D
:101DE000074B1A6922F440721A611A6942F0040220
:101DF0001A611A6942F4803242EA00201861704781
:101E0000003C024039B101291CD002290CBF4FF41B
:101E100000714FF440710D4B1A6922F440721A613F
:101E20001A69114319611A6922F0F8021A611A69D4
:101E300042F0020242EAC00018611A6942F480329C
:101E40001A6170474FF48071E5E700BF003C024023
:101E5000144B1A6891050FD51A6822F400721A60A3
:101E60001A6842F400621A601A6822F400621A606A
:101E70001A6842F400721A600A4B1A6852050FD5AC
:101E80001A6822F480621A601A6842F480521A605A
:101E90001A6822F480521A601A6842F480621A604A
:101EA000704700BF003C02402DE9F843234E337ECB
:101EB000012B044688463FD001234CF25030337644
:101EC000FFF71EFF0546A8B94FF0FF33C8F80030F2
:101ED0002368012B13D1207CFFF782FF4CF2503096
:101EE000FFF70EFF164A136923F00403054613613A
:101EF000FFF7AEFF002333762846BDE8F883A768D6
:101F0000DFF83C90D4E902231344BB42F0D9217C92
:101F10003846FFF777FF4CF25030FFF7F1FED9F863
:101F2000103023F0FA03C9F8103018B1C8F8007067
:101F30000546DDE70137E5E70225DDE7FC07002080
:101F4000003C02402DE9F04F85B00B68DFF8AC8112
:101F5000684ADFF8AC91019300230124019D9C4065
:101F60002540AC4240F0B0804C6824F0100C4FEAA1
:101F7000430E03260CF1FF3706FA0EF6012F6FEA27
:101F8000060611D8876807EA060ACF6807FA0EF72F
:101F900047EA0A078760476827EA050AC4F300177B
:101FA0009F4047EA0A074760C76807EA060A8F6842
:101FB00007FA0EF747EA0A07BCF1020FC76016D10D
:101FC0004FEAD30A00EB8A0A03F0070BDAF8207015
:101FD0004FEA8B0B4FF00F0C0CFA0BFC27EA0C0CA2
:101FE0000F6907FA0BF747EA0C07CAF82070076871
:101FF0003E4004F0030707FA0EFE4EEA06060660AE
:10200000E60061D54FF0000BCDF80CB0D8F8447065
:10201000394E47F48047C8F84470D8F8447007F444
:1020200080470397039F23F0030707F1804707F5D5
:102030009C3703F0030ED7F808A04FEA8E0E4FF03E
:102040000F0C0CFA0EFCB0422AEA0C0C43D006F539
:102050008066B04241D006F58066B0423FD006F5BA
:102060008066B0423DD006F58066B0423BD0484520
:102070003BD006F50066B04239D006F58066B04226
:1020800014BF0826072606FA0EF646EA0C06BE60BE
:102090001668EF4314F4803F0CBF3E402E43166099
:1020A000566814F4003F0CBF3E402E4356609668BD
:1020B00014F4801F0CBF3E402E439660D668A402E5
:1020C00054BF3E402E43D6600133102B7FF445AF02
:1020D00005B0BDE8F08F5E46D5E70126D3E70226BE
:1020E000D1E70326CFE70426CDE70526CBE7062672
:1020F000C9E700BF003C0140000002400038024038
:10210000001402400369194214BF012000207047E7
:102110000AB1816170470904FBE7436931EA0303AF
:1021200008BF09048161704708B5044B5969014231
:1021300002D05861FEF734FA08BD00BF003C0140F0
:1021400001684B6913F480634FF0000210D06FF404
:1021500080634B612023026380F83D3080F83E208D
:10216000036C80F83C2043F00403036401207047B3
:10217000184670472DE9F0410446164698468FB23E
:102180002568686937EA000017D06B695A0516D5CB
:102190002B6843F400732B606FF480636B61202223
:1021A0000023236384F83D2084F83E30226C42F003
:1021B0000402226484F83C300120BDE8F081731CE5
:1021C000DFD0FFF7F7F8A0EB0800B04201D8002EEF
:1021D000D6D100232022236384F83D2084F83E30AA
:1021E000226C42F02002E4E770B504460D46164624
:1021F00023685B695B0701D5002070BD2046FFF7AF
:102200009FFFA8B96A1CF3D0FFF7D4F8801BA8423F
:1022100001D8002DECD100232022236384F83D2037
:1022200084F83E30226C84F83C3042F02002226474
:102230000120E2E770B504460D4616462068436962
:1022400013F0400301D0002010E04269D2060ED501
:102250006FF0100242612022236384F83D2084F84D
:102260003E30226C226484F83C30012070BDFFF7C0
:10227000A1F8801BA84201D8002DDFD10023202225
:10228000236384F83D2084F83E30226C42F0200223
:10229000E8E72DE9F843089E044690461F464FEABA
:1022A00011498DB22168B9F1010F0CBF4B698B69DF
:1022B00035EA03030CBF01230023984501D0002019
:1022C00016E07B1CEFD0FFF775F8801BB84201D8F1
:1022D000002FE7D100232022236384F83D2084F8D7
:1022E0003E30226C84F83C3042F02002226401200F
:1022F000BDE8F88370B504460D46164623685B6951
:102300001B0601D5002070BD2046FFF719FFA8B9B4
:102310006A1CF3D0FFF74EF8801BA84201D8002DAD
:10232000ECD100232022236384F83D2084F83E3042
:10233000226C84F83C3042F0200222640120E2E763
:102340002DE9FF41154602680B9E9846136843F439
:10235000807313600F460A9B009600224FF0011114
:102360000446FFF796FF236838B11B68DB0502D5EA
:102370004FF40073236403200AE007F0FE071F6197
:102380000A9A194933462046FFF7F4FE18B1012096
:1023900004B0BDE8F081236803905A6903929B69F9
:1023A000039332460A99039B2046FFF7A3FF40B1EF
:1023B000236C042B01BF2268136843F4007313607D
:1023C000E5E7B8F1010F236802D1EDB21D61DFE747
:1023D0002A0A1A610A9932462046FFF78BFF002825
:1023E000E6D12368F1E700BF020001002DE9FF41BB
:1023F000984603680B9D16461A6842F480621A607C
:102400001A6842F480721A600F460A9B00950022F7
:102410004FF001110446FFF73CFF236848B11B68E9
:10242000DB0502D54FF400732364032004B0BDE83C
:10243000F081FFB207F0FE021A612A490A9A2B4680
:102440002046FFF797FE08B10120EFE723680390CD
:102450005A6903929B6903932A460A99039B204673
:10246000FFF748FF40B1236C042B01BF22681368BB
:1024700043F400731360E7E7B8F1010F236825D137
:10248000F6B21E612A460A992046FFF733FF02463C
:102490000028E8D121680B6843F480730B60204664
:1024A0000A9B00954FF00111FFF7F3FE2368002807
:1024B000B5D147F001071F610A9A0A492B46204609
:1024C000FFF758FE003018BF0120AFE7320A1A614B
:1024D0000A992A462046FFF70DFF0028C3D123683A
:1024E000CEE700BF0200010070B5044608B9012024
:1024F00070BD90F83D3003F0FF021BB980F83C201E
:10250000FEF796FB242384F83D3023681A6822F0F6
:1025100001021A601A6842F400421A601A6822F432
:1025200000421A6001F078FE6368414A93424DD838
:10253000404A9042DBD922683F495568B0FBF1F12F
:1025400025F03F050D435560156A25F03F05013123
:1025500029431162D169364D21F44F41AB4221F03C
:10256000FF0100F1FF3048D85B00B0FBF3F0431CE3
:10257000C3F30B03042B38BF04230B43D361D4E90B
:1025800007301168034321F0C0010B4313609168C9
:10259000D4E9030321F40341034321F0FF010B437A
:1025A0009360D4E90530D168034321F0FF010B4368
:1025B000D360136843F001031360002020232064DC
:1025C00084F83D30206384F83E0091E71B4A904236
:1025D0008DD92268184E5568B0FBF6F625F03F05F8
:1025E00035435560156A4FF49671714325F03F05E8
:1025F0004FF47A76B1FBF6F1A9E7A56855B903EB7C
:102600004303B0FBF3F0431CC3F30B036BB143F480
:102610000043B2E719256B43B0FBF3F0431CC3F34F
:102620000B0313B143F44043A7E70123A5E700BF21
:10263000A08601007F841E0040420F00FF083D007D
:102640002DE9FF4104461F460D469046FEF7B2FEB7
:1026500094F83D30202B064604D00225284604B0CD
:10266000BDE8F0810090192301225B492046FFF765
:1026700010FE0028F1D194F83C30012BEDD001235D
:1026800084F83C3023681A68D2075EBF1A6842F0AB
:1026900001021A601A6822F400621A60212284F88A
:1026A0003D20102284F83E20002222646785628D3E
:1026B00022854A4AE262E26AC4F82480082A04D0E9
:1026C000012A02D012F5803F04D11A6842F48072C8
:1026D0001A6002E0226B122AF7D0002200960A9BB1
:1026E0004FF001112046FFF7D4FD226838B113687E
:1026F000DB0544BF4FF4007323640125AEE7236973
:10270000B3F5804F21D105F0FE05156133460A9AD5
:1027100033492046FFF72EFD05460028EDD12368FA
:1027200003905A6903929B690393039B238DF3B92A
:1027300021680A6842F400720A60202284F83D2071
:1027400084F83C3084F83E3088E7EB1103F0060350
:1027500043F0F003136123490A9A33462046FFF7FA
:1027600009FD0028C9D12368EDB21D61CEE73246CC
:102770000A992046FFF7BEFD40B1236C042BBCD163
:102780002268136843F400731360B6E7636A206835
:102790001A4612F8011B01616262628D013A92B21F
:1027A0006285228D4769511E89B27F0721850AD52E
:1027B00049B15978016102336362638D013B9BB279
:1027C000023A6385228532460A992046FFF70CFDBE
:1027D0000028ABD0D1E700BF020010000000FFFFCF
:1027E00002000100080001002DE9F7430446994664
:1027F0000F4690460C9EFEF7DDFD94F83D30202BF1
:10280000054603D0022003B0BDE8F08300901923F1
:1028100001223B492046FFF73CFD0028F2D194F805
:102820003C30012BEED0012384F83C3023681A6839
:10283000D1075EBF1A6842F001021A601A6822F4DA
:1028400000621A60212384F83D30402384F83E3032
:10285000002323640A9B6362BDF82C306385638D7B
:102860002385284BE362CDE900654B464246394655
:102870002046FFF765FD00282AD00120C3E7FFF7B7
:1028800039FD40B1236C042B01BF2268136843F467
:1028900000731360F1E7636A27681A4612F8011B98
:1028A00039616262628D218D013A92B262857A69E4
:1028B000481E80B2520720850AD548B15A783A613D
:1028C00002336362638D013B02399BB221856385CC
:1028D000238D2A4631462046002BD0D1FFF784FCB9
:1028E0000028CFD12268136843F4007313602023BB
:1028F00084F83D3084F83C0084F83E0083E700BF54
:10290000020010000000FFFF2DE9F043044687B0ED
:1029100099460D469046109FFEF74CFD94F83D30C9
:10292000202B064604D00225284607B0BDE8F083D8
:1029300000901923012277492046FFF7AAFC0028BE
:10294000F1D194F83C30012BEDD0012384F83C30D8
:1029500023681A68D0075EBF1A6842F001021A6045
:102960001A6822F400621A60222384F83D30402362
:1029700084F83E30002323640E9B6362BDF83C3034
:102980006385638D2385644BE3622946CDE9007638
:102990004B4642462046FFF729FD054608B1012572
:1029A000C2E7228D236892B902905A6902929A690D
:1029B0000292029A1A6842F400721A60202384F884
:1029C0003D30002384F83E3084F83C30ACE7012AE7
:1029D0002CD11A6822F480621A6003905A6903921B
:1029E0009A690392039A1A6842F400721A60DFF837
:1029F0002C81238D002BE1D0032B6ED8012B2DD100
:102A0000324639462046FFF715FC0028C7D1236817
:102A10001A69636A1A70636A01336362238D013B2A
:102A20002385638D013B9BB26385E2E7022A0ED1C9
:102A30001A6822F480621A601A6842F400621A600E
:102A400004905A6904929B690493049BCFE7059014
:102A50005A6905929B690593059BC8E7022B00966E
:102A60003B464FF000024146204619D1FFF711FCCA
:102A7000002894D123681A6842F400721A601A6917
:102A8000636A1A70626A531C6362238D013B23855B
:102A9000638D013B9BB2638523681B695370BAE762
:102AA000FFF7F7FB024600287FF479AF2368196827
:102AB00021F4806119601969636A1970636A00966C
:102AC00001336362238D013B2385638D013B9BB200
:102AD000638541463B462046C8E732463946204694
:102AE000FFF7A8FB00287FF45AAF23681A69636ACE
:102AF0001A70626A531C6362238D013B2385638DC8
:102B0000013B9BB263852368596949077FF571AF23
:102B1000C3E700BF020010000000FFFF0400010037
:102B20002DE9F04F044685B0984689469246FEF757
:102B300041FC94F83D30202B054603D0022005B01F
:102B4000BDE8F08F0090192301224C492046FFF781
:102B5000A0FB0028F2D194F83C30012BEED00123E9
:102B600084F83C302368DFF814B11A68D2075EBFDE
:102B70001A6842F001021A601A6822F400621A60B0
:102B8000242384F83D3000232364A3F58033E362DB
:102B9000012709F0FE092268136843F4807313606B
:102BA0004FF001114346009500222046FFF771FBCC
:102BB000236838B11B68DB0502D54FF4007323642A
:102BC0000320BCE7C3F81090FEF7F4FB23685A69B2
:102BD0005B690546C2F34002C3F38023A02694F844
:102BE0003D10A02901D002B9E3B12368202684F862
:102BF0003D605A6912F0020F1A6842F400721A60BE
:102C000027D0002203925A6903929B690393039B86
:102C100000951923012219492046FFF73AFB98B184
:102C200001208CE7FEF7C6FB401B404502D8B8F1F7
:102C3000000F01D184F83D6023685A695B69C2F3D3
:102C40004002C3F38023CAE784F83D6084F83C0067
:102C500075E76FF480625A61594600951923012285
:102C60002046FFF716FB0028DAD10137574592D3EB
:102C700084F83D6084F83C00D2E700BF02001000F9
:102C8000F8B50446002841D090F8413003F0FF0227
:102C90002BB9424B80F840204363FEF74BF80221EA
:102CA000226884F84110D36923F47B6323F00F0377
:102CB000D361636911628B4231D0E368002BA36852
:102CC00014BF202510250120202B98BF6D0001F096
:102CD00079FB23696169B3F5007F1BD1E3680A22A0
:102CE000B3B1AB00B0FBF3F353430A22B3FBF1F3F0
:102CF0000533B3FBF2F303F0010212025B08991EE5
:102D0000FD290ED9636C43F010036364012044E095
:102D1000EB00E7E70A23B0FBF5F04343E5E70022C9
:102D2000EDE7134322692168E568A069DFF87CC0FC
:102D300013430B62D4E9016346EA0302CF6942F40C
:102D400000622A43024307EA0C073A43CA61226A37
:102D5000012A1DD1124A6263124F134AB94218BFA9
:102D60004FF040222B43D16901EA0C01D1610221CD
:102D70001162D76943F40063034336F4007143EAF8
:102D8000070314BF00214FF480719BB20B43D36142
:102D900000200123606484F84130F8BDB72D02089B
:102DA00031310208003800400034004040F0FFFF9D
:102DB0007047704770471FB503689A68019290F892
:102DC0004120042A044636D1019AD10717D55A6802
:102DD000520614D5C26AD96822F8021BC262428E1A
:102DE000013A92B24286428E92B242B95A6822F0B9
:102DF00060025A60012380F84130FFF7DAFF019B3F
:102E0000590618D523685A68920614D55A6822F0D4
:102E100060025A6000220292DA6802929B68029372
:102E2000029B012384F84130636C43F00203636426
:102E30002046FFF7BFFF94F84130032B36D1019BAA
:102E40009B0719D522685368180615D5636A33F8AD
:102E5000021BD1606362638D013B9BB26385638D0E
:102E60009BB24BB9536823F0A0035360012384F84D
:102E700041302046FFF79CFF019B190716D52368B8
:102E80005A68920612D55A6822F0A0025A600022AF
:102E900003929B680393039B012384F84130636C86
:102EA00043F0040363642046FFF784FF04B010BDC1
:102EB000806B0D490268536823F0030353600B4B8A
:102EC0008A4218BF4FF040235A6822F003025A602A
:102ED000002343854386012380F84130436C43F04F
:102EE00008034364FFF766BF003800400034004029
:102EF0002DE9F341044690F84100C0B201280E4686
:102F0000154640F0AD8000295ED0002A5CD0002B31
:102F10005AD094F84020012A00F0A4806162216810
:102F200084F84000CA69E56202F00702032A01D072
:102F3000052A01D15B009BB22385D4F83CC0638590
:102F4000A06B23860022638605236264DFF828E1F4
:102F500084F84130444F454BCCF84C30CCF840E03D
:102F6000CCF83C70C364CB69DFF8088113F4807F30
:102F7000C0E90F7E39D13E4F238E41450CBF394603
:102F80004FF040212A460C316046FEF729FD2268A9
:102F9000A06B42450CBF39464FF040210C324B68C4
:102FA00043F001034B60238D3146FEF719FD236882
:102FB0005A6842F002025A60D86910F4806006D064
:102FC0000020002384F8403002B0BDE8F081434582
:102FD0000CBF39464FF04021CA6942F48062CA6191
:102FE000DA6942F48062DA61EBE7CB6903F440739B
:102FF000B3F5407F05D10192CB6801938B680193B3
:10300000019B1B4F238D41450CBF39464FF040219A
:1030100001F10C023146FEF7E3FC164E2168E06B2D
:10302000B1420CBF3A464FF040220C31536843F096
:1030300002035360238E2A46FEF7D2FC23685A68A7
:1030400042F001025A60D86910F48060B8D1B342EE
:1030500018BF4FF04027FA6942F48062FA61BFE777
:103060000220AEE70220AFE789300208B12E020845
:1030700000340040003800407F300208704708B537
:10308000806BFFF7FBFF08BD38B5C3690546002B11
:1030900041D1846BE36B834220D12368DA6902F467
:1030A0004072B2F5007F03D0DA6912F4407F06D196
:1030B0001D491E4A8B420CBF13464FF040235A68ED
:1030C00022F001025A6000236386638D9BB22BB904
:1030D000012384F84130204605F0D6FFA36BAB42B4
:1030E00019D12368DA6902F44072B2F5007F03D087
:1030F000DA6912F4407F0FD15A6822F002025A6056
:1031000000236385638E9BB22BB9012384F8413081
:10311000204605F0B9FF38BD0349044A8B420CBF75
:1031200013464FF04023E7E70038004000340040EA
:1031300010B502688E49936886B0044600938D4BA3
:103140008A4218BF4FF0402399680191516802915B
:1031500059680391416831F4007140F09380009BFD
:1031600099071AD5029B1B0617D5436A991C1B8821
:103170004162D360438D013B9BB24385438D9BB23B
:103180005BB9536823F0A0035360438E9BB223B90D
:10319000012380F8413005F077FF019BD80722D545
:1031A000039B59061FD52168714A724B914218BF83
:1031B0004FF04023E26AD968901CE0621180628E71
:1031C000013A92B26286628E92B262B95A6822F075
:1031D00060025A60638D9BB22BB9012384F84130A1
:1031E000204605F051FF019B5A0622D5039B9B0602
:1031F0001FD523685E495F4A8B4218BF4FF04022BB
:103200002046516821F0600151605A6822F0A00206
:103210005A6000220492DA6804929B680493049B2B
:10322000012384F84130636C43F002036364FFF7C9
:10323000C1FD009B180740F19880029B990640F160
:10324000948023684A495A6822F0A0025A60494A89
:103250008B4218BF4FF04022516821F0600151604D
:10326000002205929B680593059B012384F8413059
:10327000636C204643F00403636406B0BDE810406D
:10328000FFF798BD019A92071AD5039A110617D530
:10329000426A911C12884162DA60428D013A92B210
:1032A0004285428D92B25AB95A6822F0A0025A6001
:1032B000438E9BB223B9012380F8413005F0E4FE30
:1032C000009BDA071CD5029B5B0619D5E36A2268CE
:1032D000981CD168E0621980638E013B9BB26386C3
:1032E000638E9BB263B9536823F060035360638DB0
:1032F0009BB22BB9012384F84130204605F0C4FE6F
:10330000009B58061BD5029B990618D522681849C0
:10331000536823F060035360164B8A4218BF4FF086
:10332000402320465A6822F0A0025A60012384F804
:103330004130636C43F002036364FFF73BFD019B84
:103340001A0712D5039B9B060FD522680849094B23
:103350008A4218BF4FF04023596821F0A0015960FC
:10336000536823F0600353607FE706B010BD00BFD1
:10337000003800400034004038B50446D8B1036836
:103380004CF6CC421A6045F255521A6042685A60B7
:1033900082689A60FEF70EF805462368D86818B967
:1033A0004AF6AA221A6038BDFEF704F8401B3028FE
:1033B000F3D90320F7E70120F5E7F0B504468BB019
:1033C00060B390F8BD33056803F0FF021BB980F8C5
:1033D000BC2309F075FA032384F8BD33EB6B254653
:1033E00013F4807355F8100B08BF236102F060F8E6
:1033F0000FCD6E460FC60FCD0FC695E8030086E8C9
:1034000003002546271D97E80E0055F8100B01F024
:1034100095FF064620B1022384F8BD33012550E014
:103420000146206802F04AF83046D4F804C01C2651
:103430004FF0010E0146C2B2944500F101001CD8C4
:1034400000231C261946D8B2844503F1010322D873
:103450000FCD6E460FC60FCD0FC695E8030086E868
:10346000030097E80E00206802F06AF80123054681
:1034700000B3022284F8BD23D0E706FB0243C3E970
:10348000111183F83DE083F83C20A3F8422083F833
:103490003F101965CFE706FB004282F8FD1182F864
:1034A000FC0182F8FF11C2F80412C2F80812C2F837
:1034B0001012C8E784F8380084F8BD33206802F0A1
:1034C00073FB28460BB0F0BD90F8BC33012B10B550
:1034D000044616D00123006884F8BC33A36A012B8C
:1034E00006D1A369012B1EBF836B43F48033836332
:1034F00002F04EFB206801F0D5FF002084F8BC03E9
:1035000010BD0220FCE700002DE9F04F056887B0F0
:103510000446284602F083FB0290002840F02181F7
:10352000206802F04DFB002800F01B81206802F0AB
:1035300047FB820748BF2268206842BF536903F0F7
:103540000203536102F03CFBC3062AD5226893694B
:1035500023F0100393612E6AC6F34343022B06F057
:103560000F0840F0018147F6F0731E4214D01C276B
:1035700007FB0847C6F30A163246D7F80812284652
:1035800002F094FAD7F808323344C7F80832D7F873
:1035900014321E44C7F814622268936943F0100382
:1035A0009361206802F00CFB070300F1EC802068B7
:1035B00002F006FB46030BD5206802F00DFB264601
:1035C0008246002705F51069BAF1000F40F08981A5
:1035D000206802F0F5FA002815DAD5F8043823F04F
:1035E0000103C5F8043894F8F433012B40F0148239
:1035F000002184F8F413204600F099FB22685369F7
:1036000003F000435361206802F0DAFA01050BD59C
:10361000D5F80838DA0702D5204609F0C1F9226842
:10362000536903F400635361206802F0C9FAC304CC
:1036300035D505F500667368206823F001037360D3
:10364000102101F053FF606805F510634FF67F31DC
:10365000029A904240F0E481F36943F00113F36170
:10366000236B002B00F0F881D6F8843043F00B0375
:10367000C6F88430736C43F00B037364D5F80038DC
:10368000217C206823F4FE63C5F8003804F57172CC
:1036900002F0DAFA2268536903F480535361206818
:1036A00002F08EFA870416D5206802F0BCFA206872
:1036B00002F000F8E060256800F0A8FD227B0146DA
:1036C000284601F07BFE204609F057F9226853692D
:1036D00003F400535361206802F072FA060707D51D
:1036E000204609F046F92268536903F00803536144
:1036F000206802F065FAC50208D50021204609F0CD
:103700006FF92268536903F480135361206802F053
:1037100057FA800208D50021204609F05DF9226899
:10372000536903F400135361206802F049FA410021
:1037300007D5204609F058F92268536903F0804301
:103740005361206802F03CFA42070AD523685D689D
:103750006B0702D5204609F04BF9226853682B43CA
:10376000536007B0BDE8F08F062B7FF415AF082239
:1037700004F5717128461C2702F098F907FB0847E9
:10378000C6F30A1603E72068DFF8E492DFF8E4B234
:1037900002F01AFA00268046B8F1000F3FF407AF96
:1037A00018F0010F61D05FFA86FA5146206802F0E6
:1037B0001BFA0746F8071CD5730105F530621A4459
:1037C00020680121916000F530622169D0F840C085
:1037D000134401299A686DD1110706D5CC4508D943
:1037E000100406D54FF4004202E0910641D5202294
:1037F0009A60380720D5730105F530621A44082114
:1038000091602268D2F840A002F530621344CA45A4
:103810009A6804D9110444BF4FF400429A602046CC
:1038200009F090F8CA4507D92169012904D104F5A6
:103830007172206802F008FAFA0641BF05F530639C
:1038400003EB461310229A60BB0641BF05F53063B7
:1038500003EB461320229A60B80441BF05F530639C
:1038600003EB46134FF400529A6001364FEA5808B2
:1038700092E712F0280FBCD1CC4501D91204B1D483
:103880001C2202FB06421B69D2F80412C3F3120386
:10389000CB1AC2F81432D2F808321944C2F808120E
:1038A00086B9D4F810326BB904F57172012102F0B7
:1038B000CBF907E0DC450AD1110493D4920601D577
:1038C00020229A605146204609F042F891E7002EE6
:1038D000F8D1D4F81032002BF4D104F571723146CE
:1038E000E5E71AF0010F74D05FFA87FB59462068AC
:1038F00002F083F910F0010F804620D0D5F834385B
:103900002169012007F00F0200FA02F223EA020304
:10391000C5F8343809EB4713814298600BD1D6E9DA
:1039200011231344B36437B9236D23B904F57172BD
:10393000206802F089F95946204609F012F818F07B
:10394000080F1EBF09EB471308229A6018F0100FEA
:103950001EBF09EB471310229A6018F0400F1EBFDC
:1039600009EB471340229A6018F0020F1EBF09EBC3
:10397000471302229A6018F0800F2AD0D6E9143239
:103980009A4226D89B1A726C21680391934228BFF1
:10399000134603339B08049301F5106303EB4713AD
:1039A0000593059B0498996989B28142D6E914323E
:1039B00014D293420DD8039B07F00F0203F5006B5E
:1039C0000121D3F8343801FA02F223EA0203CBF8DA
:1039D000343001374FEA5A0A1C36F5E59342EAD9EA
:1039E000002BE8D0A3EB0208736C0398984528BF1E
:1039F000984608F103039B080493237C00935A46DE
:103A00001FFA88F3B16C01F065FFB36C4344B364F3
:103A1000736D43447365C4E7204608F0D9FFEDE5B4
:103A200099601A6822F400121A601A6842F0006263
:103A30001A60C3F80812D3F8002222F40012C3F867
:103A40000022D3F8002242F00062C3F80022029A5A
:103A5000013202922033FBE5736943F4005343F0D3
:103A60002B037361336943F00B03336106E600BF38
:103A70000A30544F0A31544F90F8BC23012A10B534
:103A800004460BD0012280F8BC2384F8381000686B
:103A900002F06EF8002084F8BC0310BD0220FCE7A1
:103AA00070B501F00F05044611F0800FC5EBC5009D
:103AB0004FEA80004FF01C061FD006FB054600F1C0
:103AC0003C010120214486F83D008A604A780D704F
:103AD000CB7002B1CD80022B04BF00230B7194F890
:103AE000BC33012B12D0012384F8BC33206801F0D1
:103AF000ECFD002084F8BC0370BD06FB054600F514
:103B0000FE710020214486F8FD01DEE70220F3E784
:103B100010B5044601F00F00C0EBC00311F0800F98
:103B20004FEA83034FF01C0216D002FB004203F160
:103B30003C010123214482F83D30087094F8BC33E5
:103B4000012B12D0012384F8BC33206801F0FCFD66
:103B5000002084F8BC0310BD02FB004203F5FE7197
:103B60000023214482F8FD31E7E70220F3E738B56E
:103B700001F00F051C2404FB050104FB050401F5FD
:103B8000FE71C4F810320023C4F80822C4F81432BD
:103B900084F8FD3184F8FC5103690068012B08BFEB
:103BA000C4F80C22DAB21DB901F020FE002038BDA5
:103BB00001F0A4FEFAE71C2301F00F0103FB010151
:103BC000D1F81402704738B501F00F051C2404FB2E
:103BD000050104FB05043C312365002363650123D3
:103BE000A26484F83D3084F83C5003690068012BDE
:103BF00008BFE264DAB21DB901F0F8FD002038BD5B
:103C000001F07CFEFAE738B5436801F00F059D42EC
:103C100004462ED811F0800F4FF01C021FD002FB7B
:103C2000050102FB050301223C3381F83D200122FE
:103C30009A701D7094F8BC1391421CD084F8BC2378
:103C40001946206801F040FF2DB904F57172217CFE
:103C5000206801F0F9FF002084F8BC0338BD02FBA6
:103C6000010302FB0101002203F5FE7381F8FD212F
:103C7000DDE70120F2E70220F0E738B5436801F004
:103C80000F029A4204462AD8C2EBC20311F0800FF9
:103C90004FEA83034FF01C0018D000FB024003F1F1
:103CA0003C010123214480F83D3000258D700A70CD
:103CB00094F8BC33012B14D0012384F8BC33206862
:103CC00001F02DFF84F8BC53284638BD00FB0240AC
:103CD00003F5FE710023214480F8FD31E5E7012062
:103CE000F3E70220F1E7006870B51204446A19B9DD
:103CF00022438262002070BD836A4D1E04EB134490
:103D000000235E1CDBB29D4205D83F3100EB8100F1
:103D100022434260EEE7403300EB83035B6804EB31
:103D200013443346EDE7036800205962704770473B
:103D30002DE9F341044608B901203FE00368DD079F
:103D400010D4236898075AD423681A0700F19C807E
:103D500023685B0700F1BA80A069002840F01B814E
:103D600000202BE0A74B9A6802F00C02042A07D02F
:103D70009A6802F00C02082A0AD15B68590207D53A
:103D8000A04B1B689A03DCD56368002BD9D1D3E71D
:103D900063689C4DB3F5803F13D12B6843F48033A7
:103DA0002B60FDF707FB974D06462B689B03C8D495
:103DB000FDF700FB801B6428F7D9032002B0BDE8A3
:103DC000F081B3F5A02F04D12B6843F480232B603E
:103DD000E3E72A6822F480322A602A6822F48022EB
:103DE0002A60002BDDD1FDF7E5FA06462B689F031C
:103DF000A7D5FDF7DFFA801B6428F7D9DDE7814BF3
:103E00009A6812F00C0F07D09A6802F00C02082A88
:103E100011D15B685E020ED47A4B1A68950702D501
:103E2000E268012A88D11A68216922F0F80242EA80
:103E3000C1021A6088E7E268734BB2B101221A60CE
:103E4000FDF7B8FA6F4D06462B68980707D52B6823
:103E5000226923F0F80343EAC2032B6074E7FDF7FD
:103E6000A9FA801B0228EFD9A7E71A60FDF7A2FA8A
:103E7000644D06462B6899077FF566AFFDF79AFA01
:103E8000801B0228F6D998E76269604B7AB101225B
:103E90001A60FDF78FFA5B4D06466B6F9F073FF583
:103EA00057AFFDF787FA801B0228F6D985E71A601D
:103EB000FDF780FA534D06466B6F98077FF548AFC4
:103EC000FDF778FA801B0228F6D976E74D4B1A6C7D
:103ED00012F0805228D101921A6C42F080521A647A
:103EE0001B6C03F080530193019B0126484D2B6806
:103EF000D9051BD5A368434D012B27D12B6F43F068
:103F000001032B67FDF756FA3E4D074641F288380C
:103F10002B6F9B0739D5002E3FF41EAF394A136C27
:103F200023F08053136417E70026DFE72B6843F480
:103F300080732B60FDF73EFA07462B68DA05D9D46B
:103F4000FDF738FAC01B0228F7D936E7052B04D154
:103F50002B6F43F004032B67D0E72A6F22F0010296
:103F60002A672A6F22F004022A67002BCAD1FDF7C4
:103F700021FA41F2883807462B6F9807CBD5FDF719
:103F800019FAC01B4045F7D917E7FDF713FAC01B14
:103F90004045BDD911E71B4DAB6803F00C03082B5E
:103FA00047D01C4E00230228336035D1FDF702FABA
:103FB00007462B6899011ED4D4E907321343626A7D
:103FC00043EA8213E26A43EA0263A26A0D4C520892
:103FD000013A43EA02436B6001233360FDF7EAF9DB
:103FE000054623689A013FF5BBAEFDF7E3F9401B98
:103FF0000228F6D9E1E6FDF7DDF9C01B0228D8D981
:10400000DBE600BF0038024000004742800E474216
:104010000070004060004742FDF7CCF904462B6871
:104020009B017FF59DAEFDF7C5F9001B0228F6D96F
:10403000C3E601283FF4C2AE6868E36900F4800279
:104040009A427FF479AE226A00F03F0393427FF4F4
:1040500073AE626A47F6C073034093427FF46CAE5E
:10406000A26A00F4403393427FF466AEE36A00F044
:104070007060C01A18BF0120A0E600BF134908B540
:104080008B6803F00C03042B03D0082B03D01048DB
:1040900000E0104808BD4A684B68496813F4800383
:1040A00014BF0C480A48C1F3881118BF002302F05E
:1040B0003F02A1FB0001FCF7F3F8044B5B68C3F37C
:1040C000014301335B00B0FBF3F0E3E7003802404B
:1040D0000024F40080C3C9012DE9F0410D460446D7
:1040E00010B90120BDE8F081434B1A6802F00F02BD
:1040F0008A4228D321688F072DD4C80740D43E4B6D
:104100001A6802F00F02AA4265D8226851076BD4E0
:10411000130707D5394A2169936823F4604343EABA
:10412000C1039360FFF7AAFF344B354A9B68C3F382
:104130000313D35CD840334B1860334B1868FDF73A
:1041400011F80020CEE7CAB21A701B6803F00F0303
:104150008B42C6D1CEE7294B11F0040F1EBF9A68DF
:1041600042F4E0529A600E0742BF9A6842F46042FD
:104170009A609A68A06822F0F00202439A60BCE755
:1041800062681E4B012A1CD11B6813F4003FA8D0A3
:104190001A4EB36823F003031343B360FDF70AF923
:1041A00041F288380746B368626803F00C03B3EB4A
:1041B000820FA4D0FDF7FEF8C01B4045F3D90320C1
:1041C00090E7911E01291B6802D813F0007FDEE7FB
:1041D00013F0020FDBE7EAB21A701B6803F00F035B
:1041E000AB427FF47EAF90E70449E0688B6823F42C
:1041F000E05303438B608BE7003C024000380240F1
:1042000053F302080000002008000020014B18684A
:10421000704700BF00000020044B054A9B68C3F3B1
:104220008223D35C034A1068D840704700380240AC
:1042300063F3020800000020044B054A9B68C3F3A7
:104240004233D35C034A1068D840704700380240BC
:1042500063F30208000000200F2303600B4B9A68F1
:1042600002F0030242609A6802F0F00282609A68EB
:1042700002F4E052C2609B68DB0803F4E053036180
:10428000034B1B6803F00F030B60704700380240BC
:10429000003C0240036813F0050FF7B5054605D151
:1042A000286810F0020028D103B0F0BD414C424E06
:1042B00000232360FDF77EF8074633681B0115D401
:1042C000D5E901231B0743EA8213C6F88430012392
:1042D0002360FDF76FF8384C064623681801DFD4D9
:1042E000FDF768F8801B0228F7D904E0FDF762F8B3
:1042F000C01B0228E1D90320D6E7002301932E4BEF
:104300002E4C1A6C42F080521A641B6C03F08053DE
:104310000193019B236843F480732360FDF74AF8FF
:1043200006462368D9051BD5234C236F13F440732D
:104330001CD1EB6803F44072B2F5407F1E4A34D1C1
:10434000916823F0704021F4F81120F4407001438B
:104350009160116FC3F30B030B4313670020A3E7B6
:10436000FDF728F8801B0228DBD9C4E7EA6802F4CD
:1043700040729342DDD0236F114A0121116023F472
:104380004073002111602367236FDA07D1D5FDF751
:1043900011F841F288370646236F9B07C9D4FDF711
:1043A00009F8801BB842F7D9A5E7916821F4F81104
:1043B000CEE700BF6800474200380240007000406E
:1043C000400E4742012820D1114B9A6812F4000296
:1043D00004D0012A0F4818BF002070475A680C49C2
:1043E00058685302D1F884204CBF0B4B0B4B00F0A4
:1043F0003F00B3FBF0F3D1F88400C2F388125343BB
:10440000C0F30270B3FBF0F070470020704700BFAC
:10441000003802400080BB0080C3C9010024F400C2
:1044200070B5414CFCF7C6FF236843F00103054615
:1044300023602368980758D5236843F080032360DE
:10444000FCF7B8FF0023A360374C054641F28836DD
:10445000A36813F00C0F4FD1FCF7ACFF236823F4D3
:1044600050232360304C0546236899034AD4FCF757
:10447000A1FF236823F0807323602B4C054623683B
:104480009A0145D4FCF796FF236823F080632360EC
:10449000254C054623681B0140D4244B6360244B04
:1044A000C4F88430E368234A23F4F853E360E368F4
:1044B00023F40053E360E36843F41F03E360E3681D
:1044C00043F40013E360636F23F001036367636FDA
:1044D00043F080736367184B1A60184B1868FCF739
:1044E00041FE003018BF012005E0FCF763FF401BD0
:1044F00002289ED9032070BDFCF75CFF401BB04230
:10450000A6D9F7E7FCF756FF401B6428ACD9F1E7C2
:10451000FCF750FF401B0228B1D9EBE7FCF74AFF3C
:10452000401B0228B6D9E5E70038024010300004ED
:10453000003000200024F4000000002008000020CB
:10454000F8B504460E4615461F4621688A6836EAC5
:10455000020301D000202DE06B1CF7D0FCF72AFFEE
:10456000C01B8542F1D823685A6822F0E0025A60E5
:104570006268B2F5827F0AD1A268B2F5004F02D01C
:10458000B2F5806F03D11A6822F040021A60A26A65
:10459000B2F5005F07D11A6822F400521A601A6857
:1045A00042F400521A60012384F85130002384F849
:1045B00050300320F8BD000073B51346124A134E65
:1045C00015684268B5FBF6F64FF47A757543B2F597
:1045D000827F044601950BD10A468021FFF7B0FF88
:1045E00078B1636D43F020036365032002B070BDB2
:1045F000019B33B1019B013B019323689B681B0620
:10460000F6D40020F2E700BF0000002000366E0163
:1046100010B50446002836D00023836290F851304C
:1046200003F0FF021BB980F85020FCF729FC216839
:10463000A269022384F851300B6823F040030B6019
:10464000D4E901300343E068034320690343606910
:104650000343E0690343206A0343A06A034302F46F
:10466000007003430B60120C636A02F004021A43E9
:104670004A60CB6923F40063CB61002001236065AD
:1046800084F8513010BD0120FCE72DE9F7431E46A8
:1046900090F850300A9F012B04460D46914600F0D9
:1046A000E280012380F85030FCF784FE94F851300A
:1046B0006168DBB2012B80460AD0B1F5827F40F001
:1046C000D080A068002840F0CC80042B40F0C98046
:1046D000002D00F0C480B9F1000F00F0C080002E62
:1046E00000F0BD8094F85130C4F83890042B1CBF02
:1046F000052384F8513000236365C4E9103323682F
:10470000E687E6861A68A687500658BF1A682563AA
:1047100058BF42F04002A68658BF1A60E268B2F560
:10472000006F58D109B1012E07D135F8022BDA609C
:10473000E38E2563013B9BB2E3860125E38E9BB2AA
:10474000ABB9E38F9BB293B9424639462046FFF797
:1047500033FF002840F08180A368002B32D123680A
:104760000190DA6801929B680193019B2AE022681C
:10477000936899070DD5E38E9BB253B14DB1236B6E
:1047800033F8021BD1602363E38E013B9BB2E386C7
:1047900000259368DB070CD5E38F9BB24BB1A36B6D
:1047A000D26823F8022BA363E38F013B9BB2E3871C
:1047B0000125FCF7FFFDA0EB08008742BED87E1C58
:1047C000BCD00320012384F85130002384F85030FA
:1047D00003B0BDE8F08309B1012E08D12A781A731D
:1047E000236B01332363E38E013B9BB2E3860125F8
:1047F000E38E9BB21BB9E38F9BB2002BA4D022683F
:10480000936898070ED5E38E9BB25BB155B1236BCD
:104810001B781373236B01332363E38E013B9BB23D
:10482000E386002522689368D9070DD5E38F9BB2F4
:1048300053B1A36BD2681A70A36B0133A363E38FE8
:10484000013B9BB2E3870125FCF7B4FDA0EB080018
:104850008742CDD87B1CCBD0B3E7202363650120F2
:10486000B0E70220AEE70220B2E70000036A23F0BF
:1048700001030362036A70B5446882690D6822F01F
:1048800073022A438D6823F002032B430E4DA84286
:1048900002D00E4EB04210D1CE6823F0080333434D
:1048A000A84223F0040302D0084DA84205D1D1E963
:1048B000055624F4407435432C43446082614A68B1
:1048C0004263036270BD00BF00000140000401406C
:1048D000036A23F480730362036A70B54468C26993
:1048E0000D6822F073022A438D6823F4007343EAB3
:1048F0000523114DA84203D005F58065A84214D1C7
:10490000CD6823F4006343EA05230B4DA84223F44A
:10491000806303D005F58065A84206D1D1E905562C
:1049200024F44054354344EA05144460C2614A68A3
:10493000C263036270BD00BF00000140036A23F43C
:1049400080530362036A30B54468C2690D6822F47B
:10495000E64242EA05228D6823F4005343EA053318
:10496000084DA84203D005F58065A84204D14D69E1
:1049700024F4804444EA85144460C2614A680264B5
:10498000036230BD0000014070470368DA6842F0FE
:104990000102DA609A6802F00702062A1EBF1A684E
:1049A00042F001021A60002070477047704770475C
:1049B000704703681A69910710B504460ED5DA6886
:1049C00092070BD56FF002021A619B6901229B07C7
:1049D000027777D0FFF7EAFF0023237723681A696D
:1049E000500710D5DA6851070DD56FF004021A612F
:1049F0009B69022213F4407F2277204668D0FFF79C
:104A0000D5FF0023237723681A6912070FD5DA68C8
:104A100010070CD56FF008021A61DB6904229907B0
:104A2000227720465AD0FFF7C1FF0023237723685F
:104A30001A69D20610D5DA68D0060DD56FF01002CB
:104A40001A61DB69082213F4407F227720464BD09D
:104A5000FFF7ACFF0023237723681A69D10708D535
:104A6000DA68D20705D56FF001021A612046FCF71B
:104A700085F823681A69100608D5DA68110605D585
:104A80006FF080021A61204600F001FA23681A696B
:104A9000520608D5DA68500605D56FF040021A6153
:104AA0002046FFF785FF23681A69910622D5DA6848
:104AB00092061FD56FF0200220461A61BDE8104013
:104AC00000F0E4B9FFF771FF2046FFF770FF83E7BE
:104AD000FFF76BFF2046FFF76AFF92E7FFF765FFDE
:104AE0002046FFF764FFA0E7FFF75FFF2046FFF7D0
:104AF0005EFFAFE710BD0000304A0368904212D05D
:104B0000B0F1804F0FD0A2F57C4290420BD002F55D
:104B10008062904207D002F58062904203D002F595
:104B20007842904219D14A6823F070031343234A14
:104B3000904229D0B0F1804F26D0A2F57C4290421D
:104B400022D002F5806290421ED002F5806290422F
:104B50001AD002F57842904216D0194A904213D0EA
:104B600002F5806290420FD002F5806290420BD035
:104B7000A2F59832904207D002F58062904203D0AD
:104B800002F58062904203D1CA6823F44073134354
:104B90004A6923F08003134303608B68C3620B6888
:104BA0008362064B984203D003F58063984201D19B
:104BB0000B69036301234361704700BF000001409C
:104BC0000040014010B50446A0B190F83D3003F01C
:104BD000FF021BB980F83C20FFF7D6FE022384F8C1
:104BE0003D302068211DFFF787FF012384F83D3009
:104BF000002010BD0120FCE710B50446A0B190F8DC
:104C00003D3003F0FF021BB980F83C20FCF7F8F9B7
:104C1000022384F83D302068211DFFF76DFF01233A
:104C200084F83D30002010BD0120FCE7036A23F02A
:104C300010030362036A70B5446882690D6822F448
:104C4000E64242EA05228D6823F0200343EA051379
:104C5000104DA84203D005F58065A84214D1CD6857
:104C600023F0800343EA05130A4DA84223F04003D2
:104C700003D005F58065A84206D1D1E9055624F494
:104C80004064354344EA8504446082614A68826333
:104C9000036270BD0000014038B590F83C30012B34
:104CA00004464FF0020025D0012384F83C3084F8FC
:104CB0003D000C2A18D8DFE802F0071717171E1757
:104CC00017172F17171740002068FFF7CFFD23682D
:104CD00009699A6942F008029A619A6922F004020D
:104CE0009A619A690A439A610123002084F83D3051
:104CF00084F83C0038BD2068FFF798FF23680969F5
:104D00009A6942F400629A619A6922F480629A6117
:104D10009A6942EA0122E6E72068FFF7D9FD236895
:104D20000969DA6942F00802DA61DA6922F00402FC
:104D3000DA61DA690A43DA61D6E72068FFF7FEFD37
:104D400023680969DA6942F40062DA61DA6922F4F7
:104D50008062DA61DA6942EA0122ECE7036A01F073
:104D60001F0110B501248C4023EA04030362036A87
:104D70008A401A43026210BD10B504460122006841
:104D8000FFF7ECFF23680B4A934203D002F58062E1
:104D9000934203D15A6C42F400425A649A6802F07A
:104DA0000702062A1EBF1A6842F001021A6000209C
:104DB00010BD00BF00000140FFF7DEBF036A01F035
:104DC0001F0110B504248C4023EA04030362036A24
:104DD0008A401A43026210BD10B5044604220068DE
:104DE000FFF7ECFF23685A6C42F400425A649A6859
:104DF00002F00702062A1EBF1A6842F001021A607A
:104E0000002010BDFFF7E8BF90F83C30012B30B513
:104E10004FF0020335D080F83D3003680D685C68C0
:104E200024F0700401222C4380F83C209A685C60D6
:104E3000154CA3421AD0B3F1804F17D0A4F57C448F
:104E4000A34213D004F58064A3420FD004F580641C
:104E5000A3420BD004F57844A34207D004F5705464
:104E6000A34203D0A4F59434A34204D1496822F0AC
:104E700080020A439A60012380F83D30002380F8C5
:104E80003C30184630BD00BF0000014070477047FD
:104E90000368DA6822F49072DA605A6922F001023B
:104EA0005A61202380F83A30704700000368C168D7
:104EB0001A6970B522F4405204460A431A61256902
:104EC000A268D968C0692A43656921F416412A435A
:104ED00021F00C0102430A43DA605A69A16922F405
:104EE00040720A43B0F5004F5A61264A29D19342D5
:104EF00003D002F58062934220D1FFF79DF96268EA
:104F0000002692184FF0190146EB0603A0FB0101A1
:104F1000FBF7C6F96421B0FBF1F501FB1503DB00DB
:104F20003233B3FBF1F303F007025B00216802EBBD
:104F3000051203F4F87313448B6070BDFFF76CF92E
:104F4000DDE7934202D0104A934217D1FFF774F97C
:104F5000636819219A00A0FB01019B0FFBF7A0F9E0
:104F60006422B0FBF2F102FB110324681B0132330F
:104F7000B3FBF2F303EB0113A360DEE7FFF74CF999
:104F8000E6E700BF0010014000140140F8B50446F8
:104F90000E4617461D4621680B6836EA030301D109
:104FA000002014E06B1CF7D095B92368DA6822F46E
:104FB000D072DA605A6922F001025A61202384F823
:104FC000393084F83A30002384F838300320F8BDB3
:104FD000FCF7F0F9C01B8542DDD2E6E710B50446C8
:104FE00040B390F8393003F0FF021BB980F8382045
:104FF000FCF748F82268242384F83930D36823F476
:105000000053D3602046FFF751FF23681A6922F44A
:1050100090421A615A6922F02A025A61DA6842F40F
:105020000052DA6000202023E06384F8393084F8ED
:105030003A3010BD0120FCE72DE9F8431F4690F8F7
:105040003930202B04460D4690464FD100294BD0D5
:10505000002A49D090F83830012B47D0012380F83E
:1050600038304FF000092123C0F83C9080F83930E7
:10507000FCF7A0F9A4F824800646A4F8268084F85A
:105080003890E38C9BB253B93B46324640212046D0
:10509000FFF77CFF98B9202384F8393010E0E38CC7
:1050A000013B9BB2E384A368B3F5805F32463B4685
:1050B0004FF0800120460ED1FFF768FF10B10320AA
:1050C000BDE8F8832B882268C3F308035360236983
:1050D00043B90235D5E7FFF759FF0028EFD1236820
:1050E0002A785A600135CCE70120E9E70220E7E79A
:1050F00090F83A30202B20D1E9B1E2B190F8383065
:10510000012B1AD0C285828500232222C36380F836
:105110003A2002688162D16880F8383041F48071A9
:10512000D160516941F001015161D16841F0200124
:10513000D1601846704701207047022070477047C1
:1051400090F83A30222B10B533D181680469836A14
:105150000268B1F5805F23D15268ECB9C2F308024E
:1051600023F8022B8362C48D013CA4B2C4858CB9A0
:105170000368DA6822F02002DA60DA6822F48072CA
:10518000DA605A6922F001025A61202380F83A302D
:1051900006F0ECFA00200DE0D2B223F8012BE1E793
:1051A000591C526881620CB91A70DCE702F07F0268
:1051B000FAE7022010BD704703681A68D96870B515
:1051C000160704465D6907D196065AD58D0658D54F
:1051D000BDE87040FFF7B4BF15F0010502D111F42E
:1051E000907F4ED0D00705D5CB0542BFE36B43F08F
:1051F0000103E363560704D51DB1E36B43F00203DB
:10520000E363900704D51DB1E36B43F00403E3634C
:10521000130706D58E0600D41DB1E36B43F00803D7
:10522000E363E36B43B3950604D5880602D52046B5
:10523000FFF786FF23685D69E26B1107204602D401
:1052400015F0400519D0FFF723FE23685A6952066E
:105250000FD55A69606B22F040025A6148B1264B63
:105260000365FCF7F7FB38B1606BBDE87040036D78
:1052700018472046FFF79FFF70BDFFF79CFFE563CF
:10528000FAE7160628D50D0626D594F83920212AE6
:10529000F2D1A168226AB1F5805F18D11188C1F3FB
:1052A00008015960216981B902322262E28C013A17
:1052B00092B2E284002ADFD1DA6822F08002DA605A
:1052C000DA6842F04002DA60D6E70132EDE7511CBD
:1052D000216212785A60E9E75006CDD54A06CBD54F
:1052E000DA6822F04002DA60202384F83930204660
:1052F000FFF725FFC0E700BFFD52020808B5806B2D
:105300000023C385C384FFF756FF08BD0A4B013B4A
:105310000FD00269002AFADA0369074A43F0010351
:105320000361013A05D0036913F00103F9D118466E
:1053300070470320704700BF410D030084B038B5AB
:1053400005AD85E80E000A9B012B044625D1836B31
:1053500023F480338363C36823F4840323F040037E
:10536000C360C36823F44013C360119B012B02BFC9
:10537000C36843F48013C360FFF7C8FF089B012B89
:1053800007D1A36843F00603A360A36843F020039A
:10539000A360BDE8384004B07047C36843F04003E1
:1053A000C360FFF7B3FF0E9B23B9A36B43F48033B5
:1053B000A363E3E7A36B23F48033F9E7022A58D110
:1053C0002E4B2F4A0B44934247D92E4B2E4A0B4467
:1053D000934244D9A1F574032C4AA3F51053934288
:1053E0003FD9A1F1837302F5C332A3F5E743A0329D
:1053F000934238D9264B274A0B44934235D9264B42
:1054000002F592220B4402F5787293422FD9234B76
:1054100002F5C3220B4402F52072934229D9A1F16F
:10542000B77302F5B712A3F5585302F558729342B9
:1054300021D91B4B02F512220B4402F5F86293426C
:1054400094BF07230623C26822F47052C260C26868
:1054500042EA8323C360002070470F23F3E70E2343
:10546000F1E70D23EFE70C23EDE70B23EBE70A232E
:10547000E9E70923E7E70823E5E700BF405327FFF3
:10548000FF340C00401E1BFF3F420F007F4F1200F5
:1054900060B6E5FE5FE3160000D3CEFEC05BB3FE50
:1054A000E05459FE836843F0010383600020704795
:1054B000836823F0010383600020704708B5C36848
:1054C000012923F0C043C36008D1C36843F00053EF
:1054D000C3603220FBF774FF002008BD19B9C36810
:1054E00043F08043F4E70120F7E70000890141F031
:1054F0002001064A0161013A05D0036913F0200337
:10550000F9D1184670470320704700BF410D0300D2
:105510001023064A0361013A05D0036913F0100312
:10552000F9D1184670470320704700BF410D0300B2
:10553000D0F800381943C0F8001800207047000068
:1055400084B02DE9F843044609A880E80E00002342
:10555000139D0F46194603F1400204EB820201330A
:105560000F2B5160F7D104F50066002D6CD17368E4
:1055700043F002037360A36B43F40013A363A36BB4
:1055800023F40023A363A36B23F48023A3630023EA
:10559000C4F8003ED4F80038C4F800380E9B012B44
:1055A0005CD10B99002957D12046FFF7C1FF10218C
:1055B0002046FFF79BFF01462046FFF7A9FF002882
:1055C0004ED1081C18BF01200023336104F510627E
:1055D00073611946F3614FF0904C4FF0006E4FF637
:1055E0007F38BB423ED1002104F530620F464FF0B8
:1055F000904C4FF0006E4FF67F388B4245D13369A7
:1056000023F4807333610023A3616FF080436361EF
:105610000C9B1BB9A36943F01003A361A269244B3F
:105620001343A3610F9B1BB1A36943F00803A3615C
:10563000012D01BFA36943F0804343F00403A3613C
:10564000BDE8F84304B07047A36B23F40013A363D1
:10565000A36B43F4002399E71946A5E70321A3E7C9
:105660000120B1E7D2F80090B9F1000F0BDA3BB995
:10567000C2F800E011610133C2F808802032B0E7BF
:10568000C2F800C0F6E71160F4E7D2F80090B9F173
:10569000000F0BDA39B9C2F800E017610131C2F826
:1056A00008802032A9E7C2F800C0F6E71760F4E7E7
:1056B00000383C80D0F8083813F0060004D013F00E
:1056C000020F14BF02200F20704730B50D7801245F
:1056D00005F00F039C404B7800F50062012B00EBB6
:1056E0004510D36918D11C43D461D0F800391A048D
:1056F00010D48B68C978D0F80029C3F30A0343F0AB
:10570000805343F4004343EA814343EA8553134300
:10571000C0F80039002030BD43EA0444D461D0F819
:10572000003B1B04F6D48B68C978D0F8002BC3F378
:105730000A0343F0805343F4004343EA8143134395
:10574000C0F8003BE6E7000010B50A784978012967
:1057500000EB421302F00F0100F5006020D1D3F8F6
:105760000029002A0BDAD3F8002942F00062C3F8BE
:105770000029D3F8002942F08042C3F80029012211
:10578000C46B8A40D2431440C463C1690A40C261F9
:10579000D3F80019134A0A40C3F80029002010BDAD
:1057A000D3F8002B002A0BDAD3F8002B42F000626A
:1057B000C3F8002BD3F8002B42F08042C3F8002B33
:1057C0004FF48032C46B8A40D2431440C463C16931
:1057D0000A40C261D3F8001B034A0A40C3F8002BF9
:1057E000DCE700BF007833EC0078F3EF4B78F0B5DE
:1057F0000C784D69354E364F012B00EB441444D1E3
:1058000004F51063B5B91D692E401E611D6945F48C
:1058100000251D611D692F401F61012A21D10A69E0
:1058200002B15A61D4F8003943F00443C4F8003996
:105830000020F0BDD3F810C00CEA07071F611F69F4
:105840003E401E618E68AE421D6938BF4E6145F410
:1058500000251D614D691E69C5F3120535431D61A3
:10586000DBE7D4F8003943F00443C4F800394B694E
:10587000002BDDD00B78D0F8344803F00F02012361
:1058800093402343C0F83438D2E704F530631869F5
:1058900038401861186930401861886805B148615E
:1058A0001D6945F400251D611D69C0F312002843E0
:1058B000012A186102D1CA6802B15A61D4F8003BCA
:1058C00043F00443C4F8003BB2E700BFFFFF07E02A
:1058D0000000F8FF10B59DF808404CB9033300EB09
:1058E00002309B0800F5805001EB8303994201D1FF
:1058F000002010BD51F8042B0260F7E7F7B54D7892
:105900000C784B69CE78DFF89CC1DFF89CE1012D63
:1059100000EB44147CD104F510652F693BBB07EA0A
:105920000C072F612F6947F400272F612F6907EAC1
:105930000E072F61012A41D10B6903B16B61012E62
:105940000CD1D0F8083813F4807FD4F800390CBF9C
:1059500043F0005343F08053C4F80039D4F80039C1
:1059600043F00443C4F80039002003B0F0BD07EA57
:105970000E072F612F6907EA0C07D1F808C02F61C5
:105980000CEB0307013FB7FBFCFC454FD5F810E0DB
:1059900007EACC4747EA0E072F61D5F810C0C3F3DA
:1059A000120747EA0C07012E2F61C3D12F6927F098
:1059B000C0472F612F6947F00057BAE7D4F8005964
:1059C000012E45F00445C4F800590CD0002BCBD073
:1059D0000B78D0F8344803F00F020123934023439F
:1059E000C0F83438C0E7D0F8085815F4807FD4F8F0
:1059F00000590CBF45F0005545F08055C4F80059DA
:105A00000C7800929BB22246C968FFF763FFABE7B0
:105A100004F530673D6905EA0E053D613D6905EA1B
:105A20000C053D618D681BBB3B69C5F312051D4329
:105A30003D613B6943F40023012A3B6102D1CB68FD
:105A400003B17B61012E0CD1D0F8083813F4807FAC
:105A5000D4F8003B0CBF43F0005343F08053C4F82C
:105A6000003BD4F8003B43F00443C4F8003B7BE721
:105A7000DFF82CC0D7F810E02B44013BB3FBF5F363
:105A80000CEAC34C4CEA0E0CC7F810C09BB2D7F816
:105A900010C06B43C3F3120343EA0C03CCE700BF0F
:105AA0000000F81FFFFF07E00000F8FF0332920834
:105AB00001EB820200F58050914201D10846704707
:105AC000036841F8043BF7E74A780B78012A00EBBA
:105AD000431012D1D0F80029002A06DB2BB1D0F8F0
