:020000040800F2
:1000000000C00020C50D00086D0C0008710C000830
:10001000750C0008790C00087D0C00080000000039
:10002000000000000000000000000000810C00083B
:10003000850C000800000000890C00088D0C0008E9
:100040000D0E00080D0E00080D0E00080D0E000824
:100050000D0E00080D0E00080D0E00080D0E000814
:100060000D0E00080D0E00080D0E00080D0E000804
:100070000D0E00080D0E00080D0E00080D0E0008F4
:100080000D0E00080D0E0008910C00080D0E000862
:100090000D0E00080D0E00080D0E00080D0E0008D4
:1000A0000D0E00080D0E00080D0E00080D0E0008C4
:1000B000AD0C00080D0E00080D0E00080D0E000816
:1000C0000D0E00080D0E00080D0E00080D0E0008A4
:1000D0000D0E0008010D00080D0D0008190D000897
:1000E0000D0E00080D0E00080D0E00080D0E000884
:1000F0000D0E00080D0E00080D0E00080D0E000874
:100100000D0E00080D0E00080D0E00080D0E000863
:100110000D0E0008250D00080D0E00080D0E00083C
:100120000D0E00080D0E00080D0E00080D0E000843
:1001300000000000000000000000000000000000BF
:1001400000000000000000000000000000000000AF
:10015000000000000000000000000000000000009F
:10016000000000000000000000000000000000008F
:10017000000000000000000000000000000000007F
:10018000000000000000000000000000000000006F
:10019000000000000000000000000000000000005F
:1001A000000000000000000000000000000000004F
:1001B000000000000000000000000000000000003F
:1001C000000000000000000000000000000000002F
:1001D000000000000000000000000000000000001F
:0401E0005FF8E0F1F3
:1001E40010B5054C237833B9044B13B10448AFF36D
:1001F40000800123237010BD600200200000000075
:10020400C457000808B5034B1BB103490348AFF3B7
:10021400008008BD0000000064020020C4570008EC
:1002240010F8012B11F8013B012A28BF9A42F7D09C
:10023400D01A7047034613F8012B002AFBD1181A71
:100244000138704730B597B0002124220DA803F07F
:10025400E6FB00240122022510230CA8CDE910237B
:1002640001940694CDE90244CDE90444CDE9074460
:10027400CDE90944CDE90B4501F07EFC0F2321466D
:1002840001A80193CDE90244CDE9044401F06CFED8
:1002940006A80695089401F089FF17B030BD00BF89
:1002A4002DE9F04F00268BB000F0D4FDFFF7CAFF14
:1002B4000122CDE90666CDE90866C54B1746996962
:1002C4004FF0020841F01001996198694FF4005110
:1002D40000F01000009000989C69BE4844F020048F
:1002E4009C619C694FF4602B04F020040194019CF0
:1002F4009C694FF00C0944F004049C619C69B64D60
:1003040004F004040294029C9C69DFF814A344F0F2
:1003140008049C619B69B14C03F008030393039B9D
:1003240001F05CFB32464FF46271AA4801F056FBBF
:10033400324641F20101AA4801F050FB3A464146D7
:10034400A74801F04BFB3A462821A64801F046FB9A
:100354003246C021A34801F041FB42F2883306A98A
:100364009C48CDE90637CDF82480089601F014FAAC
:1003740044F2010306A997480693CDE9076601F004
:100384000BFA41F2030306A99548CDE90776CDF8A7
:100394002480069301F000FA302306A98D48CDE9A4
:1003A4000768069301F0F8F9032306A98D48CDE9FF
:1003B4000768069301F0F0F94FF4704306A98948E1
:1003C4000693CDE9076601F0E7F9E82306A9854815
:1003D400CDE90776CDF82480069301F0DDF9824B50
:1003E4002046236027732761C4F81CB0A6602675D5
:1003F4006660CDE90666089600F050FD204606A921
:10040400CDE90776CDF8189001F026F84FF4804234
:10041400764B7749774C184659601A611C60C3E9DA
:100424000266754CC3E90566C3E9076601F0E4FAA0
:10043400724B204623604FF4E133C4E904696360DE
:10044400C4E90266C4E9066602F0EAF94FF4164309
:100454006B4A28466B60C5E904692A60C5E90266EF
:10046400C5E9066602F0DCF9664A5046CAF81CB0D3
:100474008AF80C70CAF81070CAF80020CAF808602C
:100484008AF81460CAF80460CDE90666089600F09C
:1004940005FD0B22504606A9CDE90776069200F029
:1004A400DBFF4FF08040072140F2E732DFF874A110
:1004B400CDE90666CAF800005046CAF80410CAF826
:1004C4000C20CDE90866CDE90466CAF80860CAF8CC
:1004D4001060CAF8186001F06DFF4FF4805206A94D
:1004E4005046069202F002F804A95046CDE904668B
:1004F40002F056F94FF4E133434F444A3846C7E912
:100504000136C7E905963A60C7E90366FE6102F061
:1005140087F94FF41643DFF804B13D4A5846CBE956
:100524000136CBF80020CBE90596CBE90366DFF86A
:10053400F890CBF81C6002F073F9504601F0A2FF6A
:1005440003F0B4F92A4639465B46204603F0C6F95F
:1005540002F0B4FFD9F800303146986803F0F8FA95
:10056400D9F80030424631469868334603F0F8FA29
:1005740000F08EFC0146274803F05AFAB846264F8D
:1005840000F086FC064602F011FE02F0BBFF00F00C
:100594004DF800F053F800F069F800F0FBF800F0B3
:1005A4000FF900F09BF93B68F31AB3F57A7FE7DBA8
:1005B4003E6000F05DF9204603F032F9404603F056
:1005C4002FF9284603F02CF9144803F029F9D7E74A
:1005D4000010024000100140A0030020A4040020E9
:1005E40000080140000C01400024014010040020D8
:1005F400A086010000580040D404002000380140C7
:1006040000480040002801405C05002000440040F0
:1006140000500040205800087C02002064040020A0
:10062400E0030020140500209000002001224FF474
:100634008051014801F0D2B90008014008B52021D9
:10064400084801F0C5F930B9BDE80840012220216D
:10065400054801F0C3B90022BDE808402021024842
:1006640001F0BCB900100140000C014038B54FF452
:100674008041404801F0ACF900283CD140F68B237E
:100684003D4A12889A423D4A137824D9002B4AD015
:1006940002203B4C8342217852D041F28835394BB9
:1006A40010701D80022942D003292BD0012917D0B4
:1006B4000023012208213448237001F08FF901221C
:1006C4004021314801F08AF9BDE8384001228021F7
:1006D4002D4801F083B973BB0123294913700B70B2
:1006E4002A4B1A8832BB4FF4FA72082126481A8022
:1006F40001F078F9E3E7214A137853BB0323204937
:1007040013700B70012208211F4801F067F90122C0
:1007140040211D4801F062F9BDE8384000228021E3
:10072400194801F05BB90223154913700B70184B7B
:100734001A8882B138BD0120114C83422178ACD192
:10074400994214D00F4A1288002AABD1237019465B
:10075400A8E703209DE74FF4FA7408210A481C8097
:1007640001F03CF94021084801F03CF9ACE7194696
:1007740098E700BF00100140880200209802002082
:100784008402002096020020000C01409402002004
:100794009202002010B51021074801F019F9021E39
:1007A40016BF0124002401224FF40071024801F015
:1007B40015F9024B1C7010BD00100140830200208B
:1007C40010B50221244801F003F948B10123234C58
:1007D400234922780B70B2B1224B1A780ABB10BDA0
:1007E4001E4C1F4922780346087022BB1D4B1A7801
:1007F400002AF4D00024802122461C701A48BDE847
:10080400104001F0EBB81A4680211748237001F01C
:10081400E5F84FF4FA72154B1A80124B1A78002A35
:10082400DDD0002401221C704FF48071BDE810401B
:100834000D4801F0D3B802464FF480710A48237082
:1008440001F0CCF84FF4FA72084B1A80054B1A7871
:10085400002AC4D0CEE700BF000C01408202002071
:100864008002002081020020001001408602002046
:1008740038B5144D2B8801332B8002F061FA012125
:100884000446114801F0A4F888B1553CA4B20F4BBA
:100894002A881968B2F57A7F0C441C6006D3B4FB2D
:1008A400F2F400220A492A800C801A6038BD094BF0
:1008B4001B780BB14B34A4B20221074801F088F82D
:1008C400E5E700BF90020020001001408C020020E8
:1008D4008802002083020020000C0140704700BF02
:1008E4000E4B82B09A690E4942F001029A619A69EC
:1008F40002F001020092009ADA6942F08052DA6151
:10090400DB6903F080530193019B4B6823F0E063A0
:1009140043F080634B6002B0704700BF0010024098
:100924000000014030B500240368254A89B0934291
:10093400CDE90444CDE9064429D0224A934201D0AA
:1009440009B030BD022003251F4B04A99A6942F463
:1009540080629A619A6902F480620292029A9A69A8
:1009640042F010029A619B69049003F01003039310
:100974001648039B059500F00FFF224621461220DE
:1009840000F00EFE122000F041FE09B030BD04203C
:100994000D4B03259A6904A942F400729A619A697D
:1009A40002F400720092009A9A6942F010029A616D
:1009B4009B69049003F0100301930448019BD9E759
:1009C40000240140002801400010024000100140B2
:1009D400002330B50168154A87B09142CDE902334E
:1009E400CDE9043301D007B030BD4FF44060032299
:1009F40012250F4C02A9A36943F00803A361A3695C
:100A0400029003F0080300930A48009B03950592A3
:100A140000F0C2FEE36943F48003E361E36903F495
:100A240080030193019B07B030BD00BF0058004014
:100A340000100240000C01400368B3F1804F00D065
:100A44007047002203F5043310B5DC6982B044F02A
:100A54000104DC61DB69114603F0010301931C20EE
:100A6400019B00F09DFD1C2002B0BDE8104000F089
:100A7400CDBD00BF70B500240368724A8EB09342A6
:100A8400CDE90A44CDE90C4445D06F4A93427BD06A
:100A94006E4A934200F0A9806D4A934201D00EB091
:100AA40070BD4FF48061022603256A4B6A48DA69F7
:100AB40042F48022DA61DA6902F480220892089A08
:100AC4009A6942F010029A619B690A9103F010033B
:100AD40009930AA9099B0B960D9500F05DFE4FF44E
:100AE40000630AA95C480A93CDE90B4400F054FE64
:100AF4005A4822464368214623F0300343F0E0631A
:100B040043F010034360272000F04AFD272000F043
:100B14007DFD0EB070BD4FF48051022603254D4B70
:100B24004D48DA6942F48012DA61DA6902F480121B
:100B34000192019A9A6942F010029A619A6902F04C
:100B440010020292029A9A6942F020029A619B6909
:100B54000A9103F0200303930AA9039B0B960D95B6
:100B640000F01AFE04230AA93D480A93CDE90B4478
:100B740000F012FE22462146352000F011FD3520FA
:100B840000F044FD0EB070BD4FF400710226032541
:100B9400304B34489A6942F480429A619A6902F46B
:100BA40080420492049A9A6942F004029A619B6911
:100BB4000A9103F0040305930AA9059B0B960D956E
:100BC40000F0EAFD4FF480630AA926480A93CDE9B0
:100BD4000B4400F0E1FD22462146252000F0E0FC14
:100BE400252000F013FD0EB070BD0421022603255C
:100BF400184B1C48DA6942F40032DA61DA6902F40B
:100C040000320692069A9A690A439A619B690A918C
:100C14000B4007930AA9079B0B960D9500F0BCFDAA
:100C240008230AA90F480A93CDE90B4400F0B4FD48
:100C340022462146262000F0B3FC262000F0E6FCE4
:100C44000EB070BD00500040003801400044004028
:100C54000048004000100240001001400000014024
:100C64000014014000080140704700BFFEE700BFC8
:100C7400FEE700BFFEE700BFFEE700BF704700BF0E
:100C8400704700BF704700BF00F0F6B808B50448CD
:100C940000F066FBBDE80840024800F061BB00BFFD
:100CA400A4040020E003002008B50E4801F0CEFCA7
:100CB4000D4A13880BB1013B13800C4A13880BB106
:100CC400013B13800A4A13880BB1013B1380094A84
:100CD400138833B1013B9BB2138013B90122064B35
:100CE4001A7008BD1405002096020020940200200A
:100CF400920200208602002081020020014801F0B7
:100D0400E7BE00BFD4040020014801F0E1BE00BFEB
:100D14005C050020014801F0DBBE00BFA0030020F9
:100D2400014801F0D5BE00BF6404002070B5161E52
:100D340007DD0C468D1902F00DFD04F8010BA542E8
:100D4400F9D1304670BD00BF70B5161E07DD0C46E4
:100D54008D1914F8010B02F0DDFCAC42F9D13046D8
:100D640070BD00BF4FF0FF30704700BF4FF4005319
:100D740000204B60704700BF01207047002070477F
:100D84000C4A08B5136833B169461844884209D837
:100D94001060184608BD08490B461160694618449E
:100DA4008842F5D902F0F4FD0C224FF0FF330260C3
:100DB400184608BD9C020020380A0020704700BF76
:100DC400002103E00B4B5B58435004310A480B4BA2
:100DD40042189A42F6D30A4A02E0002342F8043B3E
:100DE400084B9A42F9D3FFF7E9FF02F0E9FDFFF758
:100DF40057FA70471C5E00080000002060020020C3
:100E040060020020340A0020FEE7000038B54FF4E9
:100E14007A730D490D4A09781268B3FBF1F305465C
:100E2400B2FBF3F000F000FC08B90F2D01D901204A
:100E340038BD0446024629464FF0FF3000F0B0FBAF
:100E4400034B20461D6038BD040000200000002034
:100E540008000020074A08B51368032043F0100374
:100E6400136000F08BFB0020FFF7D0FFFFF738FD85
:100E7400002008BD00200240034A044B11681B787F
:100E84000B441360704700BF9C0500200400002041
:100E9400014B1868704700BF9C050020002875D0DE
:100EA400836A70B50446002B66D023689A68D0071D
:100EB4004DD4A26AD20644D4A26A5B4922F4885271
:100EC40022F0020242F002028B42A262E0696268EE
:100ED40078D0257BA16842EA4502B1F5807F42EAD9
:100EE4000002207D5DD0012900F08D80012800F0F2
:100EF400988058684D4920F46940586000209D68E6
:100F0400294011439960D96A494D21F47001014384
:100F1400D9629B681D40AA423AD00120A36A23F0FB
:100F2400120343F01003A362E36A0343E36270BD58
:100F3400A36A43F01003A362E36A43F00103E3628C
:100F4400A36AA36A012043F01003A36270BD9A68E8
:100F540022F001029A60FFF79BFF054604E0FFF7C9
:100F640097FF401B0228E3D823689A68D107F6D478
:100F7400A26AD206E5D49FE7C36280F82430FFF763
:100F8400D1FC23689A68D007E1D492E70120704726
:100F94000020E062A36A23F0030343F00103A36289
:100FA40070BD012814D05868204920F4694040F4E9
:100FB4008070586098680140114399602169013933
:100FC4000805A0E7B0F5402F08BF4FF4002080E7E4
:100FD4000E46EDB9A069451E46EA453545F400665E
:100FE4005D68124825F4694535435D609D68B1F537
:100FF400807F00EA050040EA02009860DED0012903
:10100400DCD000207FE70128CDD14FF48076E0E7E3
:10101400A06A40F02000A062E06A40F00100E062B3
:10102400DEE70026D5E700BF003C0140FDF7E1FF05
:10103400FE0E1FFF90F82430012B66D000230121FF
:1010440070B5026882B001939368044680F8241056
:10105400D80720D4404B41481B689168A0FB030388
:1010640041F001019B0C91600193019B2BB1019B09
:10107400013B0193019B002BF9D1FFF709FF0646C1
:1010840004E0FFF705FF801B022832D82268956828
:1010940015F00105F5D0A36A314923F4407323F018
:1010A400010343F480738A42A36230D0A36A23F419
:1010B4008013A3625368590535D4A36A002113F43D
:1010C400805318BFE36A84F8241018BF23F0060382
:1010D400E3626FF002031360936803F46023B3F5D3
:1010E400602F27D00020936843F48013936002B0EC
:1010F40070BD0120A36A84F8245043F01003A36256
:10110400E36A0343E36202B070BD02207047154BEB
:10111400596811F4702FC9D0A16A41F48011A162F9
:101124005B685B05C9D5A36A23F4405343F4805339
:10113400A362C2E70A4B9A4206D00020936843F4A4
:10114400A003936002B070BDA3F580635B6813F4E1
:10115400702FC7D1F1E700BF0000002083DE1B43DE
:10116400002801400024014038B590F82430012BB8
:1011740026D00122036880F824209A680446D20706
:101184000CD40020A36A23F4885323F0010343F012
:101194000103A362002384F8243038BD9A6822F046
:1011A40001029A60FFF774FE054604E0FFF770FE43
:1011B400401B022806D823689B68DB07F6D4E0E7C7
:1011C400022038BD0120A36A43F01003A362E36A3E
:1011D4000343E362DEE700BF2DE9F0410446002546
:1011E40082B00E460195FFF753FE23689A68D7052F
:1011F4006FD45A680746D50519D4DA6A12F4700F09
:1012040015D1701C79D11A689107FCD56FF01202C0
:101214001A60A26A42F40072A2629B6803F460231B
:10122400B3F5602F75D0002002B0BDE8F081444BC7
:101234000220D3F8008001F03BF822684149156987
:10124400B8FBF0F00D42134610D1D56801F15C41B2
:101254000D420BD115693C490D426ED1D56801F19F
:101264006E410D4214BF2925142509E0156936493C
:101274000D4224D1D56801F16E410D421FD1542590
:1012840005FB00F501998D42C0D9731C2BD036B9EA
:101294000AE0019B01330193019B9D424AD9FFF768
:1012A400F7FDC01B8642F4D200220320A36A84F80F
:1012B400242043F00403A36202B0BDE8F081156961
:1012C40022490D4217D1D5680D4214BFFC2554257F
:1012D400D6E70120A36A84F8245043F02003A362D4
:1012E40002B0BDE8F081019B01330193019B9D4253
:1012F400F9D813468AE7FC25C2E71A68920785D411
:10130400002ED1D0FFF7C4FDC01BB042CCD8236857
:1013140077E7237B002B86D1A36A23F48073A3622F
:10132400A06A10F480507FF47EAFA36A43F00103F7
:10133400A36279E72268134668E72925A0E700BF7E
:101344000000002024499224922449124992240046
:101354000368D86C704700BF704700BF704700BF78
:10136400036810B55A680446900602D51A689107B6
:101374002AD45A68100602D51A68510706D45A6846
:10138400520602D51B68DB0733D410BDA26AD2060D
:1013940003D4A26A42F40052A2629A6802F4E042C0
:1013A400B2F5E04F34D05A68500505D49A6802F477
:1013B4006022B2F5602F28D0204600F0DDF86FF0EF
:1013C4000C0223681A60DAE7A26AD20603D4A26A7E
:1013D40042F40072A2629A6802F46022B2F5602FAD
:1013E40026D02046FFF7B8FF6FF0120223681A6078
:1013F400BFE7A36A204643F48033A362FFF7AEFF3E
:101404006FF0010223681A6010BD227B002AD3D139
:101414005A6822F080025A60A36A23F48053A362BC
:10142400A36AD905C8D4A36A43F00103A362C3E73E
:10143400227B002AD5D15A6822F020025A60A36A7E
:1014440023F48073A362A36ADB04CAD4A36A43F0BF
:101454000103A362C5E700BF002270B490F82430F2
:1014640083B0012B01925FD001234D680468062DDF
:1014740080F824300A6805EB85034FF01F0625D950
:101484000C2D47D8233B256B9E4025EA060502FA1E
:1014940003F32B432363092A8B684FF0070602EBFF
:1014A400420123D91E39E5688E408B4025EA0601A6
:1014B4000B43E360A2F11003012B22D90023002285
:1014C40080F82420184603B070BC7047053B656B58
:1014D4009E4025EA060502FA03F32B43092A6363B7
:1014E4004FF007068B6802EB4201DBD825698E407A
:1014F4008B4025EA06010B432361A2F11003012B63
:10150400DCD81A4B9C4214D0826A012342F0200298
:101514008262D4E7413BE56A9E4025EA060502FA69
:1015240003F32B43E362B6E70223184603B070BC0F
:101534007047A3681B02C1D4A368102A43F40003B4
:10154400A360BBD10A4B0B4A1B68A2FB03239B0C71
:1015540003EB83035B000193019B002BAED0019B43
:10156400013B0193019B002BF9D1A7E70024014023
:101574000000002083DE1B43704700BF4FF6FF01CD
:10158400064A0002D36800F4E0600B4043F0BF63F6
:1015940043F400330343D360704700BF00ED00E021
:1015A400184B30B4DB68C3F30223C3F10705042DE1
:1015B40003F1040428BF0425062C19D94FF0FF3485
:1015C400033B9C4022EA04044FF0FF32AA4021EA84
:1015D400020101FA03F2224312010028D2B20ADB0B
:1015E40000F1604000F5614080F8002330BC704792
:1015F40000242346E8E7044B00F00F0003441A7666
:1016040030BC704700ED00E0FCEC00E0002807DB94
:10161400012300F01F01034A8B40400942F82030A7
:10162400704700BF00E100E00138B0F1807F0DD2C7
:1016340030B4F02500220721054B064C586084F88D
:101644002350104630BC9A601960704701207047DF
:1016540010E000E000ED00E090F8213010B5022B1E
:1016640004D0042201248263204610BD0368464945
:101674001A688B4222F00E021A601A6822F00102E4
:101684001A60424A24D9934255D0143293425CD012
:101694001432934260D01432934250D014329342A5
:1016A4005FD01432934262D08B4266D002F56772E7
:1016B400934240D01432934247D0143293424BD0D9
:1016C4001432934214BF4FF480334FF4805333E009
:1016D400934222D01432934239D01432934238D0F8
:1016E400143293422ED0143293423DD0143293429A
:1016F40040D08B4244D002F5677293420DD014322D
:10170400934224D01432934223D01432934214BF10
:101714004FF480334FF4805300E001231C4A53609C
:1017240001220024436B80F8212080F82040B3B1CB
:101734009847204610BD0123164A5360F0E74FF442
:101744008053F9E74FF48053E8E71023F4E71023BC
:10175400E4E74FF48073E1E74FF48073ECE71C4651
:1017640082E74FF48033E7E74FF48033D6E74FF452
:101774008013E1E74FF48013D0E74FF08073DBE789
:101784004FF08073CAE700BF8000024008000240A7
:1017940000000240000402400A68002A00F0F080C1
:1017A4002DE9F04F4FF0000A85B05546DFF814C21A
:1017B400DFF814E27C4FDFF8148204E0013532FADA
:1017C40005F300F083800123AB4002EA0304A34243
:1017D400F4D14A68122A00F0A98000F29280022A09
:1017E40000F0A88040F28680032A72D0112A02D128
:1017F400CB6803F1040AFF2C6FD881460368AA0062
:101804000F2606FA02FB23EA0B030AFA02F2134339
:10181400C9F800304A68D3006AD5DCF8189025F07E
:10182400030349F00109CCF81890DCF8189003F18F
:10183400804309F00109CDF80C9003F5803305F0DD
:101844000309DDF80CB04FEA8909D3F808B006FAA9
:1018540009F62BEA06067045019619D040456DD06D
:10186400524EB04200F08D80514EB04200F0928052
:10187400504EB0427BD0504EB0420CBF4FF0050BDF
:101884004FF0060B019E0BFA09F946EA0906019688
:101894009E603B68D6034CBF2343A3433B607B68F5
:1018A40096034CBF2343A3437B60BB68D6024CBF63
:1018B4002343A343BB609202FB6816D51C43FC6020
:1018C4000A68013532FA05F37FF47DAF05B0BDE84F
:1018D400F08FFF2C4FF0000A8FD905F18042083AAF
:1018E4004368920000F104098AE723EA0404FC60D7
:1018F4000A6863E7AAB1012A7FF47DAFD1F80CA08E
:1019040079E72E4EB2420CD020D92D4EB24208D0E7
:1019140006F58036B24204D0A6F58016B2427FF4B2
:101924006AAF8A68E2B94FF0040A64E7CB6803F14E
:101934000C0A60E7CB6803F1080A5CE74FF0010B7F
:101944000BFA09F946EA09060196A1E7A6F58016FD
:10195400B242E6D006F58036B2427FF44CAFE0E7FF
:10196400012A0CBF036143614FF0080A43E74FF0BB
:10197400040B019E0BFA09F946EA0906019687E76A
:1019840070474FF0020B019E0BFA09F946EA09066B
:1019940001967DE74FF0030B019E0BFA09F946EA25
:1019A4000906019674E700BF0004014000100140DD
:1019B4000014014000180140001C014000002110E7
:1019C400000031100010024000080140000C0140EA
:1019D4008368194214BF01200020704702B909042A
:1019E40001617047C36801EA030221EA030141EA85
:1019F40002410161704700BF002800F09F80F8B5E4
:101A040090F83D30044603F0FF02002B00F08F8075
:101A14002422236884F83D201A6822F001021A6007
:101A24001A6842F400421A601A6822F400421A60EA
:101A340000F09CFB62684B4B9A424BD84A4B98424D
:101A44007AD9431E5200B3FBF2F248492368A1FB42
:101A540000105968800C21F03F0101435960196A54
:101A6400013021F03F0108431862501CC0F30B0001
:101A7400042838BF0420D96921F44F4121F0FF0123
:101A8400002520260843D8611968D4E9072021F0ED
:101A9400C00102430A431A609968D4E9030221F49D
:101AA400034121F0FF0102430A439A60D968D4E953
:101AB400052021F0FF0102430A43DA601A68284630
:101AC40042F001021A60256484F83D60256384F8BD
:101AD4003E50F8BD264B98422ED94FF49671234DB3
:101AE4002368A5FB0065AD0C01FB05F15E68214F81
:101AF40026F03F06A7FB017135435D601D6A890925
:101B040025F03F05013129431962D969A56821F4FB
:101B14004F41013821F0FF0195B902EB4202B0FBBD
:101B2400F2F00130C0F30B00C0B90120A8E780F83F
:101B34003C20FEF74DFF6BE70120F8BD0120704704
:101B440002EB820202EB8202B0FBF2F00130C0F33E
:101B54000B000028E9D040F4404091E740F40040F5
:101B64008EE700BFA08601007F841E0083DE1B4336
:101B7400FF083D00D34D6210002800F055812DE987
:101B8400F041036882B0DD07044635D5A8494A68A8
:101B940002F00C02042A00F005814A6802F00C02EB
:101BA400082A00F0FB806368B3F5803F10D0002B57
:101BB40000F02081B3F5A02F00F078819C4B1A68C7
:101BC40022F480321A601A6822F480221A6004E037
:101BD400974A136843F480331360FFF759F9944D1F
:101BE400064605E0FFF754F9801B642800F2F580EF
:101BF4002B689A03F6D523689F074DD41A0722D57C
:101C0400A369002B00F0BA8001228A4B884D1A6028
:101C1400FFF73EF9064605E0FFF73AF9801B022874
:101C240000F2DB806B6A9B07F6D5834B834A1B6803
:101C3400A2FB03235B0A019300BF019B5A1E01927E
:101C4400002BF9D123685D0769D5794BDA69D00097
:101C540000F1EC800125DA6942F08052DA61DB6937
:101C640003F080530093009B754B1A68D10540F133
:101C7400A380E368012B37D0002B00F0E780052B0D
:101C84006B4B1A6A00F01F8122F001021A621A6A71
:101C940022F004021A622CE0654A516811F00C0F1C
:101CA40061D0516801F00C01082959D02369002B37
:101CB40000F0EB800122634B5D4D1A60FFF7E8F8FA
:101CC400064605E0FFF7E4F8801B022800F2858051
:101CD4002B689807F6D52B68626923F0F80343EA6A
:101CE400C2032B60236889E7514A136A43F0010356
:101CF4001362FFF7CDF84E4E804641F2883705E077
:101D0400FFF7C6F8A0EB0800B84266D8336A9B0711
:101D1400F6D525B1464AD36923F08053D361E069EF
:101D2400D0B1434D6A6802F00C02082A00F0D38057
:101D340002284FF00001444A00F0DE801160FFF7F2
:101D4400A7F82C46054604E0FFF7A2F8401B02283A
:101D540043D823689B01F7D4002002B0BDE8F0818A
:101D64005268D603A2D4324A1268950739D522693B
:101D7400012A36D0012002B0BDE8F0812D4A2C4D55
:101D84001360FFF785F8064604E0FFF781F8801B2F
:101D9400022822D86B6A9F07F7D453E74A68D00316
:101DA4007FF501AF224A126891037FF525AF62687F
:101DB400002A7FF421AFDDE71A681E4642F48072E0
:101DC4001A60FFF765F807463368DA053FF551AF47
:101DD400FFF75EF8C01B6428F6D9032002B0BDE803
:101DE400F081134960690A6822F0F80242EAC002ED
:101DF4000A6003E703F1804303F504331A681D46C0
:101E040022F480321A601A6822F480221A60FFF7E2
:101E14003FF8064604E0FFF73BF8801B6428DCD853
:101E24002B689B03F7D4E6E60120704700251BE7E7
:101E3400001002408004424200000020D34D621092
:101E440000700040000042426000424203F18043BF
:101E540003F504331A6A1E4622F001021A621A6A52
:101E640041F2883822F004021A62FFF711F807469B
:101E740004E0FFF70DF8C01B4045AED8336A98075D
:101E8400F7D4002D3FF44BAF44E7344A344D13608C
:101E9400FEF7FEFF064604E0FEF7FAFF801B022869
:101EA4009BD82B689907F7D42368A7E603F18043EE
:101EB400A3F53C331A6842F480221A601A6842F48B
:101EC40080321A6089E642F004021A621A6A42F009
:101ED40001021A620DE701283FF44DAF6B68226AD4
:101EE40003F4803191427FF445AF606A03F47013C8
:101EF400181A18BF01203EE71160FEF7C9FF064615
:101F040005E0FEF7C5FF801B02283FF666AF2B688D
:101F14009901F6D4226AB2F5803F05D16B68A168B5
:101F240023F400330B436B6001250D4B606A596841
:101F3400024321F474110B480A435A6005601C469D
:101F4400FEF7A6FF054605E0FEF7A2FF401B0228A8
:101F54003FF643AF23689A01F6D5FDE600004242FE
:101F6400001002406000424278B15D4A136803F0F9
:101F740007038B420BD2136823F007030B43136050
:101F8400136803F007038B4201D0012070472DE949
:101F9400F041036886B09D0714D55C0704D5514C05
:101FA400626842F4E06262601A0704D54D4C6268CC
:101FB40042F4605262604B4C8568626822F0F00221
:101FC4002A436260DB0704460D4620D54268454B30
:101FD400012A1B686FD0022A7ED0980727D5414E6C
:101FE40041F28838736823F0030313437360FEF7E8
:101FF4004FFF074604E0FEF74BFFC01B404569D87E
:102004007368626803F00C03B3EB820FF3D1344AB4
:10201400136803F00703AB420DD9136823F00703D9
:102024002B431360136803F00703AB4203D0012072
:1020340006B0BDE8F0812368590706D52949E06850
:102044004A6822F4E06202434A601A0707D5254A27
:102054002169536823F4605343EAC103536040F297
:102064000122214B06ACADF804200FCB04E90F008C
:102074001C494A6802F00C03082B1AD1C2F38343AB
:10208400234413F8100CD30318D4184B03FB00F3A8
:10209400144A174852681749C2F30312805C164A5F
:1020A400C34008681360FEF7B1FE002006B0BDE827
:1020B400F081124BECE79F0391D4B8E74A680F4BC9
:1020C400C2F3404203FB00F3224412F8142CB3FB86
:1020D400F2F3DDE70320ABE79E0180D4A7E700BF5E
:1020E4000020024000100240DC57000800093D00B7
:1020F4002C580008080000200000002000127A007C
:1021040040F2012286B0154B0DF1180CADF80420F5
:102114000FCB0CE90F0012494B6803F00C02082A9C
:1021240002D0104806B07047C3F383426244DB0315
:1021340012F8102C04D40C4800FB02F006B07047CF
:102144004B680848C3F3404300FB02F0634413F8B0
:10215400143CB0FBF3F006B0704700BFDC57000836
:102164000010024000127A0000093D00044B0549AA
:102174005B68054AC3F30223CB5C1068D840704700
:10218400001002403C58000800000020044B0549A0
:102194005B68054AC3F3C223CB5C1068D840704720
:1021A400001002403C580008000000202DE9F041D6
:1021B4000446006882B0C5072AD53A4BDA69D100D3
:1021C4003DD5394B00251A68D20546D53549606896
:1021D4000A6A12F440720FD000F4407393420BD099
:1021E400012700260B6A314A23F4407017601660F9
:1021F4000862D80745D460682A4A136A23F44073F6
:10220400034313621DB1D36923F08053D361206863
:10221400830706D5234AA168536823F440430B433C
:10222400536010F0100007D000201E4A6169536803
:1022340023F480030B43536002B0BDE8F081DA69F4
:10224400012542F08052DA61DB6903F08053019387
:10225400019B154B1A68D205B8D41A681E4642F47D
:1022640080721A60FEF714FE07463368DB05ADD4AE
:10227400FEF70EFEC01B6428F7D9032002B0BDE8A8
:10228400F0810E46FEF704FE41F288378046336A39
:102294009A07B0D4FEF7FCFDA0EB0800B842F6D9CB
:1022A400EBE700BF001002400070004040044242CF
:1022B40030B540F2012587B0394B441EADF80450C7
:1022C40006AD0FCB05E90F000F2C4DD8DFE804F065
:1022D400340D4C084C4C4C084C4C4C4C4C4C4C194C
:1022E40007B0BDE83040FFF70BBFFFF74FFF2D4BA2
:1022F4005B68C3F3813301335B00B0FBF3F007B0D9
:1023040030BD284B5968186810F08070F7D006A8C3
:10231400C1F38342024412F8100CCA0327D4224B9F
:1023240003FB00F01F4B5B685B02E8D41F4B4000CB
:10233400A3FB00304008E2E740F2023219490B6A7D
:102344001A40B2F5817F27D003F44073B3F5007FC0
:102354001AD0B3F5407F07D10B684FF2244013F431
:10236400003F08BF0020CAE7002007B030BD5B680B
:1023740006A9C3F340430B440D4A13F8143CB2FBC3
:10238400F3F300FB03F0CDE74B6A49F6404013F04A
:10239400020F08BF0020B2E74FF40040AFE700BFD0
:1023A400EC5700080010024000093D00ABAAAAAA9D
:1023B40000127A00002860D090F83D3070B503F028
:1023C400FF02044663B3022322682D4E84F83D3095
:1023D400B2421368A5696168E06826D006F5006614
:1023E400B24222D0B2F1804F0BD0A6F59836B24259
:1023F40007D006F58066B24203D006F58066B24285
:1024040007D1A66823F070033343266923F440738D
:10241400334323F080032B431360D062916214E0B2
:1024240080F83C20FEF708FBCDE7A66823F0700394
:102434003343266923F44073334323F080032B434F
:102444001360D062916263691363012300205361B6
:1024540084F8463084F83E3084F83F3084F84030C5
:1024640084F8413084F8423084F8433084F84430AE
:1024740084F8453084F83D3070BD0120704700BFBA
:10248400002C014090F83D30012B01D00120704711
:102494000222036880F83D20DA68124942F0010202
:1024A4008B42DA6011D0104A93420ED0B3F1804FC0
:1024B4000BD0A2F59832934207D002F58062934282
:1024C40003D002F58062934204D19A6802F00702B5
:1024D400062A05D01A68002042F001021A607047EB
:1024E40000207047002C01400034014090F83C303B
:1024F400012B5AD00222F0B40125036880F83D2054
:102504009A680C6822F47F4222F07702402C80F80B
:102514003C509A6074D04AD9602C2DD056D9702C76
:102524001AD0B4F5005F0ED1D1E90152CC68996894
:102534002A4342EA042221F47F410A439A609A68BA
:1025440042F480429A600023F0BC012280F83C30BF
:1025540080F83D2018467047D1E90152CC6899684B
:102564002A4342EA042221F47F410A439A609A688A
:1025740042F077029A60E6E71C6A4D6824F0100482
:10258400CE681C6299691A6A21F4704122F0A00293
:1025940042EA051241EA063199611A629A6822F008
:1025A400700242F067029A60CDE702207047102C57
:1025B40004D03DD9202C01D0302CC4D19A6844F0E9
:1025C400070422F0700214439C60BCE7502CBAD17B
:1025D4001D6A1E6A4C6826F00106CF681E629A695D
:1025E40025F00A0122F0F00242EA071221439A611F
:1025F40019629A6822F0700242F057029A60A2E7C8
:102604001D6A1E6A4C6826F00106CF681E629A692C
:1026140025F00A0122F0F00242EA071221439A61EE
:1026240019629A6822F0700242F047029A608AE7BF
:10263400002CC3D087E700BF704700BF704700BFBE
:10264400704700BF704700BF704700BF036810B5F4
:102654001A690446910702D5DA6892075FD41A69A9
:10266400500702D5DA68510746D41A69120702D511
:10267400DA6810072ED41A69D20602D5DA68D006B1
:1026840018D41A69D10702D5DA68D2075DD41A6959
:10269400100602D5DA6811065FD41A69520602D50B
:1026A400DA68500661D41A69910602D5DA6892068E
:1026B40043D410BD6FF0100108221961DB69204674
:1026C40013F4407F227764D0FFF7BAFF0022236817
:1026D4002277D6E76FF0080104221961DB692046EE
:1026E4009907227752D1FFF7A9FF2046FFF7AAFFE7
:1026F400002223682277BEE76FF0040102221961E9
:102704009B69204613F4407F22773CD1FFF796FF64
:102714002046FFF797FF002223682277A5E76FF092
:102724000201012219619B6902779B0725D0FFF7FB
:1027340087FF00222368227791E76FF0200220466A
:10274400BDE810401A6100F067B86FF0010220463E
:102754001A61FFF771FF236899E76FF08002204642
:102764001A6100F05BF8236897E76FF04002204697
:102774001A61FFF769FF236895E7FFF75FFF2046BB
:10278400FFF760FFD5E7FFF75BFFC4E7FFF758FFEC
:10279400AEE7FFF753FF2046FFF754FF96E700BF6D
:1027A40090F83C30012B31D0022270B4012603682A
:1027B40080F83D205A680C68154D22F070022243BF
:1027C400AB429C6880F83C605A6011D0114A934235
:1027D4000ED0B3F1804F0BD0A2F59832934207D0BC
:1027E40002F58062934203D002F58062934204D1E1
:1027F4004A6824F0800414439C60002370BC0122C6
:1028040080F83C3080F83D2018467047022070471D
:10281400002C014000340140704700BF704700BFE6
:1028240000285ED090F8393070B503F0FF020446FA
:10283400002B51D02422236884F83920DA68E06818
:1028440022F40052DA601969A26821F4405101436C
:102854001961D968D4E9045021F4B0512A4321F014
:102864000C0102430A43DA605A69A0691F4922F441
:10287400407202438B425A6135D0FFF777FC63689C
:1028840000EB80009B0000EB8000B0FBF3F06423BE
:1028940000252021164EA6FB00C2520903FB12009C
:1028A40000013230A6FB00301201236802EB501005
:1028B40098601A69284622F490421A615A6922F0F3
:1028C4002A025A61DA6842F40052DA60E56384F855
:1028D400391084F83A1070BD80F83820FEF7CAF831
:1028E400A8E701207047FFF751FCC8E70038014012
:1028F4001F85EB512DE9F043054690F8390083B06C
:10290400202840D10F46002941D00192002A3ED010
:102914001E4695F83830012B35D02123012100249F
:1029240085F83810EC6385F83930FEF7B1FAAB68F6
:10293400019AB3F5805F8146AA84EA845AD0A046FE
:102944000022EB8C85F838209BB22C688BB1721C6A
:1029540021D122681306FCD5002F39D017F8013B8A
:102964006360EB8C013B9BB2EB84EB8C9BB2002B42
:10297400EDD1711C31D123685A06FCD520230020E7
:1029840085F8393000E0022003B0BDE8F08301206F
:1029940003B0BDE8F08323681806DDD436B1FEF732
:1029A40077FAA0EB090086422C68D0D220220021BD
:1029B400E368032023F4D073E360636923F0010325
:1029C400636185F8392085F8381085F83A20DBE70B
:1029D40038F8023BC3F30803C2E723685B06CDD48F
:1029E400002EE3D0FEF754FAA0EB090086422C68CF
:1029F400BFD2DBE72B69002BA1D1B8461F469FE766
:102A040090F83A30202B20D109B302B390F8383033
:102A1400012B1AD030B4002322250468C285C36375
:102A240080F83A50E568828545F4807580F838303E
:102A34008162E5606269184642F001026261E368FE
:102A440043F02003E36030BC70470220704701204C
:102A5400704700BF704700BF8268836AB2F5805F29
:102A6400016829D06AB14A6802F07F021A70836A49
:102A740001338362C38D013B9BB2C3853BB100200C
:102A840070470269002AEED14A681A70EFE710B560
:102A940020240368D96821F02001D960D96821F481
:102AA4008071D960596921F00101596180F83A4077
:102AB40000F05EFE002010BD0269002AE4D14A68DD
:102AC400C2F3080223F8022B8362D3E7704700BFE6
:102AD400036870B51A6804461607DD68596947D05B
:102AE40011F001014DD0D00705D5EE0503D5E06BFB
:102AF40040F00100E063500775D529B1E06B9607FB
:102B040040F00200E06372D4160703D5A80673D41C
:102B1400002971D1E16B002932D0960601D5A806AF
:102B240073D45D69E16B090702D415F0400579D0CF
:102B34002021DA6822F49072DA605A6922F00102E4
:102B44005A6184F83A105A6952065AD55A69616B27
:102B540022F040025A61002953D03A4B08464B6395
:102B6400FEF77AFD60B1606BBDE87040436B1847B7
:102B7400910609D5AE0607D590F83A30222B4DD0F0
:102B840070BD15F4907FAED116060ED45106F7D55C
:102B94006A06F5D52021DA68204622F04002DA6080
:102BA40084F83910FFF756FF70BD2806EED594F867
:102BB4003920212AE4D1A168226AB1F5805F36D098
:102BC400511C216212785A60E28C013A92B2E2847A
:102BD400002AD5D1DA6822F08002DA60DA6842F09D
:102BE4004002DA6070BD90078ED500298CD0E06B6E
:102BF40040F00400E06387E7E16B41F00801E16322
:102C040088E72046FFF762FF70BD94F83A20222A35
:102C140087D12046FFF720FF236882E7BDE8704094
:102C2400FFF71ABF2046FFF751FFE56370BD216926
:102C34000029C5D132F8021BC1F308015960226290
:102C4400C2E700BF4D2C0008002208B5436ADA85AC
:102C54001846DA84FFF73AFF08BD00BF90F8382021
:102C6400012A14D0242230B403462025002104680C
:102C740080F83920E268084622F00C0242F008028B
:102C8400E26083F8395083F8381030BC7047022072
:102C9400704700BF90F83820012A14D0242230B4A1
:102CA400034620250021046880F83920E26808469C
:102CB40022F00C0242F00402E26083F8395083F8F7
:102CC400381030BC70470220704700BF0023C0F8A2
:102CD4000431C0F800317047D0F80431D0F8002135
:102CE40003F58070801A4342DBB2C0B258BF584229
:102CF400704700BF024630B4D0F80441D2F8005106
:102D0400631C5842C0B2DBB258BF4342AB421CBF43
:102D14001155084630BC0CBF4FF0FF30C2F80431E7
:102D2400704700BF0246D0F80001431C5942C9B2A3
:102D3400DBB258BF4B42105CC2F80031704700BF91
:102D440038B50E4C2046FEF775F964212046FEF78F
:102D540043FA2046FEF7FCFA05462046FEF704FA3D
:102D640040F6E44000FB05F0054BA3FB0023C01A2A
:102D740003EB5000C0F3CF2038BD00BFA4040020F3
:102D840001011000BFF34F8F0549064BCA6802F4D6
:102D9400E0621343CB60BFF34F8F00BFFDE700BF7A
:102DA40000ED00E00400FA050149024800F040BECD
:102DB400445800084C58000808B5034A034904481D
:102DC40000F036FE002008BDD0580008E85800087E
:102DD400F458000808B540F2B3220349034800F050
:102DE40027FE002008BD00BF7C5800089858000842
:102DF40030B583B0FEF74CF84FF46165194A1A4BAD
:102E0400A2FB00129209A3FB021318491B0C01FB3D
:102E14001323174C01F14651A4FB0324E40A05FBD8
:102E2400143301F55211134A01F2BB21A1FB001026
:102E3400A2FB03125209C2EB0211A3EB8103010EA0
:102E440008D000930C481346224600F0F1FD002000
:102E540003B030BD2146094800F0EAFD002003B06C
:102E640030BD00BFD34D621007452EC28051010012
:102E7400C5B3A29189888888A0580008BC58000866
:102E84000128F8B526DD194C0D46002704F160062B
:102E940005E000F055FE01271034B44211D0216939
:102EA4006868FDF7BDF90028F6D1606908B100F043
:102EB40047FEA0690028ECD11034B4424FF001075A
:102EC400EDD10FB10020F8BD6968094800F0B0FDEC
:102ED4000020F8BD054C04F160056069103408B1A8
:102EE40000F02EFEA542F8D10020F8BD1800002005
:102EF400845800082DE9F0416C4BAAB01B680146C8
:102F040004466B480093FDF78BF916AF28B1694668
:102F14002046FDF785F9002879D16649384600F046
:102F240049FF6449204600F045FF002102A85022D1
:102F340000F075FD2321204600F02FFF08B1002387
:102F44000370204601AA5C4900F066FF034600288E
:102F540059D001AA58490020029300F05DFF0124D2
:102F64000346554E02AD53B145F8043F01AA31461C
:102F7400002000F051FF0134142C0346F3D1029DCC
:102F84002E21284600F009FF002845D04378622B03
:102F94005ED0772B44D06C2B02D10422474B1A60AD
:102FA40000230370029D464E28463168FDF738F928
:102FB400804600283AD031692846FDF731F90028C7
:102FC40061D0316A2846FDF72BF9002865D0316BB2
:102FD4002846FDF725F9002862D0316C2846FDF714
:102FE4001FF900285FD0316D2846FDF719F9D8B1D3
:102FF400316E2846FDF714F94FF00608B0B12946A2
:10300400304800F015FD01202AB0BDE8F0813846B3
:10301400214600F0CFFE88E70122284B1A60C2E760
:103024000222264B1A60BBE74FF00508012C13D18E
:1030340006EB081602A92046F3689847002825DB0A
:1030440039461C4800F0B6FE01202AB0BDE8F081E4
:1030540001221A4B1A60A3E7039D1B492846FDF77A
:10306400DFF828B128461949FDF7DAF80028DFD13E
:1030740006EB0816706800F063FDB0680028DFD026
:1030840000F05EFDDCE74FF00108CFE7706800F068
:1030940057FDB0680028F3D1D2E74FF00208C5E726
:1030A4004FF00308C2E74FF00408BFE7FC570008DD
:1030B40050580008A0050020545800080C000020B7
:1030C4001800002064580008585800086058000888
:1030D40070B50646324C334D00F060FCC0B2FF2898
:1030E40018D0082819D07F2817D0152821D01728E0
:1030F4002DD00D284BD00A2849D022683D2A02DC65
:10310400531CB054236000F0ABFC00F047FCC0B289
:10311400FF28E6D14FF0FF3070BD2368002BDBDDC4
:1031240008222846114600F083FC2368013B2360F3
:10313400D2E72368002BCFDD08222846114600F091
:1031440077FC2368013B002B2360F5DCC4E723688C
:10315400002B0ADCC0E708222846114600F068FC70
:103164002368013B002B2360B6DDF35C202BF2D0F7
:1031740002E0F35C202BAFD008222846114600F071
:1031840057FC2368013B002B2360F2DCA4E70648CC
:1031940000F04EFC0023024A10681360335470BDE3
:1031A400E0020020085900081059000810B500F08A
:1031B400E9FB00B910BD0748FFF78AFF0028F9DBD7
:1031C400054B04481B689847BDE81040034B1B6837
:1031D400184700BFA00200201000002014000020A7
:1031E40010B526220849094800F022FC084B1C6847
:1031F4002046FDF71FF82146BDE8104082B24FF685
:10320400FF730448FFF776BB205A0008985800085B
:10321400880000205C05002010B5302208490948C8
:1032240000F006FC084B1C682046FDF703F8214615
:10323400BDE8104082B24FF6FF730448FFF75ABB53
:10324400305A0008985800088C0000205C050020C3
:1032540030B53B2283B004460D461548154900F0AD
:10326400E7FB0023022C019313D0302212491048AB
:1032740000F0DEFB114B1C682046FCF7DBFF214607
:1032840082B24FF6FF730E48FFF734FB002003B001
:1032940030BD686801AA0B4900F010FD019B012BA9
:1032A400E3D126220849024800F0C2FB074BE2E7BB
:1032B40098580008405A0008305A00088C00002032
:1032C4005C050020485A0008205A000888000020A5
:1032D40000222DE9F041222486B0CDF812200546C3
:1032E40083799DF81210C3F3000060F300010320FA
:1032F40043F20216CDF80E20C3F340079DF80F20C9
:1033040067F341019DF810309DF8117082F031028D
:1033140063407A40CFB29DF813C07B402F7A82EA93
:103324000C027B404240DBB243EA02231BB2C3F3EC
:1033340007228DF812108DF817308DF816208DF8AD
:103344001470ADF80C608DF80E408DF81500FDF783
:103354009FFD0746224800F093F903A94FF6FF7337
:103364000C221F48FFF7C6FA1D4800F0ABF9FDF721
:103374008FFD8046FDF78CFD1A4A01461A4800F07D
:1033840057FB1A4E6C1E0B3514F8011F304600F023
:103394004FFBA542F8D10A2000F062FBFDF778FD4F
:1033A400134A0146104800F043FB104D03AC06AE2F
:1033B40014F8011B284600F03BFBA642F8D10A2072
:1033C40000F04EFB0B4BCDF800801A683B46BF1A49
:1033D40001970949094800F02BFB06B0BDE8F081CC
:1033E400A0030020F85A0008005B00080C5B0008EA
:1033F400145B000880030020605B00081C5B00086D
:1034040038B50446FFF764FFCB222349234800F074
:103414000FFBA179E378C1F34002C3F3400301F049
:1034240001011F481F4D00F003FBA379296803F035
:1034340001028A4202D0D80725D42A601A4DC3F368
:10344400400229688A4202D0990713D42A60174D92
:10345400E2782968C2F340038B4202D0920701D478
:103464002B6038BD124800F06BFBE378C3F34003D4
:103474002B60F6E70F4800F063FBFFF7CDFEA2795F
:10348400C2F34002E2E70C4800F05AFBFFF7A8FE43
:10349400A37903F00102D0E7685B0008985800089C
:1034A400A05A000870030020740300206C0300205D
:1034B400E85A0008DC5A0008CC5A000838B50C4D0C
:1034C400802200210B4C0C4800F0A9FA284600F099
:1034D400F9F8204600F0F6F8284601220749FFF7DC
:1034E4008FFA2046BDE8384001220549FFF788BA23
:1034F400A003002064040020EC020020200A002025
:10350400100900202DE9F047474DDFF8388182B0DB
:10351400DFF838912846FFF7DFFB002848DD28460E
:10352400FFF700FC0228414C35D0414E03282268A5
:10353400376840D0531E012B4DD90B2FEAD9FDF724
:10354400A7FC336801463B4A00933B484FF4BC73E5
:1035540000F06EFAD6F80090FDF79AFC374A01465F
:10356400374800F065FAB9F1000F0ADD354FDFF88E
:10357400E0A0B94417F8011B504600F059FAB945C8
:10358400F8D10A2000F06CFA2846FFF79FFB0023CD
:1035940033602360BCE72268C2B90123244A88F857
:1035A4000000284623601360FFF796FB0028B6DC72
:1035B40002B0BDE8F087012ABCD1092F07F101034D
:1035C40023D008F8070033601F46B6E7184E531E91
:1035D400012B3768B1D87B1C022A08F80700336036
:1035E40011D10C2B0FD198F80120212A14D0312AA3
:1035F40005D040F215124946134800F019FA002389
:103604003360236086E71F4697E702220A2388F87F
:103614000900226033607DE719464046FFF7F0FE5B
:1036240000233360236075E7F8060020E8020020D9
:10363400E4020020885B00085C5A0008F85A00087D
:10364400005B0008EC020020805A0008785B000848
:103654000C5B000810B5002484B04FF4E9720649ED
:10366400064800F0E5F901A8CDE901440394FFF709
:103674002FFE204604B010BD985B0008985800083F
:1036840010B50446FFF7EAFA23680A4A93420AD0BF
:10369400094A934200D010BD0122BDE810400748FA
:1036A4001146FEF79BB9012208210548FEF796F959
:1036B4002368EDE700480040005000400008014046
:1036C400001001400F4A036810B59342044611D01C
:1036D4000D4A934204D02046BDE81040FFF7DABA01
:1036E4000A4800220121FEF779F92046BDE810407E
:1036F400FFF7D0BA002208210548FEF76FF92368C6
:10370400E6E700BF004800400050004000080140C8
:103714000010014010B50D4C82B0236801904BB1EC
:10372400184601224FF6FF7301A9FFF7E3F8019849
:103734000A2801D002B010BD20684FF6FF730122A1
:103744000349FFF7D7F8019802B010BD88030020A1
:10375400A05B000808B50548FFF7BEFA18B1034896
:10376400FFF7E0FA08BD4FF0FF3008BD080800205D
:1037740038B51B4A03680446934219D0194A934248
:103784001ED0194A934223D0184A934200D038BD20
:10379400FDF77EFB164D174B297818601648FFF786
:1037A400A9FA29462046BDE838400122FFF728B986
:1037B400FDF76EFB114D124B297818601148EEE7A6
:1037C400FDF766FB104D114B297818601048E6E7A9
:1037D400FDF75EFB0F4D104B297818600F48DEE7AC
:1037E40000380140004400400048004000500040C0
:1037F4001009002084030020F0050020280A00207E
:103804007803002008080020000800207C03002022
:1038140018090020200A002080030020F806002058
:1038240003681B681B0700D4704730B585B0044695
:10383400FEF7F6FF30BB01220DF10F012046FFF722
:10384400DFF8144800F07CF92168134800F0F0F820
:103854002068E16B94F8392094F83A3005684068A0
:10386400CDE900500D4800F0E3F824680C48A16845
:10387400E26823696569A469CDE9005400F0D8F8C9
:1038840005B030BD4FF48B720649074800F0D0F8FC
:10389400D1E700BFA45B0008C05B0008D45B00084C
:1038A4000C5C0008405C00089858000808B50748FC
:1038B400FFF70CFA0648FFF709FA0648FFF706FA7D
:1038C400BDE808400448FFF701BA00BF080800201B
:1038D40018090020F8060020F00500202DE9F8431F
:1038E400904699460C4605461A48FFF7EFF91A48E0
:1038F400FFF7ECF9194F1A48FFF7E8F91948FFF7F1
:10390400E5F9194E194BC7F80080DFF874801D6083
:10391400C6F80090C8F8004035B128460122144981
:10392400FFF76EF8D8F8004024B12046012211496F
:10393400FFF766F8386818B101220F49FFF760F8FD
:10394400306828B1BDE8F84301220C49FFF758B8A4
:10395400BDE8F8830808002018090020900300201F
:10396400F8060020F00500209403002088030020BE
:10397400280A002000080020200A00201009002046
:103984008C0300200148FFF7A7B900BF08080020F6
:10399400014B1868704700BF90000020074B10B51A
:1039A4001C6824B1A36913B9204600F0A9FC61681E
:1039B4002046BDE8104000F049BD00BF9000002043
:1039C40070B500250C4E0D4CA41BA410A54209D1C2
:1039D40001F0F6FE00250A4E0A4CA41BA410A542D1
:1039E40005D170BD56F8253098470135EEE756F8F5
:1039F400253098470135F2E7145E0008145E00088C
:103A0400145E0008185E000810B5431E0A44914273
:103A140000D110BD11F8014B03F8014FF7E703463D
:103A24000244934200D1704703F8011BF9E70000F8
:103A34000FB40A4B13B51C6824B1A36913B920460B
:103A440000F05EFC05AB049AA1682046019301F0E6
:103A540043F802B0BDE8104004B070479000002065
:103A640038B5084B05461C6824B1A36913B9204630
:103A740000F046FCA26829462046BDE8384001F023
:103A840021BC00BF9000002070B50E46054618B159
:103A940083690BB900F034FCAB69AC6813B92846F0
:103AA40000F02EFC234B9C4217D16C68A3891B07A2
:103AB4001DD52369DBB1013EA36816F8011F013B44
:103AC400A360E9B9002B2EDA22460A21284600F029
:103AD40033FA013011D00A2011E0174B9C4201D176
:103AE400AC68E3E7154B9C4208BFEC68DEE721466F
:103AF400284600F085FA0028DDD04FF0FF3070BD75
:103B0400002B04DAA2699A4206DC0A2904D023684D
:103B14005A1C22601970CFE72246284600F00CFA9E
:103B24000130C9D1E9E70A2023685A1C22601870C1
:103B3400E5E700BF785C0008985C0008585C000862
:103B4400024B01461868FFF79FBF00BF900000209A
:103B540000294FF480630CBF0222002200F000B859
:103B64002DE9F7431D46514B04461E680F46904607
:103B740026B1B36913B9304600F0C2FB4C4B9C42EA
:103B840052D17468B8F1020F06D0B8F1010F00F2F7
:103B94008980002DC0F286802146304600F034FB37
:103BA400616B41B104F14403994202D0304600F004
:103BB4001BFD002363630023A3616360A3891B06C9
:103BC40003D52169304600F00FFDA389B8F1020F37
:103BD40023F44A6323F00303A3815DD001AB6A4657
:103BE4002146304600F082FCA3891843A0812DBBF6
:103BF400009D284600F0DEFC074600284ED1DDF883
:103C04000090A9453CD14FF0FF30A38943F0020353
:103C1400A3810023A36004F14703236023610123EC
:103C2400636103B0BDE8F083224B9C4201D1B468C8
:103C3400A8E7214B9C4208BFF468A3E7002FD8D023
:103C4400B36913B9304600F05BFBB8F1010F08BF4C
:103C5400A389276004BF43F00103A381A389C4E9B6
:103C6400047513F008001BD013F001004FF000039B
:103C74001FBF6D42A360A561184608BFA560D0E7C9
:103C8400484600F097FC07460028BCD0A3894D465F
:103C940043F08003A381D3E70020B6E7A946F5E704
:103CA400A060BEE74FF0FF30BBE700BF90000020EC
:103CB400785C0008985C0008585C00080EB44FF467
:103CC400017230B59CB01FAC54F8045BADF81420FD
:103CD40002900690FCF7AEFA0B4B03900B93002373
:103CE4000F9314934FF6FF7307900848ADF81630FE
:103CF4002A46234602A90068019400F075FD1CB011
:103D0400BDE8304003B07047373D00089000002004
:103D140010B50C46B1F90E1001F00AFB0028ABBF38
:103D2400636DA3891B1823F48053ACBF6365A3811F
:103D340010BD002070472DE9F0411F468B890546D0
:103D4400DB050C46164605D502230022B1F90E10F8
:103D540000F0BAFBA389324623F48053A381B4F95B
:103D64000E103B462846BDE8F04100F037B910B5C7
:103D74000C46B1F90E1000F0A7FB431CA38915BF34
:103D8400606523F4805343F48053A38118BFA38157
:103D940010BDB1F90E1000F0A1B9C9B2034610F874
:103DA400012B1AB18A42F9D118467047002918BF6D
:103DB4000023F9E7034611F8012B03F8012B002A2D
:103DC400F9D17047F0B518B9106808B9F0BD2046AC
:103DD40004460F4614F8015B17F8016B1EB96DB960
:103DE40015602846F2E7B542F6D1002BEFD11460F6
:103DF4000370EBE72B460DE026B91C4623460F461D
:103E040013F8015B17F8016BB542F5D1002DF1D021
:103E1400002121701360D9E70123FFF7D3BF2DE9F7
:103E2400F0478046894692461E460F463D4608980E
:103E340015F8014B00F036FB2044437813F00803D7
:103E440032D12D2C32D101227C78BD1C002E5DD0C4
:103E5400102E09D1302C07D12B7803F0DF03582B17
:103E64004FD110266C780235002A14BF4FF0004160
:103E74006FF000410027B1FBF6FC384606FB1C1E20
:103E8400A4F13003092B17D81C46A64223DD7B1C62
:103E940007D084451CD301D1A64519DB012700FBBB
:103EA400064015F8014BEBE72F46BFE72B2C04BF68
:103EB400BD1C7C781A46C9E7A4F14103192B01D82B
:103EC400373CE2E7A4F16103192B04D8573CDCE743
:103ED4004FF0FF37E5E77B1C08D122230846C8F8DA
:103EE4000030BAF1000F07D1BDE8F08702B14042BB
:103EF400BAF1000FF8D00FB105F1FF39CAF80090FC
:103F0400F2E73024002EAFD10826ADE7302CA3D041
:103F14000A26A9E737B5064C064D2468246A002C06
:103F240008BF2C460094FFF77AFF03B030BD00BFF2
:103F340090000020F4000020F8B50E461446054613
:103F440018B183690BB900F0DBF9214B9C422AD1EB
:103F54006C68A369A360A3891A072ED5236963B388
:103F640023692068F6B2C01A63693746834204DCC9
:103F74002146284600F048F928BBA3680130013BDC
:103F8400A36023685A1C22601E706369834204D0B4
:103F9400A389DB0719D50A2E17D12146284600F03C
:103FA40033F990B10FE00B4B9C4201D1AC68D0E7E0
:103FB400094B9C4208BFEC68CBE72146284600F039
:103FC4001FF80028CCD04FF0FF373846F8BD00BFAB
:103FD400785C0008985C0008585C000838B5054611
:103FE400084611460022054C22601A46FCF7ACFE36
:103FF400431C02D1236803B12B6038BD300A002072
:10400400324B70B51D6806460C4625B1AB6913B931
:10401400284600F075F92E4B9C420FD16C68B4F918
:104024000C309AB215072CD4D00611D40922326070
:1040340043F04003A3814FF0FF303EE0254B9C4208
:1040440001D1AC68EBE7244B9C4208BFEC68E6E77F
:10405400510712D5616B41B104F14403994202D076
:10406400304600F0C1FA00236363A38923F02403DC
:10407400A3810023636023692360A38943F00803B9
:10408400A38123694BB9A38903F42073B3F5007F9B
:1040940003D02146304600F04DFAA28912F0010304
:1040A4000CD00023A36063695B42A361236953B905
:1040B400B4F90C3013F08000BAD170BD920758BF28
:1040C4006369A360F2E70020F7E700BF90000020D7
:1040D400785C0008985C0008585C000838B5002338
:1040E400054C054608462360FCF73CFE431C02D100
:1040F400236803B12B6038BD300A00208A892DE97A
:10410400F041054610070C4658D44B68002B05DCDB
:104114000B6C002B02DC0020BDE8F081E66A002E67
:10412400F9D0002312F480522F68216A2B6032D018
:10413400606DA3895A0705D56368C01A636B0BB118
:10414400236CC01A00230246E66A216A2846B04757
:10415400431CA38906D129681D2948D8294ACA4085
:10416400D60744D5002262602269D904226004D5AE
:10417400421C01D12B6803B96065616B2F60002973
:10418400C9D004F14403994202D0284600F02CFA25
:1041940000206063C0E701232846B047411CC8D112
:1041A4002B68002BC5D01D2B01D0162B01D12F60FD
:1041B400B1E7A38943F04003A381ADE70F69002F62
:1041C400A9D0930718BF00230E6808BF4B69A6EB5C
:1041D40007080F608B60B8F1000F9CDD43463A4638
:1041E400216A2846A66AB047002806DCA38943F062
:1041F4004003A3814FF0FF308EE70744A8EB00088B
:10420400E9E700BF0100402038B50B6905460C46BC
:10421400DBB118B183690BB900F072F80C4B9C4206
:1042240009D16C68B4F90C307BB121462846BDE84D
:104234003840FFF763BF074B9C4201D1AC68F1E7FC
:10424400054B9C4208BFEC68ECE7002038BD00BF7A
:10425400785C0008985C0008585C0008014620B9A6
:10426400044B0549186800F0D3B8044B1868FFF7ED
:10427400CBBF00BF545C00080D4200089000002032
:10428400002310B50446C0E900338360818143668E
:10429400C281C0E904338361194608225C30FFF708
:1042A400BEFB054B24626362044BA362044BE362CE
:1042B400044B236310BD00BF153D00083B3D0008BF
:1042C400733D0008973D0008014900F0A1B800BF04
:1042D4000D42000870B568254A1E55430E4605F187
:1042E400740100F0CDF9044640B10021C0E9001684
:1042F4000C30A06005F16802FFF791FB204670BD09
:10430400836910B5044633BBC0E912330365124B0D
:10431400124A1B688262984204BF0123836100F041
:104324001FF86060204600F01BF8A060204600F0F3
:1043340017F80022E06004216068FFF7A1FF012262
:104344000921A068FFF79CFF02221221E068FFF711
:1043540097FF0123A36110BD545C0008CD420008FF
:10436400F8B51B4B07461E68B36913B93046FFF70F
:10437400C7FF4836D6E90134013B03D5336833B16E
:104384003668F7E7B4F90C506DB16834F4E70421EA
:104394003846FFF79FFF30600028F1D10C23044614
:1043A4003B602046F8BD0B4B6566C4E90055A5602B
:1043B400C4E90335C4E905550822294604F15C0023
:1043C400FFF72DFBC4E90D55C4E91255E9E700BF19
:1043D400545C00080100FFFF2DE9F04188460026E7
:1043E40000F1480414B93046BDE8F081D4E9017500
:1043F400013F01D52468F5E7AB89012B06D9B5F94E
:104404000E30013302D02846C04706436835EFE733
:104414002DE9F84380468946002600F1480414B982
:104424003046BDE8F883D4E90175013F01D524681D
:10443400F5E7AB89012B07D9B5F90E30013303D069
:1044440029464046C84706436835EEE738B50C466A
:10445400054618B183690BB9FFF752FF0E4B9C4216
:104464000BD16C686368013B002B63600FDA214653
:104474002846BDE8384000F06DBF084B9C4201D18E
:10448400AC68EFE7064B9C4208BFEC68EAE7236898
:104494005A1C2260187838BD785C0008985C0008C3
:1044A400585C0008D0F8EC0070470000044B054A43
:1044B4001B681B6A002B08BF1346D3F8EC00704737
:1044C40090000020F400002038B505460846114647
:1044D4000022054C22601A46FCF750FC431C02D112
:1044E400236803B12B6038BD300A002070B50E4636
:1044F400B1F90E1096B0002914461D4607DA0023C0
:104504002B60B3891A0610D44FF480630EE06A4618
:1045140001F060F80028F2DB019A02F47042A2F57F
:1045240000535A425A412A60EEE740230020236098
:1045340016B070BD8B8973B59D0706460C4607D52A
:1045440004F14703236023610123636102B070BD5A
:1045540001AB6A46FFF7CAFF00990546304600F0F2
:104564008FF848B9B4F90C309A05EFD423F003035B
:1045740043F00203A381E3E70D4BB362A3892060F8
:1045840043F08003A381009B20616361019B5BB1C5
:10459400B4F90E10304601F02FF828B1A38923F0A6
:1045A400030343F00103A381A3891D43A581CDE740
:1045B400CD420008024B0146186800F061B800BF04
:1045C4009000002082B001B901A942B14BB1137827
:1045D4000B601278101C18BF012002B070471046FF
:1045E400FBE76FF00100F8E738B50546002943D032
:1045F40051F8043C0C1F002BB8BFE41801F01AF862
:104604001E4A1368104633B9636014602846BDE837
:10461400384001F010B8A3420BD9216862189342C4
:1046240001BF1A685B685218226063600460EDE79A
:1046340013465A680AB1A242FAD919685818A04216
:104644000BD120680144581882421960DED11068E9
:104654005268014419605A60D8E702D90C232B60D0
:10466400D4E7206821188A4201BF116852680918EA
:10467400216062605C60C9E738BD00BF9803002018
:1046840070B5CD1C25F0030508350C2D38BF0C255D
:10469400002D064601DBA94203D90C233360002018
:1046A40070BD00F0C7FF214A1468214691B9204C1F
:1046B40023681BB9304600F079FE20602946304655
:1046C40000F074FE431C24D10C233046336000F008
:1046D400B2FFE4E70B685B1B18D40B2B0FD90B60FC
:1046E400CC18CD50304600F0A6FF04F10B00231D7A
:1046F40020F00700C31AD3D05A42E250D0E74B68E7
:104704008C4216BF636013600C46EBE70C464968A5
:10471400CCE7C41C24F00304A04205D0211A30467F
:1047240000F044FE0130CFD02560DBE79803002081
:104734009C03002038B54B1C144603D14FF0FF35C1
:10474400284638BD9389CDB223F020039381636B4F
:1047540052688BB1A36B934208DD23685A1E226012
:1047640003F8015C636801336360E9E7214600F004
:10477400EBFE0028F1D0E1E72169236851B19942A9
:1047840008D213F8011CA94204D1013B0132236071
:104794006260D5E7C4E90F3204F144036363032381
:1047A400A363234603F8465F23600123DCE710B5C7
:1047B4000C46496B69B104F14403994201D0FFF7F7
:1047C40013FF0020236C6063636013B1E36B236009
:1047D40010BD23694FF0FF30236000236360A38979
:1047E40043F02003A381F3E72DE9F04F0C460021A9
:1047F400064692460A27ADF5237D449145919E498C
:104804000DF10408A0919D49DFF87492CDF8188148
:10481400A19100939AF80030002B00F02A815546AC
:10482400FFF744FE15F801BB5844437813F008031E
:104834001CD06368002B12DDFFF738FE23681A785A
:1048440010444278120701D4AA46E3E7459A01339B
:104854000132459262682360013A6260E9E7A19BF4
:104864002146304698470028E6D0EDE7BBF1250FF6
:1048740040F08280439341939AF801302A2B03D16C
:1048840010230AF102054193AA4615F8011BA1F170
:104894003002092A22D90322794800F0BDFE38B13A
:1048A400A0EB09030120AA469840419B184341907C
:1048B4009AF800300AF10105672B2BD8652B80F09C
:1048C4009F80472B10D8452B80F09A80002B6CD00A
:1048D400252B51D003234297479327E0439B07FBA3
:1048E4000313303B4393CFE75B2B6AD00CD8582B90
:1048F400F0D1419A42F400724192102242926E2BFE
:104904008CBF0423032310E0632B65D0642BE1D117
:104914004297F4E7702B4BD026D86E2B62D04CD83C
:10492400692BD7D100234293032347936368002B59
:1049340068DD419B590607D4FFF7B8FD23681A7850
:1049440010444278120764D4479B022B73DC6B46F5
:10495400224641A9304600F05DFB012800F0898021
:1049640002287FF471AF1DE0752BD1D0782BC0D015
:10497400732BAFD10223D8E76368002B0CDD2368C7
:104984001A785A4575D1013362682360459B013A10
:1049940001336260459357E7A19B2146304698470F
:1049A4000028ECD04498002859D14FF0FF305CE047
:1049B400419A42F0200241929BE708234293042348
:1049C400B3E72946404600F001FD419B054643F00C
:1049D400400341930123A8E7419B43F040034193E3
:1049E4000023A2E74198C3063FF52EAF009B459AEA
:1049F400191D00911B68C0074CBF1A801A6023E779
:104A0400052392E7A19B214630469847002890D081
:104A1400C8E7459A013245926268013A002A626009
:104A240002DD0133236087E7A19B21463046984786
:104A3400002881D0B6E7042B06DC6B46224641A948
:104A4400304600F049FB88E70E4B002B3FF4FCAEE8
:104A54006B46224641A93046AFF300807DE7A38927
:104A640013F0400F18BF4FF0FF300DF5237DBDE864
:104A7400F08F4498F9E700BF39470008B3470008AE
:104A8400C25C000800000000936810B4013B002BD6
:104A9400936007DA9469A34201DB0A2902D110BCAE
:104AA400FFF74ABA1368581C10601970084610BC06
:104AB4007047F8B506460F461446D518AC4201D1E6
:104AC400002007E03A4614F8011B3046FFF7DCFFEC
:104AD400431CF3D1F8BD00002DE9F04F0C469DB006
:104AE40017461D46064618B183690BB9FFF708FC43
:104AF4007C4B9C4258D17468A38918075ED52369FE
:104B0400002B5BD00023099320238DF82930302318
:104B14004FF0010B8DF82A300395B846454615F839
:104B2400013B0BB1252B54D1B8EB070A0BD05346EC
:104B34003A4621463046FFF7BCFF013000F0C28000
:104B4400099B5344099398F80030002B00F0BA8075
:104B540000234FF0FF32CDE90523049307938DF82A
:104B640053301A93A846052218F8011B5E4800F03A
:104B740053FD049B78BBD90644BF20228DF85320F3
:104B84001A0744BF2B228DF853202A782A2A2AD0C8
:104B9400A84600200A25079A414611F8013B303BFC
:104BA400092B69D960B324E0504B9C4201D1B4680D
:104BB400A2E74F4B9C4208BFF4689DE7214630466C
:104BC400FFF71EFA00289DD04FF0FF301DB0BDE85E
:104BD400F08FA846A2E7444A4546801A0BFA00F033
:104BE40018430490BEE7039A111D12680391002A2A
:104BF40001DB079204E0524243F00203079204935C
:104C040098F800302E2B0ED198F801302A2B38D189
:104C1400039B08F102081A1D1B680392002BB8BFFE
:104C24004FF0FF330593334D032298F800102846C4
:104C340000F0F2FC40B14023401B03FA00F0049B57
:104C440008F101080343049398F8001006222A4847
:104C540008F101078DF8281000F0DEFC002837D099
:104C6400264B1BBB039B073323F007030833039333
:104C7400099B4B44099350E705FB02320120884607
:104C84008AE700230A25194608F1010805934046DE
:104C940010F8012B303A092A03D9002BC3D005910F
:104CA400C1E705FB012101238046F0E703AB009334
:104CB4002246134B04A93046AFF30080B0F1FF3F06
:104CC4008146D5D1A3895B063FF57EAF09987DE780
:104CD40003AB009322460A4B04A9304600F088F83F
:104CE400ECE700BF785C0008C65C0008985C00082C
:104CF400585C0008C25C0008CC5C0008000000009E
:104D0400B74A00082DE9F04791461F468A680B69A7
:104D140006469342B8BF1346C9F8003091F84320C1
:104D24000C46DDF8208012B10133C9F80030236845
:104D3400990642BFD9F800300233C9F8003025681B
:104D440015F0060507D104F1190AE368D9F8002023
:104D54009B1AAB4229DC94F843302268003318BF15
:104D6400012392062ED404F1430239463046C0474B
:104D7400013021D02368E56803F00603042B18BF33
:104D84000025D9F800204FF0000908BFAD1AA36828
:104D9400226908BF25EAE5759342C4BF9B1AED1842
:104DA4001A344D451AD1002008E0012352463946F1
:104DB4003046C047013003D14FF0FF30BDE8F087E3
:104DC4000135C2E73020E11881F843005A1C94F8F9
:104DD40045102244023382F84310C4E701232246DB
:104DE40039463046C0470130E6D009F10109D8E719
:104DF4002DE9F04301F1430C0C46097E85B06E2980
:104E04001746064698460C9A00F0B38022D86329C8
:104E140036D00AD8002900F0B980582900F08380E0
:104E240004F1420584F8421032E0642901D0692972
:104E3400F6D120681368050603F104012AD51B681E
:104E44001160002B03DA2D225B4284F843206F4863
:104E54000A2239E0732900F09D8008D86F2920D0F8
:104E64007029DDD1236843F02003236003E0752912
:104E740017D07829D4D17823654884F8453055E093
:104E8400136804F14205191D1B68116084F842304F
:104E940001238CE01B6810F0400F116018BF1BB297
:104EA400CFE713682568181D1060280601D51B6814
:104EB40002E06806FBD51B886F2914BF0A2208226A
:104EC4005248002184F843106568002DA560C0F2A3
:104ED4009580216821F004012160002B3DD1002D33
:104EE40040F08E806546082A0BD12368DB0708D57D
:104EF400236962689A42DEBF302305F8013C05F15C
:104F0400FF35ACEB05032361CDF800803B4603AAD3
:104F140021463046FFF7F6FE01304DD14FF0FF3009
:104F240005B0BDE8F083394884F84510136821685A
:104F34001D1D1B6815600A060BD5CA0744BF41F046
:104F4400200121601BB9226822F020022260102275
:104F5400B7E74D0648BF9BB2EFE76546B3FBF2F1F6
:104F640002FB1133C35C05F8013D0B460029F5D162
:104F7400B9E713682568181D6169106028061B6865
:104F840001D5196002E06A06FBD519800023654645
:104F94002361B9E71368191D11601D686268002157
:104FA400284600F039FB08B1401B60606368236148
:104FB400002384F84330A7E723692A46394630465C
:104FC400C0470130AAD023689B0713D4E068039B31
:104FD4009842B8BF1846A3E701234A4639463046EB
:104FE400C04701309AD00135E368039A9B1AAB425B
:104FF400F2DCEBE7002504F11909F5E7002BACD14D
:10500400037804F1420584F842306CE7D35C00086D
:10501400E45C00082DE9F04115468A6880460C4698
:1050240032B98A69002A14BF4FF0FF3201228A6024
:1050340000262268D1065FBF1A68111D196017681F
:10504400A369DBB1012B07D12B6862691B78D35CA0
:10505400A3B9002E31D106E0022B07D0002E2CD1AB
:10506400A369012B29D10120BDE8F081FFF71EFAC5
:105074002B681B78184443781B07EFD42368013648
:10508400DA065EBF2B681B783B702A686B6802F1F6
:1050940001022A60A26803F1FF3302F1FF326B6060
:1050A40058BF0137A26042B1002BC9DCD4F880316B
:1050B4002946404698470028C2D0236813F01003BD
:1050C40005D1E2680132E260A26902B13B70236952
:1050D40000201E442661C7E72DE9F04F0C469A468E
:1050E400744B87B08346164693E8070003ABA76862
:1050F40083E80700704BA169704A04F11C09032975
:1051040008BF1A467B1EB3F5AE7F84BF40F25D1321
:10511400A360236888BF6FF4AE7543F450632360C3
:1051240098BF00274B464FF00008009288BF7F19B4
:105134003168019303AB53F828000222097800F088
:105144006BFA019B30B3B8F1010F5AD162682AB9E6
:1051540008212268616042F400722260226822F40D
:10516400A0622260A268511EA1609AB132685D1CDF
:10517400511C316012781A707368013B002B736004
:1051840007DCD4F88031314658469847002840F06F
:1051940087802B4608F10108B8F1030FC8D1626873
:1051A4000AB90A226260626845496069891A0193F2
:1051B40000F00CF9019B4FF000081D46A36822681B
:1051C400002B3BD03168606991F800C010F80C00E6
:1051D400002833D0BCF1300F21D110051FD508F1C0
:1051E400010817B10133013FA3607368013B002B31
:1051F40073601CDD336801333360A368013BA36033
:10520400DCE7B8F1020FADD1226802F4C061B1F558
:10521400007FBFD1102142F480726160A1E722F4C3
:10522400106222600B78013505F8013CDDE7D4F803
:1052340080313146584698470028DED02368D90586
:105244000CD54D4508D915F8011C6F1ED4F87C31D6
:105254003246584698473D464D4529D0226812F0BB
:10526400100213D12A70636849465846009EB0471D
:10527400DAF8003021681A1DCAF8002011F0200F56
:105284001B6810D01860E3680133E3600020A5EBCD
:105294000905A84425694544256107B0BDE8F08F98
:1052A4004FF00008CAE7CA074CBF18801860EAE745
:1052B4000120F2E714580008193F00082955000896
:1052C400055D000870B50D461446064618B183699D
:1052D4000BB9FFF715F8134B9C4212D17468A368FD
:1052E400013B002BA36016DAA269934202DBEBB206
:1052F4000A2B10D1224629463046BDE87040FEF7FD
:105304001BBE094B9C4201D1B468E8E7074B9C42A1
:1053140008BFF468E3E72368E8B25A1C22601D70F2
:1053240070BD00BF785C0008985C0008585C0008F9
:1053340038B50546084611460022054C22601A4637
:10534400FBF7F4FC431C02D1236803B12B6038BD86
:10535400300A002038B50C46054618B183690BB9EC
:10536400FEF7CEFF0E4B9C420DD16C6821462846B9
:1053740000F092F988B96368013B636023685A1CA2
:105384002260187838BD074B9C4201D1AC68EDE728
:10539400054B9C4208BFEC68E8E74FF0FF30F1E7AB
:1053A400785C0008985C0008585C000838B5002355
:1053B400054C054608462360FBF7E2FC431C02D17A
:1053C400236803B12B6038BD300A002070B50B7818
:1053D400441E5E2B13BF4A1C8A1C4B78002108BF55
:1053E400012100F1FF0504F8011FAC42FBD113B900
:1053F400013A104670BD81F00104C454511C11F8E7
:10540400015C4E1E2D2D0A4606D05D2DF1D00DB93E
:105414003246EEE72B46F0E70E785D2EFAD0B34223
:10542400F8DC01339E42C454FBDC0231E7E72DE98A
:10543400F0478046894692461E460F463D460898E8
:1054440015F8014BFFF72EF82044437813F00803B6
:1054540030D12D2C30D101217C78BD1C002E5CD0A4
:10546400102E09D1302C07D12B7803F0DF03582BF1
:105474004ED110266C7802354FF0FF32B2FBF6F2B3
:10548400002306FB02FC18466FEA0C0CA4F130075B
:10549400092F17D83C46A64223DD002B1EDB82428F
:1054A4001CD301D1A44519DB012300FB064015F8E8
:1054B400014BEBE72F46C1E72B2C04BFBD1C7C78C6
:1054C4001946CBE7A4F14107192F01D8373CE2E78D
:1054D400A4F16107192F04D8573CDCE74FF0FF33E0
:1054E400E5E7002B09DA22234FF0FF30C8F800303B
:1054F400BAF1000F07D1BDE8F08701B14042BAF11B
:10550400000FF8D00BB105F1FF39CAF80090F2E7AB
:105514003024002EB0D10826AEE7302CA4D00A26C1
:10552400AAE7000037B5064C064D2468246A002C0F
:1055340008BF2C460094FFF77AFF03B030BD00BFCC
:1055440090000020F40000202DE9F0410C46496B46
:1055540004F1440399421BD14FF48061FFF790F8A2
:1055640018B94FF0FF30BDE8F0814FF48063A363B6
:1055740094F84630606380F8FF3394F8453000F2C5
:10558400FD30437094F84430037020600020EAE753
:10559400A66B77003A4600F04FF805460028E0D0A5
:1055A40000EB0608014632464046FEF72DFAC4F8E1
:1055B4000080C4E90D57E9E749B1FF2A8BBF8A236C
:1055C4000A700360012088BF4FF0FF30704708461F
:1055D4007047000038B50023064C054608461146BE
:1055E4002360FBF7C3FB431C02D1236803B12B6088
:1055F40038BD00BF300A002038B50023054C0546ED
:1056040008462360FBF7B8FB431C02D1236803B1AF
:105614002B6038BD300A002010B5C9B20244904254
:10562400034601D1002303E01C7801308C42F6D1FB
:10563400184610BD70477047F8B5074614460E4625
:1056440021B9BDE8F8401146FFF71AB822B9FEF7B0
:10565400CBFF25462846F8BD00F0AAF8A0420FD299
:1056640021463846FFF70CF805460028F2D03146AB
:105674002246FEF7C9F931463846FEF7B5FFE9E799
:105684003546E7E7838903F00903092B01D1FEF7C7
:10569400E5BD002070470000F8B50C46054618B17A
:1056A40083690BB9FEF72CFE3C4B9C420AD16C6813
:1056B4000023B4F90C20636093B29E060CD54FF01E
:1056C400FF3068E0364B9C4201D1AC68F0E7354BC3
:1056D4009C4208BFEC68EBE758074AD4D90605D4C6
:1056E400092342F040022B60A281E8E71A070BD598
:1056F40021462846FEF788FD0028E0D1A389A06052
:1057040023F00803A381A061A38943F00403A381C8
:1057140023691BB921462846FEF70CFFB4F90C7027
:10572400BEB2B3070FD00123A3811F4B1F491868D2
:1057340006F00906FEF750FE092EA78103D1214683
:105744002846FEF7DBFC2269666A22606369216AE7
:105754002846B047002860601EDC18BF0022B4F958
:105764000C3016BF626043F0200343F04003A38172
:10577400A5E7616B0029CBD004F14403994202D020
:105784002846FEF731FF0020236C60636360002B22
:10579400BED0E36B2360F8BD0020FCE7785C000812
:1057A400985C0008585C0008545C0008895600089E
:1057B40051F8043C181F002BBCBF0B58C01870478D
:1057C400F8B500BFF8BC08BC9E467047F8B500BFEA
:0857D400F8BC08BC9E467047BA
:1057DC0002030405060708090A0B0C0D0E0F101026
:1057EC0002030405060708090A0B0C0D0E0F101016
:1057FC001B5B4100045A0008145900081C5900088E
:10580C00045A000818590008075D00080A5D0008D2
:10581C000D5D00085B25645D2053746172740A0091
:10582C000000000000000000010203040607080944
:10583C0000000000010203045246423E200000001A
:10584C0025730000212100002009000068656C70A0
:10585C00000000002D68000025733A20636F6D6D09
:10586C00616E64206E6F7420666F756E640A0D0035
:10587C00636D645F72666D00756E6B6E6F776E2014
:10588C00636F6D6D616E642025730A002573282586
:10589C0064290A0025642064617928732920256411
:1058AC003A253032643A253032642075702E0A0065
:1058BC0025643A253032643A253032642075702ED6
:1058CC000A00000053657020323520323032302C03
:1058DC002031373A30353A3332000000312E302E39
:1058EC00302E31330000000056657273696F6E20E4
:1058FC003D202573282573290A00000025632025E7
:10590C00630000000A0D0000202020002020202031
:10591C00202020202000000068656C7009092D09EA
:10592C00646973706C617920636F6D6D616E647303
:10593C0000000000757074696D6500007570746905
:10594C006D6509092D09646973706C617920757036
:10595C0074696D65000000007665720076657209E9
:10596C00092D09646973706C6179207665727369AD
:10597C006F6E2E007265736574000000726573653E
:10598C007409092D097265737461727420737973CB
:10599C0074656D0072666D0072666D09092D09548F
:1059AC006F2072666D20636F6D6D616E6400000018
:1059BC007364000073640909092D0953656E642032
:1059CC0053442028205374617475732044617461AE
:1059DC00202900006F6363006F636309092D094F71
:1059EC00434320504120282052464D42617365208C
:1059FC002D3E2052464D2029000000006F6363208D
:105A0C005B31285374617274292F302853746F7072
:105A1C00295D000052464D4F6363506153746172AF
:105A2C007400000052464D4F6363506153746F70A5
:105A3C0000000000636D645F6F6363002564000009
:105A4C006F636320300D00006F636320310D000025
:105A5C005B25645D20257328256429202D20496E43
:105A6C0076616C6964207061636B657428256429A8
:105A7C000A000000257328256429202D20496E7604
:105A8C00616C69642044617461202820256420299C
:105A9C000A0000004F4343205041203A20537461C8
:105AAC00727428256429202F2053746F7028256464
:105ABC0029202F20416374697665282564290A0002
:105ACC004F43432050412053746172740000000016
