:020000040800F2
:1000000000C00020051000087D0E0008810E0008C9
:10001000850E0008890E00088D0E00080000000003
:10002000000000000000000000000000910E000829
:10003000950E000800000000990E00089D0E0008B3
:100040004D1000084D1000084D1000084D1000081C
:100050004D1000084D1000084D1000084D1000080C
:100060004D1000084D1000084D1000084D100008FC
:100070004D1000084D1000084D1000084D100008EC
:100080004D1000084D100008A10E00084D1000088A
:100090004D1000084D1000084D1000084D100008CC
:1000A0004D1000084D1000084D1000084D100008BC
:1000B000BD0E00084D1000084D1000084D1000083E
:1000C0004D1000084D1000084D1000084D1000089C
:1000D0004D100008490F0008550F0008610F000877
:1000E0004D1000084D1000084D1000084D1000087C
:1000F0004D1000084D1000084D1000084D1000086C
:100100004D1000084D1000084D1000084D1000085B
:100110004D1000086D0F00084D1000084D1000082C
:100120004D1000084D1000084D1000084D1000083B
:1001300000000000000000000000000000000000BF
:1001400000000000000000000000000000000000AF
:10015000000000000000000000000000000000009F
:10016000000000000000000000000000000000008F
:10017000000000000000000000000000000000007F
:10018000000000000000000000000000000000006F
:10019000000000000000000000000000000000005F
:1001A000000000000000000000000000000000004F
:1001B000000000000000000000000000000000003F
:1001C000000000000000000000000000000000002F
:1001D000000000000000000000000000000000001F
:0401E0005FF8E0F1F3
:1001E40010B5054C237833B9044B13B10448AFF36D
:1001F40000800123237010BD700000200000000067
:10020400143F000808B5034B1BB103490348AFF37F
:10021400008008BD0000000074000020143F0008A6
:1002240038B50E4C204601F037F86421204601F021
:1002340005F9204601F0BEF90546204601F0C6F84E
:1002440040F6E44000FB05F0054BA3FB0023C01A75
:1002540003EB5000C0F3CF2038BD00BF30010020B5
:100264000101100030B597B0002124220DA802F03E
:100274009BFE00240122022510230CA8CDE91023A3
:1002840001940694CDE90244CDE90444CDE9074440
:10029400CDE90944CDE90B4501F094FD0F23214636
:1002A40001A80193CDE90244CDE9044401F082FFA1
:1002B40006A80695089402F09FF817B030BD00BF59
:1002C4002DE9804800248BB000F0E4FEFFF7CAFF5C
:1002D4000122CDE90644CDE90844B44B1646996998
:1002E400022741F01001996198694FF4005100F020
:1002F4001000009000989D69AD4845F020059D616F
:100304009D694FF00C0805F020050195019D9D693C
:100314004FF4E13945F004059D619D69DFF8D4B2DD
:1003240005F004050295029D9D69DFF8CCA245F015
:1003340008059D619B699F4D03F008030393039B8C
:1003440001F07EFC22464FF46271994801F078FC7A
:10035400224641F20101984801F072FC32463946C6
:10036400954801F06DFC32462821944801F068FC60
:100374002246C021914801F063FC42F2883306A969
:100384008B48CDE906360894099701F037FB44F20F
:10039400010306A986480693CDE9074401F02EFB24
:1003A40041F2030306A98448CDE90764069309973B
:1003B40001F024FB302306A97D480693CDE90747C5
:1003C40001F01CFB032306A97C480693CDE90747EB
:1003D40001F014FB4FF4704306A978480693CDE965
:1003E400074401F00BFBE82306A97448CDE9076430
:1003F4000693099701F002FB714B28462B604FF4DA
:1004040060232E73EB612E61AC602C756C60CDE9BA
:100414000644089400F074FE284606A9CDE9076452
:10042400CDF8188001F04AF94FF48042654B664DCF
:1004340066491D601846664D59601A61C3E9024455
:10044400C3E90544C3E9074401F004FC614B2846B1
:10045400C5E90039C5E90448C5E90244C5E90644CB
:1004640002F0B4FA5C4A5846CBE90584CBF8002084
:10047400CBE90194CBE90344CBF81C4002F0A6FA83
:100484004FF46023554A5046CAF81C308AF80C6071
:10049400CAF81060CAF80020CAF808408AF8144064
:1004A400CAF80440CDE90644089400F029FE0B2262
:1004B400504606A9CDE90764069201F0FFF8072229
:1004C4004FF0804140F2E733DFF830A1CDE9064434
:1004D4005046CAF80420CAF80010CAF80C30CDE916
:1004E4000844CDE90444CAF80840CAF81040CAF8E0
:1004F400184002F085F84FF4805306A9504606933D
:1005040002F0E4F804A95046CDE9044402F038FAB4
:100514004FF49643324E334A3046C6E90023C6E9C7
:100524000448C6E90244C6E9064402F04FFA2E4BD9
:100534002E4A1846C3E905841A60C3E90194C3E945
:100544000344DC61DFF8B88002F040FA504602F060
:10055400ADF800F07DFA5A463146284600F08AFA92
:10056400D8F800302146986802F03EFDD8F80030F3
:1005740021463A469868234602F03EFD00F0A8FD65
:1005840001461B4802F018FD00F03CF800F042F868
:1005940000F058F800F0EAF800F0FEF800F054F922
:1005A40000F088F9012000F099FDEDE70010024009
:1005B400001001403001002000080140000C0140FF
:1005C40000240140E001002000580040A086010002
:1005D400600100200038014000480040002801402C
:1005E400A0010020004400403402002000500040DC
:1005F4004C3F0008C00000200001002074020020CD
:100604000C00002001224FF48051014801F018BB76
:100614000008014008B52021084801F00BFB30B95F
:10062400BDE8084001222021054801F009BB002251
:10063400BDE808402021024801F002BB001001403F
:10064400000C014038B54FF48041404801F0F2FA03
:1006540000283CD140F68B233D4A12889A423D4AF9
:10066400137824D9002B4AD002203B4C83422178B2
:1006740052D041F28835394B10701D80022942D086
:1006840003292BD0012917D0002301220821344843
:10069400237001F0D5FA01224021314801F0D0FA4B
:1006A400BDE83840012280212D4801F0C9BA73BB4E
:1006B4000123294913700B702A4B1A8832BB4FF45B
:1006C400FA72082126481A8001F0BEFAE3E7214AAB
:1006D400137853BB0323204913700B7001220821A4
:1006E4001F4801F0ADFA012240211D4801F0A8FA8B
:1006F400BDE8384000228021194801F0A1BA022344
:10070400154913700B70184B1A8882B138BD01203B
:10071400114C83422178ACD1994214D00F4A1288EB
:10072400002AABD123701946A8E703209DE74FF4B4
:10073400FA7408210A481C8001F082FA4021084812
:1007440001F082FAACE7194698E700BF00100140B7
:1007540094000020A400002090000020A2000020AB
:10076400000C0140A00000209E00002010B51021C4
:10077400074801F05FFA021E16BF0124002401227B
:100784004FF40071024801F05BFA024B1C7010BD7B
:10079400001001408F00002010B50221244801F010
:1007A40049FA48B10123234C234922780B70B2B192
:1007B400224B1A780ABB10BD1E4C1F4922780346EF
:1007C400087022BB1D4B1A78002AF4D00024802123
:1007D40022461C701A48BDE8104001F031BA1A468E
:1007E40080211748237001F02BFA4FF4FA72154B4D
:1007F4001A80124B1A78002ADDD0002401221C70C2
:100804004FF48071BDE810400D4801F019BA02465A
:100814004FF480710A48237001F012FA4FF4FA720F
:10082400084B1A80054B1A78002AC4D0CEE700BFC3
:10083400000C01408E0000208C0000208D00002060
:10084400001001409200002038B5144D2B8801336C
:100854002B80FFF7E5FC01210446114801F0EAF979
:1008640088B1553CA4B20F4B2A881968B2F57A7F37
:100874000C441C6006D3B4FBF2F400220A492A801B
:100884000C801A6038BD094B1B780BB14B34A4B2F1
:100894000221074801F0CEF9E5E700BF9C000020E3
:1008A4000010014098000020940000208F000020D8
:1008B400000C0140704700BF0023C0E9203370479B
:1008C400024638B5D0F88440D2F88050631C5842B0
:1008D40000F07F0003F07F0358BF4342AB4204D0D3
:1008E40011550846C2F8843038BD034802F064FB51
:1008F4004FF0FF3038BD00BF583F0008022808B54C
:1009040002D80123184608BD02F024FB0922002363
:100914000260184608BD00BF0138012810B50CD884
:100924001446094A4FF0FF331068A2B202F0B8F837
:10093400002818BF0524204610BD02F00BFB092334
:100944004FF0FF340360F6E7B4020020022808B534
:1009540098BF002301D8184608BD02F0FBFA09220B
:100964004FF0FF330260F6E708B502F0F3FA09230B
:1009740003604FF0FF3008BD08B560B9094A4FF075
:10098400FF331068012202F015F900280CBF01237F
:100994000523184608BD02F0DDFA09224FF0FF33A3
:1009A4000260F6E7B4020020022808B504D84FF428
:1009B400005300204B6008BD02F0CCFA0923036009
:1009C400002008BD38B5194A03680446934212D082
:1009D400174A93421DD0174A934200D038BD164D92
:1009E40016482978FFF76CFF29462046BDE83840B1
:1009F400012202F07FB9124D12482978FFF760FFF7
:100A040001222946204602F075F92368084A9342D8
:100A1400E1D10D4D0D482978FFF752FF29460122F7
:100A2400204602F067F92368D5E700BF003801408B
:100A3400004400400048004058040020B802002050
:100A4400600400204803002040030020D00300205D
:100A540008B50548FFF730FF0448FFF72DFFBDE850
:100A640008400348FFF728BF48030020D0030020B4
:100A7400B80200202DE9F0410C4690460546134883
:100A8400FFF71AFF1248FFF717FF1248FFF714FF8A
:100A9400114E124B124F1D60C6F800803C602DB100
:100AA400284601220F4902F025F93C6824B120466A
:100AB40001220D4902F01EF9306828B1BDE8F04169
:100AC40001220A4902F016B9BDE8F081480300206A
:100AD400D0030020B8020020B0000020A8000020AD
:100AE400AC000020600400204003002058040020D3
:100AF4000E4B82B09A690E4942F001029A619A69DA
:100B040002F001020092009ADA6942F08052DA613E
:100B1400DB6903F080530193019B4B6823F0E0638E
:100B240043F080634B6002B0704700BF0010024086
:100B34000000014030B500240368254A89B093427F
:100B4400CDE90444CDE9064429D0224A934201D098
:100B540009B030BD022003251F4B04A99A6942F451
:100B640080629A619A6902F480620292029A9A6996
:100B740042F010029A619B69049003F010030393FE
:100B84001648039B059500F039FF224621461220A2
:100B940000F038FE122000F06BFE09B030BD0420D6
:100BA4000D4B03259A6904A942F400729A619A696B
:100BB40002F400720092009A9A6942F010029A615B
:100BC4009B69049003F0100301930448019BD9E747
:100BD40000240140002801400010024000100140A0
:100BE400002330B50168154A87B09142CDE902333C
:100BF400CDE9043301D007B030BD4FF44060032287
:100C040012250F4C02A9A36943F00803A361A36949
:100C1400029003F0080300930A48009B0395059291
:100C240000F0ECFEE36943F48003E361E36903F459
:100C340080030193019B07B030BD00BF0058004002
:100C440000100240000C01400368B3F1804F00D053
:100C54007047002203F5043310B5DC6982B044F018
:100C64000104DC61DB69114603F0010301931C20DC
:100C7400019B00F0C7FD1C2002B0BDE8104000F04D
:100C8400F7BD00BF70B500240368724A8EB093426A
:100C9400CDE90A44CDE90C4445D06F4A93427BD058
:100CA4006E4A934200F0A9806D4A934201D00EB07F
:100CB40070BD4FF48061022603256A4B6A48DA69E5
:100CC40042F48022DA61DA6902F480220892089AF6
:100CD4009A6942F010029A619B690A9103F0100329
:100CE40009930AA9099B0B960D9500F087FE4FF412
:100CF40000630AA95C480A93CDE90B4400F07EFE28
:100D04005A4822464368214623F0300343F0E06307
:100D140043F010034360272000F074FD272000F007
:100D2400A7FD0EB070BD4FF48051022603254D4B34
:100D34004D48DA6942F48012DA61DA6902F4801209
:100D44000192019A9A6942F010029A619A6902F03A
:100D540010020292029A9A6942F020029A619B69F7
:100D64000A9103F0200303930AA9039B0B960D95A4
:100D740000F044FE04230AA93D480A93CDE90B443C
:100D840000F03CFE22462146352000F03BFD352094
:100D940000F06EFD0EB070BD4FF400710226032505
:100DA400304B34489A6942F480429A619A6902F459
:100DB40080420492049A9A6942F004029A619B69FF
:100DC4000A9103F0040305930AA9059B0B960D955C
:100DD40000F014FE4FF480630AA926480A93CDE973
:100DE4000B4400F00BFE22462146252000F00AFDAC
:100DF400252000F03DFD0EB070BD04210226032520
:100E0400184B1C48DA6942F40032DA61DA6902F4F8
:100E140000320692069A9A690A439A619B690A917A
:100E24000B4007930AA9079B0B960D9500F0E6FD6E
:100E340008230AA90F480A93CDE90B4400F0DEFD0C
:100E440022462146262000F0DDFC262000F010FD7D
:100E54000EB070BD00500040003801400044004016
:100E64000048004000100240001001400000014012
:100E74000014014000080140704700BFFEE700BFB6
:100E8400FEE700BFFEE700BFFEE700BF704700BFFC
:100E9400704700BF704700BF00F00EB908B50448A2
:100EA40000F090FBBDE80840024800F08BBB00BF97
:100EB400300100200001002010B5174801F0B6FCF5
:100EC400164A13880BB1013B1380154A13880BB1E2
:100ED400013B1380134A13880BB1013B1380124A60
:100EE40013881BB1013B9BB2138083B10F4A138853
:100EF40063B1013B9BB2138043B90D4C0D480E49BD
:100F04000E4A2370A0F8E8330B80137010BD012241
:100F14000B4B1A70EAE700BF74020020A200002005
:100F2400A00000209E000020920000205408002011
:100F3400440C002058080020420C002056080020D1
:100F44008D000020014801F039BF00BF600100207E
:100F5400014801F033BF00BFA0010020014801F0A7
:100F64002DBF00BFC0000020014801F027BF00BF13
:100F7400340200200C4A08B5136833B1694618449A
:100F8400884209D81060184608BD08490B4611600C
:100F9400694618448842F5D901F0DCFF0C224FF071
:100FA400FF330260184608BDB4000020500C002036
:100FB40030B44FF41F054FF000640E4B0E4A19680D
:100FC4000E4841F00101196059680A405A601A68D4
:100FD40022F0847222F480321A601A6822F4802289
:100FE4001A605A6822F4FE025A609D60846030BC24
:100FF400704700BF001002400000FFF800ED00E061
:10100400002103E00B4B5B58435004310A480B4B5F
:1010140042189A42F6D30A4A02E0002342F8043BFB
:10102400084B9A42F9D3FFF7C3FF01F099FFFFF78A
:1010340047F970472C400008000000207000002091
:1010440070000020500C0020FEE7000038B54FF47B
:101054007A730D490D4A09781268B3FBF1F305461A
:10106400B2FBF3F000F012FC08B90F2D01D90120F6
:1010740038BD0446024629464FF0FF3000F0C2FB5B
:10108400034B20461D6038BD0400002000000020F2
:1010940008000020074A08B51368032043F0100332
:1010A400136000F09DFB0020FFF7D0FFFFF720FD49
:1010B400002008BD00200240034A044B11681B783D
:1010C4000B441360704700BF480C0020040000204C
:1010D400014B1868704700BF480C002038B504461F
:1010E400FFF7F6FF631C054602D0044B1B781C4433
:1010F400FFF7EEFF401BA042FAD338BD04000020E6
:10110400002875D0836A70B50446002B66D0236826
:101114009A68D0074DD4A26AD20644D4A26A5B4925
:1011240022F4885222F0020242F002028B42A262AE
:10113400E069626878D0257BA16842EA4502B1F58E
:10114400807F42EA0002207D5DD0012900F08D807D
:10115400012800F0988058684D4920F4694058608F
:1011640000209D68294011439960D96A494D21F4B2
:1011740070010143D9629B681D40AA423AD0012004
:10118400A36A23F0120343F01003A362E36A034348
:10119400E36270BDA36A43F01003A362E36A43F001
:1011A4000103E362A36AA36A012043F01003A3626C
:1011B40070BD9A6822F001029A60FFF789FF054624
:1011C40004E0FFF785FF401B0228E3D823689A68F0
:1011D400D107F6D4A26AD206E5D49FE7C36280F8A9
:1011E4002430FFF7A7FC23689A68D007E1D492E77C
:1011F400012070470020E062A36A23F0030343F058
:101204000103A36270BD012814D05868204920F45A
:10121400694040F4807058609868014011439960B7
:10122400216901390805A0E7B0F5402F08BF4FF444
:10123400002080E70E46EDB9A069451E46EA453513
:1012440045F400665D68124825F4694535435D60E0
:101254009D68B1F5807F00EA050040EA02009860CD
:10126400DED00129DCD000207FE70128CDD14FF466
:101274008076E0E7A06A40F02000A062E06A40F0D7
:101284000100E062DEE70026D5E700BF003C014034
:10129400FDF7E1FFFE0E1FFF90F82430012B66D00E
:1012A4000023012170B5026882B00193936804465B
:1012B40080F82410D80720D4404B41481B6891681B
:1012C400A0FB030341F001019B0C91600193019B7E
:1012D4002BB1019B013B0193019B002BF9D1FFF73B
:1012E400F7FE064604E0FFF7F3FE801B022832D81F
:1012F4002268956815F00105F5D0A36A314923F4F5
:10130400407323F0010343F480738A42A36230D014
:10131400A36A23F48013A3625368590535D4A36ADE
:10132400002113F4805318BFE36A84F8241018BF13
:1013340023F00603E3626FF002031360936803F47F
:101344006023B3F5602F27D00020936843F4801303
:10135400936002B070BD0120A36A84F8245043F066
:101364001003A362E36A0343E36202B070BD022088
:101374007047154B596811F4702FC9D0A16A41F414
:101384008011A1625B685B05C9D5A36A23F440534D
:1013940043F48053A362C2E70A4B9A4206D000206A
:1013A400936843F4A003936002B070BDA3F5806317
:1013B4005B6813F4702FC7D1F1E700BF0000002071
:1013C40083DE1B43002801400024014038B590F817
:1013D4002430012B26D00122036880F824209A6847
:1013E4000446D2070CD40020A36A23F4885323F0C4
:1013F400010343F00103A362002384F8243038BDC1
:101404009A6822F001029A60FFF762FE054604E042
:10141400FFF75EFE401B022806D823689B68DB07A3
:10142400F6D4E0E7022038BD0120A36A43F010039C
:10143400A362E36A0343E362DEE700BF2DE9F04100
:101444000446002582B00E460195FFF741FE23684D
:101454009A68D7056FD45A680746D50519D4DA6A4D
:1014640012F4700F15D1701C79D11A689107FCD54C
:101474006FF012021A60A26A42F40072A2629B68C0
:1014840003F46023B3F5602F75D0002002B0BDE8EB
:10149400F081444B0220D3F8008001F02FF8226839
:1014A40041491569B8FBF0F00D42134610D1D568D7
:1014B40001F15C410D420BD115693C490D426ED1DD
:1014C400D56801F16E410D4214BF2925142509E0A8
:1014D400156936490D4224D1D56801F16E410D429A
:1014E4001FD1542505FB00F501998D42C0D9731C09
:1014F4002BD036B90AE0019B01330193019B9D4235
:101504004AD9FFF7E5FDC01B8642F4D2002203202E
:10151400A36A84F8242043F00403A36202B0BDE864
:10152400F081156922490D4217D1D5680D4214BFC7
:10153400FC255425D6E70120A36A84F8245043F0FF
:101544002003A36202B0BDE8F081019B0133019343
:10155400019B9D42F9D813468AE7FC25C2E71A6825
:10156400920785D4002ED1D0FFF7B2FDC01BB04244
:10157400CCD8236877E7237B002B86D1A36A23F496
:101584008073A362A06A10F480507FF47EAFA36AD4
:1015940043F00103A36279E72268134668E729252B
:1015A400A0E700BF0000002024499224922449129D
:1015B400499224000368D86C704700BF704700BF8D
:1015C400704700BF036810B55A680446900602D5F8
:1015D4001A6891072AD45A68100602D51A68510766
:1015E40006D45A68520602D51B68DB0733D410BDF3
:1015F400A26AD20603D4A26A42F40052A2629A6892
:1016040002F4E042B2F5E04F34D05A68500505D4F4
:101614009A6802F46022B2F5602F28D0204600F0C8
:10162400DDF86FF00C0223681A60DAE7A26AD206CA
:1016340003D4A26A42F40072A2629A6802F460229D
:10164400B2F5602F26D02046FFF7B8FF6FF01202E4
:1016540023681A60BFE7A36A204643F48033A36279
:10166400FFF7AEFF6FF0010223681A6010BD227B02
:10167400002AD3D15A6822F080025A60A36A23F464
:101684008053A362A36AD905C8D4A36A43F00103B3
:10169400A362C3E7227B002AD5D15A6822F0200234
:1016A4005A60A36A23F48073A362A36ADB04CAD4D6
:1016B400A36A43F00103A362C5E700BF002270B42C
:1016C40090F8243083B0012B01925FD001234D6840
:1016D4000468062D80F824300A6805EB85034FF072
:1016E4001F0625D90C2D47D8233B256B9E4025EAA0
:1016F400060502FA03F32B432363092A8B684FF090
:10170400070602EB420123D91E39E5688E408B405F
:1017140025EA06010B43E360A2F11003012B22D951
:101724000023002280F82420184603B070BC7047C0
:10173400053B656B9E4025EA060502FA03F32B433D
:10174400092A63634FF007068B6802EB4201DBD87A
:1017540025698E408B4025EA06010B432361A2F1E3
:101764001003012BDCD81A4B9C4214D0826A01234B
:1017740042F020028262D4E7413BE56A9E4025EABA
:10178400060502FA03F32B43E362B6E70223184685
:1017940003B070BC7047A3681B02C1D4A368102AAD
:1017A40043F40003A360BBD10A4B0B4A1B68A2FBA2
:1017B40003239B0C03EB83035B000193019B002B2E
:1017C400AED0019B013B0193019B002BF9D1A7E70C
:1017D400002401400000002083DE1B43704700BF4B
:1017E4004FF6FF01064A0002D36800F4E0600B40A4
:1017F40043F0BF6343F400330343D360704700BF37
:1018040000ED00E0184B30B4DB68C3F30223C3F1EE
:101814000705042D03F1040428BF0425062C19D957
:101824004FF0FF34033B9C4022EA04044FF0FF32A4
:10183400AA4021EA020101FA03F22243120100281C
:10184400D2B20ADB00F1604000F5614080F8002369
:1018540030BC704700242346E8E7044B00F00F0037
:1018640003441A7630BC704700ED00E0FCEC00E065
:10187400002807DB012300F01F01034A8B404009C5
:1018840042F82030704700BF00E100E00138B0F1B9
:10189400807F0DD230B4F02500220721054B064C81
:1018A400586084F82350104630BC9A601960704721
:1018B4000120704710E000E000ED00E090F82130D6
:1018C40010B5022B04D0042201248263204610BDEB
:1018D400036846491A688B4222F00E021A601A689D
:1018E40022F001021A60424A24D9934255D014329C
:1018F40093425CD01432934260D01432934250D05D
:10190400143293425FD01432934262D08B4266D039
:1019140002F56772934240D01432934247D0143296
:1019240093424BD01432934214BF4FF480334FF49C
:10193400805333E0934222D01432934239D014328C
:10194400934238D0143293422ED0143293423DD075
:101954001432934240D08B4244D002F567729342D2
:101964000DD01432934224D01432934223D0143233
:10197400934214BF4FF480334FF4805300E00123AB
:101984001C4A536001220024436B80F8212080F814
:101994002040B3B19847204610BD0123164A536036
:1019A400F0E74FF48053F9E74FF48053E8E710234E
:1019B400F4E71023E4E74FF48073E1E74FF4807316
:1019C400ECE71C4682E74FF48033E7E74FF48033BB
:1019D400D6E74FF48013E1E74FF48013D0E74FF0DC
:1019E4008073DBE74FF08073CAE700BF80000240DA
:1019F4000800024000000240000402400A68002A75
:101A040000F0F0802DE9F04F4FF0000A85B0554604
:101A1400DFF814C2DFF814E27C4FDFF8148204E02C
:101A2400013532FA05F300F083800123AB4002EA6A
:101A34000304A342F4D14A68122A00F0A98000F2F8
:101A44009280022A00F0A88040F28680032A72D095
:101A5400112A02D1CB6803F1040AFF2C6FD8814606
:101A64000368AA000F2606FA02FB23EA0B030AFA0C
:101A740002F21343C9F800304A68D3006AD5DCF88F
:101A8400189025F0030349F00109CCF81890DCF80C
:101A9400189003F1804309F00109CDF80C9003F587
:101AA400803305F00309DDF80CB04FEA8909D3F857
:101AB40008B006FA09F62BEA06067045019619D015
:101AC40040456DD0524EB04200F08D80514EB04230
:101AD40000F09280504EB0427BD0504EB0420CBFCA
:101AE4004FF0050B4FF0060B019E0BFA09F946EA7D
:101AF400090601969E603B68D6034CBF2343A3436B
:101B04003B607B6896034CBF2343A3437B60BB6865
:101B1400D6024CBF2343A343BB609202FB6816D595
:101B24001C43FC600A68013532FA05F37FF47DAF8B
:101B340005B0BDE8F08FFF2C4FF0000A8FD905F1F6
:101B44008042083A4368920000F104098AE723EAD4
:101B54000404FC600A6863E7AAB1012A7FF47DAF3C
:101B6400D1F80CA079E72E4EB2420CD020D92D4EDC
:101B7400B24208D006F58036B24204D0A6F58016EB
:101B8400B2427FF46AAF8A68E2B94FF0040A64E7AC
:101B9400CB6803F10C0A60E7CB6803F1080A5CE741
:101BA4004FF0010B0BFA09F946EA09060196A1E781
:101BB400A6F58016B242E6D006F58036B2427FF42E
:101BC4004CAFE0E7012A0CBF036143614FF0080A00
:101BD40043E74FF0040B019E0BFA09F946EA0906A4
:101BE400019687E770474FF0020B019E0BFA09F943
:101BF40046EA090601967DE74FF0030B019E0BFAB6
:101C040009F946EA0906019674E700BF0004014099
:101C1400001001400014014000180140001C014064
:101C240000002110000031100010024000080140A3
:101C3400000C01408368194214BF01200020704742
:101C440002B9090401617047C3680B4214BF4161C2
:101C540001617047002800F09780F8B590F83D3096
:101C6400044603F0FF02002B00F08780242322683F
:101C740084F83D30136823F00103136000F09CFBEB
:101C840062684B4B9A424BD84A4B98427AD9431ECE
:101C94005200B3FBF2F248492368A1FB00105968D3
:101CA400800C21F03F0101435960196A013021F091
:101CB4003F0108431862501CC0F30B00042838BFCE
:101CC4000420D96921F44F4121F0FF010025202689
:101CD4000843D8611968D4E9072021F0C001024300
:101CE4000A431A609968D4E9030221F4034121F0FC
:101CF400FF0102430A439A60D968D4E9052021F020
:101D0400FF0102430A43DA601A68284642F00102DE
:101D14001A60256484F83D60256384F83E50F8BD5C
:101D2400264B98422ED94FF49671234D2368A5FB78
:101D34000065AD0C01FB05F15E68214F26F03F06FE
:101D4400A7FB017135435D601D6A890925F03F05D4
:101D5400013129431962D969A56821F44F41013839
:101D640021F0FF0195B902EB4202B0FBF2F0013021
:101D7400C0F30B00C0B90120A8E780F83C20FEF7AF
:101D84002FFF73E70120F8BD0120704702EB8202A8
:101D940002EB8202B0FBF2F00130C0F30B0000282A
:101DA400E9D040F4404091E740F400408EE700BFA2
:101DB400A08601007F841E0083DE1B43FF083D00D4
:101DC400D34D6210002800F055812DE9F0410368DD
:101DD40082B0DD07044635D5A8494A6802F00C02F2
:101DE400042A00F005814A6802F00C02082A00F077
:101DF400FB806368B3F5803F10D0002B00F0208196
:101E0400B3F5A02F00F078819C4B1A6822F480323D
:101E14001A601A6822F480221A6004E0974A136850
:101E240043F480331360FFF753F9944D064605E0FD
:101E3400FFF74EF9801B642800F2F5802B689A03A3
:101E4400F6D523689F074DD41A0722D5A369002B22
:101E540000F0BA8001228A4B884D1A60FFF738F9E6
:101E6400064605E0FFF734F9801B022800F2DB8008
:101E74006B6A9B07F6D5834B834A1B68A2FB03233B
:101E84005B0A019300BF019B5A1E0192002BF9D1FA
:101E940023685D0769D5794BDA69D00000F1EC80DD
:101EA4000125DA6942F08052DA61DB6903F080537C
:101EB4000093009B754B1A68D10540F1A380E36839
:101EC400012B37D0002B00F0E780052B6B4B1A6AEF
:101ED40000F01F8122F001021A621A6A22F0040241
:101EE4001A622CE0654A516811F00C0F61D05168F8
:101EF40001F00C01082959D02369002B00F0EB8074
:101F04000122634B5D4D1A60FFF7E2F8064605E0D7
:101F1400FFF7DEF8801B022800F285802B68980703
:101F2400F6D52B68626923F0F80343EAC2032B60F9
:101F3400236889E7514A136A43F001031362FFF7E8
:101F4400C7F84E4E804641F2883705E0FFF7C0F8E7
:101F5400A0EB0800B84266D8336A9B07F6D525B1D2
:101F6400464AD36923F08053D361E069D0B1434D2D
:101F74006A6802F00C02082A00F0D38002284FF0AD
:101F84000001444A00F0DE801160FFF7A1F82C46FE
:101F9400054604E0FFF79CF8401B022843D8236859
:101FA4009B01F7D4002002B0BDE8F0815268D6034B
:101FB400A2D4324A1268950739D52269012A36D04B
:101FC400012002B0BDE8F0812D4A2C4D1360FFF7CB
:101FD4007FF8064604E0FFF77BF8801B022822D82E
:101FE4006B6A9F07F7D453E74A68D0037FF501AFC4
:101FF400224A126891037FF525AF6268002A7FF4B4
:1020040021AFDDE71A681E4642F480721A60FFF7BA
:102014005FF807463368DA053FF551AFFFF758F824
:10202400C01B6428F6D9032002B0BDE8F08113492F
:1020340060690A6822F0F80242EAC0020A6003E713
:1020440003F1804303F504331A681D4622F48032F9
:102054001A601A6822F480221A60FFF739F80646DB
:1020640004E0FFF735F8801B6428DCD82B689B0359
:10207400F7D4E6E60120704700251BE70010024074
:102084008004424200000020D34D621000700040E2
:10209400000042426000424203F1804303F50433EE
:1020A4001A6A1E4622F001021A621A6A41F288383C
:1020B40022F004021A62FFF70BF8074604E0FFF768
:1020C40007F8C01B4045AED8336A9807F7D4002DF3
:1020D4003FF44BAF44E7344A344D1360FEF7F8FF46
:1020E400064604E0FEF7F4FF801B02289BD82B6809
:1020F4009907F7D42368A7E603F18043A3F53C339B
:102104001A6842F480221A601A6842F480321A6013
:1021140089E642F004021A621A6A42F001021A6263
:102124000DE701283FF44DAF6B68226A03F4803158
:1021340091427FF445AF606A03F47013181A18BF14
:1021440001203EE71160FEF7C3FF064605E0FEF7F7
:10215400BFFF801B02283FF666AF2B689901F6D4B7
:10216400226AB2F5803F05D16B68A16823F400337D
:102174000B436B6001250D4B606A5968024321F4DF
:1021840074110B480A435A6005601C46FEF7A0FF11
:10219400054605E0FEF79CFF401B02283FF643AFCF
:1021A40023689A01F6D5FDE6000042420010024081
:1021B4006000424278B15D4A136803F007038B4222
:1021C4000BD2136823F007030B431360136803F067
:1021D40007038B4201D0012070472DE9F0410368C9
:1021E40086B09D0714D55C0704D5514C626842F44F
:1021F400E06262601A0704D54D4C626842F4605292
:1022040062604B4C8568626822F0F0022A43626087
:10221400DB0704460D4620D54268454B012A1B685E
:102224006FD0022A7ED0980727D5414E41F28838D4
:10223400736823F0030313437360FEF749FF0746F3
:1022440004E0FEF745FFC01B404569D87368626827
:1022540003F00C03B3EB820FF3D1344A136803F099
:102264000703AB420DD9136823F007032B43136014
:10227400136803F00703AB4203D0012006B0BDE8A6
:10228400F0812368590706D52949E0684A6822F491
:10229400E06202434A601A0707D5254A2169536858
:1022A40023F4605343EAC103536040F20122214BFB
:1022B40006ACADF804200FCB04E90F001C494A68B2
:1022C40002F00C03082B1AD1C2F38343234413F8FE
:1022D400100CD30318D4184B03FB00F3144A17480B
:1022E40052681749C2F30312805C164AC340086857
:1022F4001360FEF7ABFE002006B0BDE8F081124B80
:10230400ECE79F0391D4B8E74A680F4BC2F340420D
:1023140003FB00F3224412F8142CB3FBF2F3DDE7C1
:102324000320ABE79E0180D4A7E700BF0020024052
:10233400001002402C3F000800093D00743F0008D3
:10234400080000200000002000127A0040F2012260
:1023540086B0154B0DF1180CADF804200FCB0CE929
:102364000F0012494B6803F00C02082A02D01048EF
:1023740006B07047C3F383426244DB0312F8102CA7
:1023840004D40C4800FB02F006B070474B680848C0
:10239400C3F3404300FB02F0634413F8143CB0FB66
:1023A400F3F006B0704700BF2C3F00080010024055
:1023B40000127A0000093D00044B05495B68054A98
:1023C400C3F30223CB5C1068D8407047001002406E
:1023D400843F000800000020044B05495B68054A5F
:1023E400C3F3C223CB5C1068D8407047001002408E
:1023F400843F0008000000202DE9F04104460068F5
:1024040082B0C5072AD53A4BDA69D1003DD5394B9C
:1024140000251A68D20546D5354960680A6A12F45F
:1024240040720FD000F4407393420BD00127002672
:102434000B6A314A23F44070176016600862D807AB
:1024440045D460682A4A136A23F440730343136231
:102454001DB1D36923F08053D3612068830706D567
:10246400234AA168536823F440430B43536010F09C
:10247400100007D000201E4A6169536823F48003CA
:102484000B43536002B0BDE8F081DA69012542F0E4
:102494008052DA61DB6903F080530193019B154B91
:1024A4001A68D205B8D41A681E4642F480721A60BB
:1024B400FEF70EFE07463368DB05ADD4FEF708FED3
:1024C400C01B6428F7D9032002B0BDE8F0810E4692
:1024D400FEF7FEFD41F288378046336A9A07B0D48E
:1024E400FEF7F6FDA0EB0800B842F6D9EBE700BF13
:1024F40000100240007000404004424230B540F2F7
:10250400012587B0394B441EADF8045006AD0FCBFE
:1025140005E90F000F2C4DD8DFE804F0340D4C080A
:102524004C4C4C084C4C4C4C4C4C4C1907B0BDE832
:102534003040FFF70BBFFFF74FFF2D4B5B68C3F332
:10254400813301335B00B0FBF3F007B030BD284B9F
:102554005968186810F08070F7D006A8C1F3834258
:10256400024412F8100CCA0327D4224B03FB00F0D8
:102574001F4B5B685B02E8D41F4B4000A3FB003099
:102584004008E2E740F2023219490B6A1A40B2F5F8
:10259400817F27D003F44073B3F5007F1AD0B3F5DD
:1025A400407F07D10B684FF2244013F4003F08BF6B
:1025B4000020CAE7002007B030BD5B6806A9C3F35A
:1025C40040430B440D4A13F8143CB2FBF3F300FBF5
:1025D40003F0CDE74B6A49F6404013F0020F08BF01
:1025E4000020B2E74FF40040AFE700BF3C3F0008D3
:1025F4000010024000093D00ABAAAAAA00127A000A
:1026040000284ED090F83D3070B503F0FF02044628
:1026140063B302232268244E84F83D30B242136827
:102624006168E068A56926D006F50066B24222D04A
:10263400B2F1804F0BD0A6F59836B24207D006F51A
:102644008066B24203D006F58066B24207D1A6681E
:1026540023F070033343266923F44073334323F098
:1026640080032B431360D062916214E080F83C2015
:10267400FEF7EAFACDE7A66823F070033343266930
:1026840023F44073334323F080032B431360D0625D
:1026940091626369136301230020536184F83D3020
:1026A40070BD0120704700BF002C01400368DA6848
:1026B40042F00102DA609A6802F00702062A03D0A7
:1026C4001A6842F001021A600020704790F83C300A
:1026D400012B5AD00222F0B40125036880F83D2072
:1026E4009A680C6822F47F4222F07702402C80F82A
:1026F4003C509A6074D04AD9602C2DD056D9702C95
:102704001AD0B4F5005F0ED1D1E90152CC689968B2
:102714002A4342EA042221F47F410A439A609A68D8
:1027240042F480429A600023F0BC012280F83C30DD
:1027340080F83D2018467047D1E90152CC68996869
:102744002A4342EA042221F47F410A439A609A68A8
:1027540042F077029A60E6E71C6A4D6824F01004A0
:10276400CE681C6299691A6A21F4704122F0A002B1
:1027740042EA051241EA063199611A629A6822F026
:10278400700242F067029A60CDE702207047102C75
:1027940004D03DD9202C01D0302CC4D19A6844F007
:1027A400070422F0700214439C60BCE7502CBAD199
:1027B4001D6A1E6A4C6826F00106CF681E629A697B
:1027C40025F00A0122F0F00242EA071221439A613D
:1027D40019629A6822F0700242F057029A60A2E7E6
:1027E4001D6A1E6A4C6826F00106CF681E629A694B
:1027F40025F00A0122F0F00242EA071221439A610D
:1028040019629A6822F0700242F047029A608AE7DD
:10281400002CC3D087E700BF704700BF704700BFDC
:10282400704700BF704700BF704700BF036810B512
:102834001A690446910702D5DA6892075FD41A69C7
:10284400500702D5DA68510746D41A69120702D52F
:10285400DA6810072ED41A69D20602D5DA68D006CF
:1028640018D41A69D10702D5DA68D2075DD41A6977
:10287400100602D5DA6811065FD41A69520602D529
:10288400DA68500661D41A69910602D5DA689206AC
:1028940043D410BD6FF0100108221961DB69204692
:1028A40013F4407F227764D0FFF7BAFF0022236835
:1028B4002277D6E76FF0080104221961DB6920460C
:1028C4009907227752D1FFF7A9FF2046FFF7AAFF05
:1028D400002223682277BEE76FF004010222196107
:1028E4009B69204613F4407F22773CD1FFF796FF83
:1028F4002046FFF797FF002223682277A5E76FF0B1
:102904000201012219619B6902779B0725D0FFF719
:1029140087FF00222368227791E76FF02002204688
:10292400BDE810401A6100F04DB86FF00102204676
:102934001A61FFF771FF236899E76FF08002204660
:102944001A6100F041F8236897E76FF040022046CF
:102954001A61FFF769FF236895E7FFF75FFF2046D9
:10296400FFF760FFD5E7FFF75BFFC4E7FFF758FF0A
:10297400AEE7FFF753FF2046FFF754FF96E700BF8B
:1029840090F83C20012A1AD00222F0B40346002514
:102994000126046880F83D206068D1E9002720F012
:1029A40070011143A268284622F080023A43616014
:1029B400A26083F83D6083F83C50F0BC704702206D
:1029C400704700BF704700BF704700BF00285ED04B
:1029D40038B590F83930044603F0FF02002B51D08B
:1029E4002422236884F83920DA68E06822F400524B
:1029F400DA601969A26821F4405101431961D96868
:102A0400D4E9045021F4B0512A4321F00C010243CB
:102A14000A43DA605A69A0691F4922F440720243EA
:102A24008B425A6135D0FFF7C7FC626800EB800027
:102A3400920000EB8000B0FBF2F06422174D236893
:102A4400A5FB00C1490902FB110212013232A5FBA8
:102A54000202090101EB5212002520219A601A6931
:102A6400284622F490421A615A6922F02A025A61D5
:102A7400DA6842F40052DA60E56384F8391084F8C5
:102A84003A1038BD80F83820FEF7FCF8A8E701209A
:102A94007047FFF7A1FCC8E7003801401F85EB51E0
:102AA400F0B5044690F8390083B020282DD10E46A5
:102AB40000292DD001925AB31F4694F83830012BC7
:102AC40023D0002001212123E06384F8381084F806
:102AD4003930FEF7FDFA0546019AA284E2842268A1
:102AE400E38C9BB2002B39D0E08CA168013880B212
:102AF400B1F5805FE08419D0781C3BD110680106E1
:102B0400FCD5337801365360EAE7022003B0F0BD08
:102B1400012003B0F0BD13681B060CD4002F33D082
:102B2400FEF7D6FA401B874222682DD3781CF2D1D7
:102B340010680106FCD533882169C3F30803536088
:102B4400002934D10236CBE713685B060BD4DFB11E
:102B5400FEF7BEFA401B8742226815D3781CF3D1D6
:102B640013685906FCD52023002084F8393084F8F2
:102B74003800CBE713681B06C3D42FB1FEF7A8FABD
:102B8400401B87422268B7D2202100250320D36846
:102B940023F4D073D360536923F00103536184F8A1
:102BA400391084F8385084F83A1003B0F0BD013677
:102BB40096E700BF2DE9F041054690F83A0082B04F
:102BC400202833D10F46002934D00192002A31D075
:102BD400984695F83830012B28D000200121222373
:102BE400E86385F8381085F83A30FEF771FA06463E
:102BF400019AAA85EA85E88D80B2002861D0EA8D21
:102C0400AB68013A92B2B3F5805FEA8521D0B8F19E
:102C1400FF3F2C682CD122689206FCD52B697A1CC4
:102C2400002B43D163683B701746E4E7022002B0EF
:102C3400BDE8F081012002B0BDE8F0810B68980680
:102C44000ED4B8F1000F43D0FEF742FA801B804542
:102C54003DD3B8F1FF3F2968F0D10A689406FCD54A
:102C64002B694BBB4B68C3F3080327F8023BC2E74D
:102C740023689B06D2D4B8F1000F05D0FEF728FADA
:102C8400801B8045C3D22C6820220021E3680320E6
:102C940023F4D073E360636923F00103636185F86F
:102CA400392085F8381085F83A20C0E7636803F0C6
:102CB4007F033B7017469EE74B68DBB227F8013B66
:102CC40099E7202385F8380085F83A30AFE729687A
:102CD40020220024CB68032023F4D073CB604B69FB
:102CE40023F001034B6185F8392085F8384085F8D5
:102CF4003A209CE790F83A30202B20D109B302B354
:102D040090F83830012B1AD030B4002322250468FF
:102D1400C285C36380F83A50E568828545F48075BE
:102D240080F838308162E5606269184642F0010239
:102D34006261E36843F02003E36030BC7047022023
:102D440070470120704700BF704700BF10B584680A
:102D54000169B4F5805F836A026820D05C1C526804
:102D64008462C9B91A70C38D013B9BB2C3858BB908
:102D740020240268D16821F02001D160D16821F4B7
:102D84008071D160516921F00101516180F83A40AC
:102D9400FDF718FE002010BD02F07F02E2E7526842
:102DA40029B9C2F3080223F8022B8362DBE7D2B20B
:102DB40023F8012B8362D6E7704700BF036870B520
:102DC4001A6804461607DD6859694AD011F00101F2
:102DD40050D0D60705D5E80503D5E06B40F00100D7
:102DE400E063560702F0020076D561B1E16B02F0B0
:102DF400080641F00201E163002872D11EB1E16BC3
:102E040041F00801E163E16B002932D0960601D557
:102E1400A80674D45D69E16B090702D415F0400576
:102E24007AD02021DA6822F49072DA605A6922F0AA
:102E340001025A6184F83A105A6952065BD55A69FC
:102E4400616B22F040025A61002954D03B4B084682
:102E54004B63FEF733FD60B1606BBDE87040436BBC
:102E64001847960609D5A90607D590F83A30222BBB
:102E74004ED070BD15F4907FABD116060ED451061A
:102E8400F7D56A06F5D52021DA68204622F04002FB
:102E9400DA6084F83910FFF757FF70BD2806EED5C5
:102EA40094F83920212AE4D1A168226AB1F5805F1F
:102EB40037D0511C216212785A60E28C013A92B2E6
:102EC400E284002AD5D1DA6822F08002DA60DA6876
:102ED40042F04002DA6070BD40B1002993D002F0A4
:102EE4000806E16B41F00401E16387E710078AD526
:102EF400002984D187E72046FFF75EFF70BD94F870
:102F04003A20222A86D12046FFF720FF236881E752
:102F1400BDE87040FFF71ABF2046FFF74DFFE56399
:102F240070BD11882069C1F30801596010B90232DB
:102F34002262C2E701322262BFE700BF452F0008C8
:102F4400002208B5436ADA851846DA84FFF734FFAD
:102F540008BD00BF014B1868704700BF0C0000207B
:102F640070B500250C4E0D4CA41BA410A54209D12C
:102F740000F0CEFF00250A4E0A4CA41BA410A54263
:102F840005D170BD56F8253098470135EEE756F85F
:102F9400253098470135F2E7244000082440000812
:102FA400244000082840000803460244934200D10C
:102FB400704703F8011BF9E70FB40A4B13B51C68FB
:102FC40024B1A36913B9204600F0B4F905AB049AFF
:102FD400A1682046019300F071FB02B0BDE81040E7
:102FE40004B070470C00002000294FF480630CBF2C
:102FF4000222002200F000B82DE9F7431D46514B90
:1030040004461E680F46904626B1B36913B930468C
:1030140000F090F94C4B9C4252D17468B8F1020F05
:1030240006D0B8F1010F00F28980002DC0F286802D
:103034002146304600F014F9616B41B104F14403B8
:10304400994202D0304600F06BFA002363630023F8
:10305400A3616360A3891B0603D52169304600F090
:103064005FFAA389B8F1020F23F44A6323F0030340
:10307400A3815DD001AB6A462146304600F0E4F9F5
:10308400A3891843A0812DBB009D284600F040FA77
:10309400074600284ED1DDF80090A9453CD14FF0F9
:1030A400FF30A38943F00203A3810023A36004F14A
:1030B4004703236023610123636103B0BDE8F08308
:1030C400224B9C4201D1B468A8E7214B9C4208BF23
:1030D400F468A3E7002FD8D0B36913B9304600F0E1
:1030E40029F9B8F1010F08BFA389276004BF43F091
:1030F4000103A381A389C4E9047513F008001BD05C
:1031040013F001004FF000031FBF6D42A360A561DF
:10311400184608BFA560D0E7484600F0F9F907460D
:103124000028BCD0A3894D4643F08003A381D3E794
:103134000020B6E7A946F5E7A060BEE74FF0FF30F0
:10314400BBE700BF0C000020B03F0008D03F0008E0
:10315400903F00088A892DE9F041054610070C4686
:1031640058D44B68002B05DC0B6C002B02DC0020D0
:10317400BDE8F081E66A002EF9D0002312F48052F3
:103184002F68216A2B6032D0606DA3895A0705D558
:103194006368C01A636B0BB1236CC01A0023024628
:1031A400E66A216A2846B047431CA38906D12968E8
:1031B4001D2948D8294ACA40D60744D5002262604E
:1031C4002269D904226004D5421C01D12B6803B9B9
:1031D4006065616B2F600029C9D004F144039942F2
:1031E40002D0284600F09CF900206063C0E7012368
:1031F4002846B047411CC8D12B68002BC5D01D2BD5
:1032040001D0162B01D12F60B1E7A38943F040030D
:10321400A381ADE70F69002FA9D0930718BF00233E
:103224000E6808BF4B69A6EB07080F608B60B8F106
:10323400000F9CDD43463A46216A2846A66AB047F9
:10324400002806DCA38943F04003A3814FF0FF303C
:103254008EE70744A8EB0008E9E700BF010040201F
:1032640038B50B6905460C46DBB118B183690BB957
:1032740000F060F80C4B9C4209D16C68B4F90C3036
:103284007BB121462846BDE83840FFF763BF074BB2
:103294009C4201D1AC68F1E7054B9C4208BFEC6845
:1032A400ECE7002038BD00BFB03F0008D03F000865
:1032B400903F0008002310B50446C0E90033836042
:1032C40081814366C281C0E90433836119460822BF
:1032D4005C30FFF769FE054B24626362044BA36212
:1032E400044BE362044B236310BD00BF1D3C000884
:1032F4003F3C0008773C00089B3C0008014900F073
:1033040085B800BF6532000870B568254A1E55436C
:103314000E4605F1740100F04FF9044640B1002156
:10332400C0E900160C30A06005F16802FFF73CFE0E
:10333400204670BD836910B5044633BBC0E912331F
:103344000365124B124A1B688262984204BF012330
:10335400836100F01FF86060204600F01BF8A06055
:10336400204600F017F80022E06004216068FFF7AF
:10337400A1FF01220921A068FFF79CFF022212216C
:10338400E068FFF797FF0123A36110BD8C3F00089D
:1033940001330008F8B51B4B07461E68B36913B91F
:1033A4003046FFF7C7FF4836D6E90134013B03D561
:1033B400336833B13668F7E7B4F90C506DB168344B
:1033C400F4E704213846FFF79FFF30600028F1D16D
:1033D4000C2304463B602046F8BD0B4B6566C4E9EC
:1033E4000055A560C4E90335C4E9055508222946FA
:1033F40004F15C00FFF7D8FDC4E90D55C4E912558A
:10340400E9E700BF8C3F00080100FFFF2DE9F84306
:1034140080468946002600F1480414B93046BDE8C8
:10342400F883D4E90175013F01D52468F5E7AB8938
:10343400012B07D9B5F90E30013303D02946404694
:10344400C84706436835EEE770B50E46B1F90E106D
:1034540096B0002914461D4607DA00232B60B38971
:103464001A0610D44FF480630EE06A4600F0FAFCAA
:103474000028F2DB019A02F47042A2F500535A428A
:103484005A412A60EEE740230020236016B070BD45
:103494008B8973B59D0706460C4607D504F147038F
:1034A400236023610123636102B070BD01AB6A46EE
:1034B400FFF7CAFF00990546304600F07DF848B989
:1034C400B4F90C309A05EFD423F0030343F002035C
:1034D400A381E3E70D4BB362A389206043F080032B
:1034E400A381009B20616361019B5BB1B4F90E1061
:1034F400304600F0C9FC28B1A38923F0030343F04C
:103504000103A381A3891D43A581CDE701330008ED
:10351400024B0146186800F04FB800BF0C000020B1
:1035240038B50546002943D051F8043C0C1F002B44
:10353400B8BFE41800F0D8FC1E4A1368104633B92B
:10354400636014602846BDE8384000F0CEBCA34256
:103554000BD921686218934201BF1A685B6852183C
:10356400226063600460EDE713465A680AB1A24220
:10357400FAD919685818A0420BD120680144581888
:1035840082421960DED110685268014419605A60A1
:10359400D8E702D90C232B60D4E7206821188A428B
:1035A40001BF116852680918216062605C60C9E754
:1035B40038BD00BFB800002070B5CD1C25F0030550
:1035C40008350C2D38BF0C25002D064601DBA94219
:1035D40003D90C233360002070BD00F085FC214A20
:1035E4001468214691B9204C23681BB9304600F079
:1035F40003FB20602946304600F0FEFA431C24D128
:103604000C233046336000F070FCE4E70B685B1B6E
:1036140018D40B2B0FD90B60CC18CD50304600F0CA
:1036240064FC04F10B00231D20F00700C31AD3D05F
:103634005A42E250D0E74B688C4216BF6360136075
:103644000C46EBE70C464968CCE7C41C24F00304A1
:10365400A04205D0211A304600F0CEFA0130CFD076
:103664002560DBE7B8000020BC000020936810B49C
:10367400013B002B936007DA9469A34201DB0A291A
:1036840002D110BC00F00CBB1368581C10601970F8
:10369400084610BC7047F8B506460F461446D518C0
:1036A400AC4201D1002007E03A4614F8011B304631
:1036B400FFF7DCFF431CF3D1F8BD00002DE9F04F08
:1036C4000C469DB017461D46064618B183690BB9D2
:1036D400FFF730FE7C4B9C4258D17468A3891807CD
:1036E4005ED52369002B5BD00023099320238DF83A
:1036F400293030234FF0010B8DF82A300395B8465A
:10370400454615F8013B0BB1252B54D1B8EB070AFC
:103714000BD053463A4621463046FFF7BCFF0130F2
:1037240000F0C280099B5344099398F80030002BA1
:1037340000F0BA8000234FF0FF32CDE90523049353
:1037440007938DF853301A93A846052218F8011BE5
:103754005E4800F0BBFB049B78BBD90644BF202223
:103764008DF853201A0744BF2B228DF853202A7852
:103774002A2A2AD0A84600200A25079A414611F889
:10378400013B303B092B69D960B324E0504B9C4288
:1037940001D1B468A2E74F4B9C4208BFF4689DE78F
:1037A4002146304600F0E0FA00289DD04FF0FF306B
:1037B4001DB0BDE8F08FA846A2E7444A4546801AEA
:1037C4000BFA00F018430490BEE7039A111D126827
:1037D4000391002A01DB079204E0524243F0020302
:1037E4000792049398F800302E2B0ED198F80130EC
:1037F4002A2B38D1039B08F102081A1D1B68039277
:10380400002BB8BF4FF0FF330593334D032298F8D4
:103814000010284600F05AFB40B14023401B03FA35
:1038240000F0049B08F101080343049398F8001086
:1038340006222A4808F101078DF8281000F046FBFB
:10384400002837D0264B1BBB039B073323F0070309
:1038540008330393099B4B44099350E705FB023259
:10386400012088468AE700230A25194608F1010841
:103874000593404610F8012B303A092A03D9002B4E
:10388400C3D00591C1E705FB012101238046F0E780
:1038940003AB00932246134B04A93046AFF30080D8
:1038A400B0F1FF3F8146D5D1A3895B063FF57EAFDA
:1038B40009987DE703AB009322460A4B04A93046DE
:1038C40000F088F8ECE700BFB03F0008F03F0008C4
:1038D400D03F0008903F0008F63F0008FA3F000878
:1038E400000000009B3600082DE9F04791461F4672
:1038F4008A680B6906469342B8BF1346C9F800307C
:1039040091F843200C46DDF8208012B10133C9F848
:1039140000302368990642BFD9F800300233C9F851
:103924000030256815F0060507D104F1190AE3688B
:10393400D9F800209B1AAB4229DC94F84330226862
:10394400003318BF012392062ED404F143023946F2
:103954003046C047013021D02368E56803F00603F0
:10396400042B18BF0025D9F800204FF0000908BF28
:10397400AD1AA368226908BF25EAE5759342C4BF5E
:103984009B1AED181A344D451AD1002008E0012382
:10399400524639463046C047013003D14FF0FF301C
:1039A400BDE8F0870135C2E73020E11881F8430013
:1039B4005A1C94F845102244023382F84310C4E799
:1039C4000123224639463046C0470130E6D009F18A
:1039D4000109D8E72DE9F04301F1430C0C46097EB7
:1039E40085B06E291746064698460C9A00F0B380B7
:1039F40022D8632936D00AD8002900F0B980582982
:103A040000F0838004F1420584F8421032E0642916
:103A140001D06929F6D120681368050603F1040171
:103A24002AD51B681160002B03DA2D225B4284F82F
:103A340043206F480A2239E0732900F09D8008D89A
:103A44006F2920D07029DDD1236843F0200323603F
:103A540003E0752917D07829D4D17823654884F8F0
:103A6400453055E0136804F14205191D1B681160C7
:103A740084F8423001238CE01B6810F0400F116081
:103A840018BF1BB2CFE713682568181D10602806FD
:103A940001D51B6802E06806FBD51B886F2914BF9B
:103AA4000A2208225248002184F843106568002D38
:103AB400A560C0F29580216821F004012160002BEB
:103AC4003DD1002D40F08E806546082A0BD1236835
:103AD400DB0708D5236962689A42DEBF302305F804
:103AE400013C05F1FF35ACEB05032361CDF8008003
:103AF4003B4603AA21463046FFF7F6FE01304DD17E
:103B04004FF0FF3005B0BDE8F083394884F8451024
:103B1400136821681D1D1B6815600A060BD5CA07AA
:103B240044BF41F0200121601BB9226822F0200229
:103B340022601022B7E74D0648BF9BB2EFE7654607
:103B4400B3FBF2F102FB1133C35C05F8013D0B46F4
:103B54000029F5D1B9E713682568181D616910605B
:103B640028061B6801D5196002E06A06FBD5198096
:103B7400002365462361B9E71368191D11601D68A8
:103B840062680021284600F0A1F908B1401B60607A
:103B940063682361002384F84330A7E723692A4636
:103BA40039463046C0470130AAD023689B0713D456
:103BB400E068039B9842B8BF1846A3E701234A462E
:103BC40039463046C04701309AD00135E368039A3C
:103BD4009B1AAB42F2DCEBE7002504F11909F5E787
:103BE400002BACD1037804F1420584F842306CE731
:103BF400014000081240000838B50023054C054672
:103C040008462360FDF7B6F9431C02D1236803B1CB
:103C14002B6038BD4C0C002010B50C46B1F90E10C9
:103C240000F064F90028ABBF636DA3891B1823F46B
:103C34008053ACBF6365A38110BD2DE9F0411F46DD
:103C44008B890546DB050C46164605D50223002262
:103C5400B1F90E1000F028F9A389324623F48053F9
:103C6400A381B4F90E103B462846BDE8F04100F0AC
:103C740069B810B50C46B1F90E1000F015F9431CE3
:103C8400A38915BF606523F4805343F48053A38153
:103C940018BFA38110BDB1F90E1000F0D3B8000015
:103CA400F8B50E461446054618B183690BB9FFF7FB
:103CB40041FB214B9C422AD16C68A369A360A38970
:103CC4001A072ED5236963B323692068F6B2C01A94
:103CD40063693746834204DC21462846FFF7C0FA6D
:103CE40028BBA3680130013BA36023685A1C2260EF
:103CF4001E706369834204D0A389DB0719D50A2E99
:103D040017D121462846FFF7ABFA90B10FE00B4BD1
:103D14009C4201D1AC68D0E7094B9C4208BFEC68D7
:103D2400CBE72146284600F01FF80028CCD04FF0FE
:103D3400FF373846F8BD00BFB03F0008D03F000849
:103D4400903F000838B50546084611460022054C48
:103D540022601A46FCF7E0FD431C02D1236803B13C
:103D64002B6038BD4C0C0020324B70B51D680646E4
:103D74000C4625B1AB6913B92846FFF7DBFA2E4B85
:103D84009C420FD16C68B4F90C309AB215072CD44C
:103D9400D00611D40922326043F04003A3814FF0CE
:103DA400FF303EE0254B9C4201D1AC68EBE7244B4D
:103DB4009C4208BFEC68E6E7510712D5616B41B13C
:103DC40004F14403994202D03046FFF7A9FB0023D3
:103DD4006363A38923F02403A3810023636023691D
:103DE4002360A38943F00803A38123694BB9A38902
:103DF40003F42073B3F5007F03D021463046FFF768
:103E040047FBA28912F001030CD00023A36063696D
:103E14005B42A361236953B9B4F90C3013F08000F9
:103E2400BAD170BD920758BF6369A360F2E700205E
:103E3400F7E700BF0C000020B03F0008D03F0008A7
:103E4400903F000838B50023054C0546084623601A
:103E5400FCF77CFD431C02D1236803B12B6038BD01
:103E64004C0C002038B50023064C05460846114684
:103E74002360FCF799FD431C02D1236803B12B6036
:103E840038BD00BF4C0C002038B50023054C054656
:103E940008462360FCF732FD431C02D1236803B1BA
:103EA4002B6038BD4C0C002038B505460846114639
:103EB4000022054C22601A46FCF756FD431C02D131
:103EC400236803B12B6038BD4C0C002010B5C9B277
:103ED40002449042034601D1002303E01C780130E0
:103EE4008C42F6D1184610BD7047704738B5054668
:103EF400084611460022054C22601A46FCF73CFD98
:103F0400431C02D1236803B12B6038BD4C0C002044
:103F1400F8B500BFF8BC08BC9E467047F8B500BFB2
:083F2400F8BC08BC9E46704782
:103F2C0002030405060708090A0B0C0D0E0F1010EE
:103F3C0002030405060708090A0B0C0D0E0F1010DE
:103F4C005B25645D2053746172740A000A0943692D
:103F5C007263756C6172205175657565204F76655D
:103F6C0072666C6F772E00000000000000000000ED
:103F7C000102030406070809000000000102030403
:103F8C0010000020000000000000000000000000F5
:103F9C000000000000000000000000000000000015
:103FAC000000000000000000000000000000000005
:103FBC0000000000000000000000000000000000F5
:103FCC0000000000000000000000000000000000E5
:103FDC0000000000000000000000000000000000D5
:103FEC0000000000232D302B2000686C4C0065660F
:103FFC00674546470030313233343536373839412E
:10400C004243444546003031323334353637383943
:08401C00616263646566000047
:044024000902000885
:04402800E5010008A6
:10402C000024F4000100000010000000100000202B
:10403C0000000000B03F0008D03F0008903F00088F
:10404C000000000000000000000000000000000064
:10405C000000000000000000000000000000000054
:10406C000000000000000000000000000000000044
:10407C000000000000000000000000000000000034
:10408C000000000000000000000000000000000024
:0400000508001005DA
:00000001FF
